:020000040800F2
:1000000000200020F91200084913000849130008D5
:1000100000000000000000000000000000000000E0
:10002000000000000000000000000000491300086C
:1000300000000000000000004913000855070008F8
:100040004913000849130008491300084913000820
:100050004913000849130008491300084913000810
:100060000000000049130008491300084913000864
:1000700049130008491300084913000849130008F0
:1000800049130008000000000000000049130008A8
:100090000000000049130008491300084913000834
:1000A0004913000849130008491300089507000880
:0C00B00049130008491300084913000818
:1000BC0010B5064C2378002B07D1054B002B02D032
:1000CC00044800E000BF0123237010BD6C00002029
:1000DC0000000000A0240008044B10B5002B03D036
:1000EC000349044800E000BF10BDC04600000000FA
:1000FC0070000020A024000803B471464908400099
:10010C004900095E49008E4403BC70470022430835
:10011C008B4274D303098B425FD3030A8B4244D3C3
:10012C00030B8B4228D3030C8B420DD3FF22090205
:10013C0012BA030C8B4202D31212090265D0030BC4
:10014C008B4219D300E0090AC30B8B4201D3CB03BA
:10015C00C01A5241830B8B4201D38B03C01A5241FC
:10016C00430B8B4201D34B03C01A5241030B8B42FE
:10017C0001D30B03C01A5241C30A8B4201D3CB02E9
:10018C00C01A5241830A8B4201D38B02C01A5241CE
:10019C00430A8B4201D34B02C01A5241030A8B42D1
:1001AC0001D30B02C01A5241CDD2C3098B4201D3E9
:1001BC00CB01C01A524183098B4201D38B01C01A67
:1001CC00524143098B4201D34B01C01A52410309DE
:1001DC008B4201D30B01C01A5241C3088B4201D38D
:1001EC00CB00C01A524183088B4201D38B00C01A3A
:1001FC00524143088B4201D34B00C01A5241411A61
:10020C0000D20146524110467047FFE701B500206D
:10021C0000F006F802BDC0460029F7D076E770471B
:10022C007047C04680B500AF034B180001F04AF888
:10023C00C046BD4680BDC046B824000880B500AF9E
:10024C00034B180001F03EF8C046BD4680BDC046C9
:10025C00C024000880B500AF034B180001F032F841
:10026C00C046BD4680BDC046C824000880B500AF5E
:10027C00034B180001F026F8C046BD4680BDC046B1
:10028C00D024000880B584B000AF0023FB60214B64
:10029C009B68BB601F4B5A681F4B20495A5025E086
:1002AC001D4B1F4A9B5A002B20D01A4B5A681A4BD5
:1002BC001A495B58D31A642B18D9174B1A68194B67
:1002CC001A60184B1B68184A93420FD1174B7B606E
:1002DC007B68180001F033F803001A00114B5A60C8
:1002EC00104B01221A720123FB6005E0094B9A683E
:1002FC00BB68D31A022BD3D9074B094A0021995258
:10030C00054A80231B010021D152FB681800BD4611
:10031C0004B080BDA4000020C00000200408000030
:10032C0008080000880000202A534B53C40000200A
:10033C0080B584B000AF78603A4B7A681A60FFF7EA
:10034C0071FF394B9B68FB60374B5A68374B384908
:10035C005A5056E0344B5A68344B35495B58D21AD4
:10036C00344B1A60314B344A9B5A002B49D0314BD9
:10037C001B68642B45D92F4B1B68013341D02A4B8A
:10038C009B68FB60294B2C4A9A5A80231B019A428A
:10039C000CD0244B1A6880231B019A4206D3FFF71A
:1003AC0065FF264B01221A60002337E0244B1B68A3
:1003BC0098B21E4B204A9A5A1C4B190000F008F9AF
:1003CC00031E01D1002329E0174B5A68174B18491B
:1003DC005A50144B1B68154A1749525A9A1A114B0A
:1003EC001A60174B1B685A1C154B1A600F4B124A9C
:1003FC00002199520D4A80231B010021D152FFF795
:10040C001DFF084B1B68002B05D0074B9A68FB6837
:10041C00D31A042B9ED9FFF71DFF01231800BD46EC
:10042C0004B080BD94000020A4000020C000002077
:10043C00040800009C000020080800009800002020
:10044C000000002080B584B000AF114B7B6000F041
:10045C0087FB104B00221A600E4B00225A600D4B8A
:10046C0000229A6072B6C0460B4B01221A607B6860
:10047C0004331B68FB607B681B68BB60BB6883F341
:10048C000888C046FB689847C046BD4604B080BD8E
:10049C000028000810E000E00000014080B500AF2B
:1004AC00044B5A69034B802109060A435A61C04622
:1004BC00BD4680BD0020024080B500AF064B5B6995
:1004CC00002B05DA044B054A9A60034B044A9A60E8
:1004DC00C046BD4680BDC046002002402301674592
:1004EC00AB89EFCD80B582B000AF7860C0461A4BB7
:1004FC001A6980235B021340F9D1174B5A69164BCA
:10050C0002210A435A61144B59697B68DB00134A78
:10051C001A40114B0A435A610F4B5A690E4B8021FA
:10052C0049020A435A61C0460B4B1A6980235B028D
:10053C001340F9D1084B5A69074B09490A405A61D3
:10054C00054B5A69044B02218A435A610123180056
:10055C00BD4602B080BDC04600200240F81F00001E
:10056C00FFFFFEFFB0B584B000AFF8603A607B606F
:10057C00C046164B1A6980235B021340F9D1134B0A
:10058C005A69124B01210A435A61FB683A681A6096
:10059C00BFF36F8FC0467B681C0000231D00FB68F7
:1005AC00043322001A60C046084B1A6980235B0290
:1005BC001340F9D1054B5A69044B01218A435A6106
:1005CC0001231800BD4604B0B0BDC0460020024057
:1005DC0080B586B000AF39601100BB1D021C1A80BB
:1005EC003B1D0A1C1A80BB1D1B888022520294469C
:1005FC006344DB027B613B683B61FFF75DFF184B9B
:10060C001A69174B31218A431A61BB1D1B881800CC
:10061C00FFF768FF0023FB6015E03B691A685B6815
:10062C0079690800FFF79EFF031E03D1FFF736FF21
:10063C00002310E0FB680833FB603B6908333B6127
:10064C007B6908337B613B1D1B88FA689A42E4DBAB
:10065C00FFF724FF01231800BD4606B080BDC0463D
:10066C000020024080B500AFBFF34F8FC046044B53
:10067C00044ADA60BFF34F8FC046C046FDE7C04660
:10068C0000ED00E00400FA0580B586B000AFF8601C
:10069C00B9607A6000237B6109E0BB685A1CBA60C0
:1006AC001B78180000F032FB7B6901337B617A699F
:1006BC007B689A42F1DB7B681800BD4606B080BDB2
:1006CC0080B500AF00F02EF8114A124B1100180043
:1006DC0000F0F8FDFFF7D6FD031E15D00E4B5B683E
:1006EC001800FFF725FE031E10D00C4B180000F06D
:1006FC00E9FD0B4B180000F05BFE0300DBB21800A9
:10070C0000F026FCFFF7AEFFFFF79CFEFEE7C046AD
:10071C00D8240008E824000888000020EC240008F5
:10072C000825000880B500AF00F088F900F0E4FA65
:10073C00034B044A1A6000231800BD4680BDC04616
:10074C00D0080020190D000880B500AF0D4B5B6878
:10075C005A1C0C4B5A600B4B1B685A1C094B1A60E9
:10076C00084B1A68FA239B009A4207D3054B0022C8
:10077C001A60044B9B685A1C024B9A60C046BD46DB
:10078C0080BDC046A400002080B582B000AF1C4BD9
:10079C00DB69202213402ED01A4B1B685A1C194BB4
:1007AC001A60174B5A6AFB1D1A70174A80231B01DB
:1007BC00D35A1900144BFA1D12785A54124A80233A
:1007CC001B01D35A013399B20F4A80231B01D1521A
:1007DC000D4B0E4A9B5A013399B20B4B0B4A995253
:1007EC000B4B5A68084B0B495A50054B1A6A044B71
:1007FC0008210A431A62C046BD4602B080BDC046FD
:10080C0000380140A0000020C000002008080000B3
:10081C00A40000200408000080B586B000AFF8608A
:10082C00B9607A6000237B610AE000E000BF010040
:10083C00BB685A1CBA60CAB21A707B6901337B61FF
:10084C007A697B689A42F0DB7B681800BD4606B07B
:10085C0080BD80B582B000AF786001235B42180088
:10086C00BD4602B080BD80B582B000AF7860396003
:10087C003B68802292015A6000231800BD4602B0EA
:10088C0080BD80B582B000AF786001231800BD46F2
:10089C0002B080BD80B584B000AFF860B9607A60FA
:1008AC0000231800BD4604B080BD000080B586B0A2
:1008BC0000AF7860144A154BD31A7B617B693B619E
:1008CC00134B1B68002B02D1114B124A1A60104BB0
:1008DC001A687B68D3183A699A4207D200F036FD41
:1008EC0003000C221A6001235B4209E0084B1B68D1
:1008FC00FB60074B1A687B68D218054B1A60FB68C3
:10090C001800BD4606B080BD002000200004000089
:10091C00CC080020E808002090B583B000AF02009E
:10092C003960FB1D1A70FB1D1B787F2B28D82F4AB2
:10093C00FB1D1B785BB29B08C0339B009B58FA1DB8
:10094C001278110003220A40D200FF2191400A00C4
:10095C00D2431A4011003B689B01FF221A40FB1D39
:10096C001B78180003230340DB009A401F48FB1D33
:10097C001B785BB29B080A43C0339B001A5031E0D2
:10098C001B4AFB1D1B7819000F230B40083B9B08CF
:10099C0006339B00D31804331B68FA1D1278110020
:1009AC0003220A40D200FF2191400A00D2431A4090
:1009BC0011003B689B01FF221A40FB1D1B7818009D
:1009CC0003230340DB009A400948FB1D1B781C00E5
:1009DC000F232340083B9B080A4306339B00C31894
:1009EC0004331A60C046BD4603B090BD00E100E080
:1009FC0000ED00E080B582B000AF78607B685A1ED5
:100A0C0080235B049A4201D3012310E00A4B7A68DD
:100A1C00013A5A6001235B4203211800FFF77CFF67
:100A2C00054B00229A60044B07221A600023180021
:100A3C00BD4602B080BDC04610E000E080B500AFFE
:100A4C0000F028F800F018F8C046BD4680BD000044
:100A5C0080B582B000AF78607B68042B05D1054B64
:100A6C001A68044B04210A431A60C046BD4602B002
:100A7C0080BDC04610E000E080B500AF0420FFF759
:100A8C00E7FFFA231B021800FFF7B4FFC046BD4670
:100A9C0080BD000080B500AF2B4B1A682A4B80211B
:100AAC0049020A431A60C046274B1A6880239B02EE
:100ABC001340F9D0254B1A68244B822149000A4374
:100ACC001A60214B9A68204B21490A409A601E4BB0
:100ADC009A681D4B1F490A409A601B4BDA681A4BE7
:100AEC0003210A43DA60184BDA68174B1A490A409B
:100AFC00DA60154BDA68144B18490A43DA60124B6A
:100B0C001A68114B802149040A431A60C0460E4BE7
:100B1C001A6880239B041340F9D00B4B9A680A4B3C
:100B2C0007218A439A60084B9A68074B02210A43B3
:100B3C009A60C046044B9B6838221340102BF9D1A5
:100B4C00C046C046BD4680BD001002400020024099
:100B5C00FFF0FFFFFF8FFFFF8F80FF1F031000319F
:100B6C0080B500AF1D4B1A681C4B802149000A430D
:100B7C001A60C046194B1A688023DB001340F9D069
:100B8C00164B8022D2015A60144B00229A6003E06B
:100B9C00124B802252001A60104B9B683822134073
:100BAC00F6D10E4B802252001A6003E00B4B8022D0
:100BBC005201DA60094B1A6880239B041340F5D16B
:100BCC00064B00229A61054B012252421A62044BD9
:100BDC00044A1A60C046BD4680BDC04600100240A3
:100BEC00040000200024F40080B582B000AF0200A5
:100BFC00FB1D1A70FB1D1B787F2B09D8FB1D1B7866
:100C0C001A001F231A40044B012191400A001A605C
:100C1C00C046BD4602B080BD00E100E090B583B097
:100C2C0000AF02003960FB1D1A70FB1D1B787F2B77
:100C3C0028D82F4AFB1D1B785BB29B08C0339B0046
:100C4C009B58FA1D1278110003220A40D200FF2192
:100C5C0091400A00D2431A4011003B689B01FF22CD
:100C6C001A40FB1D1B78180003230340DB009A403D
:100C7C001F48FB1D1B785BB29B080A43C0339B00CB
:100C8C001A5031E01B4AFB1D1B7819000F230B4037
:100C9C00083B9B0806339B00D31804331B68FA1DD2
:100CAC001278110003220A40D200FF2191400A0061
:100CBC00D2431A4011003B689B01FF221A40FB1DD6
:100CCC001B78180003230340DB009A400948FB1DE6
:100CDC001B781C000F232340083B9B080A43063358
:100CEC009B00C31804331A60C046BD4603B090BDC8
:100CFC0000E100E000ED00E080B500AF9623DB01E1
:100D0C00180000F02BF8C046BD4680BD80B582B0FF
:100D1C0000AF0200FB1D1A70FB1D1B78180000F0C1
:100D2C0005F8C046BD4602B080BD000080B582B05B
:100D3C0000AF0200FB1D1A70C046074BDB69802216
:100D4C001340802BF9D1044BFA1D12789A62C046DD
:100D5C00BD4602B080BDC0460038014080B582B0AF
:100D6C0000AF7860704B5A6B6F4B01210A435A638A
:100D7C006D4B1A6C6C4B8021C9010A431A64A02379
:100D8C00DB051A68A023DB0568490A401A60A0231A
:100D9C00DB051A68A023DB05802109030A431A60CE
:100DAC00A023DB055A68A023DB0561490A405A6081
:100DBC00A023DB05DA68A023DB055C490A40DA6076
:100DCC00A023DB059A68A023DB0558490A409A60EA
:100DDC00A023DB051A68A023DB0556490A401A60DC
:100DEC00A023DB051A68A023DB05802189030A43B5
:100DFC001A60A023DB055A68A023DB054E490A4084
:100E0C005A60A023DB05DA68A023DB0549490A40B8
:100E1C00DA60A023DB059A68A023DB0545490A406C
:100E2C009A60A023DB055A6AA023DB0510210A4334
:100E3C005A62A023DB055A6AA023DB0520218A43D2
:100E4C005A62A023DB055A6AA023DB0540218A43A2
:100E5C005A62A023DB055A6AA023DB0580218A4352
:100E6C005A62A023DB055A6AA023DB0580214900C6
:100E7C000A435A62A023DB055A6AA023DB052C49DE
:100E8C000A405A62A023DB055A6AA023DB052A49D3
:100E9C000A405A62A023DB055A6AA023DB052749C6
:100EAC000A405A62264B00221A60254B1A68244BC2
:100EBC0024490A401A60224B1A68214B1E490A40E9
:100ECC001A601F4B1A681E4B08210A431A601C4BF0
:100EDC001A681B4B04210A431A60194B1A68184BE9
:100EEC0019490A401A60164BDA6A154B0F210A4051
:100EFC00DA62134B154ADA60114B1A68104B202139
:100F0C000A431A6000211B20FFF788FE1B20FFF705
:100F1C006BFE0B4B1A680A4B01210A431A60C04640
:100F2C00BD4602B080BDC04600100240FFFFF3FF7B
:100F3C00FFFDFFFFFFFFCFFFFFFBFFFFFFF7FFFFF3
:100F4C0000380140FFFFFFEFFF7FFFFF050D0000A2
:100F5C0080B582B000AF0200FB1D1A700C4B1B68F1
:100F6C00002B08D00A4B1B68591C094A1160FA1D4A
:100F7C0012781A7009E0074B1B68002B05D0054B43
:100F8C001B68FA1D127810009847BD4602B080BD50
:100F9C00D4080020D008002080B582B000AF786063
:100FAC0006E07B685A1C7A601B781800FFF7D0FFAC
:100FBC007B681B78002BF4D1C046C046BD4602B0FE
:100FCC0080BD000090B58FB000AF786039607B6851
:100FDC005A1C7A601F217A181B7813700A00BB18F0
:100FEC001B78002B00D164E1BB181B78252B05D096
:100FFC00BB181B781800FFF7ABFF59E100237B628D
:10100C007B685A1C7A601F217A181B7813707B1826
:10101C001B78302B08D101237B627B685A1C7A60C9
:10102C007A181B7813700CE01F217B181B782D2B62
:10103C0007D102237B627B685A1C7A607A181B7872
:10104C0013700023BB6211E0BA6A13009B009B185B
:10105C005B001A001F217B181B78D318303BBB6236
:10106C007B685A1C7A607A181B7813701F22BB1885
:10107C001B782F2B03D9BB181B78392BE4D91F22D3
:10108C00BB181B786C2B03D0BB181B784C2B0AD1CC
:10109C007B6A042213437B627B685A1C7A601F2292
:1010AC00BA181B7813701F22BB181B78002B00D1A9
:1010BC0001E11E217B18BA1812781A707B181B7864
:1010CC00602B04D97B187A181278203A1A701E23D8
:1010DC00FB181B78423B162B47D89A00784BD31839
:1010EC001B689F463B681A1D3A601B68BB61002356
:1010FC00FB6202E0FB6A0133FB62BA69FB6AD3183C
:10110C001B78002BF6D102E02020FFF721FF7B6A31
:10111C000222134005D1FB6A5A1CFA62BA6A9A423F
:10112C00F2D8BB691800FFF737FF02E02020FFF769
:10113C000FFFFB6A5A1CFA62BA6A9A42F6D8B7E0F9
:10114C003B681A1D3A601B68DBB21800FFF700FF02
:10115C00AEE002237B630FE008237B630CE00A23E1
:10116C007B6309E010237B6306E01F23FB181B78CD
:10117C001800FFF7EDFE9BE07B6A0422134004D0BD
:10118C003B681A1D3A601B680DE01E23FB181B7888
:10119C00442B04D13B681A1D3A601B6803E03B6882
:1011AC001A1D3A601B683B621E23FB181B78442BEC
:1011BC0009D13B6A002B06DA3B6A5B423B627B6AD5
:1011CC00082213437B6200233B633B6A796B180054
:1011DC00FFF722F80B001A001E243B191A70796BCA
:1011EC00386AFEF793FF03003B623B191B78092B0F
:1011FC000DD91F23FB181B78782B01D1272300E076
:10120C0007231E217A18791809785B1813703B6B29
:10121C005A1C3A631E22BA1812783032D1B2082204
:10122C00BA18D1543B6A002B02D03B6B0F2BCCD994
:10123C007B6A0822134006D03B6B5A1C3A63082287
:10124C00BA182D21D1543B6BFB627B6A01221340EF
:10125C0001D0302200E020221E23FB181A7005E07A
:10126C001E23FB181B781800FFF772FE7B6A022204
:10127C00134005D1FB6A5A1CFA62BA6A9A42EFD83B
:10128C003B6B013B3B630823FA183B6BD3181B7871
:10129C001800FFF75DFE3B6B002BF1D102E0202024
:1012AC00FFF756FEFB6A5A1CFA62BA6A9A42F6D8E3
:1012BC008DE6C04600E0C046C046BD460FB090BDAE
:1012CC00182500080FB480B582B000AF1423FB18AA
:1012DC007B607A683B6911001800FFF773FEC0460B
:1012EC00BD4602B080BC08BC04B018470D4885460A
:1012FC0000E000BF0C480D490D4A002302E0D45811
:10130C00C4500433C4188C42F9D30A4A0A4C002343
:10131C0001E013600432A242FBD300F01DF8FFF78A
:10132C00CFF9FEE700200020000000206C00002018
:10133C00182700086C000020E8080020FEE710B514
:10134C000A22002100F0DCF810BD0000014B1868E7
:10135C007047C0460800002070B500260C4D0D4C9F
:10136C00641BA410A64209D1002601F093F80A4D83
:10137C000A4C641BA410A64205D170BDB300EB58F7
:10138C0098470136EEE7B300EB5898470136F2E781
:10139C001027000810270008102700081427000841
:1013AC0003008218934200D1704719700133F9E79A
:1013BC000FB40B4B13B51C68002C05D0A369002B84
:1013CC0002D1200000F00AF905AB2000049AA168B4
:1013DC00019300F067FA16BC08BC04B01847C0466D
:1013EC0008000020F0B587B01E0005900191029214
:1013FC00012B45D00B00242E42D83F4A082194469D
:10140C001A00604614780133005D1D0007000F4080
:10141C000842F5D12D2C3AD101271C78951C002EB1
:10142C0065D0102E09D1302C07D120222B78934374
:10143C00582B57D110266C780235304B3100FB18E5
:10144C0018000393FEF7E8FE0023012284461800DF
:10145C00049152422100303909291DD80C00A642B2
:10146C0028DD002B24DB1300844506D302D104991C
:10147C00A14202DB0123704320182C780135E9E7E7
:10148C00FFF764FF16230360002007B0F0BD2B2C80
:10149C00C5D11C78951CC2E721004139192901D806
:1014AC00373CDCE721006139192903D8573CD6E7D2
:1014BC001300E2E7002B09DA2223059A0398136044
:1014CC00029B002BE1D06B1E019307E0002F00D094
:1014DC004042029A002AD8D0002BF4D1029B019AE8
:1014EC001A60D2E73024002EA7D10836A5E7302C9D
:1014FC009BD00A26A1E7C04679250008FFFFFF7F95
:10150C0010B513000A00010002480068FFF76AFFDB
:10151C0010BDC04608000020002310B50400036075
:10152C0043608360818143661900C281036143611A
:10153C00836108225C30FFF733FF054B2462636242
:10154C00044BA362044BE362044B236310BDC046FF
:10155C004D1E0008751E0008AD1E0008D91E00089F
:10156C0010B5024900F0BAF810BDC046E5210008DC
:10157C0070B568254A1E55430E002900743100F0E1
:10158C00F3F8041E08D000212A00016046600C30DC
:10159C00A0606832FFF704FF200070BD10B5024850
:1015AC0000F0BDF810BDC046D908002010B50248A7
:1015BC0000F0B6F810BDC046D908002010B502489E
:1015CC0000F0ADF810BDC046DA08002010B5024896
:1015DC0000F0A6F810BDC046DA08002013B50400D0
:1015EC00FFF7ECFFA369002B02D0FFF7EFFF13BD51
:1015FC00A364E3642365134B134A1B68A262019333
:10160C00A34201D10123A361200000F01FF8606008
:10161C00200000F01BF8A060200000F017F800225A
:10162C000421E0606068FFF777FF01220921A068C0
:10163C00FFF772FF02221221E068FFF76DFF012312
:10164C00A361D2E7742500086D150008F8B50700F2
:10165C00FFF7A4FF1F4B1E68B369002B02D13000AB
:10166C00FFF7BCFF4836B4687368013B04D5336898
:10167C00002B22D03668F6E70C22A55E002D1AD17D
:10168C002000154B5830E360656600F047F8FFF713
:10169C008DFF2000082229002560A560656025616A
:1016AC006561A5615C30FFF77BFE6563A563A5648E
:1016BC00E5642000F8BD6834D7E704213800FFF753
:1016CC0057FF041E3060D5D1FFF770FF0C233B6031
:1016DC00EFE7C046742500080100FFFFF7B50400D2
:1016EC0006000027019148346368A5680093009BAD
:1016FC00013B009304D52468002CF5D13800FEBDC5
:10170C00AB89012B08D90E22AB5E013304D0290022
:10171C003000019B984707436835E8E770477047EE
:10172C007047000070B50F4E0D00316804000029A1
:10173C0002D100F073FB30602900200000F06EFB3A
:10174C00431C0AD00323C51C9D43A84207D0291A69
:10175C00200000F063FB431C01D101256D422800E1
:10176C0070BDC046E0080020F7B50322CB1C9343A4
:10177C00083306001F000C2B32D20C27B94231D88B
:10178C00300000F0F5FD324D2B681C00002C2ED1E2
:10179C0039003000FFF7C6FF0400431C1ED12C6833
:1017AC002500002D4AD123682900E318300001934D
:1017BC0000F034FB019B834243D123680337FF1AAB
:1017CC0003239F4308370C2F00D20C27390030001D
:1017DC00FFF7A8FF431C34D02368DF19276013E000
:1017EC00002BCBDA0C23002533602800FEBD2268C9
:1017FC00D11B20D40B2917D9E2192760A34211D190
:10180C002A606368116053603000250000F0B8FD59
:10181C0007220B35231D9543EA1A9D42E5D05B1B2D
:10182C00A350E2E75A60ECE76268A34201D12A6058
:10183C00EAE75A60E8E723006468A7E72C006D68C4
:10184C00AFE70C233000336000F09AFDCDE7C046C3
:10185C00DC080020936810B5013B9360002B04DA80
:10186C009469A34207DB0A2905D01368581C106041
:10187C001970080010BD00F02FFB0100F9E7F8B556
:10188C0006000F001400D518AC4201D1002007E06F
:10189C0021783A003000FFF7DDFF0134431CF3D10F
:1018AC00F8BD0000F0B5A1B006000C001F000392BB
:1018BC00002804D08369002B01D1FFF78FFE8E4BDB
:1018CC009C421CD17468636EDB0705D4A3899B050D
:1018DC0002D4A06DFFF723FFA3891B0702D5236950
:1018EC00002B1DD12100300000F060FB002817D028
:1018FC00636EDB070DD50120404221B0F0BD7F4B5C
:10190C009C4201D1B468DEE77D4B9C42DBD1F4688C
:10191C00D9E7A3899B05EED4A06DFFF701FFEAE799
:10192C00002308AD6B6120336B761033AB760797D1
:10193C00039F3B78002B01D0252B4ED1039BFB1A28
:10194C000593039B9F420DD0059B21003000039A09
:10195C00FFF795FF431C00D1B5E06A69059B9446DF
:10196C0063446B613B78002B00D1ACE001227B1C03
:10197C000393002352426A6004A9543252182B601C
:10198C00EB60AB601370AB65039B052219785D4867
:10199C0000F0E2FC039B5F1C002820D12A68D306D0
:1019AC0004D5532304A95B1820211970130704D5FF
:1019BC00532304A95B182B211970039B1B782A2B2A
:1019CC0016D00021EB68039F3A78781C303A844695
:1019DC00092A4FD9002911D117E00137A9E7494B42
:1019EC002A68C01A0123834013432B600397CBE76B
:1019FC00079B191D1B680791002B01DB0B9304E05F
:101A0C005B42EB60022313432B603B782E2B0AD1F5
:101A1C007B782A2B37D1079B02371A1D1B6807923C
:101A2C00002B2DDB099303223978374800F094FC06
:101A3C00002807D0344B2A68C01A40238340134334
:101A4C0001372B6039787B1C0622304803932976AA
:101A5C0000F082FC002845D02D4B002B27D107220B
:101A6C00079B07339343083307936B69049A9B18BE
:101A7C006B615DE70A214B4367469B180939A3E765
:101A8C0001235B42CEE700231A0001376B603978E3
:101A9C00781C30398446092903D9002BC3D009920C
:101AAC00C1E70A235A4367465218093BEFE707ABD5
:101ABC000093220029003000164B00E000BF049078
:101ACC00049B0133D1D1636EDB0705D4A3899B053D
:101ADC0002D4A06DFFF724FEA3895B0600D50AE7AC
:101AEC000D980AE707AB0093220029003000094B40
:101AFC0000F082F8E3E7C0469C260008BC260008EC
:101B0C007C260008DC260008E2260008E6260008F1
:101B1C00000000008B180008F7B5150001938A68C7
:101B2C000B690C000090934200DA130022002B602A
:101B3C0043321278002A01D001332B6023689B06B4
:101B4C0002D52B6802332B602268062317001F4036
:101B5C001A4227D0230043331B785A1E9341226824
:101B6C00920630D4220001990098089E4332B04767
:101B7C00431C25D0062320682A68E1680025034011
:101B8C00042B03D18D1AEB43DB171D40A36822698C
:101B9C00934201DD9B1AED180027BD4220D1002095
:101BAC0010E00137E3682A689B1ABB42D2DD2200A1
:101BBC00012301990098089E1932B047431CF0D1BB
:101BCC0001204042FEBD3020E11843310870210055
:101BDC005A1C45310978A218433202331170C1E7FF
:101BEC002200012301990098089E1A32B047431C29
:101BFC00E6D00137D1E70000F0B58BB006920A00B1
:101C0C0043320793059004920A7E0C00109B782AAD
:101C1C0007D8622A09D8002A00D1C1E0582A00D17D
:101C2C008CE026004236327022E010006338152812
:101C3C00F7D8FEF761FA16001F00F6FFF6FFF6FF65
:101C4C00F6FF1F00F6FFF6FFF6FFF6FFA8003600C2
:101C5C009A00F6FFF6FFB900F6FF3600F6FFF6FF26
:101C6C009E0026001A684236111D196013683370E5
:101C7C000123A7E0086819680A1D05060BD50D6835
:101C8C001A60002D03DA2D23049A6D421370614BF8
:101C9C000A2703931BE00D681A604106F1D52DB29B
:101CAC00EFE70D681968081D18602E0601D50D6840
:101CBC0003E06D06FBD50D68ADB2564B08270393B8
:101CCC006F2A00D002372300002243331A70636856
:101CDC00A360002B03DB0422216891432160002DBB
:101CEC0002D1049E002B0CD0049E28003900FEF774
:101CFC0093FA039B013E5B5C33702B0005009F4203
:101D0C00F3D9082F09D12368DB0706D5636822694C
:101D1C00934202DC3023013E3370049B9B1B2361F6
:101D2C00079B210000930598069B09AAFFF7F4FE78
:101D3C00431C4CD1012040420BB0F0BD45310A7020
:101D4C00344A03921A68216820CA1A60080616D50C
:101D5C00CB0702D52023194321601027002DB2D1C7
:101D6C00202322689A432260ADE7202209680A43A7
:101D7C0022602200782145321170274AE1E748069B
:101D8C00E6D5ADB2E4E71A680D68101D4969186014
:101D9C0013682E0601D5196002E06D06FBD519807B
:101DAC000023049E2361BBE71A68111D1960166895
:101DBC0000213000626800F0CFFA002801D0801BAF
:101DCC006060636823610023049A1370A8E7236999
:101DDC00320006990598079DA847431CAAD0236892
:101DEC009B0715D4099BE0689842A5DA1800A3E775
:101DFC002200012306990598079E1932B047431C0F
:101E0C0098D00135E368099A9B1AAB42F0DCE9E7FC
:101E1C000025F7E7ED260008FE260008002370B524
:101E2C00064D040008002B60FEF740FD431C03D157
:101E3C002B68002B00D0236070BDC046E408002046
:101E4C0070B50C000E25495F00F0ECFA002803DB9E
:101E5C00636D1B18636570BDA389024A1340A3818F
:101E6C00F9E7C046FFEFFFFFF8B51F008B890500AF
:101E7C000C001600DB0505D50E23C95E00220223DB
:101E8C0000F0EAF9A389054A28001340A381320027
:101E9C000E23E15E3B0000F075F8F8BDFFEFFFFF8D
:101EAC0070B50C000E25495F00F0D6F9A389421CD1
:101EBC0003D1054A1340A38170BD80225201134304
:101ECC00A3816065F8E7C046FFEFFFFF10B50E2356
:101EDC00C95E00F0E3F810BDF8B505000E00140063
:101EEC00002804D08369002B01D1FFF777FB224B2C
:101EFC009C422ED16C68A369A360A3891B0732D5C1
:101F0C002369002B2FD023682269F7B2981A6369D2
:101F1C00F6B2834205DC2100280000F05DF90028B0
:101F2C0027D1A3680130013BA36023685A1C2260AF
:101F3C001F706369834204D0A389DB0707D50A2E7F
:101F4C0005D12100280000F047F9002811D13000FC
:101F5C00F8BD0A4B9C4201D1AC68CCE7084B9C42C3
:101F6C00C9D1EC68C7E72100280000F01FF8002851
:101F7C00C9D001267642EAE79C260008BC26000858
:101F8C007C26000870B50400080011001A0000231C
:101F9C00054D2B60FEF778FB431C03D12B68002BFF
:101FAC0000D0236070BDC046E4080020374B70B5EC
:101FBC001D6806000C00002D05D0AB69002B02D16A
:101FCC002800FFF70BFB324B9C420FD16C680C23A3
:101FDC00E25E93B211072DD4D90611D40923012046
:101FEC00336037331343A381404270BD294B9C426D
:101FFC0001D1AC68EBE7284B9C42E8D1EC68E6E7F2
:10200C005B0713D5616B002908D023004433994238
:10201C0002D0300000F0BCF9002363632422A389B2
:10202C009343A38100236360236923600823A2895F
:10203C001343A3812369002B0BD1A0218022A389F8
:10204C00890092000B40934203D02100300000F035
:10205C003FF90C22A35E01201A0099B20240034200
:10206C000FD00022A26062695242A2610020226954
:10207C008242BAD10A06B8D540221343A381013853
:10208C00B3E7880700D46269A260EFE7080000207C
:10209C009C260008BC2600087C260008002370B58E
:1020AC00064D040008002B60FEF7D3FB431C03D144
:1020BC002B68002B00D0236070BDC046E4080020C4
:1020CC00F7B58B8905000C001A075FD44A68002A03
:1020DC0004DC0A6C002A01DC0020FEBDE76A002F3C
:1020EC00FAD0002280212E682A601A0049010A4089
:1020FC000B4234D0606DA3895B0706D56368C01AA8
:10210C00636B002B01D0236CC01A0200216A0023E0
:10211C002800E76AB847A189431C06D12B681D2B00
:10212C0031D82C4ADA40D3072DD5002363602369BC
:10213C002360CB0405D5431C02D12B68002B00D1A6
:10214C006065616B2E600029C6D023004433994230
:10215C0002D0280000F01CF900206063BDE70123C9
:10216C002800216AB847431CC5D12B68002BC2D06C
:10217C001D2B01D0162B01D12E60ADE74023A28977
:10218C001343A381A9E740230B43FAE70F69002F00
:10219C00A2D00A680F60D21B019200229B0700D1CB
:1021AC004A69A260019B002B00DC95E73A002800ED
:1021BC00019B216AA66AB047002806DC4023012057
:1021CC00A28940421343A38187E7019B3F181B1A46
:1021DC000193E7E7010040200B6970B505000C0086
:1021EC00002B02D10025280070BD002804D0836983
:1021FC00002B01D1FFF7F2F9144B9C421BD16C68F8
:10220C000C22A35E002BEDD0626ED20704D49B058A
:10221C0002D4A06DFFF783FA28002100FFF750FFCE
:10222C00636E0500DB07DED4A3899B05DBD4A06DB0
:10223C00FFF776FAD7E7064B9C4201D1AC68DFE793
:10224C00044B9C42DCD1EC68DAE7C0469C260008C3
:10225C00BC2600087C26000870B50400080011009C
:10226C001A000023054D2B60FEF714FB431C03D111
:10227C002B68002B00D0236070BDC046E408002002
:10228C0070B50E001D000E23C95E140096B0002917
:10229C0008DA0C22B35E00222A601B0611D48023BC
:1022AC00DB000FE06A4600F0D1F80028F1DBF023E8
:1022BC0001991B021940054BC9184B425941296021
:1022CC00EDE740230020236016B070BD00E0FFFF57
:1022DC00F7B502268B8905000C00334206D023008B
:1022EC0047332360236101236361F7BD6A4601AB69
:1022FC00FFF7C6FF009907002800FFF735FA002802
:10230C0008D10C22A35E9A05EFD4032293431E43FB
:10231C00A681E4E70F4BAB628023A28920601343B4
:10232C00A381009B20616361019B002B0DD02800D1
:10233C000E23E15E00F09CF8002806D00322A3894E
:10234C0093431A0001231343A381A0890743A78158
:10235C00CBE7C0466D150008C9B28218904201D176
:10236C000020704703788B42FBD00130F6E7000069
:10237C0010B50248FFF7D3F910BDC046D8080020AD
:10238C0010B50248FFF7CCF910BDC046D8080020A4
:10239C0070B50500002910D00C1F2368002B00DA43
:1023AC00E4182800FFF7E4FF1D4A1368002B05D141
:1023BC00636014602800FFF7E3FF70BDA34208D9E7
:1023CC00216860188342F3D118685B68411821605A
:1023DC00EEE71A005B68002B01D0A342F9D9116813
:1023EC005018A0420BD12068091850181160834274
:1023FC00E0D118685B68411811605360DAE7A042BD
:10240C0002D90C232B60D5E721686018834203D1D5
:10241C0018685B684118216063605460CAE7C04665
:10242C00DC08002070B50400080011001A0000231D
:10243C00054D2B60FEF7F0F9431C03D12B68002BE4
:10244C0000D0236070BDC046E4080020002370B5A6
:10245C00064D0400080011002B60FEF704FA431C23
:10246C0003D12B68002B00D0236070BDE408002042
:10247C00002370B5064D040008002B60FEF701FA2E
:10248C00431C03D12B68002B00D0236070BDC046C9
:10249C00E4080020F8B5C046F8BC08BC9E4670475E
:0C24AC00F8B5C046F8BC08BC9E4670475E
:1024B8004F4B0D0A0000000041434B0D0A0000007D
:1024C8004E41434B0D0A00004552524F520D0A002F
:1024D800534B535F53424C5F56312E300D0A000068
:1024E80025730000646F776E6C6F616420667720D7
:1024F80073756363657373202E2E2E0D0A0000001A
:1025080073797374656D207265736574200D0A00A4
:102518005E1100084C1100086A11000876110008C5
:102528007611000876110008761100087611000867
:102538007611000876110008761100087611000857
:102548007611000864110008761100087611000859
:1025580076110008F0100008761100086A110008CA
:102568007611000876110008701100080C00002090
:10257800002020202020202020202828282828204B
:102588002020202020202020202020202020202043
:1025980020881010101010101010101010101010AB
:1025A800100404040404040404040410101010109B
:1025B8001010414141414141010101010101010165
:1025C80001010101010101010101010110101010B7
:1025D8001010424242424242020202020202020237
:1025E800020202020202020202020202101010108B
:1025F80020000000000000000000000000000000B3
:1026080000000000000000000000000000000000C2
:1026180000000000000000000000000000000000B2
:1026280000000000000000000000000000000000A2
:102638000000000000000000000000000000000092
:102648000000000000000000000000000000000082
:102658000000000000000000000000000000000072
:102668000000000000000000000000000000000062
:102678000000000000000000000000000000000052
:102688000000000000000000000000000000000042
:102698000000000000000000000000000000000032
:1026A8000000000000000000000000000000000022
:1026B8000000000000000000000000000000000012
:1026C8000000000000000000000000000000000002
:1026D80000000000232D302B2000686C4C0065663C
:1026E800674546470030313233343536373839415B
:1026F8004243444546003031323334353637383971
:08270800616263646566000074
:04271000E5000008D8
:04271400BD000008FC
:10271800050000000090D0030C000020000000001D
:102728009C260008BC2600087C2600080000000043
:102738000000000000000000000000000000000091
:102748000000000000000000000000000000000081
:102758000000000000000000000000000000000071
:102768000000000000000000000000000000000061
:0C27780000000000000000000000000055
:04000005080012F9E4
:00000001FF
