:020000040800F2
:1028000000200020293400087934000879340008B9
:1028100000000000000000000000000000000000B8
:1028200000000000000000000000000079340008F3
:102830000000000000000000793400086D2A000844
:1028400079340008793400087934000879340008B4
:1028500079340008793400087934000879340008A4
:102860000000000079340008793400087934000849
:102870007934000879340008793400087934000884
:1028800079340008000000000000000079340008DE
:102890000000000079340008793400087934000819
:1028A0007934000879340008793400085D30000874
:0C28B000793400087934000879340008FD
:1028BC0010B5064C2378002B07D1054B002B02D00A
:1028CC00044800E000BF0123237010BD000000206D
:1028DC0000000000C4340008044B10B5002B03D0DA
:1028EC000349044800E000BF10BDC04600000000D2
:1028FC0004000020C4340008002243088B4274D327
:10290C0003098B425FD3030A8B4244D3030B8B42E4
:10291C0028D3030C8B420DD3FF22090212BA030CED
:10292C008B4202D31212090265D0030B8B4219D3CE
:10293C0000E0090AC30B8B4201D3CB03C01A5241EE
:10294C00830B8B4201D38B03C01A5241430B8B4236
:10295C0001D34B03C01A5241030B8B4201D30B031F
:10296C00C01A5241C30A8B4201D3CB02C01A524146
:10297C00830A8B4201D38B02C01A5241430A8B4209
:10298C0001D34B02C01A5241030A8B4201D30B02F2
:10299C00C01A5241CDD2C3098B4201D3CB01C01A0C
:1029AC00524183098B4201D38B01C01A5241430916
:1029BC008B4201D34B01C01A524103098B4201D304
:1029CC000B01C01A5241C3088B4201D3CB00C01A71
:1029DC00524183088B4201D38B00C01A52414308E9
:1029EC008B4201D34B00C01A5241411A00D201460E
:1029FC00524110467047FFE701B5002000F006F881
:102A0C0002BDC0460029F7D076E770477047C04634
:102A1C0080B500AF064B074A9A60BFF34F8FC04694
:102A2C0062B6C04600F008F800F03AF8FCE7C04681
:102A3C0000ED00E00028000880B500AF00F0DEF8E3
:102A4C00E1235B02180000F0D1FA034B034A1A6031
:102A5C0000231800BD4680BD2C0000202D3000083E
:102A6C0080B500AF0B4B1B685A1C0A4B1A600A4B03
:102A7C001B685A1C084B1A60074B1A68FA239B00F8
:102A8C009A4204D3054B1B685A1C044B1A60C0466F
:102A9C00BD4680BD1C00002024000020200000202A
:102AAC0080B500AF094B1A68094B1B68D21AFA2380
:102ABC009B009A4207D3054B1A68054B1A60054BCD
:102ACC00180000F097FCC046BD4680BD1C000020DD
:102ADC0028000020DC34000890B583B000AF020061
:102AEC003960FB1D1A70FB1D1B787F2B28D82F4AD1
:102AFC00FB1D1B785BB29B08C0339B009B58FA1DD7
:102B0C001278110003220A40D200FF2191400A00E2
:102B1C00D2431A4011003B689B01FF221A40FB1D57
:102B2C001B78180003230340DB009A401F48FB1D51
:102B3C001B785BB29B080A43C0339B001A5031E0F0
:102B4C001B4AFB1D1B7819000F230B40083B9B08ED
:102B5C0006339B00D31804331B68FA1D127811003E
:102B6C0003220A40D200FF2191400A00D2431A40AE
:102B7C0011003B689B01FF221A40FB1D1B781800BB
:102B8C0003230340DB009A400948FB1D1B781C0003
:102B9C000F232340083B9B080A4306339B00C318B2
:102BAC0004331A60C046BD4603B090BD00E100E09E
:102BBC0000ED00E080B582B000AF78607B685A1EF3
:102BCC0080235B049A4201D3012310E00A4B7A68FC
:102BDC00013A5A6001235B4203211800FFF77CFF86
:102BEC00054B00229A60044B07221A600023180040
:102BFC00BD4602B080BDC04610E000E080B500AF1D
:102C0C0000F028F800F018F8C046BD4680BD000062
:102C1C0080B582B000AF78607B68042B05D1054B82
:102C2C001A68044B04210A431A60C046BD4602B020
:102C3C0080BDC04610E000E080B500AF0420FFF777
:102C4C00E7FFFA231B021800FFF7B4FFC046BD468E
:102C5C0080BD000080B500AF2B4B1A682A4B802139
:102C6C0049020A431A60C046274B1A6880239B020C
:102C7C001340F9D0254B1A68244B822149000A4392
:102C8C001A60214B9A68204B21490A409A601E4BCE
:102C9C009A681D4B1F490A409A601B4BDA681A4B05
:102CAC0003210A43DA60184BDA68174B1A490A40B9
:102CBC00DA60154BDA68144B18490A43DA60124B88
:102CCC001A68114B802149040A431A60C0460E4B06
:102CDC001A6880239B041340F9D00B4B9A680A4B5B
:102CEC0007218A439A60084B9A68074B02210A43D2
:102CFC009A60C046044B9B6838221340102BF9D1C4
:102D0C00C046C046BD4680BD0010024000200240B7
:102D1C00FFF0FFFFFF8FFFFF8F80FF1F03100031BD
:102D2C0080B582B000AF0200FB1D1A70FB1D1B7832
:102D3C007F2B09D8FB1D1B781A001F231A40044B4C
:102D4C00012191400A001A60C046BD4602B080BD08
:102D5C0000E100E090B583B000AF02003960FB1DCC
:102D6C001A70FB1D1B787F2B28D82F4AFB1D1B7854
:102D7C005BB29B08C0339B009B58FA1D1278110064
:102D8C0003220A40D200FF2191400A00D2431A408C
:102D9C0011003B689B01FF221A40FB1D1B78180099
:102DAC0003230340DB009A401F48FB1D1B785BB2DA
:102DBC009B080A43C0339B001A5031E01B4AFB1D91
:102DCC001B7819000F230B40083B9B0806339B0014
:102DDC00D31804331B68FA1D1278110003220A4021
:102DEC00D200FF2191400A00D2431A4011003B68E7
:102DFC009B01FF221A40FB1D1B7818000323034084
:102E0C00DB009A400948FB1D1B781C000F23234054
:102E1C00083B9B080A4306339B00C31804331A6013
:102E2C00C046BD4603B090BD00E100E000ED00E0FF
:102E3C0080B582B000AF00237B60424B5A6B414B94
:102E4C0001210A435A633F4B1A6C3E4B8021C90146
:102E5C000A431A64A023DB051A68A023DB053A4950
:102E6C000A401A60A023DB051A68A023DB05802129
:102E7C0089030A431A60A023DB055A69A023DB05EA
:102E8C0032490A405A61A023DB05DA68A023DB052E
:102E9C002D490A40DA60A023DB059A68A023DB05E4
:102EAC002A490A409A60A023DB051A68A023DB0597
:102EBC0027490A401A60A023DB051A68A023DB050A
:102ECC00802109030A431A60A023DB055A69A02359
:102EDC00DB0520490A405A61A023DB05DA68A023F0
:102EEC00DB051B490A40DA60A023DB059A68A023A6
:102EFC00DB0518490A409A60A023DB055B6A7B60FE
:102F0C007B68154A13407B607B6880225200134318
:102F1C007B60A023DB057A685A62A023DB055B6A21
:102F2C007B607B68F02293437B607B6810221343A9
:102F3C007B60A023DB057A685A62C046BD4602B0AE
:102F4C0080BDC04600100240FFFFCFFFFFFBFFFF1C
:102F5C00FFFFF3FFFFFDFFFFFFF0FFFF80B584B025
:102F6C0000AF7860396039681C48FFF7C5FC030076
:102F7C00FB607B6800221A607B681B68184A1A4049
:102F8C007B681A607B681B68164A1A407B681A605B
:102F9C007B681B680C221A437B681A607B681B6871
:102FAC00114A1A407B681A607B68DB6A0F221A4050
:102FBC007B68DA627B68FA68DA607B681B682022BF
:102FCC001A437B681A607B681B6801221A437B6872
:102FDC001A60C046BD4604B080BDC0460090D00308
:102FEC00FFFFFFEFFFFBFFFFFF7FFFFF80B582B00E
:102FFC0000AF7860FFF71CFF7B68084A19001000CF
:10300C00FFF7ACFF00211B20FFF7A4FE1B20FFF7EE
:10301C0087FEC046BD4602B080BDC04600380140A8
:10302C0080B582B000AF0200FB1D1A70C046074B82
:10303C00DB6980221340802BF9D1044BFA1D1278E6
:10304C009A62C046BD4602B080BDC0460038014001
:10305C0080B582B000AF094BDB692022134009D048
:10306C00064B5A6AFB1D1A70044B1A6A034B082153
:10307C000A431A62C046BD4602B080BD003801400A
:10308C0080B582B000AF0200FB1D1A700C4B1B68A0
:10309C00002B08D00A4B1B68591C094A1160FA1DF9
:1030AC0012781A7009E0074B1B68002B05D0054BF2
:1030BC001B68FA1D127810009847BD4602B080BDFF
:1030CC00300000202C00002080B582B000AF78606A
:1030DC0006E07B685A1C7A601B781800FFF7D0FF5B
:1030EC007B681B78002BF4D1C046C046BD4602B0AD
:1030FC0080BD000090B58FB000AF786039607B6800
:10310C005A1C7A601F217A181B7813700A00BB189E
:10311C001B78002B00D164E1BB181B78252B05D044
:10312C00BB181B781800FFF7ABFF59E100237B623B
:10313C007B685A1C7A601F217A181B7813707B18D5
:10314C001B78302B08D101237B627B685A1C7A6078
:10315C007A181B7813700CE01F217B181B782D2B11
:10316C0007D102237B627B685A1C7A607A181B7821
:10317C0013700023BB6211E0BA6A13009B009B180A
:10318C005B001A001F217B181B78D318303BBB62E5
:10319C007B685A1C7A607A181B7813701F22BB1834
:1031AC001B782F2B03D9BB181B78392BE4D91F2282
:1031BC00BB181B786C2B03D0BB181B784C2B0AD17B
:1031CC007B6A042213437B627B685A1C7A601F2241
:1031DC00BA181B7813701F22BB181B78002B00D158
:1031EC0001E11E217B18BA1812781A707B181B7813
:1031FC00602B04D97B187A181278203A1A701E2387
:10320C00FB181B78423B162B47D89A00784BD318E7
:10321C001B689F463B681A1D3A601B68BB61002304
:10322C00FB6202E0FB6A0133FB62BA69FB6AD318EA
:10323C001B78002BF6D102E02020FFF721FF7B6AE0
:10324C000222134005D1FB6A5A1CFA62BA6A9A42EE
:10325C00F2D8BB691800FFF737FF02E02020FFF718
:10326C000FFFFB6A5A1CFA62BA6A9A42F6D8B7E0A8
:10327C003B681A1D3A601B68DBB21800FFF700FFB1
:10328C00AEE002237B630FE008237B630CE00A2390
:10329C007B6309E010237B6306E01F23FB181B787C
:1032AC001800FFF7EDFE9BE07B6A0422134004D06C
:1032BC003B681A1D3A601B680DE01E23FB181B7837
:1032CC00442B04D13B681A1D3A601B6803E03B6831
:1032DC001A1D3A601B683B621E23FB181B78442B9B
:1032EC0009D13B6A002B06DA3B6A5B423B627B6A84
:1032FC00082213437B6200233B633B6A796B180003
:10330C00FFF780FB0B001A001E243B191A70796B17
:10331C00386AFFF7F1FA03003B623B191B78092B63
:10332C000DD91F23FB181B78782B01D1272300E024
:10333C0007231E217A18791809785B1813703B6BD8
:10334C005A1C3A631E22BA1812783032D1B20822B3
:10335C00BA18D1543B6A002B02D03B6B0F2BCCD943
:10336C007B6A0822134006D03B6B5A1C3A63082236
:10337C00BA182D21D1543B6BFB627B6A012213409E
:10338C0001D0302200E020221E23FB181A7005E029
:10339C001E23FB181B781800FFF772FE7B6A0222B3
:1033AC00134005D1FB6A5A1CFA62BA6A9A42EFD8EA
:1033BC003B6B013B3B630823FA183B6BD3181B7820
:1033CC001800FFF75DFE3B6B002BF1D102E02020D3
:1033DC00FFF756FEFB6A5A1CFA62BA6A9A42F6D892
:1033EC008DE6C04600E0C046C046BD460FB090BD5D
:1033FC00003500080FB480B582B000AF1423FB1861
:10340C007B607A683B6911001800FFF773FEC046B9
:10341C00BD4602B080BC08BC04B018470D488546B8
:10342C0000E000BF0C480D490D4A002302E0D458BF
:10343C00C4500433C4188C42F9D30A4A0A4C0023F2
:10344C0001E013600432A242FBD300F011F8FFF745
:10345C00DFFAFEE700200020000000200000002022
:10346C00643500080000002034000020FEE7000056
:10347C0070B500260C4D0D4C641BA410A64209D14E
:10348C00002600F019F80A4D0A4C641BA410A64241
:10349C0005D170BDB300EB5898470136EEE7B30089
:1034AC00EB5898470136F2E75C3500085C350008AC
:1034BC005C35000860350008F8B5C046F8BC08BC9F
:1034CC009E467047F8B5C046F8BC08BC9E4670478F
:1034DC0068656C6C6F2C2069742074657374207033
:1034EC0072696E742C205468616E6B2121210D0A57
:1034FC00000000008E3200087C3200089A3200086E
:10350C00A6320008A6320008A6320008A63200082F
:10351C00A6320008A6320008A6320008A63200081F
:10352C00A6320008A632000894320008A632000821
:10353C00A6320008A632000820320008A632000885
:10354C009A320008A6320008A6320008A032000801
:04355C00E528000856
:04356000BD2800087A
:040000050800342992
:00000001FF
