:020000040800F2
:102800000020002005AC000825A500082BA5000825
:1028100000000000000000000000000000000000B8
:1028200000000000000000000000000031A50008CA
:1028300000000000000000003BA5000845A50008BE
:1028400055AC000855AC000855AC000855AC000864
:1028500055AC000855AC000855AC000855AC000854
:102860000000000091A5000855AC000855AC000818
:1028700055AC000855AC000855AC00089DA50008F3
:1028800055AC000855AC000855AC000855AC000824
:102890000000000055AC000855AC000855AC00081D
:1028A00055AC000855AC000855AC0008519E000816
:0C28B00055AC000855AC0008000000000A
:1028BC0010B5064C2378002B07D1054B002B02D00A
:1028CC00044800E000BF0123237010BD200100204C
:1028DC0000000000E8CE0008044B10B5002B03D01C
:1028EC000349044800E000BF10BDC04600000000D2
:1028FC0024010020E8CE000802780B78002A03D0CF
:10290C00013001319A42F7D0D01A704703B47146A6
:10291C00490840004900095E49008E4403BC7047D9
:10292C00002243088B4274D303098B425FD3030A02
:10293C008B4244D3030B8B4228D3030C8B420DD315
:10294C00FF22090212BA030C8B4202D312120902A3
:10295C0065D0030B8B4219D300E0090AC30B8B42E1
:10296C0001D3CB03C01A5241830B8B4201D38B038F
:10297C00C01A5241430B8B4201D34B03C01A524134
:10298C00030B8B4201D30B03C01A5241C30A8B4277
:10299C0001D3CB02C01A5241830A8B4201D38B0262
:1029AC00C01A5241430A8B4201D34B02C01A524106
:1029BC00030A8B4201D30B02C01A5241CDD2C30978
:1029CC008B4201D3CB01C01A524183098B4201D3F4
:1029DC008B01C01A524143098B4201D34B01C01ADF
:1029EC00524103098B4201D30B01C01A5241C30857
:1029FC008B4201D3CB00C01A524183088B4201D3C6
:102A0C008B00C01A524143088B4201D34B00C01AB1
:102A1C005241411A00D20146524110467047FFE71D
:102A2C0001B5002000F0F0F802BDC0460029F7D037
:102A3C0076E7704703460B437FD4002243088B4252
:102A4C0074D303098B425FD3030A8B4244D3030B29
:102A5C008B4228D3030C8B420DD3FF22090212BAEE
:102A6C00030C8B4202D31212090265D0030B8B426A
:102A7C0019D300E0090AC30B8B4201D3CB03C01A54
:102A8C005241830B8B4201D38B03C01A5241430B2F
:102A9C008B4201D34B03C01A5241030B8B4201D31F
:102AAC000B03C01A5241C30A8B4201D3CB02C01A8A
:102ABC005241830A8B4201D38B02C01A5241430A02
:102ACC008B4201D34B02C01A5241030A8B4201D3F1
:102ADC000B02C01A5241CDD2C3098B4201D3CB0198
:102AEC00C01A524183098B4201D38B01C01A524147
:102AFC0043098B4201D34B01C01A524103098B424B
:102B0C0001D30B01C01A5241C3088B4201D3CB0035
:102B1C00C01A524183088B4201D38B00C01A524118
:102B2C0043088B4201D34B00C01A5241411A00D2C8
:102B3C0001465241104670475DE0CA0F00D0494231
:102B4C00031000D34042534000229C4603098B42A1
:102B5C002DD3030A8B4212D3FC22890112BA030A29
:102B6C008B420CD3890192118B4208D389019211AB
:102B7C008B4204D389013AD0921100E08909C30930
:102B8C008B4201D3CB01C01A524183098B4201D332
:102B9C008B01C01A524143098B4201D34B01C01A1D
:102BAC00524103098B4201D30B01C01A5241C30895
:102BBC008B4201D3CB00C01A524183088B4201D304
:102BCC008B00C01A5241D9D243088B4201D34B001F
:102BDC00C01A5241411A00D20146634652415B1061
:102BEC00104601D34042002B00D549427047634642
:102BFC005B1000D3404201B5002000F005F802BD87
:102C0C000029F8D016E770477047C046844610007C
:102C1C0062468C461900634600E0C0461FB501F0C1
:102C2C007DFD002801D40021C8421FBD10B501F064
:102C3C00CDFC4042013010BD10B501F06FFD0028F5
:102C4C0001DB002010BD012010BDC04610B501F005
:102C5C0065FD002801DD002010BD012010BDC0461F
:102C6C0010B501F0F5FC002801DC002010BD01209E
:102C7C0010BDC04610B501F0EBFC002801DA0020B5
:102C8C0010BD012010BDC0469E2110B5C905041C05
:102C9C0002F050FD002803D1201C00F0B5FD10BD42
:102CAC009E21201CC90500F001FC00F0ADFD802325
:102CBC001B069C466044F2E770B500220C4B0400E6
:102CCC000D00FFF7D7FF002804D12000290002F0E7
:102CDC00A5FB70BD064B00222000290001F0EEFF81
:102CEC0002F09CFB80231B069C466044F1E7C04627
:102CFC000000E041F0B5C64643025B0A4E024500B7
:102D0C004F00DA00C40F9C46700A904600B52D0E99
:102D1C003F0EC90FB6098C424BD0EA1B002A36DD98
:102D2C00002F61D0FF2D00D1ADE08023DB041E43CA
:102D3C001B2A00DCD3E001204346181A430100D4BF
:102D4C008CE080018709380002F0FEFC05388740D2
:102D5C00854200DCB6E02D1AB3483840430704D056
:102D6C000F230340042B00D00430430100D478E03F
:102D7C006A1CFE2D65D08001430A9C46D2B2634684
:102D8C00D0051843E407204380BCB846F0BD002AA8
:102D9C0035D07A1B002D00D0AFE04346002B00D17C
:102DAC00A7E0531E012A00D12FE1FF2A69D01A0097
:102DBC00AAE0E91B002970DD002F37D0FF2D62D06F
:102DCC008023DB041E431B2900DCB0E001204044BF
:102DDC00430143D50135FF2D33D00123934A0340E2
:102DEC00400810401843B9E7002E00D183E0511E73
:102DFC00012A00D1D8E0FF2A45D00A0098E7FE2727
:102E0C006A1C174200D086E0002D00D0B7E0434684
:102E1C00002B00D1F3E00022002EB0D0981B430110
:102E2C0000D4FAE043460C00F01A97E7002E00D1CC
:102E3C00C8E04A1E012900D1AEE0FF2923D01100C1
:102E4C00C1E70023FF229C4699E7FE216A1C114230
:102E5C0077D0FF2AF5D0150046447008430700D000
:102E6C007EE7C308FF2D0ED05B025B0A9C46EAB2DC
:102E7C0085E7002E07D08022D203134203D01042E4
:102E8C0001D10C000300002BDBD08020C0031843C1
:102E9C004002430A9C46FF2271E70029D5D07A1BD9
:102EAC00002D60D14346002B24D0531E012A73D031
:102EBC00FF2AE7D01A001B2A00DC85E001203D0028
:102ECC00801985E720233A00451B38000135EA407C
:102EDC005D1BA840431E9841002510433EE720236C
:102EEC0030009B1A31009840D140431E9841084352
:102EFC0022E70C0003001500B4E7FF2FC1D080239C
:102F0C004046DB04184380461B2A51DD01200C008F
:102F1C003D00301A12E743469F1B7B012BD4002F38
:102F2C0000D010E70023002400229C4627E7202332
:102F3C0032003000CA40591A8840431E9841104351
:102F4C0045E7002D4AD14346002B63D00022002ECA
:102F5C0000D114E730004044430100D47EE7324BEB
:102F6C00013518407AE7FF2F8CD080234146DB04D3
:102F7C00194388469FE743460C00F71AE3E642469E
:102F8C00002A00D075E7002E00D07AE78023DB03FF
:102F9C0000249C46FF22F2E6300040440125430108
:102FAC0000D45BE7022518E743460125981BC5E6CC
:102FBC00202344464046D4409A1A9040431E9841E0
:102FCC002043A4E70D004DE7202341464046D14065
:102FDC009A1A9040431E9841084370E74246002AD3
:102FEC0000D14FE7002E00D14DE78022D2031342CF
:102FFC0000D148E7104200D045E7030043E7002E1C
:10300C0090D00C0084460022B9E643460C00F01A1E
:10301C00013593E684460022B1E6002800D01DE776
:10302C00002300249C46AAE6FFFFFFFBFFFFFF7D69
:10303C00F0B54F464646D6464502C0B547000C1C77
:10304C006D0A3F0EC60F002F00D170E0FF2F00D18C
:10305C0075E0EB008025ED041D43002399469A464C
:10306C007F3F6002430A984663001B0EE40F002B5F
:10307C004ED0FF2B46D04246D0008022D2040243D1
:10308C00904600227F3B3100FF1A4B466140C9B28B
:10309C0013430F2B00D9B5E06E489B00C3589F46D5
:1030AC00002398462600454692465346022B00D1F3
:1030BC0089E0032B00D19EE0012B18D03B007F331D
:1030CC00002B69DD6A0704D00F222A40042A00D0A5
:1030DC0004352A0103D5604B1D403B008033FE2B89
:1030EC0000DD70E0AD016D0AD8B202E00E000020E8
:1030FC000025C0052843F6073043E0BCBA46B1466C
:10310C00A846F0BD4346002B3FD10222FF3F03E00F
:10311C004346002B2DD1012231004B466140C9B2F0
:10312C0013430F2B34D84D489B00C3589F46002D9A
:10313C0013D104239946033B00279A4691E7002DAF
:10314C0005D108239946063BFF279A4689E70C23AD
:10315C009946093BFF279A4683E7280002F0F4FAC8
:10316C007627431F9D4000237F4299469A463F1A7B
:10317C0077E7404602F0E8FA4246431F9A4076232E
:10318C005B4290461B1A00227DE7FF2303227AE75D
:10319C000E00FF200025ACE70120C01A1B28A6DC7E
:1031AC009E372A00BD40C2406B1E9D4115436B07E4
:1031BC0004D00F232B40042B00D004356B0144D5D5
:1031CC000120002595E7FF20002592E780250026A9
:1031DC00FF20ED038DE7002398468020C0030542B5
:1031EC0009D04346034206D1454605436D022600ED
:1031FC00FF206D0A7DE78020C00305436D02FF2090
:10320C006D0A76E742466B015001834219D21B22AC
:10321C000025013F01261C006D005B00002C01DB2A
:10322C00984201D81B1A3543013A002AF3D15A1E91
:10323C0093411D433B007F330E00002B00DD41E723
:10324C00AAE71A2201251B1AE4E7AD0100206D0A3A
:10325C004FE7C046A8D20008FFFFFFF7E8D20008EE
:10326C00F0B54F464646D64644024500C0B5640A02
:10327C000F1C2D0EC60F002D00D18DE0FF2D00D19F
:10328C0092E00023802099469A46E400C00404434F
:10329C007F3D7802430A98467B001B0EFF0F002BE4
:1032AC0000D170E0FF2B00D186E04246D000802296
:1032BC007F3BED180023D204024390469C4631001C
:1032CC004B467940681C0F2B1CD8764A9B00D35870
:1032DC009F4639004446E2465346022B0FD0032B3F
:1032EC0000D1D7E0012B37D100200024C0052043AA
:1032FC00C9070843E0BCBA46B146A846F0BDFF205A
:10330C000024F3E7260C2404220C44462404240C49
:10331C00434627001B0C574374435A435E43121910
:10332C003B0C9B189C4203D9802252029446664463
:10333C003F041A043F0CD2199401671EBC411B0CAC
:10334C00920E9B1914439B011C431B0100D49BE060
:10335C00012362081C40144302007F32002A64DD02
:10336C00630704D00F232340042B00D00434230123
:10337C0003D502004C4B80321C40FE2ABFDCA4015A
:10338C00640AD0B2B2E74346002B3DD14A46013322
:10339C001A4391469C4692E7002C29D10423994666
:1033AC00033B00259A4674E7002C1BD10823994651
:1033BC00063BFF259A466CE74346FF35002B0BD1A5
:1033CC0002234A461A4391469C4678E753463100FD
:1033DC00022B00D083E792E703234A461A43914617
:1033EC009C466CE70C239946093BFF259A4650E70F
:1033FC00200002F0A9F97625431F9C4000236D4262
:10340C0099469A462D1A44E7404602F09DF94246E9
:10341C00431F9A4000232D1A90469C46763D4EE75A
:10342C0080240021FF20E40360E701239B1A1B2B5F
:10343C0000DD59E722009E30DA4084401300621E02
:10344C0094411C43630704D00F232340042B00D06A
:10345C00043463011AD50120002447E78020C003FF
:10346C00044209D04346034206D144460443640255
:10347C003900FF20640A39E78020C003044364024A
:10348C003100FF20640A31E7280065E7A401002021
:10349C00640A2BE78020C00304436402FF20640A03
:1034AC0024E7C04628D30008FFFFFFF7F8B5CE4647
:1034BC00474643025B0A4E02DA009446720A914672
:1034CC0045004A0080B52D0E1F00C40F120EC90F07
:1034DC00B609FF2A5BD0012041408C4239D0A81A92
:1034EC0000285ADD002A6AD0FF2D00D1D9E08022B5
:1034FC00D20416431B2800DCE9E001206346181AAD
:10350C00430100D4B4E080018709380002F01CF9B3
:10351C0005388740854200DCCCE02D1AB548384090
:10352C00430704D00F230340042B00D00430430185
:10353C0000D4A0E06A1CFE2D00D18DE08001470A6A
:10354C00D2B2D0053843E4072043C0BCB946B046DC
:10355C00F8BDA81A8046002845DD002A70D0FF2D42
:10356C0000D19EE08023DB041E4343461B2B00DC72
:10357C00D2E00120604443017AD50135FF2D6BD098
:10358C0001239D4A0340400810401843C8E7002E11
:10359C0020D08C4223D02800FF38002839D0571B6C
:1035AC00002D00D09DE06346002B00D1DBE07B1E9C
:1035BC00012F00D10DE1FF2F71D01F0098E0002EDC
:1035CC0000D1A7E0421E012800D1E6E0FF2868D018
:1035DC0010008FE701204140A14200D07FE7FF207F
:1035EC0040428046A8444046002838D0511B002D4C
:1035FC0000D1AEE0FF2A00D1DFE080236046DB047F
:10360C00184384461B2900DCD9E0012015008019E1
:10361C00B1E7FE206A1C104271D1002D00D0A6E04B
:10362C006346002B00D1D9E00022002E00D188E7A0
:10363C00981B430100D4E1E063460C00F01A6FE7DD
:10364C00002E00D1B7E00200013A012800D19CE025
:10365C00FF2826D0904688E7FF22002771E7FE203E
:10366C006A1C104264D0FF2AF6D01500664470081C
:10367C00430700D056E7C308FF2D12D05B025F0A48
:10368C00EAB25EE76246002A00D196E0002E08D02E
:10369C008022D203134204D04846104201D10C00C0
:1036AC004B46002BD8D08027FF031F437F02FF22FD
:1036BC007F0A46E720233A00451B38000135EA40D3
:1036CC005D1BA840431E98410025104328E720238A
:1036DC001B1A32009E40C2403000431E98411043DA
:1036EC000CE7FF2ADBD080236046DB0418438446BA
:1036FC001B2F56DD01200C001500301A00E7634625
:10370C009F1B7B013DD4002F00D0FEE6002400223D
:10371C00002716E70500AFE7320043464146DA4082
:10372C0020235B1A9E403000431E9841104321E732
:10373C00002DA7D16346002B59D00022002E00D1BA
:10374C00FFE630006044430192D52A4B0135184006
:10375C008EE76346002B47D04B1E012915D0FF295D
:10376C002BD019004EE70C004B463D0084E7624617
:10377C00002A8BD1002E92D180270024FF22FF0338
:10378C00DFE663460C00F71ABFE630006044012503
:10379C00430100D46CE70225F2E663460125981B31
:1037AC00AEE6202364466046FC40DF1BB840431E57
:1037BC00984120439FE705005EE74B4671E72023C5
:1037CC0065466046CD40591A8840431E98412843AF
:1037DC001CE763460C000125F01A91E6002E95D0EB
:1037EC000C004F460022ACE64B460D0044E74F461A
:1037FC000022A6E6FFFFFFFBFFFFFF7D002800D0A5
:10380C0036E7002400279CE641024200C30F490A18
:10381C000020120E7E2A03DD9D2A02DD094A98182B
:10382C007047802000040143952A07DC9620821AF9
:10383C00D1404842002BF3D10800F1E7963A914071
:10384C00F7E7C046FFFFFF7FF8B5002813D0C3177A
:10385C00C6185E40C40F300001F076FF9E230500B1
:10386C001B1A962B0FDC082801DD083DAE407602B2
:10387C00760AD8B202E0002400200026C0053043AE
:10388C00E4072043F8BD992B0CDD05223100121AF8
:10389C00D1400A00010030001B318840411E884194
:1038AC0002431600052D12DC31000D4F3940720712
:1038BC0009D00F203040042805D004314A0102D52C
:1038CC009F2339405B1B89014E0AD8B2D6E76A1F89
:1038DC0096403100024F39407207F4D0E9E7C046F8
:1038EC00FFFFFFFB70B5051E0ED001F02DFF9E23D0
:1038FC0004001B1A962B0CDC082801DD083CA540A3
:10390C006D026D0AD8B201E000200025C0052843E5
:10391C0070BD992B09DD020029001B3291404A1E13
:10392C0091410522121AD5400D43052C12DC2900B9
:10393C000C4E31406A0709D00F202840042805D0CE
:10394C0004314A0102D59F2331401B1B89014D0ACA
:10395C00D8B2DBE7621F95402900024E31406A075E
:10396C00F4D0E9E7FFFFFFFBF0B54F464646D646DD
:10397C000D000400C0B51F0011002803620F400A9F
:10398C0010437A00520DE3003C039146640AFA0F8F
:10399C004F0F6E0027439246B846760DED0FC900C7
:1039AC00954200D199E04C46341BA446002C00DC17
:1039BC007CE04A46002A00D1B8E0C54A964200D1C4
:1039CC001CE180223C0012041443A0466246382AB3
:1039DC0000DD61E11F2A00DDCCE164462022121BD0
:1039EC00444694400F00A14664469140E7404C4643
:1039FC004A1E91413C43424621436446E240801AB0
:103A0C005C1AA3429B415F42C71B3B0200D4D0E02F
:103A1C007F027F0A002F00D1FFE0380001F094FEF6
:103A2C0001000839202322005B1A8F40DA408C40B9
:103A3C001743B14200DAFFE0891B4B1C1F2B00DD42
:103A4C00A8E020223900D21A200094409140D8409E
:103A5C00621E9441DF40002601430C43630709D0EA
:103A6C000F232340042B05D0231DA342A441644201
:103A7C003F191C003B0200D49EE0954B01369E4240
:103A8C0000D1B7E0934AE40817407B0771057F0229
:103A9C0023433F0B4A0D12053A43ED072A43180006
:103AAC001100E0BCBA46B146A846F0BD002C4BD084
:103ABC004C46A41BA446002E00D023E104001C435A
:103ACC0000D1AFE16246541E012A00D115E2804DAF
:103ADC00AC4500D1C8E1A4461BE14A46B21A944653
:103AEC00002A00DCACE04A46002A43D0784A9642D1
:103AFC0000D1AFE180223C0012041443A046624680
:103B0C00382A67DC1F2A00DC5FE14746203AD740A1
:103B1C006246202A05D064464022121B444694403B
:103B2C0021434A1E91410C003C4357E03A000A43A2
:103B3C0000D105E12200013A012C00D182E1644C54
:103B4C00A4455BD0944641E7634C771C274200D0D8
:103B5C00C4E004001C43002E00D069E1002C00D10D
:103B6C00BFE144460C4300D0D0E14207DB081343CD
:103B7C00C00829E03A000A4300D170E1624664466D
:103B8C00013A012C00D1E0E0514CA44500D161E197
:103B9C009446B4E73A001F39CA401100202B03D0D9
:103BAC004022D31A9F403C43631E9C4100270026B1
:103BBC000C43630700D053E7B446E4087B07234368
:103BCC00F808434A94451DD06246070352053F0B43
:103BDC00520D60E744460C43621E9441E4189C422B
:103BEC009B415F423F183B02E3D5394B01369E4265
:103BFC0000D0B5E03200002700234CE74207DB0879
:103C0C001343C0081A00024300D1E1E180273F03AF
:103C1C0007433F032E4A3F0B3DE7200001F094FD84
:103C2C00010018311F2900DCFCE60838844027000D
:103C3C000024B14200DBFFE6264A761A17400DE756
:103C4C00002A2FD04A46921B9446002E00D1ADE09C
:103C5C001F4A914500D10FE18022120410436246A5
:103C6C00382A00DD0FE11F2A00DD80E164462022A6
:103C7C001E00121B6746040093409440FE405A1EDF
:103C8C009341F84034431C43804464188C42BF4138
:103C9C007F424E464744A6E742460A4311004A1E5D
:103CAC009141ADE60C4C721C224200D0A1E0020006
:103CBC001A43002E00D0FAE0002A00D145E13A0068
:103CCC000A4300D046E14207DB081343C0087BE7F8
:103CDC00FF070000FFFF7FFFFE07000047465C1A4E
:103CEC00C21BA342BF417F42B94617004A46BF1AC6
:103CFC003A0200D58DE023003B4300D08AE6002039
:103D0C00002561E7B44CA14500D1ADE0802424042A
:103D1C0020436446382C3DDC62461F2C00DDB7E0A6
:103D2C0020251E002D1B0400AB40AC40D640D040DB
:103D3C0042465D1EAB413443121A904623432CE09D
:103D4C004207DB081343C0083BE75C189C429B41CD
:103D5C0040445B42C71801263B0200D429E70226E7
:103D6C009E4A63081740012214401C43FB071C4366
:103D7C007F0873E64446203AD4406246202A05D098
:103D8C0067464022D21B4746974039434A1E914111
:103D9C00214335E60343581E8341CC1AA142BF414F
:103DAC0043467F4255464E46DF1B2EE602001A4321
:103DBC0000D1BDE062466446013A012C00D1E5E039
:103DCC00854CA44558D0944649E764462022121BE2
:103DDC00444694400F00A14664469140E7404C464F
:103DEC004A1E91413C4342460C436146CA408018EE
:103DFC00F4E6794CA24200D1FDE6591899429B4158
:103E0C0040445F42C719FC07490816000C437F0861
:103E1C00CFE6CC1AA142BF4143467F42181A554601
:103E2C00C71BF7E5C9087B0755460B43F808C8E6DE
:103E3C00002C00D081E043460B4315D18020002597
:103E4C000003E3E65C1AA3429B41C71B5B420126BD
:103E5C00FF1ADAE54207DB081343C008D2E6420733
:103E6C00DB081343C008ACE643464246C9085B076F
:103E7C0055460B43D008C5E6434642465B07C90886
:103E8C000B43D008BEE603431C00631E9C41FCE6BA
:103E9C000200203CE24014006246202A03D0402558
:103EAC00AD1AA8400343581E8341234375E7002AEB
:103EBC00E2D03A000A43CDD04207DB0813438022FC
:103ECC00C0081203104206D0FC08144203D1200093
:103EDC00CB087A0713435A0FDB005207DB08134356
:103EEC0090E643460B4300D109E743464246C908D6
:103EFC005B0755460B43D00866E6CC1AA1428941B4
:103F0C003F1A4942554601267F1A7EE542465C1A05
:103F1C00871AA34292415242BF1A3A023DD5CC1A9B
:103F2C00A1428941434649421F1A55467F1A95E5DD
:103F3C007B07C9080B43F80843E64446DB080C43EF
:103F4C0030D142071343C0085CE67B07C9080B431A
:103F5C00F80839E65C189C429B4140445B42C71808
:103F6C003B0200D425E61D4B01261F4021E6040030
:103F7C00203AD4406246202A04D040226646921B46
:103F8C00904003435A1E93411C437EE65C188C42BE
:103F9C008941404449424718DDE623003B4300D1A8
:103FAC00ADE606E6440723438024C00824032042E0
:103FBC0008D04246D608264204D155463000CB08DC
:103FCC0051070B435A0FDB00DB085207134319E66A
:103FDC000023014A1F005EE5FF070000FFFF7FFF83
:103FEC00F0B557464E464546DE46E0B581460500DF
:103FFC000C03480092461F0085B0240B400DCE0FD9
:10400C00002800D156E1D44B984200D172E16B0FDD
:10401C00E4001C4380231B0423439846CF4BED0044
:10402C009B4600239946834400933C037B005046F7
:10403C00240B5B0DFF0F002B00D11FE1C64A9342EE
:10404C0000D162E1C549420F8C46E4005946144345
:10405C00802263441204CB1A14439B46C2000020F6
:10406C0033007B409A464B460F2B27D8BC499B000C
:10407C00CB589F46B246009B022B16D0032B00D187
:10408C008EE2012B00D0D9E00023002400255246FB
:10409C001B052343D20713432800190005B0F0BCBD
:1040AC00BB46B246A946A046F0BD00240025AA4B4B
:1040BC00EDE7BA46A04615000090DCE7444500D277
:1040CC00C7E100D1C2E101235B429C462E00404671
:1040DC000025E3442302140E1C431B0C99462304B5
:1040EC001F0C1202494600920197FEF79FFC02003A
:1040FC007A430B04310C804619438A4207D90123B9
:10410C005B429C460919E0448C4200D807E2881AAD
:10411C004946FEF78BFC09048C4631046646019A2D
:10412C00090C4243030031438A4204D90919013B6B
:10413C008C4200D8EDE1881A424612041A4390468C
:10414C004146009B0E041B0C1F000293009B360C77
:10415C001B04190C0B007343120C7E430391514347
:10416C007A431F0CBC4676186644B14203D98021B1
:10417C0049028C466244310C8A1831041E04360CF8
:10418C008E19904202D312D1B54210D24346591E19
:10419C00009B9C4665441F009D429B415B421B1942
:1041AC00C018844200D2A0E100D19BE18846AE1B2E
:1041BC00B542AD41801A6D42401B844200D1D5E11D
:1041CC004946FEF733FC019A0B044243310C0500BF
:1041DC0019438A4200D96CE1881A4946FEF726FC3D
:1041EC00019A360442430904360C03000E43B242D2
:1041FC0000D953E10398B61A02002D041D43029F07
:10420C002B041B0C5A437B439C46290C4843130C30
:10421C00844463447943984203D980204002844605
:10422C006144180C12041B04120C41189B188E428A
:10423C0000D2FFE000D1FAE001231D43494A5A4461
:10424C00002A00DCAAE06B0700D03DE1ED084346F4
:10425C00DB0106D54246444B1A4090468022D200E0
:10426C005A44424B9A4200DD1FE743465B071D430D
:10427C00434652055C02240B530D08E75246224379
:10428C0000D17BE0002C00D1FAE0200001F05CFAB8
:10429C0002000B3A1D2301009B1A52460839DA40E2
:1042AC008C40144352468A40314B58449B468344BD
:1042BC000020D5E64B462343984644D0002C00D131
:1042CC00CEE0200001F040FA010002000B391D2362
:1042DC005B1A49461000D940083884400B004D4603
:1042EC002343984685402348831A9B4600239946CE
:1042FC0000939AE64B46234398461DD108239946D2
:10430C00063B0025834600938FE65246224309D193
:10431C00022349461943184B89469C460024022027
:10432C00E3449DE603234A461A43134B91469C46AD
:10433C0052460320E34493E60C239946093BA046DE
:10434C008346009371E60423994600239B46013370
:10435C000025009369E6C046FF07000001FCFFFF43
:10436C0068D30008FF030000FFFFFFFEFE070000FC
:10437C00F30300000DFCFFFF01F8FFFF494601238A
:10438C0019438946002401206AE6002380249A46BA
:10439C0000258A4B24037AE601256D4201239B1AE2
:1043AC00382B00DD70E61F2B00DCBFE01F214942DB
:1043BC008A1A4146D1400A00202B04D04146804B3A
:1043CC005B4499400D436B1E9D4107232A431D00FE
:1043DC0000241540134200D1D4E00F2100231140DA
:1043EC00042900D1CBE0111D9142924152429B18FD
:1043FC000A00190200D4C2E001230024002546E67D
:10440C00802341461B03194208D01C4206D11C4391
:10441C002403BA461500694B240B38E68024434626
:10442C0024031C432403B246644B240B2FE6002BBD
:10443C0000D103E7A619681EA64200D28DE08E4279
:10444C0000D2A3E000D1B3E00500F5E6AA4200D902
:10445C0039E64346DE0758086B081E43ED0739E67C
:10446C00484601F071F901000200153120321C2977
:10447C0000DC2CE74B46083883400025984632E791
:10448C0001F062F903001A00153220301C2A00DCFE
:10449C0000E75446083B00229C4005E73619013BD7
:1044AC00B44200D9A6E6B24200D8A3E6831E361960
:1044BC00A0E60919013D8C4200D98DE68A4200D84C
:1044CC008AE6851E091987E60F232B40042B00D1A1
:1044DC00BCE605235B42AB429B4104355B42ED08D5
:1044EC009844B4E6AF4200D960E6824204D800D0CA
:1044FC005CE6AE4200D859E602235B429C46009B28
:10450C00E0449C4665449D429B415B421B19C0188C
:10451C004DE68A4200D80EE6831E09190BE68A4244
:10452C0000D8F4E5831E98460919F0E525492800C2
:10453C0059448D4042468A40691E8D414146D840BF
:10454C00D94002432A430B00510700D151E70F21F8
:10455C001140042900D046E74BE705008E4200D0FD
:10456C006AE6009A934200D066E667E6164A5A4419
:10457C00002A00DC10E701230025984467E65D075C
:10458C005B021C0BD2080023154380E50098023D0A
:10459C0042008242BF417F423C1936190092DDE74E
:1045AC008024434624031C432403044B240B6EE554
:1045BC00009A9A42EAD30500D3E7C046FF070000F1
:1045CC003E0400001E040000FF030000F0B54E4640
:1045DC004546DE4657469046E0B517001A03120BC7
:1045EC000500844619480E034C0091465A00DB0F17
:1045FC009B46360B640DC90F520D844219D0824272
:10460C0010D0012094420ED14E450CD10120C4454E
:10461C0009D1594517D0002C05D130002843431E31
:10462C00984100E00120F0BCBB46B246A946A0462A
:10463C00F0BD330001202B43F5D1A242F3D14B4600
:10464C003B43F0D1E2E70020EDE7C046FF07000056
:10465C00F0B54746CE460400180016001B031B0B92
:10466C002D4D4A00994680B543000F03A446B04631
:10467C003F0B520DC90F5B0DC00FAA4221D0AB42AC
:10468C0013D0002A22D13C43002B02D14D462E439D
:10469C0022D0002C10D0814222D0022001390840B7
:1046AC000138C0BCB946B046F0BD4D462E4329D1A9
:1046BC00002AF0D13C43EED10028F2D10120404237
:1046CC00EFE73D0025431DD19342EED0002BE2D104
:1046DC004C462643DFD1E0E70020002CE1D0DCE79C
:1046EC009A420ADCE8DB4F45D7D80ED000204F4564
:1046FC00D7D20029E2D00800D3E74342584140000A
:10470C000138CEE702204042CBE7C445C5D8002093
:10471C00C445C6D2EDE7C046FF070000F0B54746DA
:10472C00CE460400180016001B031B0B2C4D4A0030
:10473C00994680B543000F03A446B0463F0B520D7B
:10474C00C90F5B0DC00FAA420DD0AB4210D0002A8E
:10475C0027D13C43002B11D14D462E430ED10020C6
:10476C00002C15D00EE03D00254310D1934218D1FA
:10477C004D462E430BD1002A02D13C43002C0BD0CA
:10478C00814214D0022001390840013800E0022097
:10479C00C0BCB946B046F0BD0028F9D1012040425A
:1047AC00F6E7002BECD14C462643E9D1EAE79A42D6
:1047BC0004DD4342584140000138E9E79A42EBDB03
:1047CC004F45DFD806D000204F45E1D20029E5D077
:1047DC000800DDE7C445D5D80020C445D8D2F5E79C
:1047EC00FF070000F0B557464E464546DE46E0B59D
:1047FC0098460C034B000600924687B0240B5B0DC9
:10480C00CF0F002B00D15CE1D94A934200D175E166
:10481C00420FE4001443802212041443D54AC5000D
:10482C00944663440093002399469B464346424674
:10483C001E03D20F5B0050469046360B5B0D00D129
:10484C0020E1CB4A934200D162E1CA49420F8C4627
:10485C0000996344F6008C46164380229C44120453
:10486C0063461643C2000020009300994346013171
:10487C008C4649467B4001930F2926D8BE4B8900B4
:10488C0059588F46434601933400150083465B46C6
:10489C00022B16D0032B00D103E2012B00D0CDE06C
:1048AC00002200240025019B12052243DB071A433A
:1048BC002800110007B0F0BCBB46B246A946A04682
:1048CC00F0BD00240025AA4AEDE7280C2D042D0C80
:1048DC002B00110C1204120C5343984613002F009A
:1048EC00434399464F434F44BB4647460B003F0C4E
:1048FC00BA464343DA440293D14504D980277F0258
:10490C00B9464B44029353461B0C9B4653461F041B
:10491C0043461B041B0C98463B0043440493330C46
:10492C003604360C9846330043439946434643437A
:10493C002F009A46434677435D43380C4D44451946
:10494C00A94503D980235B029946CA443F04280C2D
:10495C003F0C2D04ED19270C2404240C030020001B
:10496C0050437A4391463A0053440593030C9A46BC
:10497C004A43614349445144AB44894503D980239C
:10498C005B0299464A4400040B0C000C09040918FC
:10499C0020009946434670435C437E435F43030CBF
:1049AC009846A41944444A440397A64204D9802348
:1049BC005B029846474403972304029E9A46059B44
:1049CC005E449846AE42AD4176188E428941000451
:1049DC00000C504440446D424719B8469346494236
:1049EC008946C344D94498428041A845AD4193457A
:1049FC009241894589416D4240422843240C5242E0
:104A0C0049420A43039B00198018C7184B46DC0D1A
:104A1C00049B75021D436A1E95414B46F60D7F02A1
:104A2C0035435A023C431543FB0100D41CE10121E0
:104A3C006A080D401543E207154364084F49614469
:104A4C00002900DCB0E06B0709D00F222A40042AB1
:104A5C0005D02A1DAA42AD416D4264191500E3012F
:104A6C0004D58021464AC90014406144454A91420C
:104A7C0000DD26E76207ED08640249051543240BA7
:104A8C004A0D10E75246324300D17FE0002E00D190
:104A9C00DCE0300000F058FE02000B3A1D23010050
:104AAC009B1A52460839DA408E40164352468A40C9
:104ABC00009B3549181A03008C4663440020009370
:104ACC00D3E6250005434AD0002C00D1B0E02000ED
:104ADC0000F03AFE010002000B391D2310005B1A96
:104AEC003100350008388440D94085400C432648B5
:104AFC00831A0093002399469B4697E605002543AD
:104B0C0026D1082200930223002491469B468DE671
:104B1C005246009B324310D1154900268C46634403
:104B2C004946009302231943894602209DE65B46C1
:104B3C000197022B00D0ADE6C3E60D4A0320944644
:104B4C0063444A46009303231A43914652468CE62B
:104B5C000C2200930323050091469B4666E6042332
:104B6C00994600230093013300249B465EE6C04621
:104B7C00FF07000001FCFFFFA8D30008FF030000A3
:104B8C00FFFFFFFEFE0700000DFCFFFF494601235F
:104B9C00194389460026012067E60023802400255E
:104BAC00434A019324037EE60120401A382800DD95
:104BBC0076E61F285BDD1F2223005242511ACB40A0
:104BCC001900202803D03B4A6244944025436A1EB6
:104BDC0095412A000A4307210D000024154011427B
:104BEC005BD00F2100241140042953D0111D914298
:104BFC0092415242A4180A0023024BD501220024F0
:104C0C00002550E680231B031C4209D01E4207D10D
:104C1C0033431C0343461500240B254A019342E6FB
:104C2C008022120314432403214A240B01973AE6F1
:104C3C0000F08AFD01000200153120321C2900DC35
:104C4C004BE7340008380025844050E700F07CFD29
:104C5C0003001A00153220301C2A00DC1EE75646D1
:104C6C00083B00229E4023E7009B9C46E6E6124947
:104C7C00220061442E008D408A40C640691E8D4141
:104C8C0032432A43C4405307B6D00F2111400429A4
:104C9C00ACD1B1E765076402240BD208154300229E
:104CAC0001E68022120314432403014A240BFAE583
:104CBC00FF0700003E0400001E040000F8B5574634
:104CCC004E464546DE46E0B51E0017004A000B0373
:104CDC00520D5B0A9046420F1A43CD0FCD4C310357
:104CEC00C300944670007A0F490AFF009A46B946F1
:104CFC00400DF60F1143A04200D1B1E00122564005
:104D0C00B346B54200D188E04246121A002A00DCB4
:104D1C00AEE0002800D1C1E0BE48804500D151E191
:104D2C00802000040143382A00DD7BE11F2A00DDCE
:104D3C00EEE120203E00801A0C00D640D140874086
:104D4C0062468440521A781E874194463443274366
:104D5C00DC1BA3429B4162465B42D31A99464B46ED
:104D6C001B0200D418E14B465802430A99464B46A5
:104D7C00002B00D137E1484600F0E6FC0100083971
:104D8C002023220048465B1ADA4088408C40434678
:104D9C001043884500DD36E1C91A4B1C1F2B00DD82
:104DAC00EAE020222600D21A01009440DE40D840CE
:104DBC0000239140621E94418146984631430C4336
:104DCC00630709D00F232340042B05D0231DA342D6
:104DDC00A4416442A1441C004B461B0200D4DEE0FB
:104DEC0041468C4B0131994200D1E7E04B468A4851
:104DFC00E4080340180049055B07400223434A0DB1
:104E0C00040B1205ED0722432A4318001100F0BCD5
:104E1C00BB46B246A946A046F8BD4246121A002A25
:104E2C0052DD002800D19CE0A04500D1CAE08020D2
:104E3C0000040143382A00DD49E11F2A00DC97E118
:104E4C0010000E002038C640202A04D04020821AC0
:104E5C0091400F43B9464C46621E944134433AE1AB
:104E6C000A003A4328D0B346B5422BD06B4A424491
:104E7C00002A5DD042464446821A002C00D0F5E050
:104E8C0065461D4300D19CE1551E012A00D1FBE172
:104E9C00604CA24200D1BDE12A00F0E0080038438A
:104EAC0000D1C3E0501E012A00D1A8E1594CA24206
:104EBC0000D187E0020036E701225640B346B542E6
:104ECC0000D021E7554A4244002A00D1B5E04246C1
:104EDC004446821A002C00D138E14E4EB04200D12B
:104EEC00DEE18026644636043443A446382A00DDCD
:104EFC0096E11F2A00DD24E22026B41AA24664465D
:104F0C005646B440A1461C004E46D44026433400BD
:104F1C005646B3405E1EB3411C436346D340C9188A
:104F2C00E419BC42BF417F42B94680468944D8E06F
:104F3C0040463B4C0130204200D0B4E040460028B3
:104F4C0000D044E16046184300D190E1080038439A
:104F5C0000D0AAE16146DB0849070B436146CC0847
:104F6C0027E00800384361D0501E012A00D139E1F6
:104F7C00A24227D002005DE702001F39CA4011008F
:104F8C00202B03D04022D31A98400443631E9C412B
:104F9C000023994698460C43630700D012E74B4612
:104FAC004A46E4085B072343D408424619498A421F
:104FBC000ED024035205240B520D22E70A000024C4
:104FCC0000231EE7DB086246520713436246D408EF
:104FDC001A00224300D1FCE1802212031443240363
:104FEC000C4A240B0DE7200000F0AEFB0100183139
:104FFC001F2900DCC4E60838844043462000002406
:10500C00884500DCC8E6044A5B1A10409846814685
:10501C00D6E6C046FF070000FFFF7FFF01F8FFFF49
:10502C00FE0700000F437A1E974191E66146DB08AC
:10503C0049070B436146CC08B8E74046D34C0130D6
:10504C00204200D0A2E04046002800D001E160469A
:10505C00184300D15EE10800384300D05FE161469F
:10506C00DB0849070B436146CC08A2E7C84DA842B0
:10507C0000D1CFE0802564462D042C43A446382A69
:10508C0056DC1F2A00DDD1E020251E00AD1A644637
:10509C00AB40AC40D6405D1EAB4134432343644629
:1050AC00D440091B49E06046DC1B461AA3428041F0
:1050BC004042814630004E46801B8146000276D429
:1050CC004B46234300D052E60024002571E73943B8
:1050DC000C00621E9441E4189C429B415B42634469
:1050EC0099464B461B0200D456E701239C46A84B1D
:1050FC00E044984538D04B46A6480122034018009E
:10510C00630814401C43C3071C434308994657E6E5
:10511C0010000E002038C640202A04D04020821AED
:10512C0091400F43B9464F467A1E974137430FE6DD
:10513C0062461A4313005A1E9341FC1AA742BF4100
:10514C007F42CB1B99465D46804608E666461E4369
:10515C0000D1BEE0561E012A00D109E18C4CA242BE
:10516C0000D119E13200C1E642460024002348E692
:10517C0020200C00801A3E0087408440D640781EC8
:10518C008741D14034433C438C44A4E7804A90424D
:10519C0000D1E9E0DF199F429B4161445B42C91891
:1051AC00CC077F084B08994680463C43F4E6FC1A32
:1051BC00A742BF4163467F42C91ACB1B99465D4645
:1051CC00D5E5FF084B075D463B43CC08EEE662464F
:1051DC001A4300D082E00B003B431BD180240025F6
:1051EC002403F9E6DC199C429B41614489465B42ED
:1051FC0099444B461B0244D401239846CCE6DC1B55
:10520C006246A3429B41511A5B42CB1A9946012339
:10521C009846A4E5FF084B075D463B43CC08D7E610
:10522C0062461A431400631E9C4179E615006446DD
:10523C00203DEC40A046202A05D040256446AA1A01
:10524C00944023439A465446631E9C414346234351
:10525C0073E762461A4323D00A003A4300D0A0E019
:10526C006246DB08520713436246D408B0E60B00D3
:10527C003B4300D128E7FF084B075D463B43CC0876
:10528C0097E60223984636E7FC1AA742BF416346CD
:10529C007F42C91ACB1B994601235D4698465EE5B1
:1052AC004B07FF083B43CC0892E6DC1B6046A3424D
:1052BC00B641401A7642801B8146000260D5FC1A2A
:1052CC00A742BF4163467F42C91ACB1B99465D4634
:1052DC0076E5FF084B073B43CC0867E60A00DB0882
:1052EC003A4300D16FE66246520713436246D40834
:1052FC0080221203144207D0C808104204D15D4624
:10530C000400FB0849070B435A0FDB00DB0852076C
:10531C0013435DE64B07FF083B43CC0849E6DC1919
:10532C009C429B41614489465B4299444B461B021B
:10533C0000D431E64A46174B1A4001239146984651
:10534C002AE616006446203EF440A046202A05D0EA
:10535C0040266446B21A944023439A465446631E30
:10536C009C4143461C43DBE502000024002348E536
:10537C00DC19BC42BF41614489467F42B94438E7DD
:10538C004B46234300D19FE606E6C046FE070000CD
:10539C00FF070000FFFF7FFFFF084B073B43CC08D4
:1053AC0016E66246DB08520713436246D408802295
:1053BC001203144207D0C808104204D15D46040001
:1053CC00FB0849070B435A0FDB005207DB0813435A
:1053DC00FEE50023014A1C0013E5C046FF07000050
:1053EC0070B505000C481C0316005B000A0349004D
:1053FC00120B490D240B5B0D814208D0064A00208C
:10540C00934203D120003043431E984170BD0120CC
:10541C002A43FBD1F2E7C046FF0700000A0030B573
:10542C00134C530009030500090B00205B0DD20F30
:10543C00A34204DD0F48834202DD0F4BD01830BD70
:10544C008020400301430D48C01A1F2808DD0C487A
:10545C00C31AD9400B005842002AF0D11800EEE7CD
:10546C00084CC540A446634499400B002B43F2E71B
:10547C00FE0300001D040000FFFFFF7F330400004B
:10548C0013040000EDFBFFFF70B5002816D0C31706
:10549C00C5185D40C40F280000F056F9114A121AC5
:1054AC000A2816DC03002E0015339E400B23181A15
:1054BC00C54052052D032D0B530D03E00024002392
:1054CC00002500261B052B43E4072343300019005D
:1054DC0070BD0B38854052052D0300262D0B530D46
:1054EC00F0E7C0461E04000010B5041E10D000F0FA
:1054FC002BF90F4B1B1A0A2811DC0B222100121A54
:10550C00D14015300A035B058440120B5B0D01E0A2
:10551C00002300221B0513432000190010BD22009C
:10552C000B3882405B0512030024120B5B0DF1E774
:10553C001E04000070B543004602C40FFE201B0E73
:10554C00591C750A08420CD0E022920094466D0753
:10555C00360B63441B053343E4072343280019002F
:10556C0070BD002B14D1002D1BD0280000F0ECF8DE
:10557C000A281CDC0B232E001B1ADE4003001533FB
:10558C009D400E4A3603121A5205360B530DE1E7B5
:10559C00002D09D08022360B1203094B6D071643E0
:1055AC00D8E700230026D5E70026054BD2E70300F9
:1055BC000B3B9D402E000025E3E7C046890300000D
:1055CC00FF07000002004B00F0B55B0D0C033D4ED5
:1055DC00640A400F5F1CC90F0443D50037420AD040
:1055EC0039481E18FE2E16DDFF200024C00520436E
:1055FC00C9070843F0BD002B06D12C4326D0052249
:10560C009201540AD8B2F1E72543EDD08020C003B3
:10561C000443FF20EAE7002E1BDD9201531E9A4142
:10562C00E4006D0F22432A43530748D00F23134045
:10563C00042B00D004328023DB0413403FD0701CB9
:10564C00FE2ED1D09201540AC0B2CFE70020002424
:10565C00CCE73200173222DB8020000420431E24CA
:10566C00A41B1F2C1DDD02225242961B0200F2408D
:10567C001600202C04D0154A9446634498400543E8
:10568C002A00531E9A41324300265307CED1802460
:10569C001300E404012023402242D3D1B0E70023BD
:1056AC00ADE70B4A94462A00E24014002A006344FA
:1056BC009A409840551EAA4102432243E4E7330026
:1056CC009EE7C046FE07000080FCFFFFA2FCFFFF28
:1056DC0082FCFFFF844608006146FFE71FB500F01F
:1056EC00BDF8002801D40021C8421FBD10B500F040
:1056FC0049F84042013010BD10B500F0AFF8002859
:10570C0001DB002010BD012010BDC04610B500F01B
:10571C00A5F8002801DD002010BD012010BDC046F9
:10572C0010B500F055F8002801DC002010BD012058
:10573C0010BDC04610B500F04BF8002801DA00206F
:10574C0010BD012010BDC0461C2101231B04984232
:10575C0001D3000C10391B0A984201D3000A0839F6
:10576C001B09984201D30009043902A2105C4018AD
:10577C007047C04604030202010101010000000051
:10578C000000000070B5420045024E024C00C30FF1
:10579C006D0A0120120E760A240EC90FFF2A06D0BC
:1057AC00FF2C03D0A24201D1B54206D070BD002D12
:1057BC00FCD1FF2CFAD1002EF8D18B4206D001205F
:1057CC00002AF3D12800431E9841EFE70020EDE7B3
:1057DC0070B5420045024E024C00C30F6D0A120E0A
:1057EC00760A240EC80FFF2A1BD0FF2C0ED0002ADD
:1057FC001BD1002C01D1002E1CD0002D0CD08342CB
:10580C001CD00221581E0840013870BD002E22D138
:10581C00002AF4D1002DF2D10028F6D1012040420B
:10582C00F3E7002D17D1FF2CF0D0002CE7D1002E80
:10583C00E5D1E6E70020002DE7D0E2E7A24205DC47
:10584C00EADBB54202D8E7D30020DEE743425841F9
:10585C0040000138D9E702204042D6E770B542003B
:10586C0045024E024C00C30F6D0A120E760A240E2E
:10587C00C80FFF2A0BD0FF2C0DD0002A1FD1002CF3
:10588C0016D1002E14D10020002D10D009E0002DCF
:10589C000CD1FF2C13D1002E08D1002A08D0834242
:1058AC0012D00221581E0840013800E0022070BDC1
:1058BC00002DF4D10028FAD101204042F7E7002C4A
:1058CC00EDD1002EEBD1ECE7A24205DCF2DBB542C8
:1058DC0002D8EFD30020EAE7434258414000013898
:1058EC00E5E7C04680B586B000AFB860F9607A6075
:1058FC00002200233A617B617868FFF7F5FDBA68F6
:10590C00FB68FEF76FFF02000B00386A796AFEF73E
:10591C002BF802000B003A617B617868FFF7E4FD1D
:10592C000022084BFEF720F802000B003869796959
:10593C00FEF756FB02000B0010001900BD4606B026
:10594C0080BDC0460000F03F80B588B000AFB860A5
:10595C00F9607A6000220023BA61FB610022002307
:10596C003A617B617868FFF78FFD0022164BFDF7DB
:10597C00FBFF02000B0000208021C905FEF730FB65
:10598C0002000B003A617B61BA68FB68B86AF96A7D
:10599C00FFF794F902000B00100019003A697B69BB
:1059AC00FEF720FF02000B00B868F968FDF7DCFF7A
:1059BC0002000B00BA61FB61BA69FB6910001900A7
:1059CC00BD4608B080BDC0460000F03F90B587B022
:1059DC0002AFB860F9607A607B685B685A1C7B68C0
:1059EC005A607B685B687A681288934212D27B6833
:1059FC009868D9687B685B685C1EBA68FB68009223
:105A0C0001932200FFF76EFF02000B0079688A6099
:105A1C00CB6011E07B689868D9687B681B881C0098
:105A2C00BA68FB68009201932200FFF78DFF020019
:105A3C000B0079688A60CB60C046BD4605B090BD4E
:105A4C00B0B58EB000AFF860B9605D4B5D4A1A60BE
:105A5C005B4B5D4A5A605A4B5C4A9A60584B002229
:105A6C00DA60574B00221A61554B00229A61544B55
:105A7C000022DA61524B00221A62514B00225A6208
:105A8C00534B504A1A60524B4F4A5A60504B4F4A34
:105A9C009A604F4B0022DA604D4B00221A614C4B3E
:105AAC0000229A614A4B0022DA61494B00221A62A9
:105ABC00474B00225A6200F037FE00F09FFE0300B5
:105ACC001800FFF7E1FC02000B003A637B6300F067
:105ADC009FFE03001800FFF7D7FC02000B00BA6210
:105AEC00FB6200F09FFE03001800FFF7CDFC0200E4
:105AFC000B003A627B623A6A7B6AB86AF96A07F011
:105B0C0060F880229205334BFEF76CFE02000B000E
:105B1C00BA61FB613B6B1C007B6B802212065A4006
:105B2C001500BA6AFB6AB86AF96AFEF75BFE0200F6
:105B3C000B003A607B603A6A7B6A386A796AFEF7D6
:105B4C0051FE02000B0038687968FDF70DFF02006A
:105B5C000B001000190007F038F802000B002000B1
:105B6C002900FEF73DFA02000B001000190006F0A8
:105B7C00A5FE80229205174BFEF734FE02000B00A7
:105B8C003A617B61B869F969FFF71CFD021C0C4B8B
:105B9C00DA6038697969FFF715FD021C0C4BDA6085
:105BAC000D4BBA681A60F868FDF76EF802000B4BE3
:105BBC001A600B4B00221A60C046BD460EB0B0BD39
:105BCC003C0100206F12833AA69B443B8FC2F53CEC
:105BDC0064010020DCA54C40B00100209C01002099
:105BEC0098010020F0B5C64600B594B000AF002275
:105BFC000023BA64FB6400220023BA63FB6300F049
:105C0C00F9F90200D74B1A60D64B1A68D64B1B68B1
:105C1C00D31A1800FDF766FE021CD44B1B68191C26
:105C2C00101CFDF705FA031C181CFFF783FC02007F
:105C3C000B003A637B63CB4B1A68CB4B1A6000F0BA
:105C4C00DDFD03001800FFF71FFC02000B00C84924
:105C5C000A604B6000F0DCFD03001800FFF714FC39
:105C6C0002000B00C3490A604B6000F0DBFD03002F
:105C7C001800FFF709FC02000B00BF490A604B60DB
:105C8C0000F0DAFD03001800FFF7FEFB02000B002A
:105C9C00BA490A604B6000F0D9FD03001800FFF709
:105CAC00F3FB02000B00B6490A604B6000F0D8FD14
:105CBC0003001800FFF7E8FB02000B00B1490A6073
:105CCC004B60AC4B18685968AB4B1A685B6806F0B4
:105CDC0078FF80229205AC4BFEF784FD02000B008E
:105CEC00BA62FB62A24B1A685B681100B960802132
:105CFC0009065940F9609F4B186859689D4B1A6802
:105D0C005B68FEF76FFD02000B003A607B609A4BFC
:105D1C0018685968984B1A685B68FEF763FD0200B7
:105D2C000B0038687968FDF71FFE02000B001000AD
:105D3C00190006F04AFF02000B00B868F968FEF77C
:105D4C004FF902000B001000190006F0B7FD80227D
:105D5C0092058D4BFEF746FD02000B003A627B620A
:105D6C00864B186859688022D205884BFEF73AFD9D
:105D7C0002000B00BA61FB61814B186859688022E4
:105D8C00D205824BFEF72EFD02000B003A647B64B9
:105D9C007C4B186859687E4B1A685B68FEF78EFF5F
:105DAC0002000B00100019008022D205774BFEF781
:105DBC0019FD02000B003A617B613A6B7B6B386911
:105DCC007969FEF70FFD02000B0010001900714BF2
:105DDC001A685B68FDF7C8FD02000B006D490A608C
:105DEC004B606C4B1868596800226B4BFCF738FF02
:105DFC00031E0CD0674B186859680022664BFEF7DF
:105E0C005DFF02000B0063490A604B6014E0614BBC
:105E1C00186859680022614BFCF70EFF031E0BD06B
:105E2C005C4B1868596800225B4BFDF79DFD020026
:105E3C000B0058490A604B600022594BB86AF96A4A
:105E4C00FCF7FAFE031E07D00022564BB86CF96C17
:105E5C00FCF706FF031E0FD10022524BB86AF96AF9
:105E6C00FCF7FEFE031E13D000224D4BB86CF96CF0
:105E7C00FCF7E2FE031E0BD0B86AF96AFFF7A2FB2F
:105E8C00021C494BDA60BA6AFB6ABA64FB641BE019
:105E9C00B86AF96AFFF796FB061CB869F969FFF74F
:105EAC0091FB8046386B796BFFF78CFB031C1A1C3B
:105EBC004146301C00F0C4F8031C181CFFF73AFBD9
:105ECC0002000B00BA64FB64B86CF96CFFF7A6FA1D
:105EDC000300DA179B1853405A2B08DD3B6C1C004F
:105EEC007B6C802212065A4015003C647D64386A33
:105EFC00796AFFF767FB041C386C796CFFF762FB5F
:105F0C00051C386B796BFFF75DFB031C1A1C291CF5
:105F1C00201C00F0B3F9031C181CFFF70BFB02004C
:105F2C000B00BA63FB63B86CF96CFFF74BFB021CFC
:105F3C001E4B1A60B86BF96BFFF744FB021C1C4B31
:105F4C001A60144B1A685B6810001900FFF73AFBD3
:105F5C00021C184B1A60C046BD4614B080BCB84633
:105F6C00F0BDC046E8010020EC010020B00100208B
:105F7C00B8010020C0010020C8010020D001002081
:105F8C00D8010020E0010020DCA54C4008AC7C3F8F
:105F9C00200000209001002000807640008076C018
:105FAC00008056C0008056403C010020A801002013
:105FBC00A4010020AC01002080B500AF024B1B688F
:105FCC00181CBD4680BDC046A401002080B500AFA2
:105FDC00024B1B68181CBD4680BDC046A8010020A2
:105FEC0080B500AF024B1B68181CBD4680BDC04677
:105FFC00AC01002080B500AF01F0ACFA0300180032
:10600C00BD4680BD80B500AF024B01221A70C04660
:10601C00BD4680BDA001002080B500AF024B1B78AF
:10602C001800BD4680BDC046A001002080B500AF61
:10603C00024B00221A70C046BD4680BDA001002054
:10604C00B0B58AB000AFF860B9607A608A4B1B6952
:10605C00191CB868FDF72AFA031C1A1C864B5A61E6
:10606C00854BDC68844B5B697968181CFDF7F8F884
:10607C00031C191C201CFCF73DFE031C1A1C7E4B38
:10608C00DA607D4B9C697C4B5B6A7968181CFDF768
:10609C00E7F8031C1A1C784BDB69191C101CFDF764
:1060AC0005FA031C1A1C744B1B6A191C101CFDF7F7
:1060BC00FDF9031C1A1C704B1B68191C101CFCF7F7
:1060CC0019FE031C7968181CFDF7CAF8031C191C6F
:1060DC00201CFCF70FFE031C1A1C674B9A61664BC5
:1060EC00DC69654B5B6A7968181CFDF7B9F8031C11
:1060FC00191C201CFDF7DAF9031C1A1C5E4BDA6123
:10610C005D4B1C6A5C4B5B6A7968181CFDF7A8F840
:10611C00031C191C201CFDF7C9F9031C1A1C564B37
:10612C001A62554B5C6A544B5B687968181CFDF716
:10613C0097F8031C191C201CFCF7DCFD031C1A1C13
:10614C004D4B5A624C4B9A694B4B9B68191C101C5B
:10615C00FCF7D0FD031C7B62474B9B69796A181CCA
:10616C00FCF766FF031C1A1C10257B191A60424BA6
:10617C001B6A796A181CFCF75BFF031C1A1C7B1941
:10618C005A603D4BDB68191CF868FDF78FF9031C4E
:10619C003B62394BDC687B191B68396A181CFDF7AC
:1061AC005FF8031C191C201CFCF7A4FD031C1A1C13
:1061BC00314BDA60304B1C697B195B68396A181CEF
:1061CC00FDF74EF8031C191C201CFCF793FD031C57
:1061DC001A1C294B1A61284B9B69FB61264BDB6906
:1061EC00BB61254B9C697B191B68F969181CFDF771
:1061FC0037F8031C191C201CFDF758F9031C1A1C3A
:10620C001D4B9A611C4BDC697B191B68B969181C06
:10621C00FDF726F8031C191C201CFDF747F9031C7D
:10622C001A1C154BDA61144B1C6A7B195B68F969F3
:10623C00181CFDF715F8031C191C201CFDF736F96A
:10624C00031C1A1C0C4B1A620B4B5C6A7B195B68A7
:10625C00B969181CFDF704F8031C191C201CFDF768
:10626C0025F9031C1A1C044B5A62034BDB68181CDF
:10627C00BD460AB0B0BDC0463C010020B0B58AB0E6
:10628C0000AFF860B9607A608A4B1B69191CB8685A
:10629C00FDF70CF9031C1A1C864B5A61854BDC6804
:1062AC00844B5B697968181CFCF7DAFF031C191C1A
:1062BC00201CFCF71FFD031C1A1C7E4BDA607D4B67
:1062CC009C697C4B5B6A7968181CFCF7C9FF031C42
:1062DC001A1C784BDB69191C101CFDF7E7F8031C22
:1062EC001A1C744B1B6A191C101CFDF7DFF8031CDD
:1062FC001A1C704B1B68191C101CFCF7FBFC031CB4
:10630C007968181CFCF7ACFF031C191C201CFCF74B
:10631C00F1FC031C1A1C674B9A61664BDC69654BDC
:10632C005B6A7968181CFCF79BFF031C191C201C6A
:10633C00FDF7BCF8031C1A1C5E4BDA615D4B1C6A42
:10634C005C4B5B6A7968181CFCF78AFF031C191CF0
:10635C00201CFDF7ABF8031C1A1C564B1A62554B4C
:10636C005C6A544B5B687968181CFCF779FF031C5A
:10637C00191C201CFCF7BEFC031C1A1C4D4B5A624A
:10638C004C4B9A694B4B9B68191C101CFCF7B2FCCC
:10639C00031C7B62474B9B69796A181CFCF748FE0F
:1063AC00031C1A1C10257B191A60424B1B6A796A54
:1063BC00181CFCF73DFE031C1A1C7B195A603D4B44
:1063CC00DB68191CF868FDF771F8031C3B62394B4C
:1063DC00DC687B191B68396A181CFCF741FF031C2D
:1063EC00191C201CFCF786FC031C1A1C314BDA60B0
:1063FC00304B1C697B195B68396A181CFCF730FF41
:10640C00031C191C201CFCF775FC031C1A1C294BC3
:10641C001A61284B9B69FB61264BDB69BB61254BE1
:10642C009C697B191B68F969181CFCF719FF031C84
:10643C00191C201CFDF73AF8031C1A1C1D4B9A6101
:10644C001C4BDC697B191B68B969181CFCF708FF2D
:10645C00031C191C201CFDF729F8031C1A1C154BD6
:10646C00DA61144B1C6A7B195B68F969181CFCF720
:10647C00F7FE031C191C201CFDF718F8031C1A1C32
:10648C000C4B1A620B4B5C6A7B195B68B969181C64
:10649C00FCF7E6FE031C191C201CFDF707F8031C77
:1064AC001A1C044B5A62034BDB68181CBD460AB01D
:1064BC00B0BDC0466401002080B582B000AF7860EA
:1064CC000A00BB1C1A807B68180003F05BFF054BAD
:1064DC00BA1C12889A80034B7A689A60C046BD46F3
:1064EC0002B080BDF001002090B585B000AF020075
:1064FC00FB1D1A701FE00F243B19012219000F20FD
:10650C0000F0C2F9031E11D13B191B786C2B0BD078
:10651C003B191B78692B07D03B191B786A2B03D0CE
:10652C003B191B786B2B01D1002309E0FB1D1A785A
:10653C00FB1D013A1A70FB1D1B78002BDBD10123CC
:10654C001800BD4605B090BD90B585B000AF0400F5
:10655C0008001100FB1D221C1A70BB1D021C1A70B6
:10656C007B1D0A1C1A70FB1D1B781B015AB2BB1D2C
:10657C001B789B005BB20F210B405BB213435AB2EA
:10658C007B1D1B785BB203210B405BB213435BB2E8
:10659C00DAB20F23FB181A707B1D1A78BB1D197801
:1065AC00FB1D1B78180000F015F8031E01D0022308
:1065BC000BE00F23FB1801221900102000F088F9C2
:1065CC00031E01D0012300E000231800BD4605B0D6
:1065DC0090BD000090B583B000AF0400080011001E
:1065EC00FB1D221C1A70BB1D021C1A707B1D0A1C81
:1065FC001A70FB1D1B78002B03D0FB1D1B780A2B7C
:10660C0001D9022310E0BB1D1B78032B01D90223F7
:10661C000AE07B1D1B78032B01D9022304E0044BF9
:10662C00BA1D12781A7000231800BD4603B090BD35
:10663C00F001002080B584B000AF0200FB1D1A7081
:10664C00BB1D0A1C1A70FB1D1B781B015AB2BB1D0B
:10665C001B785B005BB20F210B405BB213435BB248
:10666C00DAB20F217B181A707B181B780122934326
:10667C00DAB27B181A70BB1D1A78FB1D1B7811003F
:10668C00180000F025F8031E07D00F490F4BB82255
:10669C00180004F09DFA022311E00F23FB180122CD
:1066AC001900112000F014F9031E07D00649074BFE
:1066BC00BE22180004F08CFA012300E0002318001D
:1066CC00BD4604B080BDC046E8D3000800CF00082A
:1066DC0080B582B000AF0200FB1D1A70BB1D0A1CF6
:1066EC001A70FB1D1B78002B03D0FB1D1B78082B8D
:1066FC0001D9022312E0BB1D1B78062B07D8BB1D4A
:10670C001B78032B03D0BB1D1B78052B01D1022357
:10671C0004E0044BBA1D12785A7000231800BD46D1
:10672C0002B080BDF001002080B584B000AF3B000A
:10673C0000221A6004330A220021180005F087FB9E
:10674C003B000E221900202000F09EF8031E4ED1B3
:10675C003B005B781B021AB23B001B781BB2134345
:10676C001AB2254B9A813B00DB781B021AB23B0014
:10677C009B781BB213431AB21F4BDA803B005B7938
:10678C001B021AB23B001B791BB213431AB21A4BF1
:10679C001A813B00DB791B021AB23B009B791BB2BE
:1067AC0013431AB2144B5A813B005B7A1B021AB288
:1067BC003B001B7A1BB213431AB20F4B1A803B00DF
:1067CC00DB7A1B021AB23B009B7A1BB213431AB240
:1067DC00094B5A803B005B7B1B021AB23B001B7BB4
:1067EC001BB213431AB2044B9A80002300E001231E
:1067FC001800BD4604B080BDFC01002080B500AF80
:10680C00024B00229B5E1800BD4680BDFC0100209F
:10681C0080B500AF024B02229B5E1800BD4680BDC6
:10682C00FC01002080B500AF024B04229B5E1800D7
:10683C00BD4680BDFC01002080B500AF024B062296
:10684C009B5E1800BD4680BDFC01002080B500AFEA
:10685C00024B08229B5E1800BD4680BDFC01002047
:10686C0080B500AF024B0A229B5E1800BD4680BD6E
:10687C00FC01002080B500AF024B0C229B5E18007F
:10688C00BD4680BDFC010020B0B584B002AF3960BC
:10689C001100FB1D021C1A703B1D0A1C1A800B4BAD
:1068AC0098680A4B9B883A1D15883C68FA1D11782C
:1068BC0000932B00220003F07DFD031E01D1012368
:1068CC0000E000231800BD4602B0B0BDF00100206E
:1068DC00B0B58EB002AF39601100FB1D021C1A70EE
:1068EC003B1D0A1C1A800C23FB18FF221A60043370
:1068FC001C220021180005F0AAFA3B1D1B88202B36
:10690C0001D902234BE0284B9868274B9B883A1DF2
:10691C0015883C68FA1D117800932B00220003F0B7
:10692C0085FD031E01D1012339E01F4B98681E4BD6
:10693C009B883A1D15880C22BC18FA1D11780093FF
:10694C002B00220003F036FD031E01D1012326E0AB
:10695C002F23FB1800221A7018E02F217B181B78AC
:10696C000C22BA18D25C7B181B783968CB181B78B0
:10697C009A4205D00D4B180004F02AF903230EE0BF
:10698C002F217B181A787B1801321A702F23FB18D1
:10699C001B789BB23A1D12889A42DED8002318004D
:1069AC00BD460CB0B0BDC046F001002008CF0008B9
:1069BC0008B490B58AB002AFF860B9607A60002371
:1069CC00FB61B9681D4C1E4AF8687B680093230074
:1069DC0003F0BEFC0300FB613023FB187B61FB69F9
:1069EC00FA68D318BB61FB690133BA68D31A190072
:1069FC007B69FA6AB86903F0BDFA0300FB61FB69B5
:106A0C00BA69D31823221A70FB690133FB61FB6945
:106A1C00BA69D3180D221A70FB690133FB61FB694B
:106A2C00BA69D3180A221A70FB6901331800BD46E3
:106A3C0008B090BC08BC01B01847C0466A030020DF
:106A4C0028CF000880B586B000AFF8607A600B20C4
:106A5C003B180A1C1A703B181A78FB6811001800B6
:106A6C0005F012FB03007B617B69002B07D07A6970
:106A7C00FB68D21A7B68934202DD130000E000230E
:106A8C001800BD4606B080BDB0B588B002AFF86046
:106A9C00B9607A603B601723FB1800221A703B68C0
:106AAC0010331B68002B01D1BB6A23E03B68103309
:106ABC001B68180005F092F9020017217B181A7058
:106ACC000E4B08007A184D2112785A543B181B783B
:106ADC000A4A4D21525C1500094CBA6880214900C4
:106AEC000848019500932300FFF762FF064B012233
:106AFC001A60BB6A1800BD4606B0B0BD8403002006
:106B0C005CCF0008100200200C020020F0B58BB006
:106B1C0004AFF860B9607A603B601723FB18002261
:106B2C001A703B6810331B68002B01D13B6B44E09F
:106B3C003B6810331B68180005F050F90200172150
:106B4C007B181A707B181B78012B1ED13B681433F1
:106B5C001B68002B12D03B6814331B68180005F01F
:106B6C003DF903001A00174BDA60164BDB68002B5B
:106B7C0008D1154B1A6A134BDA6003E0124B1A6AF0
:106B8C00104BDA60114B01221A601723FB181A788C
:106B9C000C4B19690B4BDB680D4EBD688020440013
:106BAC000C4802930191009233002A002100FFF758
:106BBC00FFFE094B01221A603B6B1800BD4607B063
:106BCC00F0BDC046680300208403002010030020A1
:106BDC0064CF0008100200200C020020F0B58BB02E
:106BEC0004AFF860B9607A603B601723FB18002291
:106BFC001A703B6810331B68002B01D13B6B44E0CF
:106C0C003B6810331B68180005F0E8F802001721E8
:106C1C007B181A707B181B78012B1ED13B68143320
:106C2C001B68002B12D03B6814331B68180005F04E
:106C3C00D5F803001A00174B1A61164B1B69002B71
:106C4C0008D1154B1A6A134B1A6103E0124B1A6ADE
:106C5C00104B1A61114B01221A601723FB181A787A
:106C6C000C4B19690B4BDB680D4EBD688020440042
:106C7C000C4802930191009233002A002100FFF787
:106C8C0097FE094B01221A603B6B1800BD4607B0FA
:106C9C00F0BDC046680300208403002010030020D0
:106CAC0064CF0008100200200C020020B0B588B0A0
:106CBC0002AFF860B9607A603B601723FB180022C2
:106CCC001A703B6810331B68002B01D1BB6A39E08A
:106CDC003B6810331B68180005F080F80200172180
:106CEC007B181A707B181B78012B17D13B68143357
:106CFC001B68002B0FD03B6814331B68180005F081
:106D0C006DF803003B613B69DA17D31ADB0FDBB27A
:106D1C001A000E4BDA760E4B01221A601723FB1861
:106D2C001B780A4AD27E15000A4CBA6880214900A9
:106D3C000948019500932300FFF73AFE074B012207
:106D4C001A60BB6A1800BD4606B0B0BD68030020CF
:106D5C00100300205CCF0008100200200C02002061
:106D6C00B0B588B002AFF860B9607A603B601723A9
:106D7C00FB1800221A703B6810331B68002B01D1E2
:106D8C00BB6A33E03B6810331B68180005F026F82B
:106D9C00020017217B181A707B181B78012B11D15C
:106DAC003B6814331B68002B09D03B6814331B68F9
:106DBC00180005F013F80300DAB20E4B9A760E4B5E
:106DCC0001221A601723FB181B780A4A927E1500C1
:106DDC000A4CBA68802149000948019500932300A8
:106DEC00FFF7E6FD074B01221A60BB6A1800BD468F
:106DFC0006B0B0BD68030020100300205CCF000873
:106E0C00100200200C020020F0B5CE46474680B59B
:106E1C008FB006AFF860B9607A603B601F23FB1837
:106E2C0000221A703B6810331B68002B01D13B6C9D
:106E3C0080E03B6810331B68180004F0CFFF0200A1
:106E4C001F217B181A707B181B78012B4ED13B68C5
:106E5C0014331B68002B09D03B6814331B681800D3
:106E6C0004F0BCFF03009AB2364B9A823B6818338D
:106E7C001B68002B09D03B6818331B68180004F002
:106E8C00ADFF0300DAB22F4BDA753B681C331B687D
:106E9C00002B11D03B681C331B68180004F09EFFBC
:106EAC000300BB61BB69022B06DDBB691E2B03DC37
:106EBC00BB69DAB2234B1A763B6820331B68002B74
:106ECC0011D03B6820331B68180004F087FF0300C7
:106EDC007B617B69022B06DD7B691E2B03DC7B69E6
:106EEC00DAB2184B5A76184B01221A601F23FB1882
:106EFC001B789946134A928A1500124AD27D1600C5
:106F0C00104A127E94460F4A527E90460F4CBA6835
:106F1C00802149000E48434604936346039302962E
:106F2C0001954B4600932300FFF742FD094B0122CC
:106F3C001A603B6C1800BD4609B0C0BCB946B046DF
:106F4C00F0BDC046680300201003002070CF00087D
:106F5C00100200200C020020B0B588B002AFF8601F
:106F6C00B9607A603B601723FB1800221A703B68EB
:106F7C0010331B68002B01D1BB6A3BE03B6810331C
:106F8C001B68180004F02AFF020017217B181A70E6
:106F9C007B181B78012B1AD1184B0A2200211800E0
:106FAC0004F055FF3B6814331C683B6814331B68B2
:106FBC000A2223211800FFF745FD03001A000F4B8E
:106FCC002100180005F080F80D4B01221A601723E0
:106FDC00FB181B780B4DBC68802251000A48074AED
:106FEC00019200932B002200FFF7E2FC074B0122D9
:106FFC001A60BB6A1800BD4606B0B0BD6A0300201B
:10700C001003002080CF0008100200200C0200208A
:10701C0090B589B002AFF860B9607A603B60172315
:10702C00FB1800221A703B6810331B68002B01D12F
:10703C00BB6A21E03B6810331B68180004F0CEFEDD
:10704C00020017217B181A707B181B78012B03D1B7
:10705C000B4B1A680B4B1A651723FB181B780A4C41
:10706C00BA6880214900094800932300FFF7A0FC6F
:10707C00074B01221A60BB6A1800BD4607B090BDD1
:10708C00600300208403002088CF00081002002039
:10709C000C020020F0B5CE46474680B58FB008AF45
:1070AC00F860B9607A603B601723FB1800221A70F5
:1070BC003B6810331B68002B01D1BB6B30E03B6885
:1070CC0010331B68180004F089FE020017217B188E
:1070DC001A707B181A78164B9B7E9846144BDB7DE6
:1070EC009946134B1969124BDB6812488446BE68EB
:1070FC0080204500104C11480690114805900493CF
:10710C0003914B460293434601930092634632002F
:10711C0029002000FFF74CFC0A4B01221A60BB6BC4
:10712C001800BD4607B0C0BCB946B046F0BDC0465D
:10713C00680300208CCF000810020020A4CF0008A8
:10714C006A0300200C020020F0B5B1B002AFF86069
:10715C00B9607A600023B422BA1813600023B022FD
:10716C00BA1813600023AC22BA181360BB68A822AB
:10717C00BA1813608C23FB1800221A600433072200
:10718C000021180004F063FE0023A422BA18136037
:10719C000023A0243A1913607823FB1800221A60EC
:1071AC00043310220021180004F051FE00233A1978
:1071BC00136023E0A0217B181B68BA68D3181B78D6
:1071CC00232B0DD07B181B68BA68D3181B780A2B9D
:1071DC0006D07B181B68BA68D3181B78002B07D114
:1071EC00A023FB181B680133A422BA1813600BE010
:1071FC00A022BB181B680133BA181360A023FB181C
:10720C001A687B689A42D5DBA423FB181B68002BF9
:10721C0001D100237AE100239C22BA181360CEE03E
:10722C009C217B181B68BA68D3181B782C2B15D0A3
:10723C007B181B68BA68D3181B780A2B0ED07B18E6
:10724C001B68BA68D3181B78232B07D07B181B68D4
:10725C00BA68D3181B78002B00D08DE0AC23FB1838
:10726C001B68002B59DDAB49A823FB181B680422B3
:10727C00180004F017FF031E03D10023B022BA1824
:10728C001360B022BB181B68982439190B60BB180B
:10729C001B6819211800FBF7B3FC0B001A00142310
:1072AC00FB189200A82179180968D1502200BB184C
:1072BC001B68032B33D0BB181B68032B31DCBB18AA
:1072CC001B68022B19D0BB181B68022B29DCBB18BE
:1072DC001B68002B04D0BB181B68012B23D020E0AB
:1072EC008C49A823FB181B680422180004F0DAFE52
:1072FC00031E1AD001235B4208E1AC23FB181B6868
:10730C000A2B00DD0A231A00A823FB1819688C230A
:10731C00FB18180004F092FD08E0C04606E0C046D9
:10732C0004E0C04602E0C04600E0C046B0217B1835
:10733C001B6801337A1813607B181B68182B48DC08
:10734C000023AC22BA1813609C23FB181B68013372
:10735C00BA68D318A8243A1913607B181B68192132
:10736C001800FBF74DFC0B001A001423FB189200BD
:10737C0039190968D1501CE09C23FB181B68BA68AA
:10738C00D418AC257B191B6814211800FBF74EFB95
:10739C000B001A00217878203B1899547B191B6834
:1073AC0001337A1913603A187B191B68D318002221
:1073BC001A709C22BB181B680133BA1813609C23EB
:1073CC00FB181A68A423FB181B689A4200DA27E7FB
:1073DC0000E0C046B023FB181B68192B03DDA42367
:1073EC00FB181B6892E0B023FB181B68032B03DC13
:1073FC00A423FB181B6889E00023A022BA18136091
:10740C0001235B42B422BA181360434B00221A606A
:10741C0051E04249A0243B191A6813005B009B18E9
:10742C009B005A588C26BB1911001800FBF764FA04
:10743C00031E3AD139493B191A6813005B009B189B
:10744C009B00CB1808331B881A00FB6813403ED1F5
:10745C00334B00221A60334BC8220021180004F071
:10746C00F6FC2E493B191A6813005B009B189B0015
:10747C00CB1804331C681423FD18B023FB181A68AE
:10748C00B919F8687B680193A423FB181B68009357
:10749C002B00A0470300B422BA181360204B1B68C2
:1074AC00002B14D000F09EFD11E0A022BB181B682D
:1074BC000133BA1813601949A023FB181A6813007A
:1074CC005B009B189B005B58002BA2D100E0C046D0
:1074DC00B423FB181B68002B0BDD0F4B1B68002B18
:1074EC0011D0FB68012B0ED10E4B180003F070FB72
:1074FC0009E0B422BB181B68002B04DAA423FB1888
:10750C001B68BA181360B423FB181B681800BD461F
:10751C002FB0F0BD38CF00080C020020280000204E
:10752C00100300201002002080B584B000AF7860FA
:10753C00074B1B687A68D318FB60C046044B1B686A
:10754C00FA689A42FAD8C046C046BD4604B080BD1F
:10755C006403002080B582B000AF0A4B1B685A1C34
:10756C0013005B019B1A9B009B18DB001A00064B57
:10757C009B689B09D31A7B607B681800BD4602B0E0
:10758C0080BDC0466403002010E000E080B500AF71
:10759C000D4B5A6B0C4B01210A435A630A4B5A6B25
:1075AC00094B02210A435A63074B5A6B064B0421C1
:1075BC000A435A63044B5A6B034B08210A435A6320
:1075CC00C046BD4680BDC0460010024080B582B0AA
:1075DC0000AF786008001100BB1C021C1A807B1CD9
:1075EC000A1C1A707B1C1B78002B17D17B681B683C
:1075FC00BA1C12885200032191400A00D2431A404F
:10760C007B681A607B681B68BA1C128852000121C7
:10761C0091400A001A437B681A600FE07B1C1B78B0
:10762C00012B0BD17B681B68BA1C128852000321FA
:10763C0091400A00D2431A407B681A60C046BD468E
:10764C0002B080BD80B582B000AF78600800110038
:10765C00BB1C021C1A807B1C0A1C1A707B1C1B781E
:10766C00002B0BD17B685B69BA1C128801219140FD
:10767C000A00D2431A407B685A6109E07B685B6957
:10768C00BA1C1288012191400A001A437B685A6186
:10769C00C046BD4602B080BD80B500AFA023DB055F
:1076AC00002208211800FFF7CDFFC046BD4680BD63
:1076BC0080B500AFA023DB05012208211800FFF7DD
:1076CC00C1FFC046BD4680BD80B500AFC046BD46BB
:1076DC0080BD000080B500AF00F010F8064B18001C
:1076EC0000F08CF8A023DB05002208211800FFF71E
:1076FC006DFFC046BD4680BD0038004080B582B0ED
:10770C0000AF364B1A68354B35490A401A60334B7B
:10771C001A68324B802189050A431A602F4B5A692B
:10772C002E4B30490A405A612C4BDA682B4B2C49B2
:10773C000A40DA60294B5B6A7B607B682A4A1340FB
:10774C007B60264B7A685A62244B1A68234B920052
:10775C0092081A60214B1A68204B802109060A43B3
:10776C001A601E4B5A691D4B20490A405A611B4B2B
:10777C00DA681A4B92009208DA60184B5B6A7B60ED
:10778C007B681B011B097B60144B7A685A62134B94
:10779C001A68124B16490A401A60104B1A680F4BA4
:1077AC00802109050A431A600C4B5A690B4B11498D
:1077BC000A405A61094BDA68084B0D490A40DA60F5
:1077CC00064B5B6A7B607B680B4A13407B60034B08
:1077DC007A685A62C046BD4602B080BD00040050B3
:1077EC00FFFFFFCFFFBFFFFFFFFFFFF0FF7FFFFF9C
:1077FC00FFFFFFF3FFDFFFFFFFFF0FFF80B582B03E
:10780C0000AF78603D4BDA6B3C4B8021C9010A43D9
:10781C00DA637B681B6804221A437B681A607B68F6
:10782C001B68374A1A407B681A607B685A68F023D9
:10783C001B011A407B685A607B685A68E023DB00A6
:10784C001A407B685A607B681B68012293431A00BC
:10785C007B681A607B681B68022293431A007B6862
:10786C001A607B681B68802292001A437B681A603E
:10787C007B681B68802252001A437B681A607B6805
:10788C001B68382293431A007B681A607B681B685C
:10789C0030221A437B681A607B681B6880229343F2
:1078AC001A007B681A607B685B68102293431A008D
:1078BC007B685A607B681B68124A1A407B681A60A6
:1078CC007B685B6808221A437B685A607B685B683C
:1078DC00802252011A437B685A607B68DB690A4A32
:1078EC001A407B68DA617B681B6840221A437B680C
:1078FC001A60C046BD4602B080BDC04600100240B2
:10790C00FFFBFFFFFFDFFFFFFFF7FFFF80B584B03A
:10791C0000AF78600A00FB1C1A700F23FB180022C2
:10792C001A70C0467B689B6802221340FAD07B68B1
:10793C000C33FA1C12781A70C0467B689B680122C3
:10794C001340FAD07B68DA680F217B181A707B1809
:10795C001B781800BD4604B080BD000080B500AF98
:10796C00044B5A69034B802109060A435A61C046ED
:10797C00BD4680BD0020024080B500AF064B5B6960
:10798C00002B05DA044B054A9A60034B044A9A60B3
:10799C00C046BD4680BDC04600200240230167455D
:1079AC00AB89EFCD80B582B000AFFB1D04221A70FD
:1079BC00134B1A6980235B021A4080235B029A42A4
:1079CC0003D1FB1D01221A7014E00D4B1B69082218
:1079DC00134003D0FB1D02221A700BE0084B1B69ED
:1079EC001022134003D0FB1D03221A7002E0FB1D72
:1079FC0004221A70FB1D1B781800BD4602B080BD16
:107A0C0000200240B0B584B000AF78600F257B1920
:107A1C0004221A707C19FFF7C5FF03002370C046BF
:107A2C007B68002B02D17B1905221A700F23FB18DF
:107A3C001B781800BD4604B0B0BD000080B584B002
:107A4C0000AF78600F23FB1804221A707B68F822B1
:107A5C00120694466344DB0ABB60C0461D4B1A6990
:107A6C0080235B021340F9D11A4B5A69194B02213E
:107A7C000A435A61174B5A69164B17490A405A6107
:107A8C00144B5969BB68DB00144A1A40114B0A436A
:107A9C005A61104B5A690F4B802149020A435A61B3
:107AAC00C0460C4B1A6980235B021340F9D1094B79
:107ABC005A69084B0A490A405A61064B5A69054BE8
:107ACC0002218A435A610F23FB181B781800BD460C
:107ADC0004B080BD0020024007E0FFFFF81F00004B
:107AEC00FFFFFEFFF0B587B000AFF8603A607B6037
:107AFC0017217B1804221A707E1880239B01180012
:107B0C00FFF780FF03003370144B5A69134B0121AC
:107B1C000A435A61FB683A681A60BFF36F8FC0461C
:107B2C007B681C0000231D00FB68043322001A60D4
:107B3C0017257C1980239B011800FFF763FF0300B6
:107B4C002370064B5A69054B01218A435A617B19F4
:107B5C001B781800BD4607B0F0BDC046002002409F
:107B6C0080B582B000AF7860034B7A681A61C0466A
:107B7C00BD4602B080BDC0460020024080B582B038
:107B8C0000AF0200FB1D1A70FB1D1B787F2B09D860
:107B9C00FB1D1B781A001F231A40044B0121914036
:107BAC000A001A60C046BD4602B080BD00E100E08C
:107BBC0090B583B000AF02003960FB1D1A70FB1D3D
:107BCC001B787F2B28D82F4AFB1D1B785BB29B0898
:107BDC00C0339B009B58FA1D1278110003220A40F7
:107BEC00D200FF2191400A00D2431A4011003B6899
:107BFC009B01FF221A40FB1D1B7818000323034036
:107C0C00DB009A401F48FB1D1B785BB29B080A43A4
:107C1C00C0339B001A5031E01B4AFB1D1B78190026
:107C2C000F230B40083B9B0806339B00D3180433EF
:107C3C001B68FA1D1278110003220A40D200FF21A2
:107C4C0091400A00D2431A4011003B689B01FF226D
:107C5C001A40FB1D1B78180003230340DB009A40DD
:107C6C000948FB1D1B781C000F232340083B9B0875
:107C7C000A4306339B00C31804331A60C046BD4642
:107C8C0003B090BD00E100E000ED00E080B582B0F3
:107C9C0000AF786000F032F87B680B4A19001000D6
:107CAC0000F0C2F8084B1A68074B20210A431A60EF
:107CBC0001211B20FFF77CFF1B20FFF75FFFC04655
:107CCC00BD4602B080BDC0460038014080B582B0D0
:107CDC0000AF0200FB1D1A70C046074BDB69802207
:107CEC001340802BF9D1044BFA1D12789A62C046CE
:107CFC00BD4602B080BDC0460038014080B582B0A0
:107D0C0000AF00237B60424B5A6B414B01210A436D
:107D1C005A633F4B1A6C3E4B8021C9010A431A64CB
:107D2C00A023DB051A68A023DB053A490A401A6038
:107D3C00A023DB051A68A023DB05802189030A43F5
:107D4C001A60A023DB055A69A023DB0532490A40DF
:107D5C005A61A023DB05DA68A023DB052D490A4014
:107D6C00DA60A023DB059A68A023DB052A490A40C8
:107D7C009A60A023DB051A68A023DB0527490A407B
:107D8C001A60A023DB051A68A023DB0580210903F8
:107D9C000A431A60A023DB055A69A023DB0520499E
:107DAC000A405A61A023DB05DA68A023DB051B49D6
:107DBC000A40DA60A023DB059A68A023DB0518498A
:107DCC000A409A60A023DB055B6A7B607B68154ADE
:107DDC0013407B607B688022520013437B60A0239E
:107DEC00DB057A685A62A023DB055B6A7B607B68E3
:107DFC00F02293437B607B68102213437B60A023AB
:107E0C00DB057A685A62C046BD4602B080BDC046EA
:107E1C0000100240FFFFCFFFFFFBFFFFFFFFF3FF50
:107E2C00FFFDFFFFFFF0FFFF80B584B000AF78606F
:107E3C00396039681948FAF773FD0300FB607B68F9
:107E4C0000221A607B681B68154A1A407B681A600E
:107E5C007B681B68134A1A407B681A607B681B6836
:107E6C000C221A437B681A607B681B680E4A1A4006
:107E7C007B681A607B68DB6A0F221A407B68DA62C7
:107E8C007B68FA68DA607B681B6801221A437B689E
:107E9C001A60C046BD4604B080BDC0460090D003F9
:107EAC00FFFFFFEFFFFBFFFFFF7FFFFF80B586B0FB
:107EBC0000AF786039601723FB1800221A703B68FA
:107ECC00FB6001233B610CE03B697A68D31819789D
:107EDC001722BB18BA1812784A401A703B69013342
:107EEC003B613A69FB689A42EEDB1723FB181B785F
:107EFC001800BD4606B080BD80B588B000AFF860F4
:107F0C00B9607A60BB68FB61FB68BB61FFF734FD4D
:107F1C001920FFF725FEBB691800FFF78FFD030042
:107F2C00042B03D01B4B180002F052FE00237B6184
:107F3C0025E0FB691A685B68B9690800FFF7D2FD98
:107F4C00031E03D1FFF70AFD00231FE0BB6918686D
:107F5C005968FB691A685B68904201D1994205D057
:107F6C000D4B180002F034FE00230FE07B69083340
:107F7C007B61FB690833FB61BB690833BB617A69C0
:107F8C007B689A42D5DBFFF7E9FC01231800BD465C
:107F9C0008B080BDF4CF000808D0000880B588B0C8
:107FAC0000AFF860B9607A60FB68BB61BB687B614D
:107FBC000023FB610CE0BB691A687B691A60FB69E2
:107FCC000433FB617B6904337B61BB690433BB61A4
:107FDC00FA697B689A42EEDBC046C046BD4608B0E3
:107FEC0080BD000080B5C2B000AF244B180002F079
:107FFC00EFFD234B44221A70214B02225A70214B65
:10800C00842252009B18DB1900221A600433FC22D4
:10801C000021180003F01BFF1C237A1DFF32136094
:10802C007B1DFF331B6880225200934201DD8023AD
:10803C005B007A1CFF3213607B1CFF331A681049FB
:10804C003B00180003F0FAFE3B00FF211800FFF77D
:10805C002DFF030019000B4B842252009B18DB19D7
:10806C00FF22995480235A003B0007481900FFF760
:10807C0043FFC046BD4642B080BDC0461CD0000880
:10808C0068030020F8FEFFFF00F8000880B500AF81
:10809C00164B5B78022B26D0154A1649164B180046
:1080AC0003F0D2FF114B00221A61104B0022DA6050
:1080BC000E4B03229A820D4B00229A750B4B062213
:1080CC001A760A4B06225A76084B01229A76074BEF
:1080DC0002225A70054B44221A70FFF783FF074B9C
:1080EC00180002F075FDC046BD4680BD6803002037
:1080FC002CD0000838D000086A0300203CD00008BF
:10810C00F0B5C5B000AF3F4B180002F061FD3E4B1F
:10811C0088256D005B19DB1900221A600433FC22E0
:10812C000021180003F093FE80235A003B1D3748B2
:10813C001900FFF733FF1026FF36BC193B1DFF213A
:10814C001800FFF7B3FE030023702F4B5B19DB19EC
:10815C001B78442B26D12C4B5B19DB191B78442B39
:10816C0020D1294B5B19DB19FF229B5CBA191278C1
:10817C009A4217D11C2384225200B9180B60BB18E9
:10818C001B6880225200934201DD80235B007A1D24
:10819C00FF3213607B1DFF331A68391D1C4B18000E
:1081AC0003F04CFEFFF772FF194B1B7E022B09D814
:1081BC00174B05221A76164B9B8A012B02D8144BAF
:1081CC0003229A82124B5B7E022B09D8104B05229C
:1081DC005A760F4B9B8A012B02D80D4B03229A82A5
:1081EC000B4B1B7E1E2B02D9094B05221A76084B12
:1081FC005B7E1E2B02D9064B05225A76C046BD4625
:10820C0045B0F0BD58D00008F4FEFFFF00F80008A0
:10821C006803002080B500AFBFF34F8FC046044BFE
:10822C00044ADA60BFF34F8FC046C046FDE7C04634
:10823C0000ED00E00400FA05F0B5C64600B586B0C6
:10824C0006AF304B304A9A60BFF34F8FC04662B6D0
:10825C00C0462E4B4D220021995400F067F82C4A51
:10826C002C4B1100180002F0B3FC2B4BD9682A4B95
:10827C001A69294B9B8A9846274BDB7D1C00264BA1
:10828C009B7E1D00244B1B7E1E00234B5B7E9C465D
:10829C002248234B04936346039302960195009462
:1082AC00434602F095FC1F4B0C21180002F04AFFCC
:1082BC00164B1B6D002B08D01B4B1A68134B1B6DF8
:1082CC00D31A022B01D9FFF7A5FFFDF79BFE01F096
