:020000040800F2
:100000000020002039520008414E0008474E0008E9
:1000100000000000000000000000000000000000E0
:100020000000000000000000000000004D4E00082D
:100030000000000000000000574E0008614E00085C
:100040008952000889520008895200088952000824
:100050008952000889520008895200088952000814
:10006000000000007D4E00088952000889520008F7
:10007000895200088952000889520008954E0008EC
:1000800089520008895200088952000889520008E4
:1000900000000000895200088952000889520008B7
:1000A00089520008895200088952000889520008C4
:0C00B0008952000889520008000000007E
:1000BC0010B5064C2378002B07D1054B002B02D032
:1000CC00044800E000BF0123237010BD380200205B
:1000DC0000000000209C0008044B10B5002B03D03E
:1000EC000349044800E000BF10BDC04600000000FA
:1000FC003C020020209C00080023C25C0133002A33
:10010C00FBD1581E7047000002B4714649084900E3
:10011C00095C49008E4402BC7047C04603B471466A
:10012C00490840004900095E49008E4403BC7047F1
:10013C00002243088B4274D303098B425FD3030A1A
:10014C008B4244D3030B8B4228D3030C8B420DD32D
:10015C00FF22090212BA030C8B4202D312120902BB
:10016C0065D0030B8B4219D300E0090AC30B8B42F9
:10017C0001D3CB03C01A5241830B8B4201D38B03A7
:10018C00C01A5241430B8B4201D34B03C01A52414C
:10019C00030B8B4201D30B03C01A5241C30A8B428F
:1001AC0001D3CB02C01A5241830A8B4201D38B027A
:1001BC00C01A5241430A8B4201D34B02C01A52411E
:1001CC00030A8B4201D30B02C01A5241CDD2C30990
:1001DC008B4201D3CB01C01A524183098B4201D30C
:1001EC008B01C01A524143098B4201D34B01C01AF7
:1001FC00524103098B4201D30B01C01A5241C3086F
:10020C008B4201D3CB00C01A524183088B4201D3DD
:10021C008B00C01A524143088B4201D34B00C01AC9
:10022C005241411A00D20146524110467047FFE735
:10023C0001B5002000F0F0F802BDC0460029F7D04F
:10024C0076E7704703460B437FD4002243088B426A
:10025C0074D303098B425FD3030A8B4244D3030B41
:10026C008B4228D3030C8B420DD3FF22090212BA06
:10027C00030C8B4202D31212090265D0030B8B4282
:10028C0019D300E0090AC30B8B4201D3CB03C01A6C
:10029C005241830B8B4201D38B03C01A5241430B47
:1002AC008B4201D34B03C01A5241030B8B4201D337
:1002BC000B03C01A5241C30A8B4201D3CB02C01AA2
:1002CC005241830A8B4201D38B02C01A5241430A1A
:1002DC008B4201D34B02C01A5241030A8B4201D309
:1002EC000B02C01A5241CDD2C3098B4201D3CB01B0
:1002FC00C01A524183098B4201D38B01C01A52415F
:10030C0043098B4201D34B01C01A524103098B4262
:10031C0001D30B01C01A5241C3088B4201D3CB004D
:10032C00C01A524183088B4201D38B00C01A524130
:10033C0043088B4201D34B00C01A5241411A00D2E0
:10034C0001465241104670475DE0CA0F00D0494249
:10035C00031000D34042534000229C4603098B42B9
:10036C002DD3030A8B4212D3FC22890112BA030A41
:10037C008B420CD3890192118B4208D389019211C3
:10038C008B4204D389013AD0921100E08909C30948
:10039C008B4201D3CB01C01A524183098B4201D34A
:1003AC008B01C01A524143098B4201D34B01C01A35
:1003BC00524103098B4201D30B01C01A5241C308AD
:1003CC008B4201D3CB00C01A524183088B4201D31C
:1003DC008B00C01A5241D9D243088B4201D34B0037
:1003EC00C01A5241411A00D20146634652415B1079
:1003FC00104601D34042002B00D54942704763465A
:10040C005B1000D3404201B5002000F005F802BD9E
:10041C000029F8D016E770477047C0468446100094
:10042C0062468C461900634600E0C0461FB501F0D9
:10043C00F7FD002801D40021C8421FBD10B501F002
:10044C0047FD4042013010BD10B501F0E9FD002818
:10045C0001DB002010BD012010BDC04610B501F01D
:10046C00DFFD002801DD002010BD012010BDC046BD
:10047C0010B501F06FFD002801DC002010BD01203B
:10048C0010BDC04610B501F065FD002801DA002052
:10049C0010BD012010BDC046844608006146FFE730
:1004AC001FB500F073FB002801D40021C8421FBD0A
:1004BC0010B500F0FFFA4042013010BD10B500F04D
:1004CC0065FB002801DB002010BD012010BDC046DB
:1004DC0010B500F05BFB002801DD002010BD0120F1
:1004EC0010BDC04610B500F00BFB002801DC00204D
:1004FC0010BD012010BDC04610B500F001FB002856
:10050C0001DA002010BD012010BDC04670B50022DC
:10051C000C4B04000D00FFF7B5FF002804D12000A0
:10052C00290002F0FDFB70BD064B002220002900C3
:10053C0002F046F802F0F4FB80231B069C46604454
:10054C00F1E7C0460000E041F0B5C64643025B0A45
:10055C004E0245004F00DA00C40F9C46700A9046CC
:10056C0000B52D0E3F0EC90FB6098C424BD0EA1BBD
:10057C00002A36DD002F61D0FF2D00D1ADE08023A5
:10058C00DB041E431B2A00DCD3E001204346181A6F
:10059C00430100D48CE080018709380002F01CFD77
:1005AC0005388740854200DCB6E02D1AB348384048
:1005BC00430704D00F230340042B00D00430430125
:1005CC0000D478E06A1CFE2D65D08001430A9C465D
:1005DC00D2B26346D0051843E407204380BCB8462A
:1005EC00F0BD002A35D07A1B002D00D0AFE0434679
:1005FC00002B00D1A7E0531E012A00D12FE1FF2AC6
:10060C0069D01A00AAE0E91B002970DD002F37D051
:10061C00FF2D62D08023DB041E431B2900DCB0E0DD
:10062C0001204044430143D50135FF2D33D0012334
:10063C00934A0340400810401843B9E7002E00D1FC
:10064C0083E0511E012A00D1D8E0FF2A45D00A00D0
:10065C0098E7FE276A1C174200D086E0002D00D0D8
:10066C00B7E04346002B00D1F3E00022002EB0D0BF
:10067C00981B430100D4FAE043460C00F01A97E7AC
:10068C00002E00D1C8E04A1E012900D1AEE0FF299E
:10069C0023D01100C1E70023FF229C4699E7FE21DD
:1006AC006A1C114277D0FF2AF5D015004644700819
:1006BC00430700D07EE7C308FF2D0ED05B025B0A18
:1006CC009C46EAB285E7002E07D08022D203134263
:1006DC0003D0104201D10C000300002BDBD0802092
:1006EC00C00318434002430A9C46FF2271E70029CD
:1006FC00D5D07A1B002D60D14346002B24D0531E3D
:10070C00012A73D0FF2AE7D01A001B2A00DC85E0EF
:10071C0001203D00801985E720233A00451B380055
:10072C000135EA405D1BA840431E9841002510434B
:10073C003EE7202330009B1A31009840D140431EE5
:10074C009841084322E70C0003001500B4E7FF2F83
:10075C00C1D080234046DB04184380461B2A51DD60
:10076C0001200C003D00301A12E743469F1B7B0111
:10077C002BD4002F00D010E70023002400229C462D
:10078C0027E7202332003000CA40591A8840431E04
:10079C009841104345E7002D4AD14346002B63D0C6
:1007AC000022002E00D114E730004044430100D455
:1007BC007EE7324B013518407AE7FF2F8CD080232F
:1007CC004146DB04194388469FE743460C00F71A61
:1007DC00E3E64246002A00D075E7002E00D07AE707
:1007EC008023DB0300249C46FF22F2E630004044C9
:1007FC000125430100D45BE7022518E74346012598
:10080C00981BC5E6202344464046D4409A1A904093
:10081C00431E98412043A4E70D004DE72023414699
:10082C004046D1409A1A9040431E9841084370E7C5
:10083C004246002A00D14FE7002E00D14DE780221E
:10084C00D203134200D148E7104200D045E7030021
:10085C0043E7002E90D00C0084460022B9E64346B4
:10086C000C00F01A013593E684460022B1E600280C
:10087C0000D01DE7002300249C46AAE6FFFFFFFBE7
:10088C00FFFFFF7DF0B54F464646D6464502C0B544
:10089C0047000C1C6D0A3F0EC60F002F00D170E0F4
:1008AC00FF2F00D175E0EB008025ED041D430023E4
:1008BC0099469A467F3F6002430A984663001B0E96
:1008CC00E40F002B4ED0FF2B46D04246D0008022A6
:1008DC00D2040243904600227F3B3100FF1A4B4664
:1008EC006140C9B213430F2B00D9B5E06E489B0091
:1008FC00C3589F46002398462600454692465346C9
:10090C00022B00D189E0032B00D19EE0012B18D0E3
:10091C003B007F33002B69DD6A0704D00F222A408D
:10092C00042A00D004352A0103D5604B1D403B003E
:10093C008033FE2B00DD70E0AD016D0AD8B202E011
:10094C000E0000200025C0052843F6073043E0BC0C
:10095C00BA46B146A846F0BD4346002B3FD1022211
:10096C00FF3F03E04346002B2DD1012231004B46C3
:10097C006140C9B213430F2B34D84D489B00C35868
:10098C009F46002D13D104239946033B00279A461A
:10099C0091E7002D05D108239946063BFF279A467F
:1009AC0089E70C239946093BFF279A4683E72800E1
:1009BC0002F012FB7627431F9D4000237F4299468D
:1009CC009A463F1A77E7404602F006FB4246431F21
:1009DC009A4076235B4290461B1A00227DE7FF2348
:1009EC0003227AE70E00FF200025ACE70120C01A95
:1009FC001B28A6DC9E372A00BD40C2406B1E9D41C1
:100A0C0015436B0704D00F232B40042B00D0043567
:100A1C006B0144D50120002595E7FF20002592E7C6
:100A2C0080250026FF20ED038DE7002398468020CB
:100A3C00C003054209D04346034206D1454605434F
:100A4C006D022600FF206D0A7DE78020C003054360
:100A5C006D02FF206D0A76E742466B01500183421E
:100A6C0019D21B220025013F01261C006D005B00E2
:100A7C00002C01DB984201D81B1A3543013A002A9D
:100A8C00F3D15A1E93411D433B007F330E00002BC4
:100A9C0000DD41E7AAE71A2201251B1AE4E7AD01A4
:100AAC0000206D0A4FE7C046F89C0008FFFFFFF7D7
:100ABC00389D000870B5420045024E024C00C30F31
:100ACC006D0A0120120E760A240EC90FFF2A06D0D9
:100ADC00FF2C03D0A24201D1B54206D070BD002D2F
:100AEC00FCD1FF2CFAD1002EF8D18B4206D001207C
:100AFC00002AF3D12800431E9841EFE70020EDE7D0
:100B0C0070B5420045024E024C00C30F6D0A120E26
:100B1C00760A240EC80FFF2A1BD0FF2C0ED0002AF9
:100B2C001BD1002C01D1002E1CD0002D0CD08342E7
:100B3C001CD00221581E0840013870BD002E22D155
:100B4C00002AF4D1002DF2D10028F6D10120404228
:100B5C00F3E7002D17D1FF2CF0D0002CE7D1002E9D
:100B6C00E5D1E6E70020002DE7D0E2E7A24205DC64
:100B7C00EADBB54202D8E7D30020DEE74342584116
:100B8C0040000138D9E702204042D6E770B5420058
:100B9C0045024E024C00C30F6D0A120E760A240E4B
:100BAC00C80FFF2A0BD0FF2C0DD0002A1FD1002C10
:100BBC0016D1002E14D10020002D10D009E0002DEC
:100BCC000CD1FF2C13D1002E08D1002A08D083425F
:100BDC0012D00221581E0840013800E0022070BDDE
:100BEC00002DF4D10028FAD101204042F7E7002C67
:100BFC00EDD1002EEBD1ECE7A24205DCF2DBB542E5
:100C0C0002D8EFD30020EAE74342584140000138B4
:100C1C00E5E7C046F0B54F464646D6464402450089
:100C2C00C0B5640A0F1C2D0EC60F002D00D18DE02F
:100C3C00FF2D00D192E00023802099469A46E400D3
:100C4C00C00404437F3D7802430A98467B001B0E88
:100C5C00FF0F002B00D170E0FF2B00D186E0424645
:100C6C00D00080227F3BED180023D2040243904633
:100C7C009C4631004B467940681C0F2B1CD8764A99
:100C8C009B00D3589F4639004446E2465346022BFC
:100C9C000FD0032B00D1D7E0012B37D1002000243B
:100CAC00C0052043C9070843E0BCBA46B146A84674
:100CBC00F0BDFF200024F3E7260C2404220C44464C
:100CCC002404240C434627001B0C574374435A43FB
:100CDC005E4312193B0C9B189C4203D98022520292
:100CEC00944666443F041A043F0CD2199401671EC3
:100CFC00BC411B0C920E9B1914439B011C431B0102
:100D0C0000D49BE0012362081C40144302007F3294
:100D1C00002A64DD630704D00F232340042B00D08A
:100D2C000434230103D502004C4B80321C40FE2AB4
:100D3C00BFDCA401640AD0B2B2E74346002B3DD11C
:100D4C004A4601331A4391469C4692E7002C29D11E
:100D5C0004239946033B00259A4674E7002C1BD1CB
:100D6C0008239946063BFF259A466CE74346FF3518
:100D7C00002B0BD102234A461A4391469C4678E736
:100D8C0053463100022B00D083E792E703234A46F7
:100D9C001A4391469C466CE70C239946093BFF2568
:100DAC009A4650E7200002F017F97625431F9C4025
:100DBC0000236D4299469A462D1A44E7404602F0AC
:100DCC000BF94246431F9A4000232D1A90469C462D
:100DDC00763D4EE780240021FF20E40360E70123E9
:100DEC009B1A1B2B00DD59E722009E30DA40844011
:100DFC001300621E94411C43630704D00F2323404D
:100E0C00042B00D0043463011AD50120002447E7D9
:100E1C008020C003044209D04346034206D1444615
:100E2C00044364023900FF20640A39E78020C003C0
:100E3C00044364023100FF20640A31E7280065E7AF
:100E4C00A4010020640A2BE78020C0030443640241
:100E5C00FF20640A24E7C046789D0008FFFFFFF7D7
:100E6C00F8B5CE46474643025B0A4E02DA0094467A
:100E7C00720A914645004A0080B52D0E1F00C40F22
:100E8C00120EC90FB609FF2A5BD0012041408C42DB
:100E9C0039D0A81A00285ADD002A6AD0FF2D00D1BB
:100EAC00D9E08022D20416431B2800DCE9E00120A3
:100EBC006346181A430100D4B4E080018709380056
:100ECC0002F08AF805388740854200DCCCE02D1A08
:100EDC00B5483840430704D00F230340042B00D0FF
:100EEC000430430100D4A0E06A1CFE2D00D18DE03B
:100EFC008001470AD2B2D0053843E4072043C0BC76
:100F0C00B946B046F8BDA81A8046002845DD002A2F
:100F1C0070D0FF2D00D19EE08023DB041E4343469E
:100F2C001B2B00DCD2E00120604443017AD5013553
:100F3C00FF2D6BD001239D4A0340400810401843FD
:100F4C00C8E7002E20D08C4223D02800FF38002880
:100F5C0039D0571B002D00D09DE06346002B00D1EB
:100F6C00DBE07B1E012F00D10DE1FF2F71D01F00A4
:100F7C0098E0002E00D1A7E0421E012800D1E6E047
:100F8C00FF2868D010008FE701204140A14200D01B
:100F9C007FE7FF2040428046A8444046002838D0D6
:100FAC00511B002D00D1AEE0FF2A00D1DFE08023E1
:100FBC006046DB04184384461B2900DCD9E0012081
:100FCC0015008019B1E7FE206A1C104271D1002D6A
:100FDC0000D0A6E06346002B00D1D9E00022002E01
:100FEC0000D188E7981B430100D4E1E063460C0074
:100FFC00F01A6FE7002E00D1B7E00200013A012889
:10100C0000D19CE0FF2826D0904688E7FF220027DD
:10101C0071E7FE206A1C104264D0FF2AF6D015003E
:10102C0066447008430700D056E7C308FF2D12D062
:10103C005B025F0AEAB25EE76246002A00D196E0E4
:10104C00002E08D08022D203134204D0484610420E
:10105C0001D10C004B46002BD8D08027FF031F4337
:10106C007F02FF227F0A46E720233A00451B380007
:10107C000135EA405D1BA840431E984100251043F2
:10108C0028E720231B1A32009E40C2403000431E2A
:10109C00984110430CE7FF2ADBD080236046DB0429
:1010AC00184384461B2F56DD01200C001500301A06
:1010BC0000E763469F1B7B013DD4002F00D0FEE66A
:1010CC0000240022002716E70500AFE73200434654
:1010DC004146DA4020235B1A9E403000431E984163
:1010EC00104321E7002DA7D16346002B59D00022D5
:1010FC00002E00D1FFE630006044430192D52A4B0C
:10110C00013518408EE76346002B47D04B1E012952
:10111C0015D0FF292BD019004EE70C004B463D0093
:10112C0084E76246002A8BD1002E92D180270024BE
:10113C00FF22FF03DFE663460C00F71ABFE6300020
:10114C0060440125430100D46CE70225F2E66346B6
:10115C000125981BAEE6202364466046FC40DF1B4D
:10116C00B840431E984120439FE705005EE74B467D
:10117C0071E7202365466046CD40591A8840431ECE
:10118C00984128431CE763460C000125F01A91E6B0
:10119C00002E95D00C004F460022ACE64B460D00BD
:1011AC0044E74F460022A6E6FFFFFFFBFFFFFF7D53
:1011BC00002800D036E7002400279CE643024A02B0
:1011CC00400049005B0A520A090E000EFF2806D0A7
:1011DC000020FF2902D1531E9A4110007047FE389F
:1011EC00002BFBD1F4E7C04670B5051E0ED001F004
:1011FC00F3FE9E2304001B1A962B0CDC082801DD41
:10120C00083CA5406D026D0AD8B201E00020002513
:10121C00C005284370BD992B09DD020029001B3243
:10122C0091404A1E91410522121AD5400D43052CBE
:10123C0012DC29000C4E31406A0709D00F202840DF
:10124C00042805D004314A0102D59F2331401B1BD1
:10125C0089014D0AD8B2DBE7621F95402900024E86
:10126C0031406A07F4D0E9E7FFFFFFFBF0B54F46CA
:10127C004646D6460D000400C0B51F0011002803D9
:10128C00620F400A10437A00520DE3003C03914672
:10129C00640AFA0F4F0F6E0027439246B846760D3C
:1012AC00ED0FC900954200D199E04C46341BA44681
:1012BC00002C00DC7CE04A46002A00D1B8E0C54A8C
:1012CC00964200D11CE180223C0012041443A0463B
:1012DC006246382A00DD61E11F2A00DDCCE164465C
:1012EC002022121B444694400F00A14664469140B4
:1012FC00E7404C464A1E91413C43424621436446DA
:10130C00E240801A5C1AA3429B415F42C71B3B021E
:10131C0000D4D0E07F027F0A002F00D1FFE038001C
:10132C0001F05AFE01000839202322005B1A8F407D
:10133C00DA408C401743B14200DAFFE0891B4B1CAA
:10134C001F2B00DDA8E020223900D21A2000944087
:10135C009140D840621E9441DF40002601430C436B
:10136C00630709D00F232340042B05D0231DA34270
:10137C00A44164423F191C003B0200D49EE0954BF3
:10138C0001369E4200D1B7E0934AE40817407B0730
:10139C0071057F0223433F0B4A0D12053A43ED07BB
:1013AC002A4318001100E0BCBA46B146A846F0BD6D
:1013BC00002C4BD04C46A41BA446002E00D023E19D
:1013CC0004001C4300D1AFE16246541E012A00D137
:1013DC0015E2804DAC4500D1C8E1A4461BE14A465C
:1013EC00B21A9446002A00DCACE04A46002A43D0EC
:1013FC00784A964200D1AFE180223C00120414439B
:10140C00A0466246382A67DC1F2A00DC5FE14746AB
:10141C00203AD7406246202A05D064464022121B4F
:10142C004446944021434A1E91410C003C4357E0F2
:10143C003A000A4300D105E12200013A012C00D107
:10144C0082E1644CA4455BD0944641E7634C771C25
:10145C00274200D0C4E004001C43002E00D069E1F8
:10146C00002C00D1BFE144460C4300D0D0E1420730
:10147C00DB081343C00829E03A000A4300D170E1AD
:10148C0062466446013A012C00D1E0E0514CA4457F
:10149C0000D161E19446B4E73A001F39CA4011000B
:1014AC00202B03D04022D31A9F403C43631E9C4107
:1014BC00002700260C43630700D053E7B446E4082A
:1014CC007B072343F808434A94451DD06246070323
:1014DC0052053F0B520D60E744460C43621E94418B
:1014EC00E4189C429B415F423F183B02E3D5394BC9
:1014FC0001369E4200D0B5E03200002700234CE7B5
:10150C004207DB081343C0081A00024300D1E1E193
:10151C0080273F0307433F032E4A3F0B3DE7200044
:10152C0001F05AFD010018311F2900DCFCE60838D7
:10153C00844027000024B14200DBFFE6264A761ADD
:10154C0017400DE7002A2FD04A46921B9446002ED6
:10155C0000D1ADE01F4A914500D10FE18022120469
:10156C0010436246382A00DD0FE11F2A00DD80E1BE
:10157C00644620221E00121B6746040093409440D0
:10158C00FE405A1E9341F84034431C438044641877
:10159C008C42BF417F424E464744A6E742460A432F
:1015AC0011004A1E9141ADE60C4C721C224200D037
:1015BC00A1E002001A43002E00D0FAE0002A00D16C
:1015CC0045E13A000A4300D046E14207DB081343E9
:1015DC00C0087BE7FF070000FFFF7FFFFE0700004E
:1015EC0047465C1AC21BA342BF417F42B946170053
:1015FC004A46BF1A3A0200D58DE023003B4300D087
:10160C008AE60020002561E7B44CA14500D1ADE08D
:10161C008024240420436446382C3DDC62461F2C75
:10162C0000DDB7E020251E002D1B0400AB40AC40B4
:10163C00D640D04042465D1EAB413443121A904610
:10164C0023432CE04207DB081343C0083BE75C183C
:10165C009C429B4140445B42C71801263B0200D48C
:10166C0029E702269E4A63081740012214401C43B6
:10167C00FB071C437F0873E64446203AD44062467D
:10168C00202A05D067464022D21B47469740394353
:10169C004A1E9141214335E60343581E8341CC1A1F
:1016AC00A142BF4143467F4255464E46DF1B2EE6C4
:1016BC0002001A4300D1BDE062466446013A012C97
:1016CC0000D1E5E0854CA44558D0944649E76446E2
:1016DC002022121B444694400F00A14664469140C0
:1016EC00E7404C464A1E91413C4342460C436146FE
:1016FC00CA408018F4E6794CA24200D1FDE6591894
:10170C0099429B4140445F42C719FC0749081600A7
:10171C000C437F08CFE6CC1AA142BF4143467F421F
:10172C00181A5546C71BF7E5C9087B0755460B43E6
:10173C00F808C8E6002C00D081E043460B4315D1D5
:10174C00802000250003E3E65C1AA3429B41C71BE3
:10175C005B420126FF1ADAE54207DB081343C00897
:10176C00D2E64207DB081343C008ACE643464246C8
:10177C00C9085B0755460B43D008C5E643464246AD
:10178C005B07C9080B43D008BEE603431C00631E6D
:10179C009C41FCE60200203CE24014006246202AF8
:1017AC0003D04025AD1AA8400343581E8341234360
:1017BC0075E7002AE2D03A000A43CDD04207DB0895
:1017CC0013438022C0081203104206D0FC081442B6
:1017DC0003D12000CB087A0713435A0FDB005207C2
:1017EC00DB08134390E643460B4300D109E743461D
:1017FC004246C9085B0755460B43D00866E6CC1A2F
:10180C00A14289413F1A4942554601267F1A7EE57D
:10181C0042465C1A871AA34292415242BF1A3A02BC
:10182C003DD5CC1AA1428941434649421F1A55461F
:10183C007F1A95E57B07C9080B43F80843E6444635
:10184C00DB080C4330D142071343C0085CE67B072E
:10185C00C9080B43F80839E65C189C429B4140448C
:10186C005B42C7183B0200D425E61D4B01261F40E6
:10187C0021E60400203AD4406246202A04D04022BB
:10188C006646921B904003435A1E93411C437EE6CE
:10189C005C188C428941404449424718DDE62300DC
:1018AC003B4300D1ADE606E6440723438024C00841
:1018BC002403204208D04246D608264204D155467D
:1018CC003000CB0851070B435A0FDB00DB085207E3
:1018DC00134319E60023014A1F005EE5FF070000D1
:1018EC00FFFF7FFFF0B557464E464546DE46E0B556
:1018FC00814605000C03480092461F0085B0240B5E
:10190C00400DCE0F002800D156E1D44B984200D1A7
:10191C0072E16B0FE4001C4380231B0423439846A5
:10192C00CF4BED009B4600239946834400933C0328
:10193C007B005046240B5B0DFF0F002B00D11FE1E9
:10194C00C64A934200D162E1C549420F8C46E4007D
:10195C0059461443802263441204CB1A14439B4609
:10196C00C200002033007B409A464B460F2B27D8F1
:10197C00BC499B00CB589F46B246009B022B16D00D
:10198C00032B00D18EE2012B00D0D9E000230024E0
:10199C00002552461B052343D20713432800190088
:1019AC0005B0F0BCBB46B246A946A046F0BD00242B
:1019BC000025AA4BEDE7BA46A04615000090DCE7DF
:1019CC00444500D2C7E100D1C2E101235B429C46F1
:1019DC002E0040460025E3442302140E1C431B0C2E
:1019EC00994623041F0C1202494600920197FEF7F8
:1019FC0025FC02007A430B04310C804619438A42C1
:101A0C0007D901235B429C460919E0448C4200D85B
:101A1C0007E2881A4946FEF711FC09048C4631048A
:101A2C006646019A090C4243030031438A4204D9A9
:101A3C000919013B8C4200D8EDE1881A4246120488
:101A4C001A4390464146009B0E041B0C1F00029348
:101A5C00009B360C1B04190C0B007343120C7E43B9
:101A6C00039151437A431F0CBC4676186644B1422D
:101A7C0003D9802149028C466244310C8A18310406
:101A8C001E04360C8E19904202D312D1B54210D2DC
:101A9C004346591E009B9C4665441F009D429B413A
:101AAC005B421B19C018844200D2A0E100D19BE11B
:101ABC008846AE1BB542AD41801A6D42401B844234
:101ACC0000D1D5E14946FEF7B9FB019A0B0442431C
:101ADC00310C050019438A4200D96CE1881A494639
:101AEC00FEF7ACFB019A360442430904360C0300A2
:101AFC000E43B24200D953E10398B61A02002D04EA
:101B0C001D43029F2B041B0C5A437B439C46290C00
:101B1C004843130C844463447943984203D980208E
:101B2C00400284466144180C12041B04120C411828
:101B3C009B188E4200D2FFE000D1FAE001231D4336
:101B4C00494A5A44002A00DCAAE06B0700D03DE168
:101B5C00ED084346DB0106D54246444B1A409046FD
:101B6C008022D2005A44424B9A4200DD1FE7434682
:101B7C005B071D43434652055C02240B530D08E7DB
:101B8C005246224300D17BE0002C00D1FAE0200029
:101B9C0001F022FA02000B3A1D2301009B1A524657
:101BAC000839DA408C40144352468A40314B584431
:101BBC009B4683440020D5E64B462343984644D0AD
:101BCC00002C00D1CEE0200001F006FA010002004A
:101BDC000B391D235B1A49461000D9400838844044
:101BEC000B004D462343984685402348831A9B4659
:101BFC000023994600939AE64B46234398461DD101
:101C0C0008239946063B0025834600938FE65246EF
:101C1C00224309D1022349461943184B89469C4655
:101C2C0000240220E3449DE603234A461A43134B47
:101C3C0091469C4652460320E34493E60C23994676
:101C4C00093BA0468346009371E604239946002382
:101C5C009B4601330025009369E6C046FF07000050
:101C6C0001FCFFFFB89D0008FF030000FFFFFFFE13
:101C7C00FE070000F30300000DFCFFFF01F8FFFF5F
:101C8C004946012319438946002401206AE60023B2
:101C9C0080249A4600258A4B24037AE601256D425E
:101CAC0001239B1A382B00DD70E61F2B00DCBFE0F4
:101CBC001F2149428A1A4146D1400A00202B04D0E8
:101CCC004146804B5B4499400D436B1E9D4107235D
:101CDC002A431D0000241540134200D1D4E00F21EB
:101CEC0000231140042900D1CBE0111D91429241F7
:101CFC0052429B180A00190200D4C2E001230024AE
:101D0C00002546E6802341461B03194208D01C429D
:101D1C0006D11C432403BA461500694B240B38E644
:101D2C008024434624031C432403B246644B240BF7
:101D3C002FE6002B00D103E7A619681EA64200D29D
:101D4C008DE08E4200D2A3E000D1B3E00500F5E6B1
:101D5C00AA4200D939E64346DE0758086B081E43F1
:101D6C00ED0739E6484601F037F90100020015315C
:101D7C0020321C2900DC2CE74B4608388340002518
:101D8C00984632E701F028F903001A00153220308A
:101D9C001C2A00DC00E75446083B00229C4005E767
:101DAC003619013BB44200D9A6E6B24200D8A3E6EC
:101DBC00831E3619A0E60919013D8C4200D98DE627
:101DCC008A4200D88AE6851E091987E60F232B4024
:101DDC00042B00D1BCE605235B42AB429B4104358E
:101DEC005B42ED089844B4E6AF4200D960E682420B
:101DFC0004D800D05CE6AE4200D859E602235B4220
:101E0C009C46009BE0449C4665449D429B415B4242
:101E1C001B19C0184DE68A4200D80EE6831E09191C
:101E2C000BE68A4200D8F4E5831E98460919F0E5C2
:101E3C002549280059448D4042468A40691E8D41EF
:101E4C004146D840D94002432A430B00510700D1E8
:101E5C0051E70F211140042900D046E74BE705005C
:101E6C008E4200D06AE6009A934200D066E667E69E
:101E7C00164A5A44002A00DC10E701230025984436
:101E8C0067E65D075B021C0BD2080023154380E557
:101E9C000098023D42008242BF417F423C193619F4
:101EAC000092DDE78024434624031C432403044BA7
:101EBC00240B6EE5009A9A42EAD30500D3E7C0469C
:101ECC00FF0700003E0400001E040000FF0300009A
:101EDC00F0B54E464546DE4657469046E0B51700EF
:101EEC001A03120B0500844619480E034C00914648
:101EFC005A00DB0F9B46360B640DC90F520D844202
:101F0C0019D0824210D0012094420ED14E450CD1F2
:101F1C000120C44509D1594517D0002C05D13000FA
:101F2C002843431E984100E00120F0BCBB46B2465A
:101F3C00A946A046F0BD330001202B43F5D1A242A7
:101F4C00F3D14B463B43F0D1E2E70020EDE7C0462E
:101F5C00FF070000F0B54746CE46040018001600F7
:101F6C001B031B0B2D4D4A00994680B543000F03F4
:101F7C00A446B0463F0B520DC90F5B0DC00FAA42D1
:101F8C0021D0AB4213D0002A22D13C43002B02D1EA
:101F9C004D462E4322D0002C10D0814222D002205C
:101FAC00013908400138C0BCB946B046F0BD4D46B9
:101FBC002E4329D1002AF0D13C43EED10028F2D196
:101FCC0001204042EFE73D0025431DD19342EED066
:101FDC00002BE2D14C462643DFD1E0E70020002C59
:101FEC00E1D0DCE79A420ADCE8DB4F45D7D80ED0CB
:101FFC0000204F45D7D20029E2D00800D3E7434256
:10200C00584140000138CEE702204042CBE7C4459E
:10201C00C5D80020C445C6D2EDE7C046FF07000076
:10202C00F0B54746CE460400180016001B031B0BE8
:10203C002C4D4A00994680B543000F03A446B04688
:10204C003F0B520DC90F5B0DC00FAA420DD0AB4216
:10205C0010D0002A27D13C43002B11D14D462E43E2
:10206C000ED10020002C15D00EE03D00254310D1E0
:10207C00934218D14D462E430BD1002A02D13C433A
:10208C00002C0BD0814214D00220013908400138B9
:10209C0000E00220C0BCB946B046F0BD0028F9D122
:1020AC0001204042F6E7002BECD14C462643E9D107
:1020BC00EAE79A4204DD4342584140000138E9E71F
:1020CC009A42EBDB4F45DFD806D000204F45E1D2DA
:1020DC000029E5D00800DDE7C445D5D80020C4456B
:1020EC00D8D2F5E7FF070000F0B557464E464546F7
:1020FC00DE46E0B598460C034B000600924687B0CE
:10210C00240B5B0DCF0F002B00D15CE1D94A93421D
:10211C0000D175E1420FE4001443802212041443F1
:10212C00D54AC500944663440093002399469B46C8
:10213C00434642461E03D20F5B0050469046360B78
:10214C005B0D00D120E1CB4A934200D162E1CA4938
:10215C00420F8C4600996344F6008C46164380224D
:10216C009C44120463461643C2000020009300995D
:10217C00434601318C4649467B4001930F2926D8B2
:10218C00BE4B890059588F464346019334001500C5
:10219C0083465B46022B16D0032B00D103E2012BA6
:1021AC0000D0CDE0002200240025019B1205224323
:1021BC00DB071A432800110007B0F0BCBB46B2463F
:1021CC00A946A046F0BD00240025AA4AEDE7280C3C
:1021DC002D042D0C2B00110C1204120C5343984699
:1021EC0013002F00434399464F434F44BB46474689
:1021FC000B003F0CBA464343DA440293D14504D951
:10220C0080277F02B9464B44029353461B0C9B46D6
:10221C0053461F0443461B041B0C98463B00434487
:10222C000493330C3604360C9846330043439946DA
:10223C00434643432F009A46434677435D43380C4D
:10224C004D444519A94503D980235B029946CA44DC
:10225C003F04280C3F0C2D04ED19270C2404240CEE
:10226C000300200050437A4391463A0053440593AF
:10227C00030C9A464A43614349445144AB44894553
:10228C0003D980235B0299464A4400040B0C000CD2
:10229C000904091820009946434670435C437E4369
:1022AC005F43030C9846A41944444A440397A6423E
:1022BC0004D980235B029846474403972304029E6B
:1022CC009A46059B5E449846AE42AD4176188E42C6
:1022DC0089410004000C504440446D424719B846F3
:1022EC00934649428946C344D94498428041A84503
:1022FC00AD4193459241894589416D424042284305
:10230C00240C524249420A43039B00198018C718F7
:10231C004B46DC0D049B75021D436A1E95414B46D2
:10232C00F60D7F0235435A023C431543FB0100D4A2
:10233C001CE101216A080D401543E20715436408AE
:10234C004F496144002900DCB0E06B0709D00F2233
:10235C002A40042A05D02A1DAA42AD416D426419B7
:10236C001500E30104D58021464AC900144061449C
:10237C00454A914200DD26E76207ED0864024905F3
:10238C001543240B4A0D10E75246324300D17FE02F
:10239C00002E00D1DCE0300000F01EFE02000B3AF3
:1023AC001D2301009B1A52460839DA408E40164311
:1023BC0052468A40009B3549181A03008C466344E8
:1023CC0000200093D3E6250005434AD0002C00D111
:1023DC00B0E0200000F000FE010002000B391D23CC
:1023EC0010005B1A3100350008388440D940854014
:1023FC000C432648831A0093002399469B4697E684
:10240C000500254326D1082200930223002491467F
:10241C009B468DE65246009B324310D1154900264F
:10242C008C46634449460093022319438946022093
:10243C009DE65B460197022B00D0ADE6C3E60D4A44
:10244C000320944663444A46009303231A4391465F
:10245C0052468CE60C2200930323050091469B46C2
:10246C0066E60423994600230093013300249B461F
:10247C005EE6C046FF07000001FCFFFFF89D000868
:10248C00FF030000FFFFFFFEFE0700000DFCFFFF37
:10249C0049460123194389460026012067E600239B
:1024AC0080240025434A019324037EE60120401A30
:1024BC00382800DD76E61F285BDD1F222300524200
:1024CC00511ACB401900202803D03B4A6244944057
:1024DC0025436A1E95412A000A4307210D0000245A
:1024EC00154011425BD00F2100241140042953D018
:1024FC00111D914292415242A4180A0023024BD55D
:10250C0001220024002550E680231B031C4209D025
:10251C001E4207D133431C0343461500240B254AA6
:10252C00019342E68022120314432403214A240B14
:10253C0001973AE600F050FD0100020015312032FF
:10254C001C2900DC4BE7340008380025844050E798
:10255C0000F042FD03001A00153220301C2A00DC6A
:10256C001EE75646083B00229E4023E7009B9C46F4
:10257C00E6E61249220061442E008D408A40C64096
:10258C00691E8D4132432A43C4405307B6D00F21F4
:10259C0011400429ACD1B1E765076402240BD208C1
:1025AC001543002201E68022120314432403014A3E
:1025BC00240BFAE5FF0700003E0400001E04000097
:1025CC00F8B557464E464546DE46E0B51E001700A8
:1025DC004A000B03520D5B0A9046420F1A43CD0F73
:1025EC00CD4C3103C300944670007A0F490AFF00AA
:1025FC009A46B946400DF60F1143A04200D1B1E006
:10260C0001225640B346B54200D188E04246121A28
:10261C00002A00DCAEE0002800D1C1E0BE488045B5
:10262C0000D151E1802000040143382A00DD7BE118
:10263C001F2A00DDEEE120203E00801A0C00D6405F
:10264C00D140874062468440521A781E8741944696
:10265C0034432743DC1BA3429B4162465B42D31AA3
:10266C0099464B461B0200D418E14B465802430ACC
:10267C0099464B46002B00D137E1484600F0ACFCA4
:10268C00010008392023220048465B1ADA408840B2
:10269C008C4043461043884500DD36E1C91A4B1C7B
:1026AC001F2B00DDEAE020222600D21A0100944004
:1026BC00DE40D84000239140621E944181469846EA
:1026CC0031430C43630709D00F232340042B05D05F
:1026DC00231DA342A4416442A1441C004B461B028F
:1026EC0000D4DEE041468C4B0131994200D1E7E049
:1026FC004B468A48E4080340180049055B07400232
:10270C0023434A0D040B1205ED0722432A431800FC
:10271C001100F0BCBB46B246A946A046F8BD4246E5
:10272C00121A002A52DD002800D19CE0A04500D1ED
:10273C00CAE0802000040143382A00DD49E11F2A49
:10274C0000DC97E110000E002038C640202A04D08F
:10275C004020821A91400F43B9464C46621E944168
:10276C0034433AE10A003A4328D0B346B5422BD061
:10277C006B4A4244002A5DD042464446821A002CE1
:10278C0000D0F5E065461D4300D19CE1551E012AA1
:10279C0000D1FBE1604CA24200D1BDE12A00F0E087
:1027AC000800384300D1C3E0501E012A00D1A8E133
:1027BC00594CA24200D187E0020036E70122564074
:1027CC00B346B54200D021E7554A4244002A00D115
:1027DC00B5E042464446821A002C00D138E14E4EF8
:1027EC00B04200D1DEE18026644636043443A44670
:1027FC00382A00DD96E11F2A00DD24E22026B41AD7
:10280C00A24664465646B440A1461C004E46D440EF
:10281C00264334005646B3405E1EB3411C43634608
:10282C00D340C918E419BC42BF417F42B946804627
:10283C008944D8E040463B4C0130204200D0B4E003
:10284C004046002800D044E16046184300D190E196
:10285C000800384300D0AAE16146DB0849070B4366
:10286C006146CC0827E00800384361D0501E012A8D
:10287C0000D139E1A24227D002005DE702001F39E6
:10288C00CA401100202B03D04022D31A9840044395
:10289C00631E9C410023994698460C43630700D065
:1028AC0012E74B464A46E4085B072343D4084246EA
:1028BC0019498A420ED024035205240B520D22E7EB
:1028CC000A00002400231EE7DB086246520713436C
:1028DC006246D4081A00224300D1FCE18022120384
:1028EC00144324030C4A240B0DE7200000F074FB66
:1028FC00010018311F2900DCC4E608388440434627
:10290C0020000024884500DCC8E6044A5B1A10400D
:10291C0098468146D6E6C046FF070000FFFF7FFFC2
:10292C0001F8FFFFFE0700000F437A1E974191E666
:10293C006146DB0849070B436146CC08B8E74046C3
:10294C00D34C0130204200D0A2E04046002800D0F9
:10295C0001E16046184300D15EE10800384300D025
:10296C005FE16146DB0849070B436146CC08A2E7EF
:10297C00C84DA84200D1CFE0802564462D042C43DD
:10298C00A446382A56DC1F2A00DDD1E020251E0083
:10299C00AD1A6446AB40AC40D6405D1EAB413443EF
:1029AC0023436446D440091B49E06046DC1B461AAD
:1029BC00A34280414042814630004E46801B8146F6
:1029CC00000276D44B46234300D052E60024002567
:1029DC0071E739430C00621E9441E4189C429B4100
:1029EC005B42634499464B461B0200D456E70123D5
:1029FC009C46A84BE044984538D04B46A64801224B
:102A0C0003401800630814401C43C3071C434308CD
:102A1C00994657E610000E002038C640202A04D0F4
:102A2C004020821A91400F43B9464F467A1E974177
:102A3C0037430FE662461A4313005A1E9341FC1AA1
:102A4C00A742BF417F42CB1B99465D46804608E6B4
:102A5C0066461E4300D1BEE0561E012A00D109E194
:102A6C008C4CA24200D119E13200C1E6424600244E
:102A7C00002348E620200C00801A3E00874084404A
:102A8C00D640781E8741D14034433C438C44A4E764
:102A9C00804A904200D1E9E0DF199F429B4161449A
:102AAC005B42C918CC077F084B08994680463C43CB
:102ABC00F4E6FC1AA742BF4163467F42C91ACB1BFE
:102ACC0099465D46D5E5FF084B075D463B43CC0870
:102ADC00EEE662461A4300D082E00B003B431BD16A
:102AEC00802400252403F9E6DC199C429B416144B7
:102AFC0089465B4299444B461B0244D401239846B9
:102B0C00CCE6DC1B6246A3429B41511A5B42CB1ABA
:102B1C00994601239846A4E5FF084B075D463B43C5
:102B2C00CC08D7E662461A431400631E9C4179E632
:102B3C0015006446203DEC40A046202A05D04025D7
:102B4C006446AA1A944023439A465446631E9C41F9
:102B5C004346234373E762461A4323D00A003A43A1
:102B6C0000D0A0E06246DB08520713436246D4084B
:102B7C00B0E60B003B4300D128E7FF084B075D464E
:102B8C003B43CC0897E60223984636E7FC1AA7424B
:102B9C00BF4163467F42C91ACB1B994601235D4650
:102BAC0098465EE54B07FF083B43CC0892E6DC1BDE
:102BBC006046A342B641401A7642801B8146000211
:102BCC0060D5FC1AA742BF4163467F42C91ACB1B92
:102BDC0099465D4676E5FF084B073B43CC0867E614
:102BEC000A00DB083A4300D16FE6624652071343F2
:102BFC006246D40880221203144207D0C80810423F
:102C0C0004D15D460400FB0849070B435A0FDB0057
:102C1C00DB08520713435DE64B07FF083B43CC0828
:102C2C0049E6DC199C429B41614489465B429944CC
:102C3C004B461B0200D431E64A46174B1A4001237F
:102C4C00914698462AE616006446203EF440A0467B
:102C5C00202A05D040266446B21A944023439A4653
:102C6C005446631E9C4143461C43DBE50200002492
:102C7C00002348E5DC19BC42BF41614489467F42D0
:102C8C00B94438E74B46234300D19FE606E6C046DD
:102C9C00FE070000FF070000FFFF7FFFFF084B0748
:102CAC003B43CC0816E66246DB08520713436246E8
:102CBC00D40880221203144207D0C808104204D151
:102CCC005D460400FB0849070B435A0FDB00520713
:102CDC00DB081343FEE50023014A1C0013E5C04644
:102CEC00FF07000070B505000C481C0316005B00C4
:102CFC000A034900120B490D240B5B0D814208D0CD
:102D0C00064A0020934203D120003043431E9841D1
:102D1C0070BD01202A43FBD1F2E7C046FF0700003B
:102D2C000A0030B5134C530009030500090B0020B1
:102D3C005B0DD20FA34204DD0F48834202DD0F4B23
:102D4C00D01830BD8020400301430D48C01A1F2805
:102D5C0008DD0C48C31AD9400B005842002AF0D1A8
:102D6C001800EEE7084CC540A446634499400B009C
:102D7C002B43F2E7FE0300001D040000FFFFFF7F62
:102D8C003304000013040000EDFBFFFF70B50028B6
:102D9C0016D0C317C5185D40C40F280000F01CF9ED
:102DAC00114A121A0A2816DC03002E0015339E4015
:102DBC000B23181AC54052052D032D0B530D03E0A0
:102DCC0000240023002500261B052B43E407234386
:102DDC003000190070BD0B38854052052D030026BC
:102DEC002D0B530DF0E7C0461E04000010B5041E59
:102DFC0010D000F0F1F80F4B1B1A0A2811DC0B2233
:102E0C002100121AD14015300A035B058440120BC5
:102E1C005B0D01E0002300221B0513432000190069
:102E2C0010BD22000B3882405B0512030024120BEC
:102E3C005B0DF1E71E04000070B543004602C40FA1
:102E4C00FE201B0E591C750A08420CD0E022920081
:102E5C0094466D07360B63441B053343E407234349
:102E6C002800190070BD002B14D1002D1BD0280098
:102E7C0000F0B2F80A281CDC0B232E001B1ADE40D3
:102E8C00030015339D400E4A3603121A5205360BB9
:102E9C00530DE1E7002D09D08022360B1203094BAC
:102EAC006D071643D8E700230026D5E70026054B0F
:102EBC00D2E703000B3B9D402E000025E3E7C04604
:102ECC0089030000FF07000002004B00F0B55B0D0A
:102EDC000C033D4E640A400F5F1CC90F0443D50020
:102EEC0037420AD039481E18FE2E16DDFF2000246A
:102EFC00C0052043C9070843F0BD002B06D12C4365
:102F0C0026D005229201540AD8B2F1E72543EDD020
:102F1C008020C0030443FF20EAE7002E1BDD920152
:102F2C00531E9A41E4006D0F22432A43530748D0A5
:102F3C000F231340042B00D004328023DB041340F6
:102F4C003FD0701CFE2ED1D09201540AC0B2CFE7F4
:102F5C0000200024CCE73200173222DB8020000452
:102F6C0020431E24A41B1F2C1DDD02225242961B43
:102F7C000200F2401600202C04D0154A94466344FB
:102F8C00984005432A00531E9A41324300265307AA
:102F9C00CED180241300E404012023402242D3D15B
:102FAC00B0E70023ADE70B4A94462A00E240140038
:102FBC002A0063449A409840551EAA41024322437A
:102FCC00E4E733009EE7C046FE07000080FCFFFFED
:102FDC00A2FCFFFF82FCFFFF1C2101231B04984273
:102FEC0001D3000C10391B0A984201D3000A08398E
:102FFC001B09984201D30009043902A2105C401845
:10300C007047C046040302020101010100000000E8
:10301C000000000080B586B000AFB860F9607A603F
:10302C00002200233A617B617868FFF7DFFEBA6803
:10303C00FB68FFF759F802000B00386A796AFEF753
:10304C0015F902000B003A617B617868FFF7CEFE40
:10305C000022084BFEF70AF902000B003869796967
:10306C00FEF740FC02000B0010001900BD4606B034
:10307C0080BDC0460000F03F80B588B000AFB8609E
:10308C00F9607A6000220023BA61FB610022002300
:10309C003A617B617868FFF779FE0022164BFEF7E8
:1030AC00E5F802000B0000208021C905FEF71AFC90
:1030BC0002000B003A617B61BA68FB68B86AF96A76
:1030CC00FFF77EFA02000B00100019003A697B69C9
:1030DC00FFF70AF802000B00B868F968FEF7C6F8AB
:1030EC0002000B00BA61FB61BA69FB6910001900A0
:1030FC00BD4608B080BDC0460000F03F90B587B01B
:10310C0002AFB860F9607A607B685B685A1C7B68B8
:10311C005A607B685B687A681288934212D27B682B
:10312C009868D9687B685B685C1EBA68FB6800921B
:10313C0001932200FFF76EFF02000B0079688A6092
:10314C00CB6011E07B689868D9687B681B881C0091
:10315C00BA68FB68009201932200FFF78DFF020012
:10316C000B0079688A60CB60C046BD4605B090BD47
:10317C0080B500AF114B5B78042B18D89A00104B1C
:10318C00D3181B689F460F4B9A68DB6812E00E4BF6
:10319C009A68DB680EE00D4B9A68DB680AE00C4B12
:1031AC009A68DB6806E00B4B9A68DB6802E0054B1B
:1031BC009A68DB6810001900BD4680BDC003002072
:1031CC00389E000800000020100000202000002085
:1031DC00300000204000002080B582B000AF786045
:1031EC00114B124A1A60124BFE2292051A60114BB7
:1031FC0000221A60104B00221A60104B00221A6039
:10320C000F4BEC2292051A600E4B00221A70796853
:10321C00FE208005FDF736FB031C1A1C084B1A60B8
:10322C00C046BD4602B080BD54020020CDCCCC3D82
:10323C00580200205C020020600200206402002082
:10324C00680200207802002090B59BB000AFF860B7
:10325C00B9607A603B60FA49F868FDF7DBFC031C47
:10326C00FB60F749B868FDF7D5FC031CBB60F4495B
:10327C007868FDF7CFFC031C7B60F24B1B68802247
:10328C0012065340F968181CFDF7C4FC031C1C1CE7
:10329C00ED4B1B68B968181CFDF7BCFC031C191C12
:1032AC00201CFDF7DDFD031C1C1CE84B1B6879681A
:1032BC00181CFDF7AFFC031C191C201CFDF7D0FDDE
:1032CC00031CFC218905181CFDF7A4FC031C7B6660
:1032DC00DF4B1B68F968181CFDF79CFC031C1C1CBD
:1032EC00D94B1B687968181CFDF794FC031C191C3E
:1032FC00201CFDF729F9031C1C1CD44B1B68B96856
:10330C00181CFDF787FC031C191C201CFDF7A8FDDD
:10331C00031CFC218905181CFDF77CFC031C3B6677
:10332C00CB4B1B68B968181CFDF774FC031C1C1CE8
:10333C00C44B1B687968181CFDF76CFC031C191C2A
:10334C00201CFDF78DFD031C1C1CC04B1B68F96871
:10335C00181CFDF75FFC031C191C201CFDF7F4F86E
:10336C00031CFC218905181CFDF754FC031CFB6590
:10337C00B74B1B687968181CFDF74CFC031C1C1C14
:10338C00B04B1B68B968181CFDF744FC031C191CD6
:10339C00201CFDF7D9F8031C1C1CAB4B1B68F968EF
:1033AC00181CFDF737FC031C191C201CFDF758FDDD
:1033BC00031CFC218905181CFDF72CFC031CBB65A8
:1033CC0000213868FDF774F8031E0CD00021B86F8B
:1033DC00FDF76EF8031E06D00021F86FFDF768F8B4
:1033EC00031E00D035E239683868FDF713FC031C66
:1033FC001C1CB96FB86FFDF70DFC031C191C201CAD
:10340C00FDF7A2F8031C1C1CF96FF86FFDF702FC0A
:10341C00031C191C201CFDF797F8031C181C00F04A
:10342C00D9FA031C7B65796D3868FDF7F3FB031C37
:10343C003B60796DB86FFDF7EDFB031CBB67796DD5
:10344C00F86FFDF7E7FB031CFB67814B1B68191C2E
:10345C00181CFDF779F8031C3B657A4B1B68191C8B
:10346C00181CFDF771F8031CFB64774B1B68191CC7
:10347C00181CFDF769F8031CBB64744B1B68191C02
:10348C00181CFDF761F8031C7B64714B1B688121D0
:10349C00C905181CFDF7BEFB031C3B64694B1B687C
:1034AC008121C905181CFDF7B5FB031CFB63664B9A
:1034BC001B688121C905181CFDF7ACFB031CBB6301
:1034CC00604B1B688221C905181CFDF7A3FB031C6C
:1034DC007B635D4B1B688221C905181CFDF79AFBA9
:1034EC00031C3B635A4B1A68594B1B68191C101C64
:1034FC00FDF790FB031CFB62524B1A68514B1B6887
:10350C00191C101CFDF786FB031CBB624E4B1A6882
:10351C004D4B1B68191C101CFDF77CFB031C7B62BC
:10352C004A4B1A68494B1B68191C101CFDF772FB9F
:10353C00031C3B62796A386CFDF76CFB031C1C1C8A
:10354C003968B86CFDF766FB031C191C201CFCF7D2
:10355C00FBFF031C1C1CB96A386CFDF75BFB031CDE
:10356C00191C201CFCF7F0FF031C1C1CB96FF86C19
:10357C00FDF750FB031C191C201CFDF771FC031CF0
:10358C00FB61396AF86BFDF745FB031C1C1C3968A1
:10359C00786CFDF73FFB031C191C201CFDF760FC2D
:1035AC00031C1C1C8121C905F86AFDF733FB031CA5
:1035BC001A1C244B1B68191C101CFDF72BFB031C3D
:1035CC00191C201CFCF7C0FF031C1C1CB96F386DA8
:1035DC00FDF720FB031C191C201CFDF741FC031CF0
:1035EC00F96B181CFDF73CFC031C1C1CB96A786BAE
:1035FC00FDF710FB031C191C201CFCF7A5FF031C7A
:10360C001C1C796A786BFDF705FB031C191C201C2C
:10361C00FCF79AFF031C1C1CF96FF86BFDF7FAFA08
:10362C00031C191C201CFCF78FFF031CBB618121A0
:10363C00C905F86AFDF7EEFA031C1A1C0AE0C0462D
:10364C0039FA8E3C5C0200206002002064020020EB
:10365C0058020020D84B1B68191C101CFDF7DAFA15
:10366C00031C1C1C3968386DFDF7D4FA031C191C9B
:10367C00201CFCF769FF031C1C1C396AB86BFDF796
:10368C00C9FA031C191C201CFCF75EFF031C1C1C34
:10369C00B96F786CFDF7BEFA031C191C201CFDF7E2
:1036AC00DFFB031CB96B181CFDF7DAFB031C1C1C9D
:1036BC00B96A386BFDF7AEFA031C191C201CFCF719
:1036CC0043FF031C1C1C796A386BFDF7A3FA031C1F
:1036DC00191C201CFCF738FF031C1C1CF96FB86B61
:1036EC00FDF798FA031C191C201CFCF72DFF031C7A
:1036FC007B618121C905B86AFDF78CFA031C1A1C81
:10370C00AE4B1B68191C101CFDF784FA031C1C1C07
:10371C003968F86CFDF77EFA031C191C201CFDF7A8
:10372C009FFB031C1C1C8121C905786AFDF772FAEA
:10373C00031C1A1CA14B1B68191C101CFDF76AFA00
:10374C00031C191C201CFCF7FFFE031C1C1CB96F6E
:10375C00B86CFDF75FFA031C191C201CFDF780FBED
:10376C00031C3B61F969F869FDF754FA031C1C1C36
:10377C00B969B869FDF74EFA031C191C201CFCF73B
:10378C00E3FE031C1C1C79697869FDF743FA031CE2
:10379C00191C201CFCF7D8FE031C1C1C3969386949
:1037AC00FDF738FA031C191C201CFCF7CDFE031C7A
:1037BC00181C00F00FF9031C7B65796DF869FDF797
:1037CC0029FA031CFB61796DB869FDF723FA031C18
:1037DC00BB61796D7869FDF71DFA031C7B61796D0E
:1037EC003869FDF717FA031C3B61754B1B68F969C7
:1037FC00181CFDF70FFA031C191C786EFDF730FB33
:10380C00031C7B666E4B1B68B969181CFDF702FA2A
:10381C00031C191C386EFDF723FB031C3B66684B1D
:10382C001B687969181CFDF7F5F9031C191CF86D58
:10383C00FDF716FB031CFB65614B1B683969181CF3
:10384C00FDF7E8F9031C191CB86DFDF709FB031C07
:10385C00BB655C4B1B68796E181CFDF7DBF9031C10
:10386C001A1C594B1B68191C101CFCF76DFE031C11
:10387C001A1C554B1A60534B1B68396E181CFDF7FC
:10388C00C9F9031C1A1C514B1B68191C101CFCF7A2
:10389C005BFE031C1A1C4D4B1A604A4B1B68F96DDE
:1038AC00181CFDF7B7F9031C1A1C434B1B68191C99
:1038BC00101CFCF749FE031C1A1C3F4B1A60414BB1
:1038CC001B68B96D181CFDF7A5F9031C1A1C3B4BA2
:1038DC001B68191C101CFCF737FE031C1A1C374BF9
:1038EC001A60394B1A68384B1B68191C101CFDF7F1
:1038FC0091F9031C1C1C354B1A68344B1B68191CA2
:10390C00101CFDF787F9031C191C201CFCF71CFE6E
:10391C00031C1C1C284B1A68274B1B68191C101CF9
:10392C00FDF778F9031C191C201CFCF70DFE031C79
:10393C001C1C224B1A68214B1B68191C101CFDF710
:10394C0069F9031C191C201CFCF7FEFD031C181C38
:10395C0000F040F8031C7B651B4B1B68796D181C31
:10396C00FDF758F9031C1A1C174B1A60174B1B68F0
:10397C00796D181CFDF74EF9031C1A1C134B1A60B9
:10398C000D4B1B68796D181CFDF744F9031C1A1CB0
:10399C00094B1A60094B1B68796D181CFDF73AF935
:1039AC00031C1A1C054B1A60094B00221A70C046E6
:1039BC00BD461BB090BDC0466002002064020020D2
:1039CC005402002068020020580200205C020020F3
:1039DC007802002080B586B000AF7860FC218905A4
:1039EC007868FDF717F9031C7B617B683B6110233A
:1039FC00FB181B68FB60FB685B10214AD31AFB6049
:103A0C000C23FB181B683B613B697969181CFDF79B
:103A1C0001F9031C1A1C3B69191C101CFDF7FAF860
:103A2C00031C191CFF208005FDF71AFA031C1A1C35
:103A3C003B69191C101CFDF7EDF8031C3B613B693D
:103A4C007969181CFDF7E6F8031C1A1C3B69191C54
:103A5C00101CFDF7DFF8031C191CFF208005FDF777
:103A6C00FFF9031C1A1C3B69191C101CFDF7D2F83A
:103A7C00031C3B613B69181CBD4606B080BDC046AB
:103A8C00DF59375FB0B500AF524B1A68524B1B6809
:103A9C00191C101CFDF7BEF8031C1C1C4F4B1A689C
:103AAC004F4B1B68191C101CFDF7B4F8031C191C98
:103ABC00201CFCF749FD031C1C1C474B1A68464B89
:103ACC001B68191C101CFDF7A5F8031C191CFC2005
:103ADC008005FDF7C5F9031C1D1C404B1A683F4BB4
:103AEC001B68191C101CFDF795F8031C191C281CCD
:103AFC00FDF7B6F9031C191C201C05F053FD021C24
:103B0C00384B1A60344B1A68354B1B68191C101C47
:103B1C00FDF780F8031C1C1C2E4B1A682F4B1B68DE
:103B2C00191C101CFDF776F8031C191C201CFDF742
:103B3C0097F9031CC0210906181CFDF76BF8031C30
:103B4C00181C05F00FFD021C274B1A60224B1A683B
:103B5C00224B1B68191C101CFDF75CF8031C1C1C69
:103B6C001C4B1A681E4B1B68191C101CFDF752F8D5
:103B7C00031C191C201CFCF7E7FC031C1C1C174B1A
:103B8C001A68164B1B68191C101CFDF743F8031C14
:103B9C00191CFC208005FDF763F9031C1D1C104B40
:103BAC001A680F4B1B68191C101CFDF733F8031C0B
:103BBC00191C281CFDF754F9031C191C201C05F0BA
:103BCC00F1FC021C094B1A60094B01221A70C04609
:103BDC00BD46B0BD580200205C02002060020020EF
:103BEC00640200206C02002070020020740200208D
:103BFC007802002080B500AF074B1B78002B01D159
:103C0C00FFF740FF054B1B680549181CFDF702F830
:103C1C00031C181CBD4680BD780200206C020020DD
:103C2C00E12E654280B500AF074B1B78002B01D10C
:103C3C00FFF728FF054B1B680549181CFCF7EAFF2A
:103C4C00031C181CBD4680BD7802002070020020A9
:103C5C00E12E654280B500AF0A4B1B78002B01D1D9
:103C6C00FFF710FF084B1B680849181CFCF7D2FF24
:103C7C00031C0749181CFCF767FC031C181CBD46E9
:103C8C0080BDC0467802002074020020E12E6542FF
:103C9C000000344380B500AF0D4B5A6B0C4B012127
:103CAC000A435A630A4B5A6B094B02210A435A6363
:103CBC00074B5A6B064B04210A435A63044B5A6B4D
:103CCC00034B08210A435A63C046BD4680BDC0461B
:103CDC000010024080B582B000AF7860080011007F
:103CEC00BB1C021C1A807B1C0A1C1A707B1C1B78C8
:103CFC00002B17D17B681B68BA1C12885200032159
:103D0C0091400A00D2431A407B681A607B681B689A
:103D1C00BA1C12885200012191400A001A437B6898
:103D2C001A600FE07B1C1B78012B0BD17B681B6886
:103D3C00BA1C12885200032191400A00D2431A4047
:103D4C007B681A60C046BD4602B080BD80B582B0AB
:103D5C0000AF786008001100BB1C021C1A807B1C91
:103D6C000A1C1A707B1C1B78002B0BD17B685B69BF
:103D7C00BA1C1288012191400A00D2431A407B6878
:103D8C005A6109E07B685B69BA1C12880121914079
:103D9C000A001A437B685A61C046BD4602B080BD1A
:103DAC0080B500AFA023DB05002208211800FFF727
:103DBC00CDFFC046BD4680BD80B500AFA023DB055E
:103DCC00012208211800FFF7C1FFC046BD4680BD87
:103DDC0080B500AF00F010F8064B180000F08CF81E
:103DEC00A023DB05002208211800FFF773FFC04653
:103DFC00BD4680BD0038004080B582B000AF364B68
:103E0C001A68354B35490A401A60334B1A68324BE5
:103E1C00802189050A431A602F4B5A692E4B304971
:103E2C000A405A612C4BDA682B4B2C490A40DA6059
:103E3C00294B5B6A7B607B682A4A13407B60264B6C
:103E4C007A685A62244B1A68234B920092081A60C3
:103E5C00214B1A68204B802109060A431A601E4B1D
:103E6C005A691D4B20490A405A611B4BDA681A4BA0
:103E7C0092009208DA60184B5B6A7B607B681B01CE
:103E8C001B097B60144B7A685A62134B1A68124BED
:103E9C0016490A401A60104B1A680F4B802109050D
:103EAC000A431A600C4B5A690B4B11490A405A6170
:103EBC00094BDA68084B0D490A40DA60064B5B6A1D
:103ECC007B607B680B4A13407B60034B7A685A62B9
:103EDC00C046BD4602B080BD00040050FFFFFFCFBE
:103EEC00FFBFFFFFFFFFFFF0FF7FFFFFFFFFFFF3B1
:103EFC00FFDFFFFFFFFF0FFF80B582B000AF7860E0
:103F0C003D4BDA6B3C4B8021C9010A43DA637B6879
:103F1C001B6804221A437B681A607B681B68374A4B
:103F2C001A407B681A607B685A68F0231B011A40A0
:103F3C007B685A607B685A68E023DB001A407B6818
:103F4C005A607B681B68012293431A007B681A60D5
:103F5C007B681B68022293431A007B681A607B689B
:103F6C001B68802292001A437B681A607B681B686E
:103F7C00802252001A437B681A607B681B683822C7
:103F8C0093431A007B681A607B681B6830221A43C3
:103F9C007B681A607B681B68802293431A007B68DD
:103FAC001A607B685B68102293431A007B685A6026
:103FBC007B681B68124A1A407B681A607B685B68D6
:103FCC0008221A437B685A607B685B688022520126
:103FDC001A437B685A607B68DB690A4A1A407B6823
:103FEC00DA617B681B6840221A437B681A60C04602
:103FFC00BD4602B080BDC04600100240FFFBFFFF73
:10400C00FFDFFFFFFFF7FFFF80B584B000AF7860E4
:10401C000A00FB1C1A700F23FB1800221A70C046F2
:10402C007B689B6802221340FAD07B680C33FA1C25
:10403C0012781A70C0467B689B6801221340FAD034
:10404C007B68DA680F217B181A707B181B781800B4
:10405C00BD4604B080BD000080B582B000AF786072
:10406C0000F02AF87B68074A1900100000F0BAF833
:10407C00044B1A68034B20210A431A60C046BD4604
:10408C0002B080BD0038014080B582B000AF0200A4
:10409C00FB1D1A70C046074BDB6980221340802B36
:1040AC00F9D1044BFA1D12789A62C046BD4602B093
:1040BC0080BDC0460038014080B582B000AF0023FF
:1040CC007B60424B5A6B414B01210A435A633F4B75
:1040DC001A6C3E4B8021C9010A431A64A023DB05EC
:1040EC001A68A023DB053A490A401A60A023DB05B5
:1040FC001A68A023DB05802189030A431A60A023D8
:10410C00DB055A69A023DB0532490A405A61A0231A
:10411C00DB05DA68A023DB052D490A40DA60A02311
:10412C00DB059A68A023DB052A490A409A60A02384
:10413C00DB051A68A023DB0527490A401A60A02377
:10414C00DB051A68A023DB05802109030A431A60EA
:10415C00A023DB055A69A023DB0520490A405A61DC
:10416C00A023DB05DA68A023DB051B490A40DA60D3
:10417C00A023DB059A68A023DB0518490A409A6046
:10418C00A023DB055B6A7B607B68154A13407B6070
:10419C007B688022520013437B60A023DB057A6886
:1041AC005A62A023DB055B6A7B607B68F022934339
:1041BC007B607B68102213437B60A023DB057A684D
:1041CC005A62C046BD4602B080BDC04600100240D7
:1041DC00FFFFCFFFFFFBFFFFFFFFF3FFFFFDFFFF25
:1041EC00FFF0FFFF80B584B000AF786039603968AC
:1041FC001948FBF79DFF0300FB607B6800221A60E7
:10420C007B681B68154A1A407B681A607B681B68C0
:10421C00134A1A407B681A607B681B680C221A438D
:10422C007B681A607B681B680E4A1A407B681A60B0
:10423C007B68DB6A0F221A407B68DA627B68FA685B
:10424C00DA607B681B6801221A437B681A60C046DF
:10425C00BD4604B080BDC0460090D003FFFFFFEF09
:10426C00FFFBFFFFFF7FFFFF80B500AF0F2000F0CB
:10427C004DF90300DAB2124B1A700F2000F046F918
:10428C0003006B2B18D14C21112000F0A3F9112045
:10429C0000F03CF90300DAB20A4B1A704A211020E4
:1042AC0000F098F90021162000F094F9092117204C
:1042BC0000F090F9012300E000231800BD4680BDFA
:1042CC00790200207A02002090B58DB000AFF86022
:1042DC00B9607A6028243B19180006231A000021C3
:1042EC0002F0DDFA1023FB18180018231A00002125
:1042FC0002F0D5FA3B1906221900282000F028F903
:10430C00031E07D10023FB600023BB6000237B60EE
:10431C00002352E028243B1900229B5E1800FEF774
:10432C0035FD0022274BFDF7DFFE02000B001000CD
:10433C0019000022244BFDF7D5FA02000B001000E7
:10434C001900FEF7C1FD021CFB681A603B19022222
:10435C009B5E1800FEF71AFD00221A4BFDF7C4FEF7
:10436C0002000B00100019000022174BFDF7BAFADF
:10437C0002000B0010001900FEF7A6FD021CBB6822
:10438C001A603B1904229B5E1800FEF7FFFC00220A
:10439C000C4BFDF7A9FE02000B00100019000022C7
:1043AC00094BFDF79FFA02000B0010001900FEF7F5
:1043BC008BFD021C7B681A6001231800BD460DB0F2
:1043CC0090BDC046000010400000E04080B500AF3A
:1043DC001E2000F09BF80200064B1A60054B1B6870
:1043EC000122134001D0012300E000231800BD4638
:1043FC0080BDC0467C02002090B587B000AFF8604D
:10440C00B9607A6010243B19180006231A000021A9
:10441C0002F045FA3B1906221900222000F098F808
:10442C00031E07D10023FB600023BB6000237B60CD
:10443C00002352E010243B1900229B5E1800FEF76B
:10444C00A5FC0022274BFDF74FFE02000B001000CD
:10445C0019000022244BFDF745FA02000B00100056
:10446C001900FEF731FD021CFB681A603B19022291
:10447C009B5E1800FEF78AFC00221A4BFDF734FEF7
:10448C0002000B00100019000022174BFDF72AFA4E
:10449C0002000B0010001900FEF716FD021CBB6891
:1044AC001A603B1904229B5E1800FEF76FFC002279
:1044BC000C4BFDF719FE02000B0010001900002236
:1044CC00094BFDF70FFA02000B0010001900FEF764
:1044DC00FBFC021C7B681A6001231800BD4607B068
:1044EC0090BDC04600409F400000E04080B500AF4A
:1044FC001E2000F00BF803000222134001D0012310
:10450C0000E000231800BD4680BD000080B584B0DB
:10451C0000AF0200FB1D1A700F23F918FB1D1B784E
:10452C000122180000F014F80300012B06D0074BF1
:10453C00012252421A60054B1B6802E00F23FB1844
:10454C001B781800BD4604B080BDC0468002002018
:10455C0090B587B000AFB9607A600F243B19021C8C
:10456C001A703B193A191278802149420A431A7081
:10457C0080235900A023DB050022180001F0F0F97C
:10458C003B191B78124A19001000FFF73DFD002360
:10459C007B610CE07B69BA68D4180D4B00211800C4
:1045AC00FFF732FD030023707B6901337B617B696C
:1045BC007A689A42EED880235900A023DB050122A9
:1045CC00180001F0CDF901231800BD4607B090BDCD
:1045DC000038004080B582B000AF0200FB1D1A709D
:1045EC00BB1D0A1C1A70FFF7DBFBFB1D1B78094A6D
:1045FC0019001000FFF708FDBB1D1B78054A1900B8
:10460C001000FFF701FDFFF7D7FBC0461800BD46B1
:10461C0002B080BD00380040B0B588B002AFFFF7E3
:10462C00D5FE031E32D0FFF761FF031E2ED00C23E4
:10463C00FA181023F9181423FB181800FFF744FE7E
:10464C00031E23D03A00391D0823FB181800FFF76E
:10465C00D3FE031E1AD0B86879683C687D693B6943
:10466C00FA68019200932B1C221CFEF7EDFDFFF75C
:10467C00C1FA021C074B1A60FFF7D4FA021C064B56
:10468C001A60FFF7E7FA021C044B1A60C046BD46DD
:10469C0006B0B0BD6C020020700200207402002035
:1046AC0080B586B000AFF860B9607A6000237B619A
:1046BC000BE0B9684B1CBB60FA239B000748012236
:1046CC0001F056FF7B6901337B617A697B689A4202
:1046DC00EFDB7B681800BD4606B080BDD002002021
:1046EC0080B500AF00F0CBFD00F004F800F064F8EA
:1046FC00FEE7000080B588B000AF1423FB1818004B
:10470C000C231A00002102F0CAF83B1D18001023DC
:10471C001A00002102F0C3F8234B8022D2051A6044
:10472C00214B00225A60204B00229A601E4B012222
:10473C005242DA601C4B00221A611B4B00229A6118
:10474C00194B180001F029F9031E01D000F02EF8C6
:10475C0014217B1800221A607B1800229A607A18A8
:10476C00114B1100180001F083FE031E01D000F064
:10477C001DF83B1D00221A603B1D01225A603B1D97
:10478C0000229A603B1D0022DA60391D064B0C2278
:10479C00180001F0BDFB031E01D000F007F8C04665
:1047AC00BD4608B080BDC0468402002080B500AF75
:1047BC0072B6C046FEE7000080B500AF00F032F8DC
:1047CC00144B1A68144B1B68D31A642B05D9FFF7CA
:1047DC0023FF104B1A68104B1A600E4B9B7C002B5E
:1047EC0006D00C4B00229A740C4B180002F05AFDA8
:1047FC0000F090F8074B1A68064BDB68D21A084B8E
:10480C005B689A42DCD3034B1A68024BDA6000F007
:10481C0031FAD5E70804002040060020389C000837
:10482C00C003002080B500AFFFF734FAFFF7D0FAD1
:10483C00E1235B021800FFF70FFC0B4B0B4A1A60CD
:10484C000B4B181CFEF7C8FCFFF70EFD031E03D123
:10485C00084B180002F026FD074B0C21180001F044
:10486C00F5F8C046BD4680BD4806002095400008BE
:10487C0000002041549C00088402002080B582B0C6
:10488C0000AF78607B681A688023DB059A4238D1C8
:10489C007B681B7F082B34D11C4B1B7A002B0BD154
:1048AC007B680C21180001F0D7FB0200174B1A6033
:1048BC00164B01221A7224E07B680C21180001F0BF
:1048CC00CBFB0200114B5A60104B5A680F4B1B6804
:1048DC00D21A0E4BDA600D4BDB6819000C48FBF753
:1048EC0027FC03001A00094B1A61084A87239B0016
:1048FC000121D1548023DB0500225A62034B002294
:10490C001A72C046BD4602B080BDC0461C040020D1
:10491C000090D003B0B588B000AF0023FB61C74A4C
:10492C0087239B00D35C002B00D183E1C34A8723F0
:10493C009B000021D154C14B1B69002B04D1C04BEF
:10494C0034220221995475E1BE4B1A79BD4B5B7927
:10495C009A420DD2BB4B1A68B84B1B69D218B94B93
:10496C001A60B84B1B790133DAB2B64B1A7161E19C
:10497C00B24A88239B00D358591CB04A88239B0009
:10498C00D150B04B1A68AF4B5B7919001000FBF794
:10499C00CFFB0300FB61F869FCF726FC031C181C19
:1049AC00FEF74AFAA84B1A00FEF7A8FBA54B00220B
:1049BC001A60A44B00221A71A44B1A68A04B1A63FC
:1049CC00A34B9B681800FEF711FAA24AA24BFDF705
:1049DC008BFB02000B0010001900FBF797FD020087
:1049EC00FB69934204D2964B34220221995421E163
:1049FC00974BDB681800FEF7F9F9984A984BFDF7CE
:104A0C0073FB02000B0010001900FBF77FFD020086
:104A1C00FB69934204D98A4B34220121995409E150
:104A2C00874B342200219954844B1A69884BDB68DC
:104A3C009A4204D9864BDA68814B1A600DE07F4BA1
:104A4C001A69834B9B689A4204D2814B9A687C4BBF
:104A5C001A6002E07A4BFA691A60794B1A68784B43
:104A6C005B689A420DD3764B1C68754B9A69DB696F
:104A7C0010001900FBF74AFD0300E21A704B9A6014
:104A8C000CE06F4B9A69DB6910001900FBF73EFDD7
:104A9C0002006B4B1B68D21A694B9A60684B9C687E
:104AAC00674B5B680A211800FBF742FB03009C4232
:104ABC000ED9634B9B89092B0AD8614B5B68002B81
:104ACC0006D05F4B9B8901339AB25D4B9A81B1E062
:104ADC005B4B1B681800FEF789F9624B1A00FEF756
:104AEC000DFB574B00229A81554B1A68544B5A6058
:104AFC00FEF73EFB02000B0051490A614B61504B23
:104B0C001C695D69524BDB681800FEF76FF90200F7
:104B1C000B0020002900FBF7B5FC031E12D04C4BF8
:104B2C00DB681800FEF762F902000B0044490A61C9
:104B3C004B614349002200230A624B62404B002226
:104B4C001A8577E03E4B1C695D69414B9B681800E8
:104B5C00FEF74CF902000B0020002900FBF77EFC4D
:104B6C00031E12D03A4B9B681800FEF73FF9020067
:104B7C000B0033490A614B61314900223A4B0A62FE
:104B8C004B622F4B394A1A8554E0314BDB681800C5
:104B9C00FEF72CF902000B0000203349FCF7A2FEB3
:104BAC0002000B003A617B61294B9B681800FEF7F1
:104BBC001DF902000B0000202B49FCF793FE0200AC
:104BCC000B00BA60FB601E4B1A695B69002026491A
:104BDC00FCF788FE02000B003A607B603A697B6947
:104BEC0038687968FDF7ECFC02000B0014001D001E
:104BFC003A697B69B868F968FDF7E2FC02000B00C2
:104C0C0020002900FCF76EFE02000B000C490A6222
:104C1C004B620B4B186A596A0022154BFDF764FA6C
:104C2C0002000B0010001900FBF770FC03009AB295
:104C3C00034B1A85BD4608B0B0BDC0461C0400200D
:104C4C00D003002050000020100000200804002099
:104C5C00C0030020CDCCCCCCCCCCEC3F9A9999990C
:104C6C009999F13F000000200000F03FFF03000085
:104C7C0000F88F40F0B5D6464F464646C0B596B0C4
:104C8C0012AF2B4B1B6998462A4B1A695B691000B3
:104C9C001900FBF73BFC8146264B1B8D9A46264B95
:104CAC001B68181CFEF7C8F804000D00234B1B688A
:104CBC00181CFEF7C1F8B860F960214B1B68181C72
:104CCC00FEF7BAF8386079601E4988681D49C968D2
:104CDC001D4E00239C46634610930F910E900021AD
:104CEC000D9100210C913A687B680A920B93BA687B
:104CFC00FB680892099306940795002305930023FB
:104D0C00049300230393002302930023019353463F
:104D1C00009300234A464146300002F037FAC04661
:104D2C00BD4604B0E0BCBA46B146A846F0BDC0468C
:104D3C001C040020D00300206C0200207002002014
:104D4C0074020020C0030020749C000880B582B05F
:104D5C0000AF0F4B1A6C0E4B01210A431A640C4B1B
:104D6C001B6C012213407B607B68094BDA6B084B90
:104D7C00802149050A43DA63054BDA6B80235B0516
:104D8C0013403B603B68C046BD4602B080BDC04688
:104D9C000010024090B58BB000AF786014243B1922
:104DAC00180014231A00002101F079FD7B681A68A1
:104DBC008023DB059A4236D11D4BDA6B1C4B01214B
:104DCC000A43DA631A4BDB6B012213403B613B69EC
:104DDC00174B5A6B164B01210A435A63144B5B6BEE
:104DEC0001221340FB60FB6821007B1808221A602B
:104DFC007B1802225A607B1800229A607B180022D2
:104E0C00DA607B1802221A617A18A023DB051100E4
:104E1C00180000F041FC002200210F2000F058FB8C
:104E2C000F2000F06AFBC046BD460BB090BDC046DB
:104E3C000010024080B500AFFEE780B500AFFEE782
:104E4C0080B500AFC046BD4680BD80B500AFC04642
:104E5C00BD4680BD80B500AF044B1B685A1C034B8C
:104E6C001A6000F06DFAC046BD4680BD08040020F3
:104E7C0080B500AF034B180000F05CFBC046BD468C
:104E8C0080BDC0466403002080B500AF034B180002
:104E9C0000F00CFFC046BD4680BDC0468402002019
:104EAC0080B500AF01231800BD4680BD80B582B02F
:104EBC0000AF7860396001F0BFFC030016221A6065
:104ECC0001235B421800BD4602B080BD80B582B0A4
:104EDC0000AF786001235A427B6811001800FFF77D
:104EEC00E5FFFEE780B586B000AFF860B9607A6088
:104EFC0000237B610AE000E000BF0100BB685A1C84
:104F0C00BA60CAB21A707B6901337B617A697B68BB
:104F1C009A42F0DB7B681800BD4606B080BD80B5B8
:104F2C0082B000AF786001235B421800BD4602B02E
:104F3C0080BD80B582B000AF786039603B6880225C
:104F4C0092015A6000231800BD4602B080BD80B5A6
:104F5C0082B000AF786001231800BD4602B080BD5E
:104F6C0080B584B000AFF860B9607A600023180097
:104F7C00BD4604B080BD000080B586B000AF78603F
:104F8C00144A154BD31A7B617B693B61134B1B682D
:104F9C00002B02D1114B124A1A60104B1A687B6815
:104FAC00D3183A699A4207D201F046FC03000C224E
:104FBC001A6001235B4209E0084B1B68FB60074B3E
:104FCC001A687B68D218054B1A60FB681800BD463E
:104FDC0006B080BD00200020000400004406002024
:104FEC006006002090B583B000AF02003960FB1D55
:104FFC001A70FB1D1B787F2B28D82F4AFB1D1B78A2
:10500C005BB29B08C0339B009B58FA1D12781100B1
:10501C0003220A40D200FF2191400A00D2431A40D9
:10502C0011003B689B01FF221A40FB1D1B781800E6
:10503C0003230340DB009A401F48FB1D1B785BB227
:10504C009B080A43C0339B001A5031E01B4AFB1DDE
:10505C001B7819000F230B40083B9B0806339B0061
:10506C00D31804331B68FA1D1278110003220A406E
:10507C00D200FF2191400A00D2431A4011003B6834
:10508C009B01FF221A40FB1D1B78180003230340D1
:10509C00DB009A400948FB1D1B781C000F232340A2
:1050AC00083B9B080A4306339B00C31804331A6061
:1050BC00C046BD4603B090BD00E100E000ED00E04D
:1050CC0080B582B000AF78607B685A1E80235B0489
:1050DC009A4201D3012310E00A4B7A68013A5A60D4
:1050EC0001235B4203211800FFF77CFF054B0022D4
:1050FC009A60044B07221A6000231800BD4602B0C8
:10510C0080BDC04610E000E080B500AF00F028F88C
:10511C0000F018F8C046BD4680BD000080B582B0D6
:10512C0000AF78607B68042B05D1054B1A68044BE3
:10513C0004210A431A60C046BD4602B080BDC04679
:10514C0010E000E080B500AF0420FFF7E7FFFA2382
:10515C001B021800FFF7B4FFC046BD4680BD00001F
:10516C0080B500AF2B4B1A682A4B802149020A43A9
:10517C001A60C046274B1A6880239B021340F9D053
:10518C00254B1A68244B822149000A431A60214B93
:10519C009A68204B21490A409A601E4B9A681D4B15
:1051AC001F490A409A601B4BDA681A4B03210A43C9
:1051BC00DA60184BDA68174B1A490A40DA60154B5B
:1051CC00DA68144B18490A43DA60124B1A68114B0F
:1051DC00802149040A431A60C0460E4B1A6880238A
:1051EC009B041340F9D00B4B9A680A4B07218A4356
:1051FC009A60084B9A68074B02210A439A60C04692
:10520C00044B9B6838221340102BF9D1C046C04682
:10521C00BD4680BD0010024000200240FFF0FFFFA1
:10522C00FF8FFFFF8F80FF1F031000310D48854655
:10523C00FFF76AFF0C480D490D4A002302E0D458D1
:10524C00C4500433C4188C42F9D30A4A0A4C0023C4
:10525C0001E013600432A242FBD301F0F3FAFFF732
:10526C003FFAFEE70020002000000020340200205E
:10527C006CA200083802002060060020FEE780B512
:10528C0082B000AFFB1D00221A70032000F00EF854
:10529C00031E03D0FB1D01221A7001E0FFF756FD1F
:1052AC00FB1D1B781800BD4602B080BD90B585B0C3
:1052BC0000AF78600F23FB1800221A701D4B1B786F
:1052CC00002B2BD01C4B1C681A4B1B781900FA2393
:1052DC009800FAF72DFF030019002000FAF728FFB9
:1052EC000300180000F019F9031E12D17B68032B80
:1052FC000AD8796801235B420022180000F0E8F814
:10530C000E4B7A681A600DE00F23FB1801221A70FD
:10531C0008E00F23FB1801221A7003E00F23FB187F
:10532C0001221A700F23FB181B781800BD4605B01C
:10533C0090BDC04660000020580000205C0000209A
:10534C0080B500AF054B1B781A00054B1B68D218B3
:10535C00034B1A60C046BD4680BDC04660000020AD
:10536C004C06002080B500AF024B1B681800BD46F0
:10537C0080BDC0464C06002080B582B000AF020054
:10538C00FB1D1A70FB1D1B787F2B09D8FB1D1B788E
:10539C001A001F231A40044B012191400A001A6085
:1053AC00C046BD4602B080BD00E100E090B583B0C0
:1053BC0000AF02003960FB1D1A70FB1D1B787F2BA0
:1053CC0028D82F4AFB1D1B785BB29B08C0339B006F
:1053DC009B58FA1D1278110003220A40D200FF21BB
:1053EC0091400A00D2431A4011003B689B01FF22F6
:1053FC001A40FB1D1B78180003230340DB009A4066
:10540C001F48FB1D1B785BB29B080A43C0339B00F3
:10541C001A5031E01B4AFB1D1B7819000F230B405F
:10542C00083B9B0806339B00D31804331B68FA1DFA
:10543C001278110003220A40D200FF2191400A0089
:10544C00D2431A4011003B689B01FF221A40FB1DFE
:10545C001B78180003230340DB009A400948FB1D0E
:10546C001B781C000F232340083B9B080A43063380
:10547C009B00C31804331A60C046BD4603B090BDF0
:10548C0000E100E000ED00E080B582B000AF786094
:10549C007B685A1E80235B049A4201D3012310E0DF
:1054AC000A4B7A68013A5A6001235B4203211800C7
:1054BC00FFF77CFF054B00229A60044B07221A6011
:1054CC0000231800BD4602B080BDC04610E000E0CD
:1054DC0080B584B000AFB9607A600F217B18021CD4
:1054EC001A70BA687B181B785BB211001800FFF7B2
:1054FC005DFFC046BD4604B080BD80B582B000AF34
:10550C000200FB1D1A70FB1D1B785BB21800FFF725
:10551C0033FFC046BD4602B080BD80B582B000AF3F
:10552C0078607B681800FFF7AFFF03001800BD46DA
:10553C0002B080BD80B584B000AF7860554B1B685D
:10554C00FB607B681B681B68BB607B681B6C1C2248
:10555C00134004229A401300FA68134027D0BB680A
:10556C000422134023D07B681B681B682022134045
:10557C0007D17B681B681A687B681B6804218A4307
:10558C001A60444B59687B681B6C1C221340042224
:10559C009A40404B0A435A607B681B6B002B00D12E
:1055AC0073E07B681B6B7A68100098476DE07B6832
:1055BC001B6C1C22134002229A401300FA68134001
:1055CC002ED0BB68022213402AD07B681B681B6854
:1055DC00202213400BD17B681B681A687B681B6800
:1055EC000A218A431A607B68252201219954294B90
:1055FC0059687B681B6C1C22134002229A40254B75
:10560C000A435A607B682422002199547B68DB6A28
:10561C00002B3AD07B68DB6A7A681000984734E03C
:10562C007B681B6C1C22134008229A401300FA68FA
:10563C0013402BD0BB680822134027D07B681B6813
:10564C001A687B681B680E218A431A60114B5968D3
:10565C007B681B6C1C22134001229A400D4B0A43A1
:10566C005A607B680122DA637B68252201219954F8
:10567C007B682422002199547B685B6B002B05D03E
:10568C007B685B6B7A6810009847C046C046BD4685
:10569C0004B080BD0000024080B586B000AF7860D9
:1056AC00396000237B6147E13B681B6801217A6903
:1056BC0091400A001340FB60FB68002B00D138E1DD
:1056CC003B685B6803221340012B05D03B685B6889
:1056DC0003221340022B30D17B689B683B617B69B2
:1056EC005B0003229A401300DA433B6913403B6191
:1056FC003B68DA687B695B009A4013003A69134394
:10570C003B617B683A699A607B685B683B6101220C
:10571C007B699A401300DA433B6913403B613B6859
:10572C005B681B0901221A407B699A4013003A6995
:10573C0013433B617B683A695A603B685B680322A0
:10574C001340032B17D07B68DB683B617B695B00E4
:10575C0003229A401300DA433B6913403B613B68D8
:10576C009A687B695B009A4013003A6913433B616A
:10577C007B683A69DA603B685B6803221340022B52
:10578C0023D17B69DA087B6808329200D3583B61DD
:10579C007B69072213409B000F229A401300DA43C7
:1057AC003B6913403B613B681A697B6907210B40DD
:1057BC009B009A4013003A6913433B617B69DA08FA
:1057CC007B68083292003969D1507B681B683B6159
:1057DC007B695B0003229A401300DA433B69134058
:1057EC003B613B685B6803221A407B695B009A4013
:1057FC0013003A6913433B617B683A691A603B6852
:10580C005A68C0239B02134000D192E0504A7B6936
:10581C009B0818339B009B583B617B690322134008
:10582C00DB000F229A401300DA433B6913403B61C3
:10583C007A68A023DB059A4213D07B68454A9342D1
:10584C000DD07B68444A934207D07B68434A93420D
:10585C0001D1032306E0052304E0022302E0012327
:10586C0000E000237A6903210A40D20093403A6990
:10587C0013433B6136497B699B0818339B003A699B
:10588C005A50334B1B683B61FB68DA433B6913404E
:10589C003B613B685A6880235B03134003D03A6931
:1058AC00FB6813433B612A4B3A691A60284B5B68CF
:1058BC003B61FB68DA433B6913403B613B685A68C8
:1058CC0080239B03134003D03A69FB6813433B616D
:1058DC001F4B3A695A601E4A8423D3583B61FB68BC
:1058EC00DA433B6913403B613B685A6880239B0257
:1058FC00134003D03A69FB6813433B61144984227B
:10590C003B698B50124A8023D3583B61FB68DA43C6
:10591C003B6913403B613B685A6880235B02134030
:10592C0003D03A69FB6813433B61094980223B6908
:10593C008B507B6901337B613B681A687B69DA4069
:10594C00131E00D0B0E6C046C046BD4606B080BDB2
:10595C00001802400004005000080050000C0050D9
:10596C0080B582B000AF786008001100BB1C021C2F
:10597C001A807B1C0A1C1A707B1C1B78002B04D011
:10598C00BB1C1A887B689A6103E0BB1C1A887B6875
:10599C009A62C046BD4602B080BD80B582B000AFF1
:1059AC0078607B68002B01D101234AE07B683D22A3
:1059BC009B5CDBB2002B07D17B683C220021995405
:1059CC007B681800FFF7E6F97B683D2202219954A9
:1059DC007B681A687B6804331900100000F090FB98
:1059EC007B684822012199547B683E2201219954FD
:1059FC007B683F22012199547B68402201219954F4
:105A0C007B684122012199547B68422201219954DF
:105A1C007B684322012199547B68442201219954CB
:105A2C007B684522012199547B68462201219954B7
:105A3C007B684722012199547B683D2201219954AE
:105A4C0000231800BD4602B080BD000080B584B0B4
:105A5C0000AF786039600F23FB1800221A703B6886
:105A6C00002B04D17B683E229B5CDBB223E03B68BD
:105A7C00042B04D17B683F229B5CDBB21BE03B68B0
:105A8C00082B04D17B6840229B5CDBB213E03B68A3
:105A9C000C2B04D17B6841229B5CDBB20BE03B6896
:105AAC00102B04D17B6842229B5CDBB203E07B6849
:105ABC0043229B5CDBB20E22BA1813703B68002B9E
:105ACC0004D17B6844229B5CDBB213E03B68042B63
