:020000040800F2
:1000000000200020D93C0008353B00083B3B00089D
:1000100000000000000000000000000000000000E0
:10002000000000000000000000000000413B00084C
:1000300000000000000000004B3B0008553B00089A
:10004000293D0008293D0008293D0008293D0008F8
:10005000293D0008293D0008293D0008293D0008E8
:1000600000000000293D0008293D0008293D000846
:10007000293D0008293D0008293D0008713B000882
:10008000293D0008293D0008293D0008293D0008B8
:1000900000000000293D0008293D0008293D000816
:1000A000293D0008293D0008293D0008293D000898
:0C00B000293D0008293D00080000000068
:1000BC0010B5064C2378002B07D1054B002B02D032
:1000CC00044800E000BF0123237010BDDC010020B8
:1000DC0000000000C8A00008044B10B5002B03D092
:1000EC000349044800E000BF10BDC04600000000FA
:1000FC00E0010020C8A000080023C25C0133002AE4
:10010C00FBD1581E7047000002B4714649084900E3
:10011C00095C49008E4402BC7047C04603B471466A
:10012C00490840004900095E49008E4403BC7047F1
:10013C00002243088B4274D303098B425FD3030A1A
:10014C008B4244D3030B8B4228D3030C8B420DD32D
:10015C00FF22090212BA030C8B4202D312120902BB
:10016C0065D0030B8B4219D300E0090AC30B8B42F9
:10017C0001D3CB03C01A5241830B8B4201D38B03A7
:10018C00C01A5241430B8B4201D34B03C01A52414C
:10019C00030B8B4201D30B03C01A5241C30A8B428F
:1001AC0001D3CB02C01A5241830A8B4201D38B027A
:1001BC00C01A5241430A8B4201D34B02C01A52411E
:1001CC00030A8B4201D30B02C01A5241CDD2C30990
:1001DC008B4201D3CB01C01A524183098B4201D30C
:1001EC008B01C01A524143098B4201D34B01C01AF7
:1001FC00524103098B4201D30B01C01A5241C3086F
:10020C008B4201D3CB00C01A524183088B4201D3DD
:10021C008B00C01A524143088B4201D34B00C01AC9
:10022C005241411A00D20146524110467047FFE735
:10023C0001B5002000F0F0F802BDC0460029F7D04F
:10024C0076E7704703460B437FD4002243088B426A
:10025C0074D303098B425FD3030A8B4244D3030B41
:10026C008B4228D3030C8B420DD3FF22090212BA06
:10027C00030C8B4202D31212090265D0030B8B4282
:10028C0019D300E0090AC30B8B4201D3CB03C01A6C
:10029C005241830B8B4201D38B03C01A5241430B47
:1002AC008B4201D34B03C01A5241030B8B4201D337
:1002BC000B03C01A5241C30A8B4201D3CB02C01AA2
:1002CC005241830A8B4201D38B02C01A5241430A1A
:1002DC008B4201D34B02C01A5241030A8B4201D309
:1002EC000B02C01A5241CDD2C3098B4201D3CB01B0
:1002FC00C01A524183098B4201D38B01C01A52415F
:10030C0043098B4201D34B01C01A524103098B4262
:10031C0001D30B01C01A5241C3088B4201D3CB004D
:10032C00C01A524183088B4201D38B00C01A524130
:10033C0043088B4201D34B00C01A5241411A00D2E0
:10034C0001465241104670475DE0CA0F00D0494249
:10035C00031000D34042534000229C4603098B42B9
:10036C002DD3030A8B4212D3FC22890112BA030A41
:10037C008B420CD3890192118B4208D389019211C3
:10038C008B4204D389013AD0921100E08909C30948
:10039C008B4201D3CB01C01A524183098B4201D34A
:1003AC008B01C01A524143098B4201D34B01C01A35
:1003BC00524103098B4201D30B01C01A5241C308AD
:1003CC008B4201D3CB00C01A524183088B4201D31C
:1003DC008B00C01A5241D9D243088B4201D34B0037
:1003EC00C01A5241411A00D20146634652415B1079
:1003FC00104601D34042002B00D54942704763465A
:10040C005B1000D3404201B5002000F005F802BD9E
:10041C000029F8D016E770477047C0468446100094
:10042C0062468C461900634600E0C0461FB501F0D9
:10043C0035FF002801D40021C8421FBD10B501F0C2
:10044C0085FE4042013010BD10B501F027FF002899
:10045C0001DB002010BD012010BDC04610B501F01D
:10046C001DFF002801DD002010BD012010BDC0467D
:10047C0010B501F0ADFE002801DC002010BD0120FC
:10048C0010BDC04610B501F0A3FE002801DA002013
:10049C0010BD012010BDC046844608006146FFE730
:1004AC001FB500F059FC002801D40021C8421FBD23
:1004BC0010B500F0E5FB4042013010BD10B500F066
:1004CC004BFC002801DB002010BD012010BDC046F4
:1004DC0010B500F041FC002801DD002010BD01200A
:1004EC0010BDC04610B500F0F1FB002801DC002067
:1004FC0010BD012010BDC04610B500F0E7FB002870
:10050C0001DA002010BD012010BDC046002B11D116
:10051C00002A0FD1002900D1002802D00021C943A4
:10052C00080007B4024802A14018029003BDC0465F
:10053C00E9FEFFFF03B4684601B5029800F01EF80F
:10054C00019B9E4602B00CBC7047C0469E2110B564
:10055C00C905041CFFF7D0FF002803D1201C00F0B4
:10056C0013FF10BD9E21201CC90500F05FFD00F09B
:10057C000BFF80231B069C466044F2E7F0B5574600
:10058C004E464546DE46E0B504000D0092469946BF
:10059C0083B08B4230D82DD04946504602F0A8FD8E
:1005AC0029000600200002F0A3FD331A9846203BD8
:1005BC009B4633D45A465346934042461F005346FB
:1005CC0093401E00AF423AD8AF4200D178E05B4670
:1005DC00A41BBD41002B00DA75E000220023009221
:1005EC00019301235A4693400193012342469340C1
:1005FC00009328E08242CFD900220023009201937D
:10060C000C9B002B01D01C605D600098019903B01D
:10061C00F0BCBB46B246A946A046F0BD42462023DC
:10062C009B1A5246DA40414613004A468A4017004C
:10063C0042461F43534693401E00AF42C4D900228A
:10064C000023009201934346002BD9D0FB0772087C
:10065C001A4346467B080EE0AB4201D1A2420CD8AD
:10066C00A41A9D41012024196D410021013E24183A
:10067C004D41002E06D0AB42EED9013E24196D41FE
:10068C00002EF8D1009801995B4600196941002BA6
:10069C0024DB2B005A464446D3402A00E2401C007F
:1006AC005B461500002B2ADB26009E4033002600FB
:1006BC004746BE403200801A9941009001919FE755
:1006CC00A342BCD883E74246202300219B1A002278
:1006DC00009101920122DA40019286E742462023E2
:1006EC009B1A2A0046469A402300F3404446134383
:1006FC002A00E2401C005B461500002BD4DA42466F
:10070C002F002023260097409B1ADE403B003343EA
:10071C00CDE7C046F0B5C64643025B0A4E02450023
:10072C004F00DA00C40F9C46700A904600B52D0E9F
:10073C003F0EC90FB6098C424BD0EA1B002A36DD9E
:10074C00002F61D0FF2D00D1ADE08023DB041E43D0
:10075C001B2A00DCD3E001204346181A430100D4C5
:10076C008CE080018709380002F0A4FC0538874032
:10077C00854200DCB6E02D1AB3483840430704D05C
:10078C000F230340042B00D00430430100D478E045
:10079C006A1CFE2D65D08001430A9C46D2B263468A
:1007AC00D0051843E407204380BCB846F0BD002AAE
:1007BC0035D07A1B002D00D0AFE04346002B00D182
:1007CC00A7E0531E012A00D12FE1FF2A69D01A009D
:1007DC00AAE0E91B002970DD002F37D0FF2D62D075
:1007EC008023DB041E431B2900DCB0E001204044C5
:1007FC00430143D50135FF2D33D00123934A0340E8
:10080C00400810401843B9E7002E00D183E0511E78
:10081C00012A00D1D8E0FF2A45D00A0098E7FE272C
:10082C006A1C174200D086E0002D00D0B7E043468A
:10083C00002B00D1F3E00022002EB0D0981B430116
:10084C0000D4FAE043460C00F01A97E7002E00D1D2
:10085C00C8E04A1E012900D1AEE0FF2923D01100C7
:10086C00C1E70023FF229C4699E7FE216A1C114236
:10087C0077D0FF2AF5D0150046447008430700D006
:10088C007EE7C308FF2D0ED05B025B0A9C46EAB2E2
:10089C0085E7002E07D08022D203134203D01042EA
:1008AC0001D10C000300002BDBD08020C0031843C7
:1008BC004002430A9C46FF2271E70029D5D07A1BDF
:1008CC00002D60D14346002B24D0531E012A73D037
:1008DC00FF2AE7D01A001B2A00DC85E001203D002E
:1008EC00801985E720233A00451B38000135EA4082
:1008FC005D1BA840431E9841002510433EE7202372
:10090C0030009B1A31009840D140431E9841084357
:10091C0022E70C0003001500B4E7FF2FC1D08023A1
:10092C004046DB04184380461B2A51DD01200C0095
:10093C003D00301A12E743469F1B7B012BD4002F3E
:10094C0000D010E70023002400229C4627E7202338
:10095C0032003000CA40591A8840431E9841104357
:10096C0045E7002D4AD14346002B63D00022002ED0
:10097C0000D114E730004044430100D47EE7324BF1
:10098C00013518407AE7FF2F8CD080234146DB04D9
:10099C00194388469FE743460C00F71AE3E64246A4
:1009AC00002A00D075E7002E00D07AE78023DB0305
:1009BC0000249C46FF22F2E630004044012543010E
:1009CC0000D45BE7022518E743460125981BC5E6D2
:1009DC00202344464046D4409A1A9040431E9841E6
:1009EC002043A4E70D004DE7202341464046D1406B
:1009FC009A1A9040431E9841084370E74246002AD9
:100A0C0000D14FE7002E00D14DE78022D2031342D4
:100A1C0000D148E7104200D045E7030043E7002E21
:100A2C0090D00C0084460022B9E643460C00F01A24
:100A3C00013593E684460022B1E6002800D01DE77C
:100A4C00002300249C46AAE6FFFFFFFBFFFFFF7D6F
:100A5C00F0B54F464646D6464502C0B547000C1C7D
:100A6C006D0A3F0EC60F002F00D170E0FF2F00D192
:100A7C0075E0EB008025ED041D43002399469A4652
:100A8C007F3F6002430A984663001B0EE40F002B65
:100A9C004ED0FF2B46D04246D0008022D2040243D7
:100AAC00904600227F3B3100FF1A4B466140C9B291
:100ABC0013430F2B00D9B5E06E489B00C3589F46DB
:100ACC00002398462600454692465346022B00D1F9
:100ADC0089E0032B00D19EE0012B18D03B007F3323
:100AEC00002B69DD6A0704D00F222A40042A00D0AB
:100AFC0004352A0103D5604B1D403B008033FE2B8F
:100B0C0000DD70E0AD016D0AD8B202E00E000020ED
:100B1C000025C0052843F6073043E0BCBA46B14671
:100B2C00A846F0BD4346002B3FD10222FF3F03E015
:100B3C004346002B2DD1012231004B466140C9B2F6
:100B4C0013430F2B34D84D489B00C3589F46002DA0
:100B5C0013D104239946033B00279A4691E7002DB5
:100B6C0005D108239946063BFF279A4689E70C23B3
:100B7C009946093BFF279A4683E7280002F09AFA28
:100B8C007627431F9D4000237F4299469A463F1A81
:100B9C0077E7404602F08EFA4246431F9A4076238E
:100BAC005B4290461B1A00227DE7FF2303227AE763
:100BBC000E00FF200025ACE70120C01A1B28A6DC84
:100BCC009E372A00BD40C2406B1E9D4115436B07EA
:100BDC0004D00F232B40042B00D004356B0144D5DB
:100BEC000120002595E7FF20002592E780250026AF
:100BFC00FF20ED038DE7002398468020C0030542BB
:100C0C0009D04346034206D1454605436D022600F2
:100C1C00FF206D0A7DE78020C00305436D02FF2095
:100C2C006D0A76E742466B015001834219D21B22B2
:100C3C000025013F01261C006D005B00002C01DB30
:100C4C00984201D81B1A3543013A002AF3D15A1E97
:100C5C0093411D433B007F330E00002B00DD41E729
:100C6C00AAE71A2201251B1AE4E7AD0100206D0A40
:100C7C004FE7C04600A10008FFFFFFF740A10008A6
:100C8C0070B5420045024E024C00C30F6D0A0120A4
:100C9C00120E760A240EC90FFF2A06D0FF2C03D0A1
:100CAC00A24201D1B54206D070BD002DFCD1FF2C63
:100CBC00FAD1002EF8D18B4206D00120002AF3D1B4
:100CCC002800431E9841EFE70020EDE770B5420085
:100CDC0045024E024C00C30F6D0A120E760A240E0A
:100CEC00C80FFF2A1BD0FF2C0ED0002A1BD1002CC2
:100CFC0001D1002E1CD0002D0CD083421CD002211F
:100D0C00581E0840013870BD002E22D1002AF4D1A3
:100D1C00002DF2D10028F6D101204042F3E7002D3E
:100D2C0017D1FF2CF0D0002CE7D1002EE5D1E6E74F
:100D3C000020002DE7D0E2E7A24205DCEADBB54259
:100D4C0002D8E7D30020DEE7434258414000013887
:100D5C00D9E702204042D6E770B5420045024E0268
:100D6C004C00C30F6D0A120E760A240EC80FFF2A10
:100D7C000BD0FF2C0DD0002A1FD1002C16D1002E29
:100D8C0014D10020002D10D009E0002D0CD1FF2C27
:100D9C0013D1002E08D1002A08D0834212D0022190
:100DAC00581E0840013800E0022070BD002DF4D11F
:100DBC000028FAD101204042F7E7002CEDD1002E9B
:100DCC00EBD1ECE7A24205DCF2DBB54202D8EFD363
:100DDC000020EAE74342584140000138E5E7C046AD
:100DEC00F0B54F464646D64644024500C0B5640AA7
:100DFC000F1C2D0EC60F002D00D18DE0FF2D00D144
:100E0C0092E00023802099469A46E400C0040443F3
:100E1C007F3D7802430A98467B001B0EFF0F002B88
:100E2C0000D170E0FF2B00D186E04246D00080223A
:100E3C007F3BED180023D204024390469C463100C0
:100E4C004B467940681C0F2B1CD8764A9B00D35814
:100E5C009F4639004446E2465346022B0FD0032BE3
:100E6C0000D1D7E0012B37D100200024C00520434E
:100E7C00C9070843E0BCBA46B146A846F0BDFF20FE
:100E8C000024F3E7260C2404220C44462404240CEE
:100E9C00434627001B0C574374435A435E431219B5
:100EAC003B0C9B189C4203D9802252029446664408
:100EBC003F041A043F0CD2199401671EBC411B0C51
:100ECC00920E9B1914439B011C431B0100D49BE005
:100EDC00012362081C40144302007F32002A64DDA7
:100EEC00630704D00F232340042B00D004342301C8
:100EFC0003D502004C4B80321C40FE2ABFDCA401FF
:100F0C00640AD0B2B2E74346002B3DD14A460133C6
:100F1C001A4391469C4692E7002C29D1042399460A
:100F2C00033B00259A4674E7002C1BD108239946F5
:100F3C00063BFF259A466CE74346FF35002B0BD149
:100F4C0002234A461A4391469C4678E753463100A1
:100F5C00022B00D083E792E703234A461A439146BB
:100F6C009C466CE70C239946093BFF259A4650E7B3
:100F7C00200002F09FF87625431F9C4000236D4211
:100F8C0099469A462D1A44E7404602F093F8424699
:100F9C00431F9A4000232D1A90469C46763D4EE7FF
:100FAC0080240021FF20E40360E701239B1A1B2B04
:100FBC0000DD59E722009E30DA4084401300621EA7
:100FCC0094411C43630704D00F232340042B00D00F
:100FDC00043463011AD50120002447E78020C003A4
:100FEC00044209D04346034206D1444604436402FA
:100FFC003900FF20640A39E78020C00304436402EF
:10100C003100FF20640A31E7280065E7A4010020C5
:10101C00640A2BE78020C00304436402FF20640AA7
:10102C0024E7C04680A10008FFFFFFF7F8B5CE46C5
:10103C00474643025B0A4E02DA009446720A914616
:10104C0045004A0080B52D0E1F00C40F120EC90FAB
:10105C00B609FF2A5BD0012041408C4239D0A81A36
:10106C0000285ADD002A6AD0FF2D00D1D9E0802259
:10107C00D20416431B2800DCE9E001206346181A51
:10108C00430100D4B4E080018709380002F012F863
:10109C0005388740854200DCCCE02D1AB548384035
:1010AC00430704D00F230340042B00D0043043012A
:1010BC0000D4A0E06A1CFE2D00D18DE08001470A0F
:1010CC00D2B2D0053843E4072043C0BCB946B04681
:1010DC00F8BDA81A8046002845DD002A70D0FF2DE7
:1010EC0000D19EE08023DB041E4343461B2B00DC17
:1010FC00D2E00120604443017AD50135FF2D6BD03D
:10110C0001239D4A0340400810401843C8E7002EB5
:10111C0020D08C4223D02800FF38002839D0571B10
:10112C00002D00D09DE06346002B00D1DBE07B1E40
:10113C00012F00D10DE1FF2F71D01F0098E0002E80
:10114C0000D1A7E0421E012800D1E6E0FF2868D0BC
:10115C0010008FE701204140A14200D07FE7FF2023
:10116C0040428046A8444046002838D0511B002DF0
:10117C0000D1AEE0FF2A00D1DFE080236046DB0423
:10118C00184384461B2900DCD9E001201500801986
:10119C00B1E7FE206A1C104271D1002D00D0A6E0F0
:1011AC006346002B00D1D9E00022002E00D188E745
:1011BC00981B430100D4E1E063460C00F01A6FE782
:1011CC00002E00D1B7E00200013A012800D19CE0CA
:1011DC00FF2826D0904688E7FF22002771E7FE20E3
:1011EC006A1C104264D0FF2AF6D0150066447008C1
:1011FC00430700D056E7C308FF2D12D05B025F0AED
:10120C00EAB25EE76246002A00D196E0002E08D0D2
:10121C008022D203134204D04846104201D10C0064
:10122C004B46002BD8D08027FF031F437F02FF22A1
:10123C007F0A46E720233A00451B38000135EA4077
:10124C005D1BA840431E98410025104328E720232E
:10125C001B1A32009E40C2403000431E984110437E
:10126C000CE7FF2ADBD080236046DB04184384465E
:10127C001B2F56DD01200C001500301A00E76346C9
:10128C009F1B7B013DD4002F00D0FEE600240022E2
:10129C00002716E70500AFE7320043464146DA4027
:1012AC0020235B1A9E403000431E9841104321E7D7
:1012BC00002DA7D16346002B59D00022002E00D15F
:1012CC00FFE630006044430192D52A4B01351840AB
:1012DC008EE76346002B47D04B1E012915D0FF2902
:1012EC002BD019004EE70C004B463D0084E76246BC
:1012FC00002A8BD1002E92D180270024FF22FF03DD
:10130C00DFE663460C00F71ABFE6300060440125A7
:10131C00430100D46CE70225F2E663460125981BD5
:10132C00AEE6202364466046FC40DF1BB840431EFB
:10133C00984120439FE705005EE74B4671E7202369
:10134C0065466046CD40591A8840431E9841284353
:10135C001CE763460C000125F01A91E6002E95D08F
:10136C000C004F460022ACE64B460D0044E74F46BE
:10137C000022A6E6FFFFFFFBFFFFFF7D002800D049
:10138C0036E7002400279CE641024200C30F490ABD
:10139C000020120E7E2A03DD9D2A02DD094A9818D0
:1013AC007047802000040143952A07DC9620821A9E
:1013BC00D1404842002BF3D10800F1E7963A914016
:1013CC00F7E7C046FFFFFF7FF8B5002813D0C3171F
:1013DC00C6185E40C40F300001F06CFE9E23050061
:1013EC001B1A962B0FDC082801DD083DAE40760257
:1013FC00760AD8B202E0002400200026C005304353
:10140C00E4072043F8BD992B0CDD05223100121A9C
:10141C00D1400A00010030001B318840411E884138
:10142C0002431600052D12DC31000D4F39407207B6
:10143C0009D00F203040042805D004314A0102D5D0
:10144C009F2339405B1B89014E0AD8B2D6E76A1F2D
:10145C0096403100024F39407207F4D0E9E7C0469C
:10146C00FFFFFFFB70B5051E0ED001F023FE9E237F
:10147C0004001B1A962B0CDC082801DD083CA54047
:10148C006D026D0AD8B201E000200025C00528438A
:10149C0070BD992B09DD020029001B3291404A1EB8
:1014AC0091410522121AD5400D43052C12DC29005E
:1014BC000C4E31406A0709D00F202840042805D073
:1014CC0004314A0102D59F2331401B1B89014D0A6F
:1014DC00D8B2DBE7621F95402900024E31406A0703
:1014EC00F4D0E9E7FFFFFFFBF0B54F464646D64682
:1014FC000D000400C0B51F0011002803620F400A44
:10150C0010437A00520DE3003C039146640AFA0F33
:10151C004F0F6E0027439246B846760DED0FC9006B
:10152C00954200D199E04C46341BA446002C00DCBB
:10153C007CE04A46002A00D1B8E0C54A964200D168
:10154C001CE180223C0012041443A0466246382A57
:10155C0000DD61E11F2A00DDCCE164462022121B74
:10156C00444694400F00A14664469140E7404C46E7
:10157C004A1E91413C43424621436446E240801A54
:10158C005C1AA3429B415F42C71B3B0200D4D0E0D4
:10159C007F027F0A002F00D1FFE0380001F08AFDA6
:1015AC0001000839202322005B1A8F40DA408C405E
:1015BC001743B14200DAFFE0891B4B1C1F2B00DDE7
:1015CC00A8E020223900D21A200094409140D84043
:1015DC00621E9441DF40002601430C43630709D08F
:1015EC000F232340042B05D0231DA342A4416442A6
:1015FC003F191C003B0200D49EE0954B01369E42E5
:10160C0000D1B7E0934AE40817407B0771057F02CD
:10161C0023433F0B4A0D12053A43ED072A431800AA
:10162C001100E0BCBA46B146A846F0BD002C4BD028
:10163C004C46A41BA446002E00D023E104001C43FE
:10164C0000D1AFE16246541E012A00D115E2804D53
:10165C00AC4500D1C8E1A4461BE14A46B21A9446F7
:10166C00002A00DCACE04A46002A43D0784A964275
:10167C0000D1AFE180223C0012041443A046624624
:10168C00382A67DC1F2A00DC5FE14746203AD74046
:10169C006246202A05D064464022121B44469440E0
:1016AC0021434A1E91410C003C4357E03A000A4347
:1016BC0000D105E12200013A012C00D182E1644CF9
:1016CC00A4455BD0944641E7634C771C274200D07D
:1016DC00C4E004001C43002E00D069E1002C00D1B2
:1016EC00BFE144460C4300D0D0E14207DB08134372
:1016FC00C00829E03A000A4300D170E16246644612
:10170C00013A012C00D1E0E0514CA44500D161E13B
:10171C009446B4E73A001F39CA401100202B03D07D
:10172C004022D31A9F403C43631E9C410027002655
:10173C000C43630700D053E7B446E4087B0723430C
:10174C00F808434A94451DD06246070352053F0BE7
:10175C00520D60E744460C43621E9441E4189C42CF
:10176C009B415F423F183B02E3D5394B01369E4209
:10177C0000D0B5E03200002700234CE74207DB081D
:10178C001343C0081A00024300D1E1E180273F0354
:10179C0007433F032E4A3F0B3DE7200001F08AFC34
:1017AC00010018311F2900DCFCE6083884402700B2
:1017BC000024B14200DBFFE6264A761A17400DE7FB
:1017CC00002A2FD04A46921B9446002E00D1ADE041
:1017DC001F4A914500D10FE180221204104362464A
:1017EC00382A00DD0FE11F2A00DD80E1644620224B
:1017FC001E00121B6746040093409440FE405A1E84
:10180C009341F84034431C43804464188C42BF41DC
:10181C007F424E464744A6E742460A4311004A1E01
:10182C009141ADE60C4C721C224200D0A1E00200AA
:10183C001A43002E00D0FAE0002A00D145E13A000C
:10184C000A4300D046E14207DB081343C0087BE79C
:10185C00FF070000FFFF7FFFFE07000047465C1AF2
:10186C00C21BA342BF417F42B94617004A46BF1A6A
:10187C003A0200D58DE023003B4300D08AE60020DD
:10188C00002561E7B44CA14500D1ADE080242404CF
:10189C0020436446382C3DDC62461F2C00DDB7E04B
:1018AC0020251E002D1B0400AB40AC40D640D04080
:1018BC0042465D1EAB413443121A904623432CE042
:1018CC004207DB081343C0083BE75C189C429B4172
:1018DC0040445B42C71801263B0200D429E702268C
:1018EC009E4A63081740012214401C43FB071C430B
:1018FC007F0873E64446203AD4406246202A05D03D
:10190C0067464022D21B4746974039434A1E9141B5
:10191C00214335E60343581E8341CC1AA142BF41F3
:10192C0043467F4255464E46DF1B2EE602001A43C5
:10193C0000D1BDE062466446013A012C00D1E5E0DD
:10194C00854CA44558D0944649E764462022121B86
:10195C00444694400F00A14664469140E7404C46F3
:10196C004A1E91413C4342460C436146CA40801892
:10197C00F4E6794CA24200D1FDE6591899429B41FC
:10198C0040445F42C719FC07490816000C437F0806
:10199C00CFE6CC1AA142BF4143467F42181A5546A6
:1019AC00C71BF7E5C9087B0755460B43F808C8E683
:1019BC00002C00D081E043460B4315D1802000253C
:1019CC000003E3E65C1AA3429B41C71B5B42012662
:1019DC00FF1ADAE54207DB081343C008D2E64207D8
:1019EC00DB081343C008ACE643464246C9085B0714
:1019FC0055460B43D008C5E6434642465B07C9082B
:101A0C000B43D008BEE603431C00631E9C41FCE65E
:101A1C000200203CE24014006246202A03D04025FC
:101A2C00AD1AA8400343581E8341234375E7002A8F
:101A3C00E2D03A000A43CDD04207DB0813438022A0
:101A4C00C0081203104206D0FC08144203D1200037
:101A5C00CB087A0713435A0FDB005207DB081343FA
:101A6C0090E643460B4300D109E743464246C9087A
:101A7C005B0755460B43D00866E6CC1AA142894158
:101A8C003F1A4942554601267F1A7EE542465C1AAA
:101A9C00871AA34292415242BF1A3A023DD5CC1A40
:101AAC00A1428941434649421F1A55467F1A95E582
:101ABC007B07C9080B43F80843E64446DB080C4394
:101ACC0030D142071343C0085CE67B07C9080B43BF
:101ADC00F80839E65C189C429B4140445B42C718AD
:101AEC003B0200D425E61D4B01261F4021E60400D5
:101AFC00203AD4406246202A04D040226646921BEB
:101B0C00904003435A1E93411C437EE65C188C4262
:101B1C008941404449424718DDE623003B4300D14C
:101B2C00ADE606E6440723438024C0082403204284
:101B3C0008D04246D608264204D155463000CB0880
:101B4C0051070B435A0FDB00DB085207134319E60E
:101B5C000023014A1F005EE5FF070000FFFF7FFF27
:101B6C00F0B557464E464546DE46E0B58146050083
:101B7C000C03480092461F0085B0240B400DCE0F7D
:101B8C00002800D156E1D44B984200D172E16B0F82
:101B9C00E4001C4380231B0423439846CF4BED00E9
:101BAC009B4600239946834400933C037B0050469C
:101BBC00240B5B0DFF0F002B00D11FE1C64A934293
:101BCC0000D162E1C549420F8C46E40059461443EA
:101BDC00802263441204CB1A14439B46C20000209B
:101BEC0033007B409A464B460F2B27D8BC499B00B1
:101BFC00CB589F46B246009B022B16D0032B00D12C
:101C0C008EE2012B00D0D9E000230024002552469F
:101C1C001B052343D20713432800190005B0F0BC61
:101C2C00BB46B246A946A046F0BD00240025AA4BEF
:101C3C00EDE7BA46A04615000090DCE7444500D21B
:101C4C00C7E100D1C2E101235B429C462E00404615
:101C5C000025E3442302140E1C431B0C9946230459
:101C6C001F0C1202494600920197FEF7E7FA020098
:101C7C007A430B04310C804619438A4207D901235D
:101C8C005B429C460919E0448C4200D807E2881A52
:101C9C004946FEF7D3FA09048C4631046646019A8C
:101CAC00090C4243030031438A4204D90919013B10
:101CBC008C4200D8EDE1881A424612041A43904631
:101CCC004146009B0E041B0C1F000293009B360C1C
:101CDC001B04190C0B007343120C7E4303915143EC
:101CEC007A431F0CBC4676186644B14203D9802156
:101CFC0049028C466244310C8A1831041E04360C9D
:101D0C008E19904202D312D1B54210D24346591EBD
:101D1C00009B9C4665441F009D429B415B421B19E6
:101D2C00C018844200D2A0E100D19BE18846AE1BD2
:101D3C00B542AD41801A6D42401B844200D1D5E1C1
:101D4C004946FEF77BFA019A0B044243310C05001D
:101D5C0019438A4200D96CE1881A4946FEF76EFA9B
:101D6C00019A360442430904360C03000E43B24276
:101D7C0000D953E10398B61A02002D041D43029FAB
:101D8C002B041B0C5A437B439C46290C4843130CD5
:101D9C00844463447943984203D9802040028446AA
:101DAC006144180C12041B04120C41189B188E422F
:101DBC0000D2FFE000D1FAE001231D43494A5A4406
:101DCC00002A00DCAAE06B0700D03DE1ED08434699
:101DDC00DB0106D54246444B1A4090468022D20085
:101DEC005A44424B9A4200DD1FE743465B071D43B2
:101DFC00434652055C02240B530D08E7524622431E
:101E0C0000D17BE0002C00D1FAE0200001F052F967
:101E1C0002000B3A1D2301009B1A52460839DA4086
:101E2C008C40144352468A40314B58449B46834461
:101E3C000020D5E64B462343984644D0002C00D1D5
:101E4C00CEE0200001F036F9010002000B391D2311
:101E5C005B1A49461000D940083884400B004D46A7
:101E6C002343984685402348831A9B460023994672
:101E7C0000939AE64B46234398461DD10823994676
:101E8C00063B0025834600938FE65246224309D138
:101E9C00022349461943184B89469C4600240220CC
:101EAC00E3449DE603234A461A43134B91469C4652
:101EBC0052460320E34493E60C239946093BA04683
:101ECC008346009371E60423994600239B46013315
:101EDC000025009369E6C046FF07000001FCFFFFE8
:101EEC00C0A10008FF030000FFFFFFFEFE0700007B
:101EFC00F30300000DFCFFFF01F8FFFF494601232F
:101F0C0019438946002401206AE6002380249A465E
:101F1C0000258A4B24037AE601256D4201239B1A86
:101F2C00382B00DD70E61F2B00DCBFE01F2149427F
:101F3C008A1A4146D1400A00202B04D04146804BDE
:101F4C005B4499400D436B1E9D4107232A431D00A2
:101F5C0000241540134200D1D4E00F21002311407E
:101F6C00042900D1CBE0111D9142924152429B18A1
:101F7C000A00190200D4C2E001230024002546E621
:101F8C00802341461B03194208D01C4206D11C4336
:101F9C002403BA461500694B240B38E680244346CB
:101FAC0024031C432403B246644B240B2FE6002B62
:101FBC0000D103E7A619681EA64200D28DE08E421E
:101FCC0000D2A3E000D1B3E00500F5E6AA4200D9A7
:101FDC0039E64346DE0758086B081E43ED0739E621
:101FEC00484601F067F801000200153120321C2927
:101FFC0000DC2CE74B46083883400025984632E736
:10200C0001F058F803001A00153220301C2A00DCAD
:10201C0000E75446083B00229C4005E73619013B7B
:10202C00B44200D9A6E6B24200D8A3E6831E361904
:10203C00A0E60919013D8C4200D98DE68A4200D8F0
:10204C008AE6851E091987E60F232B40042B00D145
:10205C00BCE605235B42AB429B4104355B42ED0879
:10206C009844B4E6AF4200D960E6824204D800D06E
:10207C005CE6AE4200D859E602235B429C46009BCC
:10208C00E0449C4665449D429B415B421B19C01831
:10209C004DE68A4200D80EE6831E09190BE68A42E9
:1020AC0000D8F4E5831E98460919F0E52549280067
:1020BC0059448D4042468A40691E8D414146D84064
:1020CC00D94002432A430B00510700D151E70F219D
:1020DC001140042900D046E74BE705008E4200D0A2
:1020EC006AE6009A934200D066E667E6164A5A44BE
:1020FC00002A00DC10E701230025984467E65D0701
:10210C005B021C0BD2080023154380E50098023DAE
:10211C0042008242BF417F423C1936190092DDE7F2
:10212C008024434624031C432403044B240B6EE5F8
:10213C00009A9A42EAD30500D3E7C046FF07000095
:10214C003E0400001E040000FF030000F0B54E46E4
:10215C004546DE4657469046E0B517001A03120B6B
:10216C000500844619480E034C0091465A00DB0FBB
:10217C009B46360B640DC90F520D844219D0824216
:10218C0010D0012094420ED14E450CD10120C445F3
:10219C0009D1594517D0002C05D130002843431ED6
:1021AC00984100E00120F0BCBB46B246A946A046CF
:1021BC00F0BD330001202B43F5D1A242F3D14B46A5
:1021CC003B43F0D1E2E70020EDE7C046FF070000FB
:1021DC00F0B54746CE460400180016001B031B0B37
:1021EC002D4D4A00994680B543000F03A446B046D6
:1021FC003F0B520DC90F5B0DC00FAA4221D0AB4251
:10220C0013D0002A22D13C43002B02D14D462E4341
:10221C0022D0002C10D0814222D00220013908405B
:10222C000138C0BCB946B046F0BD4D462E4329D14D
:10223C00002AF0D13C43EED10028F2D101204042DB
:10224C00EFE73D0025431DD19342EED0002BE2D1A8
:10225C004C462643DFD1E0E70020002CE1D0DCE740
:10226C009A420ADCE8DB4F45D7D80ED000204F4508
:10227C00D7D20029E2D00800D3E7434258414000AE
:10228C000138CEE702204042CBE7C445C5D8002038
:10229C00C445C6D2EDE7C046FF070000F0B547467F
:1022AC00CE460400180016001B031B0B2C4D4A00D5
:1022BC00994680B543000F03A446B0463F0B520D20
:1022CC00C90F5B0DC00FAA420DD0AB4210D0002A33
:1022DC0027D13C43002B11D14D462E430ED100206B
:1022EC00002C15D00EE03D00254310D1934218D19F
:1022FC004D462E430BD1002A02D13C43002C0BD06F
:10230C00814214D0022001390840013800E002203B
:10231C00C0BCB946B046F0BD0028F9D101204042FE
:10232C00F6E7002BECD14C462643E9D1EAE79A427A
:10233C0004DD4342584140000138E9E79A42EBDBA7
:10234C004F45DFD806D000204F45E1D20029E5D01B
:10235C000800DDE7C445D5D80020C445D8D2F5E740
:10236C00FF070000F0B557464E464546DE46E0B541
:10237C0098460C034B000600924687B0240B5B0D6D
:10238C00CF0F002B00D15CE1D94A934200D175E10B
:10239C00420FE4001443802212041443D54AC500B2
:1023AC00944663440093002399469B464346424619
:1023BC001E03D20F5B0050469046360B5B0D00D1CE
:1023CC0020E1CB4A934200D162E1CA49420F8C46CC
:1023DC0000996344F6008C46164380229C441204F8
:1023EC0063461643C2000020009300994346013116
:1023FC008C4649467B4001930F2926D8BE4B890059
:10240C0059588F46434601933400150083465B466A
:10241C00022B16D0032B00D103E2012B00D0CDE010
:10242C00002200240025019B12052243DB071A43DE
:10243C002800110007B0F0BCBB46B246A946A04626
:10244C00F0BD00240025AA4AEDE7280C2D042D0C24
:10245C002B00110C1204120C5343984613002F003E
:10246C00434399464F434F44BB4647460B003F0CF2
:10247C00BA464343DA440293D14504D980277F02FC
:10248C00B9464B44029353461B0C9B4653461F04C0
:10249C0043461B041B0C98463B0043440493330CEB
:1024AC003604360C9846330043439946434643431F
:1024BC002F009A46434677435D43380C4D444519EB
:1024CC00A94503D980235B029946CA443F04280CD2
:1024DC003F0C2D04ED19270C2404240C03002000C0
:1024EC0050437A4391463A0053440593030C9A4661
:1024FC004A43614349445144AB44894503D9802341
:10250C005B0299464A4400040B0C000C09040918A0
:10251C0020009946434670435C437E435F43030C63
:10252C009846A41944444A440397A64204D98023EC
:10253C005B029846474403972304029E9A46059BE8
:10254C005E449846AE42AD4176188E4289410004F5
:10255C00000C504440446D424719B84693464942DA
:10256C008946C344D94498428041A845AD4193451E
:10257C009241894589416D4240422843240C524284
:10258C0049420A43039B00198018C7184B46DC0DBF
:10259C00049B75021D436A1E95414B46F60D7F0246
:1025AC0035435A023C431543FB0100D41CE1012185
:1025BC006A080D401543E207154364084F4961440E
:1025CC00002900DCB0E06B0709D00F222A40042A56
:1025DC0005D02A1DAA42AD416D4264191500E301D4
:1025EC0004D58021464AC90014406144454A9142B1
:1025FC0000DD26E76207ED08640249051543240B4C
:10260C004A0D10E75246324300D17FE0002E00D134
:10261C00DCE0300000F04EFD02000B3A1D230100FF
:10262C009B1A52460839DA408E40164352468A406D
:10263C00009B3549181A03008C4663440020009314
:10264C00D3E6250005434AD0002C00D1B0E0200091
:10265C0000F030FD010002000B391D2310005B1A45
:10266C003100350008388440D94085400C43264859
:10267C00831A0093002399469B4697E60500254351
:10268C0026D1082200930223002491469B468DE616
:10269C005246009B324310D1154900268C466344A8
:1026AC004946009302231943894602209DE65B4666
:1026BC000197022B00D0ADE6C3E60D4A03209446E9
:1026CC0063444A46009303231A43914652468CE6D0
:1026DC000C2200930323050091469B4666E60423D7
:1026EC00994600230093013300249B465EE6C046C6
:1026FC00FF07000001FCFFFF00A20008FF03000021
:10270C00FFFFFFFEFE0700000DFCFFFF4946012303
:10271C00194389460026012067E600238024002502
:10272C00434A019324037EE60120401A382800DD39
:10273C0076E61F285BDD1F2223005242511ACB4044
:10274C001900202803D03B4A6244944025436A1E5A
:10275C0095412A000A4307210D000024154011421F
:10276C005BD00F2100241140042953D0111D91423C
:10277C0092415242A4180A0023024BD50122002494
:10278C00002550E680231B031C4209D01E4207D1B2
:10279C0033431C0343461500240B254A019342E6A0
:1027AC008022120314432403214A240B01973AE696
:1027BC0000F080FC01000200153120321C2900DCE5
:1027CC004BE7340008380025844050E700F072FCD9
:1027DC0003001A00153220301C2A00DC1EE7564676
:1027EC00083B00229E4023E7009B9C46E6E61249EC
:1027FC00220061442E008D408A40C640691E8D41E6
:10280C0032432A43C4405307B6D00F211140042948
:10281C00ACD1B1E765076402240BD2081543002242
:10282C0001E68022120314432403014A240BFAE527
:10283C00FF0700003E0400001E040000F8B55746D8
:10284C004E464546DE46E0B51E0017004A000B0317
:10285C00520D5B0A9046420F1A43CD0FCD4C3103FB
:10286C00C300944670007A0F490AFF009A46B94695
:10287C00400DF60F1143A04200D1B1E001225640A9
:10288C00B346B54200D188E04246121A002A00DC59
:10289C00AEE0002800D1C1E0BE48804500D151E136
:1028AC00802000040143382A00DD7BE11F2A00DD73
:1028BC00EEE120203E00801A0C00D640D14087402B
:1028CC0062468440521A781E87419446344327430B
:1028DC00DC1BA3429B4162465B42D31A99464B4692
:1028EC001B0200D418E14B465802430A99464B464A
:1028FC00002B00D137E1484600F0DCFB0100083921
:10290C002023220048465B1ADA4088408C4043461C
:10291C001043884500DD36E1C91A4B1C1F2B00DD26
:10292C00EAE020222600D21A01009440DE40D84072
:10293C0000239140621E94418146984631430C43DA
:10294C00630709D00F232340042B05D0231DA3427A
:10295C00A4416442A1441C004B461B0200D4DEE09F
:10296C0041468C4B0131994200D1E7E04B468A48F5
:10297C00E4080340180049055B07400223434A0D55
:10298C00040B1205ED0722432A4318001100F0BC7A
:10299C00BB46B246A946A046F8BD4246121A002ACA
:1029AC0052DD002800D19CE0A04500D1CAE0802077
:1029BC0000040143382A00DD49E11F2A00DC97E1BD
:1029CC0010000E002038C640202A04D04020821A65
:1029DC0091400F43B9464C46621E944134433AE150
:1029EC000A003A4328D0B346B5422BD06B4A424436
:1029FC00002A5DD042464446821A002C00D0F5E0F5
:102A0C0065461D4300D19CE1551E012A00D1FBE116
:102A1C00604CA24200D1BDE12A00F0E0080038432E
:102A2C0000D1C3E0501E012A00D1A8E1594CA242AA
:102A3C0000D187E0020036E701225640B346B5428A
:102A4C0000D021E7554A4244002A00D1B5E0424665
:102A5C004446821A002C00D138E14E4EB04200D1CF
:102A6C00DEE18026644636043443A446382A00DD71
:102A7C0096E11F2A00DD24E22026B41AA246644601
:102A8C005646B440A1461C004E46D4402643340062
:102A9C005646B3405E1EB3411C436346D340C9182F
:102AAC00E419BC42BF417F42B94680468944D8E014
:102ABC0040463B4C0130204200D0B4E04046002858
:102ACC0000D044E16046184300D190E1080038433F
:102ADC0000D0AAE16146DB0849070B436146CC08EC
:102AEC0027E00800384361D0501E012A00D139E19B
:102AFC00A24227D002005DE702001F39CA40110034
:102B0C00202B03D04022D31A98400443631E9C41CF
:102B1C000023994698460C43630700D012E74B46B6
:102B2C004A46E4085B072343D408424619498A42C3
:102B3C000ED024035205240B520D22E70A00002468
:102B4C0000231EE7DB086246520713436246D40893
:102B5C001A00224300D1FCE1802212031443240307
:102B6C000C4A240B0DE7200000F0A4FA01001831E8
:102B7C001F2900DCC4E608388440434620000024AA
:102B8C00884500DCC8E6044A5B1A1040984681462A
:102B9C00D6E6C046FF070000FFFF7FFF01F8FFFFEE
:102BAC00FE0700000F437A1E974191E66146DB0851
:102BBC0049070B436146CC08B8E74046D34C01307B
:102BCC00204200D0A2E04046002800D001E160463F
:102BDC00184300D15EE10800384300D05FE1614644
:102BEC00DB0849070B436146CC08A2E7C84DA84255
:102BFC0000D1CFE0802564462D042C43A446382A0E
:102C0C0056DC1F2A00DDD1E020251E00AD1A6446DB
:102C1C00AB40AC40D6405D1EAB41344323436446CD
:102C2C00D440091B49E06046DC1B461AA342804194
:102C3C004042814630004E46801B8146000276D4CD
:102C4C004B46234300D052E60024002571E739435C
:102C5C000C00621E9441E4189C429B415B4263440D
:102C6C0099464B461B0200D456E701239C46A84BC1
:102C7C00E044984538D04B46A64801220340180042
:102C8C00630814401C43C3071C434308994657E68A
:102C9C0010000E002038C640202A04D04020821A92
:102CAC0091400F43B9464F467A1E974137430FE682
:102CBC0062461A4313005A1E9341FC1AA742BF41A5
:102CCC007F42CB1B99465D46804608E666461E430E
:102CDC0000D1BEE0561E012A00D109E18C4CA24263
:102CEC0000D119E13200C1E642460024002348E637
:102CFC0020200C00801A3E0087408440D640781E6D
:102D0C008741D14034433C438C44A4E7804A9042F1
:102D1C0000D1E9E0DF199F429B4161445B42C91835
:102D2C00CC077F084B08994680463C43F4E6FC1AD6
:102D3C00A742BF4163467F42C91ACB1B99465D46E9
:102D4C00D5E5FF084B075D463B43CC08EEE66246F3
:102D5C001A4300D082E00B003B431BD1802400259A
:102D6C002403F9E6DC199C429B41614489465B4291
:102D7C0099444B461B0244D401239846CCE6DC1BF9
:102D8C006246A3429B41511A5B42CB1A99460123DE
:102D9C009846A4E5FF084B075D463B43CC08D7E6B5
:102DAC0062461A431400631E9C4179E61500644682
:102DBC00203DEC40A046202A05D040256446AA1AA6
:102DCC00944023439A465446631E9C4143462343F6
:102DDC0073E762461A4323D00A003A4300D0A0E0BE
:102DEC006246DB08520713436246D408B0E60B0078
:102DFC003B4300D128E7FF084B075D463B43CC081B
:102E0C0097E60223984636E7FC1AA742BF41634671
:102E1C007F42C91ACB1B994601235D4698465EE555
:102E2C004B07FF083B43CC0892E6DC1B6046A342F1
:102E3C00B641401A7642801B8146000260D5FC1ACE
:102E4C00A742BF4163467F42C91ACB1B99465D46D8
:102E5C0076E5FF084B073B43CC0867E60A00DB0826
:102E6C003A4300D16FE66246520713436246D408D8
:102E7C0080221203144207D0C808104204D15D46C8
:102E8C000400FB0849070B435A0FDB00DB08520711
:102E9C0013435DE64B07FF083B43CC0849E6DC19BE
:102EAC009C429B41614489465B4299444B461B02C0
:102EBC0000D431E64A46174B1A40012391469846F6
:102ECC002AE616006446203EF440A046202A05D08F
:102EDC0040266446B21A944023439A465446631ED5
:102EEC009C4143461C43DBE502000024002348E5DB
:102EFC00DC19BC42BF41614489467F42B94438E782
:102F0C004B46234300D19FE606E6C046FE07000071
:102F1C00FF070000FFFF7FFFFF084B073B43CC0878
:102F2C0016E66246DB08520713436246D408802239
:102F3C001203144207D0C808104204D15D460400A5
:102F4C00FB0849070B435A0FDB005207DB081343FE
:102F5C00FEE50023014A1C0013E5C046FF070000F4
:102F6C0070B505000C481C0316005B000A034900F1
:102F7C00120B490D240B5B0D814208D0064A002030
:102F8C00934203D120003043431E984170BD012071
:102F9C002A43FBD1F2E7C046FF0700000A0030B518
:102FAC00134C530009030500090B00205B0DD20FD5
:102FBC00A34204DD0F48834202DD0F4BD01830BD15
:102FCC008020400301430D48C01A1F2808DD0C481F
:102FDC00C31AD9400B005842002AF0D11800EEE772
:102FEC00084CC540A446634499400B002B43F2E7C0
:102FFC00FE0300001D040000FFFFFF7F33040000F0
:10300C0013040000EDFBFFFF70B5002816D0C317AA
:10301C00C5185D40C40F280000F04CF8114A121A74
:10302C000A2816DC03002E0015339E400B23181AB9
:10303C00C54052052D032D0B530D03E00024002336
:10304C00002500261B052B43E40723433000190001
:10305C0070BD0B38854052052D0300262D0B530DEA
:10306C00F0E7C0461E04000010B5041E10D000F09E
:10307C0021F80F4B1B1A0A2811DC0B222100121A03
:10308C00D14015300A035B058440120B5B0D01E047
:10309C00002300221B0513432000190010BD220041
:1030AC000B3882405B0512030024120B5B0DF1E719
:1030BC001E0400001C2101231B04984201D3000CA8
:1030CC0010391B0A984201D3000A08391B0998428F
:1030DC0001D30009043902A2105C40187047C046A5
:1030EC0004030202010101010000000000000000C5
:1030FC0010B5002903D1FFF7DDFF203002E00800F6
:10310C00FFF7D8FF10BDC046B0B58CB000AF0200C1
:10311C00BB1D1A8026257B19BA1D12881A80514BAB
:10312C003B62504BFB614F4BBB617B191B881800FA
:10313C00FEF74AF9031CF969181CFDF751FE031C34
:10314C001C1C7B191B88484AD31A1800FEF78AF9F5
:10315C00031C191C201CFDF77BFC031C7B61396ACA
:10316C007869FDF73DFE031CB969181CFDF770FC6E
:10317C00031C7B613D4B191C7869FDF7A9F9031EF3
:10318C0006D07D231800FEF71FF9031CFB6263E0D9
:10319C00374B191C7869FDF7A5F9031E07D02823B6
:1031AC005B421800FEF710F9031CFB6254E000238D
:1031BC00BB6202E0BB6A0133BB62BB6AA42B09DCB5
:1031CC002C4BBA6A9200D358191C7869FDF780F918
:1031DC00031EEFD1BB6A5A1E264B9200D358191C02
:1031EC007869FDF723FF031C3B61234BBA6A9200FD
:1031FC00D258BB6A591E204B8900CB58D31A1800E1
:10320C00FEF7E2F8031CFB601A4BBA6A9200D05826
:10321C00BB6A5A1E174B9200D358191CFDF706FFB8
:10322C00031CBB60F9683869FDF7DAFD031CB9684B
:10323C00181CFDF70DFC031C1C1CBB6A5A1E0E4B04
:10324C009200D3581800FEF7BFF8031C191C201C61
:10325C00FDF760FA031CFB62FB6A181CBD460CB040
:10326C00B0BDC04600002041FF0F00002BF6073F09
:10327C00E9A64343D8A4000840A2000880B586B054
:10328C0000AFF860B9607A6000237B610BE0B9682D
:10329C004B1CBB60FA239B000748012203F0FCFA8D
:1032AC007B6901337B617A697B689A42EFDB7B68CF
:1032BC001800BD4606B080BDA802002080B500AF46
:1032CC0000F02EFD00F00BF800F078F900F060F83B
:1032DC0000F026F900F0C8F800F098F9FEE790B578
:1032EC0093B000AF10243B19180038231A000021AA
:1032FC0004F0FDF83B00180010231A00002104F024
:10330C00F6F880239B00180001F0FCFD3B1901220C
:10331C001A603B19802252025A6021007B1802224B
:10332C00DA617B1803221A627B1800225A627B181E
:10333C0010229A627B1880229202DA627B18802219
:10334C0092041A637B18802292055A637B1818002A
:10335C0001F024FE031E01D000F052F93B000722BD
:10336C001A603B0002225A603B0000229A603B002C
:10337C000022DA603B000221180002F029F9031E3A
:10338C0001D000F03DF9C046BD4613B090BD000021
:10339C0080B584B000AF3B1D18000C231A0000212F
:1033AC0004F0A5F82D4B2E4A1A602C4B8022D20526
:1033BC005A602A4B00229A60284B0022DA60274B75
:1033CC0000221A61254B04225A61244B00221A76E2
:1033DC00224B00225A76214B00229A761F4B012257
:1033EC00DA611E4B2022002199541C4B00225A6298
:1033FC001A4B00229A62194B2C2200219954174B1C
:10340C0000221A63154B06225A63144B00229A634E
:10341C00124B3C2200219954104B0022DA640F4BC2
:10342C00180000F039FE031E01D000F0E9F83B1D36
:10343C000C4A1A603B1D00225A603B1D00229A6008
:10344C003A1D064B1100180001F0BCF8031E01D008
:10345C0000F0D6F8C046BD4604B080BDF80100208F
:10346C00002401400200000480B588B000AF142392
:10347C00FB1818000C231A00002104F038F83B1D2F
:10348C00180010231A00002104F031F8234B80227D
:10349C00D2051A60214B3F225A60204B00229A60C1
:1034AC001E4B01225242DA601C4B00221A611B4B4C
:1034BC0000229A61194B180002F0AEFB031E01D0DA
:1034CC0000F09EF814217B1800221A607B18002251
:1034DC009A607A18114B1100180003F007F9031EBB
:1034EC0001D000F08DF83B1D00221A603B1D01221B
:1034FC005A603B1D00229A603B1D0022DA60391D88
:10350C00064B0C22180002F041FE031E01D000F005
:10351C0077F8C046BD4608B080BDC0465C020020AE
:10352C0080B500AF234B244A1A60224BE122520291
:10353C005A60204B00229A601E4B0022DA601D4B11
:10354C0000221A611B4B0C225A611A4B00229A6101
:10355C00184B0022DA61174B00221A62154B00221D
:10356C005A62144B00229A62124B180003F03EF977
:10357C00031E01D000F044F80E4B0021180003F09C
:10358C00A3FE031E01D000F03BF80A4B00211800EB
:10359C0003F0DAFE031E01D000F032F8054B1800E0
:1035AC0003F058FE031E01D000F02AF8C046BD46B9
:1035BC0080BDC046A80200200038014080B582B012
:1035CC0000AF0E4B5A6B0D4B20210A435A630B4B29
:1035DC005B6B202213407B607B68084B5A6B074B5C
:1035EC0001210A435A63054B5B6B012213403B607C
:1035FC003B68C046BD4602B080BDC04600100240CC
:10360C0080B500AF72B6C046FEE70000B0B500AFA3
:10361C0000F044F81A4B1B4A9B5C002B08D0184B4B
:10362C00184A0021995400F091F80200164B1A60C8
:10363C00164B1A68154BDB68D21AFA239B009A4278
:10364C00E8D3124B1A68114BDA6000F03BF8104BC0
:10365C005B689BB21800FFF757FD021C0D4B1A60FC
:10366C00074B1C69084B1D680A4B1B68181CFCF7A0
:10367C006DFF030008482A00210004F0AFFBC9E7E6
:10368C00640300201A0200004803002054030020A9
:10369C003C03002044030020E0A0000880B500AFEC
:1036AC00064B0C21180002F00FFB054B8022002169
:1036BC00180003F01CFFC046BD4680BD5C02002014
:1036CC007C03002080B500AF0A4B180000F08CFE84
:1036DC00FA239A00074B1100180000F0D3FE054B9B
:1036EC00180000F063FF0200034B5A60C046BD4651
:1036FC0080BDC046F80100203C03002080B584B09A
:10370C0000AF0023FB6000237B600F4B1B7D002B65
:10371C0001D1002314E00023BB600AE00A4BBA6815
:10372C0006329200D358FA68D318FB60BB68013399
:10373C00BB60BB687F2BF1DDFB68DB097B607B68C2
:10374C001800BD4604B080BD6403002080B500AFF6
:10375C00204B1B7D002B38D0FFF7D0FF02001E4BF7
:10376C001A601D4B1B685A1C1C4B1B689A4214D0C8
:10377C00194B1B685A1E194B1B689A420DD0164BDD
:10378C001B689A1C154B1B689A4206D0124B1B687F
:10379C009A1E124B1B689A4210D10F4B1A680F4B92
:1037AC001B68D2180D4B1B68D31803211800FCF7AB
:1037BC00BFFC03001A00094B1A6003E0064B1A68A1
:1037CC00064B1A60054B1B6800E000231800BD4631
:1037DC0080BDC046640300204C0300205003002031
:1037EC0080B582B000AF78607B681A688023DB05F7
:1037FC009A425AD17B681B7F082B56D12D4B1B7AD2
:10380C00002B0BD17B680C21180002F063FD020029
:10381C00284B1A60274B01221A7246E07B680C2158
:10382C00180002F057FD0200224B5A60214B5A68D7
:10383C00204B1B68D21A1F4BDA601E4BDB68190039
:10384C001D48FCF775FC03001A001A4B1A61194B42
:10385C001A4A01219954174A86239B00D35A1A00FD
:10386C00144B1969134B06329200D150114A86231E
:10387C009B00D35A013399B20E4A86239B00D15236
:10388C000C4A86239B00D35A7F2B07D9094B012264
:10389C001A75084A86239B000021D152084B1B68DD
:1038AC0000225A62034B00221A72C046BD4602B077
:1038BC0080BDC0466403002040420F001A02000085
:1038CC005C02002080B582B000AF0F4B1A6C0E4B1F
:1038DC0001210A431A640C4B1B6C012213407B60C0
:1038EC007B68094BDA6B084B802149050A43DA6384
:1038FC00054BDA6B80235B0513403B603B68C0468D
:10390C00BD4602B080BDC0460010024090B595B0D7
:10391C0000AF78603C23FB18180014231A00002118
:10392C0003F0E5FD14243B19180028231A0000218C
:10393C0003F0DDFD7B681B68204A934239D13B19AB
:10394C008022D2011A603B190022DA613B1918005F
:10395C0001F0E8FF031E01D0FFF752FE184B1A6C62
:10396C00174B802149030A431A64154B1A6C8023A8
:10397C005B0313403B613B69114B5A6B104B0121AC
:10398C000A435A630E4B5B6B01221340FB60FB68CE
:10399C003C217B1802221A607B1803225A607B1888
:1039AC0000229A607A18A023DB051100180001F0A0
:1039BC0045F9C046BD4615B090BDC0460024014037
:1039CC000010024090B58BB000AF786014243B1906
:1039DC00180014231A00002103F089FD7B681A6873
:1039EC008023DB059A4236D11D4BDA6B1C4B01212F
:1039FC000A43DA631A4BDB6B012213403B613B69D0
:103A0C00174B5A6B164B01210A435A63144B5B6BD1
:103A1C0001221340FB60FB6821007B1808221A600E
:103A2C007B1802225A607B1800229A607B180022B5
:103A3C00DA607B1802221A617A18A023DB051100C8
:103A4C00180001F0FBF8002200210F2001F0C4F84F
:103A5C000F2001F0D6F8C046BD460BB090BDC04655
:103A6C000010024090B595B000AF78603C23FB1875
:103A7C00180014231A00002103F039FD14243B19FB
:103A8C00180028231A00002103F031FD7B681B6805
:103A9C00234A93423FD13B1901221A603B19002261
:103AAC005A603B19180001F03DFF031E01D0FFF7CF
:103ABC00A7FD1C4B1A6C1B4B8021C9010A431A64CD
:103ACC00184B1A6C8023DB0113403B613B69154B8F
:103ADC005A6B144B01210A435A63124B5B6B012244
:103AEC001340FB60FB683C217B18C022D2001A609B
:103AFC007B1802225A607B1800229A607B180022E5
:103B0C00DA607B1801221A617A18A023DB051100F8
:103B1C00180001F093F8C046BD4615B090BDC046E4
:103B2C00003801400010024080B500AFFEE780B5C0
:103B3C0000AFFEE780B500AFC046BD4680BD80B586
:103B4C0000AFC046BD4680BD80B500AF044B1B68BE
:103B5C005A1C034B1A6000F04DF9C046BD4680BD9F
:103B6C005403002080B500AF034B180002F0DCF9C1
:103B7C00C046BD4680BDC0465C02002080B500AF8B
:103B8C0001231800BD4680BD80B582B000AF7860BF
:103B9C00396003F079FC030016221A6001235B42A2
:103BAC001800BD4602B080BD80B582B000AF786011
:103BBC0001235A427B6811001800FFF7E5FFFEE76E
:103BCC0080B586B000AFF860B9607A6000237B6185
:103BDC000AE000E000BF0100BB685A1CBA60CAB220
:103BEC001A707B6901337B617A697B689A42F0DBDE
:103BFC007B681800BD4606B080BD80B582B000AFB2
:103C0C00786001235B421800BD4602B080BD80B5D0
:103C1C0082B000AF786039603B68802292015A60B4
:103C2C0000231800BD4602B080BD80B582B000AF45
:103C3C00786001231800BD4602B080BD80B584B009
:103C4C0000AFF860B9607A6000231800BD4604B07C
:103C5C0080BD000080B586B000AF7860144A154B6B
:103C6C00D31A7B617B693B61134B1B68002B02D120
:103C7C00114B124A1A60104B1A687B68D3183A69B8
:103C8C009A4207D203F000FC03000C221A600123B5
:103C9C005B4209E0084B1B68FB60074B1A687B68AA
:103CAC00D218054B1A60FB681800BD4606B080BDE3
:103CBC000020002000040000800500209805002052
:103CCC0080B500AFC046BD4680BD00000D4885469E
:103CDC00FFF7F6FF0C480D490D4A002302E0D458BB
:103CEC00C4500433C4188C42F9D30A4A0A4C00233A
:103CFC0001E013600432A242FBD303F0CBFBFFF7CD
:103D0C00DDFAFEE70020002000000020DC0100208E
:103D1C00E4AB0008DC01002098050020FEE7000061
:103D2C0080B582B000AFFB1D00221A700B4B1A68D5
:103D3C000A4B802149000A431A60032000F010F856
:103D4C00031E03D0FB1D01221A7001E0FFF7BAFD20
:103D5C00FB1D1B781800BD4602B080BD0020024040
:103D6C0090B585B000AF78600F23FB1800221A7055
:103D7C001D4B1B78002B2BD01C4B1C681A4B1B7833
:103D8C001900FA239800FCF7D3F90300190020005E
:103D9C00FCF7CEF90300180000F043FF031E12D10C
:103DAC007B68032B0AD8796801235B420022180038
:103DBC0000F012FF0E4B7A681A600DE00F23FB180F
:103DCC0001221A7008E00F23FB1801221A7003E07D
:103DDC000F23FB1801221A700F23FB181B781800F5
:103DEC00BD4605B090BDC046080000200000002074
:103DFC000400002080B500AF054B1B781A00054B62
:103E0C001B68D218034B1A60C046BD4680BDC04625
:103E1C00080000208405002080B500AF024B1B6811
:103E2C001800BD4680BDC0468405002080B582B018
:103E3C0000AF786039607B681B68054A1A403B68A4
:103E4C001A437B681A60C046BD4602B080BDC046AE
:103E5C00FFFF3FFE80B582B000AF78607B681A68C8
:103E6C00E0235B0413401800BD4602B080BD80B552
:103E7C0084B000AFF860B9607A60FB685B69BA68BF
:103E8C0004210A40072191400A00D2431A40BB6822
:103E9C0004210B40796899400B001A43FB685A6166
:103EAC00C046BD4604B080BD80B582B000AF78601E
:103EBC0039607B685B693A6804210A4007219140AC
:103ECC000A001A403B6804210B40DA40130018002A
:103EDC00BD4602B080BD80B582B000AF78607B6813
:103EEC00DA68C0231B01134001D1012300E0002339
:103EFC001800BD4602B080BD80B584B000AFF8603C
:103F0C00B9607A60FB689B6ABA681F210A400F216E
:103F1C0091400A00D2431A407B689B0E0F21194036
:103F2C00BB681F20034099400B001A43FB689A6240
:103F3C00C046BD4604B080BD80B582B000AF78608D
:103F4C0039607B689A6A3B685B035B0B1A437B683E
:103F5C009A62C046BD4602B080BD80B582B000AF4B
:103F6C00786039607B689B6A3A685203520BD24383
:103F7C001A407B689A62C046BD4602B080BD000004
:103F8C0080B584B000AFF860B9607A60FB685B699B
:103F9C00BA681202D2431A40BB681B0279680B4004
:103FAC0004490B401A43FB685A61C046BD4604B035
:103FBC0080BDC04600FFFF0780B582B000AF7860BF
:103FCC007B689B68054A1340802252051A437B6824
:103FDC009A60C046BD4602B080BDC046E8FFFF6F88
:103FEC0080B582B000AF78607B689A6880235B05EF
:103FFC001A4080235B059A4201D1012300E0002383
:10400C001800BD4602B080BD80B582B000AF7860AC
:10401C007B689B68044A134001221A437B689A60B0
:10402C00C046BD4602B080BDE8FFFF7F80B582B0C0
:10403C0000AF78607B689B6801221340012B01D193
:10404C00012300E000231800BD4602B080BD000033
:10405C0080B582B000AF78607B689B68044A1340DF
:10406C0004221A437B689A60C046BD4602B080BDEC
:10407C00E8FFFF7F80B582B000AF78607B689B68FB
:10408C0004221340042B01D1012300E0002318006B
:10409C00BD4602B080BD000080B588B000AF78602E
:1040AC001F23FB1800221A700023BB6100237B61C5
:1040BC000023FB607B68002B01D101237FE17B682F
:1040CC009B6D002B0AD17B681800FFF71FFC7B68E7
:1040DC000022DA657B685422002199547B681B68A6
:1040EC001800FFF77DFF031E15D17B681B681800B5
:1040FC00FFF762FFB44B1B68B4491800FCF718F8C3
:10410C00030001335B00FB6002E0FB68013BFB60DA
:10411C00FB68002BF9D17B681B681800FFF760FF68
:10412C00031E0FD17B689B6D10221A437B689A6526
:10413C007B68DB6D01221A437B68DA651F23FB1851
:10414C0001221A707B681B681800FFF793FF0300AD
:10415C003B617B689B6D1022134000D022E13B69D0
:10416C00002B00D01EE17B689B6D994A1340022204
:10417C001A437B689A657B681B681800FFF756FF2B
:10418C00031E00D0ADE07B689A687B681B7E9B03A6
:10419C001A437B685B7EDB031A437B689B7E5B0365
:1041AC001A437B681B6B002B02D080235B0100E061
:1041BC0000231A437B68DB681A437B681B69002B5E
:1041CC0004DA7B681B695B005B0801E080239B03BE
:1041DC001A437B682C215B5C5B001343BA69134365
:1041EC00BB617B6820229B5C012B15D17B689B7E7D
:1041FC00002B05D1BB69802252021343BB610BE03B
:10420C007B689B6D20221A437B689A657B68DB6D0B
:10421C0001221A437B68DA657B685B6A002B0AD043
:10422C007B685A6AE0235B001A407B689B6A1343E5
:10423C00BA691343BB617B681B68DB68654A134032
:10424C0019007B681B68BA690A43DA607B685B6893
:10425C009B0F9A077B68DB6C13437A6913437B6172
:10426C007B683C229B5C012B11D17B685B689B0FAC
:10427C009A077B681B6C1A437B685B6C1A437B68E0
:10428C009B6C1A437B691343012213437B617B684C
:10429C001B681B69504A134019007B681B687A69BC
:1042AC000A431A617B685A68C0231B069A4218D0CD
:1042BC007B685A688023DB059A4212D07B685A6867
:1042CC0080231B069A420CD0444B1B68444A134073
:1042DC0019007B685A68F0239B031A403F4B0A4332
:1042EC001A607B6818687B685B6B1A000021FFF70B
:1042FC00BEFD7B6818687B689B6B3A491A00FFF718
:10430C00B6FD7B681B69002B09D17B681B689A6A18
:10431C007B681B68102149420A439A6218E07B684B
:10432C001A6980239B039A4212D17B681B689B6A93
:10433C007B68DB69013B9B001C221340102252421C
:10434C009A4011007B681A6E7B681B680A439A625C
:10435C007B681B6800211800FFF7A6FD02007B6834
:10436C005B6B9A420BD17B680022DA657B689B6D94
:10437C000322934301221A437B689A651CE07B68F5
:10438C009B6D1222934310221A437B689A657B68BB
:10439C00DB6D01221A437B68DA651F23FB180122AF
:1043AC001A7009E07B689B6D10221A437B689A6532
:1043BC001F23FB1801221A701F23FB181B781800EF
:1043CC00BD4608B080BDC04600000020400D030073
:1043DC00FDFEFFFF0102FEFF02FCFF1F082701404C
:1043EC00FFFFC3FF04FFFF07B0B584B000AF7860D8
:1043FC007B681B681800FFF73DFE031E35D17B68F8
:10440C0054229B5C012B01D1022335E07B685422A2
:10441C00012199540F257C197B68180000F0AAFA29
:10442C00030023707B191B78002B19D17B689B6DC3
:10443C00134A1340802252001A437B689A657B68AA
:10444C000022DA657B681B681C221A607B68542288
:10445C00002199547B681B681800FFF7F9FD08E0F0
:10446C007B6854220021995403E00F23FB1802228D
:10447C001A700F23FB181B781800BD4604B0B0BD92
:10448C00FEF0FFFF80B584B000AF786039607B68C8
:10449C005B69082B02D10823FB600FE07B681B686B
:1044AC00DB680122134007D07B689B6D20221A43E6
:1044BC007B689A65012372E00423FB60FFF7ACFC78
:1044CC000300BB601FE03B6801331CD0FFF7A4FC6A
:1044DC000200BB68D31A3A689A4202D33B68002B9D
:1044EC0011D17B681B681B68FA6813400BD17B6881
:1044FC009B6D04221A437B689A657B6854220021C9
:10450C00995403234BE07B681B681B68FA681340C3
:10451C00D9D07B689B6D802292001A437B689A6588
:10452C007B681B681800FFF7D6FC031E2ED07B6837
:10453C009B7E002B2AD17B681B681B6808221340CA
:10454C00082B23D17B681B681800FFF793FD031E13
:10455C0010D17B681B685A687B681B680C218A43E6
:10456C005A607B689B6D104A134001221A437B688A
:10457C009A650BE07B689B6D20221A437B689A65D9
:10458C007B68DB6D01221A437B68DA657B681B7ED6
:10459C00002B03D17B681B680C221A6000231800C7
:1045AC00BD4604B080BDC046FEFEFFFF80B582B0A4
:1045BC0000AF78607B681B681B6C1800BD4602B0AE
:1045CC0080BD000080B586B000AF786039601723DD
:1045DC00FB1800221A700023FB607B6854229B5C42
:1045EC00012B01D10223C0E17B6854220121995493
:1045FC007B681B681800FFF73DFD031E00D0A3E18C
:10460C003B685B68022B00D143E17B681A6980230D
:10461C001B069A4204D07B681B69C14A934208D19D
:10462C007B681A683B681B6819001000FFF784FC54
:10463C00C9E07B681A6E3B685B681F210B400F2139
:10464C0099400B00DB43134019003B681B685B036C
:10465C005B0B05D13B681B689B0E1F22134098E037
:10466C003B681B680122134000D091E03B681B683B
:10467C000222134000D089E03B681B6804221340DF
:10468C0000D081E03B681B680822134000D079E021
:10469C003B681B681022134000D071E03B681B681C
:1046AC002022134000D069E03B681B684022134075
:1046BC0000D061E03B681B688022134000D059E0B9
:1046CC003B681A6880235B00134051D13B681A6821
:1046DC0080239B00134049D13B681A688023DB0080
:1046EC00134041D13B681A6880231B01134039D118
:1046FC003B681A6880235B01134031D13B681A6810
:10470C0080239B01134029D13B681A688023DB016D
:10471C00134021D13B681A6880231B02134019D126
:10472C003B681A6880235B02134011D13B681A68FE
:10473C0080239B02134009D13B681A688023DB025B
:10474C00134001D0122324E0002322E0112320E0A7
:10475C0010231EE00F231CE00E231AE00D2318E09B
:10476C000C2316E00B2314E00A2312E0092310E0BB
:10477C0008230EE007230CE006230AE0052308E0DB
:10478C00042306E0032304E0022302E0012300E0FB
:10479C0000233A6852681F20024093400A001A43D3
:1047AC007B681A663B685B689B085A1C7B68DB69F4
:1047BC009A4208D87B6818683B6859683B681B6844
:1047CC001A00FFF799FB7B6818683B6819683B680F
:1047DC009B681A00FFF7D4FB3B681B68002B00DBBF
:1047EC00BCE0504B1800FFF735FB03003B613B6806
:1047FC001B684D4A934222D13A6980231B04134013
:10480C001DD13B69802212041343464A1900100043
:10481C00FFF70CFB454B1B6845491800FBF788FC60
:10482C0003005A1C13005B009B189B00FB6002E00A
:10483C00FB68013BFB60FB68002BF9D18EE03B6809
:10484C001B683C4A93420ED13A6980235B041340A7
:10485C0009D13B69802252041343324A19001000DB
:10486C00FFF7E4FA7AE03B681B68334A934200D0C6
:10487C0074E03A698023DB03134000D06EE03B699F
:10488C008022D2031343274A19001000FFF7CEFAF7
:10489C0064E07B681A6980231B069A4204D07B680B
:1048AC001B691F4A934207D17B681A683B681B68D7
:1048BC0019001000FFF751FB3B681B68002B4DDA09
:1048CC00184B1800FFF7C6FA03003B613B681B68E6
:1048DC00154A934208D13B69184A1340114A1900F2
:1048EC001000FFF7A3FA39E03B681B68114A9342AA
:1048FC0008D13B69124A13400A4A19001000FFF70D
:10490C0095FA2BE03B681B680B4A934226D13B6916
:10491C000C4A1340034A19001000FFF787FA1DE0F8
:10492C000400008008270140001000B000000020A7
:10493C00400D0300004000B8002000B4FFFF7FFFD3
:10494C00FFFFFFFEFFFFBFFF7B689B6D20221A431A
:10495C007B689A651723FB1801221A707B68542216
:10496C00002199541723FB181B781800BD4606B07C
:10497C0080BDC04680B584B000AF78600023BB60BA
:10498C007B681B681800FFF751FB031E00D069E021
:10499C007B681B689B68364A13400DD07B689B6D07
:1049AC0010221A437B689A657B68DB6D01221A43DF
:1049BC007B68DA65012356E07B681B681800FFF7FB
:1049CC0023FB2C4B1800FFF745FA020080231B0435
:1049DC0013400FD0284B1B6828491800FBF7A8FB85
:1049EC0003000133BB6002E0BB68013BBB60BB68EA
:1049FC00002BF9D17B685B7E012B33D0FFF70CFACF
:104A0C000300FB6027E07B681B681800FFF70EFBB8
:104A1C00031E04D17B681B681800FFF7F5FAFFF73B
:104A2C00FBF90200FB68D31A022B14D97B681B68B4
:104A3C001B6801221340012B0DD07B689B6D10224B
:104A4C001A437B689A657B68DB6D01221A437B688D
:104A5C00DA65012307E07B681B681B6801221340A1
:104A6C00012BD0D100231800BD4604B080BDC04638
:104A7C00170000800827014000000020400D0300B3
:104A8C0080B582B000AF0200FB1D1A70FB1D1B78B5
:104A9C007F2B09D8FB1D1B781A001F231A40044BCF
:104AAC00012191400A001A60C046BD4602B080BD8B
:104ABC0000E100E090B583B000AF02003960FB1D4F
:104ACC001A70FB1D1B787F2B28D82F4AFB1D1B78D7
:104ADC005BB29B08C0339B009B58FA1D12781100E7
:104AEC0003220A40D200FF2191400A00D2431A400F
:104AFC0011003B689B01FF221A40FB1D1B7818001C
:104B0C0003230340DB009A401F48FB1D1B785BB25C
:104B1C009B080A43C0339B001A5031E01B4AFB1D13
:104B2C001B7819000F230B40083B9B0806339B0096
:104B3C00D31804331B68FA1D1278110003220A40A3
:104B4C00D200FF2191400A00D2431A4011003B6869
:104B5C009B01FF221A40FB1D1B7818000323034006
:104B6C00DB009A400948FB1D1B781C000F232340D7
:104B7C00083B9B080A4306339B00C31804331A6096
:104B8C00C046BD4603B090BD00E100E000ED00E082
:104B9C0080B582B000AF78607B685A1E80235B04BE
:104BAC009A4201D3012310E00A4B7A68013A5A6009
:104BBC0001235B4203211800FFF77CFF054B002209
:104BCC009A60044B07221A6000231800BD4602B0FD
:104BDC0080BDC04610E000E080B584B000AFB96085
:104BEC007A600F217B18021C1A70BA687B181B782C
:104BFC005BB211001800FFF75DFFC046BD4604B064
:104C0C0080BD80B582B000AF0200FB1D1A70FB1D89
:104C1C001B785BB21800FFF733FFC046BD4602B0ED
:104C2C0080BD80B582B000AF78607B681800FFF75C
:104C3C00AFFF03001800BD4602B080BD80B586B042
:104C4C0000AF7860396000237B6147E13B681B68EB
:104C5C0001217A6991400A001340FB60FB68002B2C
:104C6C0000D138E13B685B6803221340012B05D06F
:104C7C003B685B6803221340022B30D17B689B6836
:104C8C003B617B695B0003229A401300DA433B696A
:104C9C0013403B613B68DA687B695B009A40130008
:104CAC003A6913433B617B683A699A607B685B683D
:104CBC003B6101227B699A401300DA433B69134044
:104CCC003B613B685B681B0901221A407B699A4077
:104CDC0013003A6913433B617B683A695A603B683D
:104CEC005B6803221340032B17D07B68DB683B61A6
:104CFC007B695B0003229A401300DA433B69134043
:104D0C003B613B689A687B695B009A4013003A6987
:104D1C0013433B617B683A69DA603B685B6803224A
:104D2C001340022B23D17B69DA087B68083292008E
:104D3C00D3583B617B69072213409B000F229A409A
:104D4C001300DA433B6913403B613B681A697B698A
:104D5C0007210B409B009A4013003A6913433B61B7
:104D6C007B69DA087B68083292003969D1507B681C
:104D7C001B683B617B695B0003229A401300DA439A
:104D8C003B6913403B613B685B6803221A407B69BB
:104D9C005B009A4013003A6913433B617B683A69A4
:104DAC001A603B685A68C0239B02134000D192E002
:104DBC00504A7B699B0818339B009B583B617B696D
:104DCC0003221340DB000F229A401300DA433B69A5
:104DDC0013403B617A68A023DB059A4213D07B68B1
:104DEC00454A93420DD07B68444A934207D07B6876
:104DFC00434A934201D1032306E0052304E0022336
:104E0C0002E0012300E000237A6903210A40D2006A
:104E1C0093403A6913433B6136497B699B081833CD
:104E2C009B003A695A50334B1B683B61FB68DA4371
:104E3C003B6913403B613B685A6880235B0313401A
:104E4C0003D03A69FB6813433B612A4B3A691A60F9
:104E5C00284B5B683B61FB68DA433B6913403B6161
:104E6C003B685A6880239B03134003D03A69FB6864
:104E7C0013433B611F4B3A695A601E4A8423D35833
:104E8C003B61FB68DA433B6913403B613B685A6802
:104E9C0080239B02134003D03A69FB6813433B61A8
:104EAC00144984223B698B50124A8023D3583B61AE
:104EBC00FB68DA433B6913403B613B685A688023CB
:104ECC005B02134003D03A69FB6813433B61094909
:104EDC0080223B698B507B6901337B613B681A688C
:104EEC007B69DA40131E00D0B0E6C046C046BD4612
:104EFC0006B080BD001802400004005000080050AD
:104F0C00000C005080B584B000AF7860194B1B6862
:104F1C00194A13401900174B7A680A431A607A68C9
:104F2C0080239B009A421FD1144B1A6813005B001C
:104F3C009B185B0012491800FBF7FAF803000133C9
:104F4C00FB6008E0FB68002B03D0FB68013BFB60B7
:104F5C0001E0032309E0074B5A698023DB001A4068
:104F6C008023DB009A42EDD000231800BD4604B02C
:104F7C0080BDC04600700040FFF9FFFF000000201C
:104F8C0040420F0080B500AF034B9A68E023DB0171
:104F9C0013401800BD4680BD0010024080B588B09B
:104FAC0000AF78607B68002B01D10123FEE27B68A7
:104FBC001B680122134000D17CE0C34B9B68382254
:104FCC001340BB61C04BDB68032213407B61BB69A0
:104FDC00102B02D17B69032B02D0BB69082B0BD1A0
:104FEC00B94B1A6880239B02134062D07B685B68C4
:104FFC00002B5ED10123D9E27B685A6880235B02C7
:10500C009A4207D1B04B1A68AF4B802149020A4330
:10501C001A6020E07B685A68A023DB029A420ED10A
:10502C00A94B1A68A84B8021C9020A431A60A64BE7
:10503C001A68A54B802149020A431A600BE0A24B67
:10504C001A68A14BA1490A401A609F4B1A689E4BE3
:10505C009F490A401A607B685B68002B14D0FEF7EE
:10506C00DBFE03003B6108E0FEF7D6FE02003B6965
:10507C00D31A642B01D9032398E2934B1A6880232B
:10508C009B021340F0D015E0FEF7C6FE03003B6117
:10509C0008E0FEF7C1FE02003B69D31A642B01D96C
:1050AC00032383E2884B1A6880239B021340F0D1C0
:1050BC0000E0C0467B681B680222134000D199E0D7
:1050CC00814B9B6838221340BB617F4BDB6803220A
:1050DC0013407B61BB69102B02D17B69022B02D080
:1050EC00BB69002B35D1784B1A688023DB00134049
:1050FC0005D07B68DB68002B01D1012356E2724B93
:10510C005B68744A134019007B685B691A026E4B2A
:10511C000A435A60BB69002B12D16B4B1B686E4A59
:10512C00134019007B681A69674B0A431A60664B77
:10513C001B68DB0A07221340684ADA40684B1A6086
:10514C00684B1B681800FEF70BFE031E51D00123A1
:10515C002CE27B68DB68002B30D05B4B1B685E4A13
:10516C00134019007B681A69574B0A431A60564B57
:10517C001A68554B802149000A431A60FEF74CFE11
:10518C0003003B6108E0FEF747FE02003B69D31ABF
:10519C00022B01D9032309E24B4B1A688023DB0055
:1051AC001340F0D0484B5B684A4A134019007B68A7
:1051BC005B691A02444B0A435A601BE0424B1A6863
:1051CC00414B49490A401A60FEF726FE03003B6139
:1051DC0008E0FEF721FE02003B69D31A022B01D92D
:1051EC000323E3E1384B1A688023DB001340F0D132
:1051FC0000E0C0467B681B680822134047D0324B46
:10520C009B6838221340182B0AD12F4B1B6E02229D
:10521C0013403CD07B689B69002B38D10123C5E13E
:10522C007B689B69002B19D0274B1A6E264B0121EA
:10523C000A431A66FEF7F0FD03003B6108E0FEF737
:10524C00EBFD02003B69D31A022B01D90323ADE11C
:10525C001D4B1B6E02221340F1D018E01A4B1A6E34
:10526C00194B01218A431A66FEF7D6FD03003B61F8
:10527C0008E0FEF7D1FD02003B69D31A022B01D9DD
:10528C00032393E1104B1B6E02221340F1D17B6878
:10529C001B680422134000D1C6E01F23FB18002218
:1052AC001A70094B9B6838221340202B1ED1064BD9
:1052BC00DB6D0222134000D1B6E07B689B68002BAB
:1052CC0000D0B1E0012371E100100240FFFFFEFFAE
:1052DC00FFFFFBFFFF80FFFFFFC7FFFF0024F40071
:1052EC000000002004000020FFFEFFFFB14BDA6B32
:1052FC0080235B05134001D1012300E00023002B28
:10530C0011D0AC4BDA6BAB4B802149050A43DA6305
:10531C00A84BDA6B80235B051340FB60FB681F23F3
:10532C00FB1801221A70A44B1A6880235B001340EF
:10533C001AD1A14B1A68A04B802149000A431A606C
:10534C00FEF76AFD03003B6108E0FEF765FD020015
:10535C003B69D31A022B01D9032327E1964B1A6818
:10536C0080235B001340F0D07B689B68012B06D137
:10537C00904BDA6D8F4B01210A43DA651CE07B6898
:10538C009B68052B0CD18B4BDA6D8A4B04210A439D
:10539C00DA65884BDA6D874B01210A43DA650BE03D
:1053AC00844BDA6D834B01218A43DA65814BDA6DCC
:1053BC00804B04218A43DA657B689B68002B14D0F0
:1053CC00FEF72AFD03003B6109E0FEF725FD020014
:1053DC003B69D31A794A934201D90323E6E0754B12
:1053EC00DB6D02221340F0D013E0FEF715FD030035
:1053FC003B6109E0FEF710FD02003B69D31A6F4ACE
:10540C00934201D90323D1E06A4BDB6D0222134096
:10541C00F0D11F23FB181B78012B05D1654BDA6BE0
:10542C00644B67490A40DA637B68DB69002B00D167
:10543C00BBE0604B9B6838221340102B00D17BE003
:10544C007B68DB69022B56D15A4B1A68594B5D4964
:10545C000A401A60FEF7E0FC03003B6108E0FEF72F
:10546C00DBFC02003B69D31A022B01D903239DE01C
:10547C00504B1A6880239B041340F0D14D4BDB68D2
:10548C00514A134019007B681A6A7B685B6A1A439D
:10549C007B689B6A1B021A437B68DB6A1A437B6836
:1054AC001B6B1A437B685B6B1A43424B0A43DA60F3
:1054BC00404B1A683F4B802149040A431A603D4B0C
:1054CC00DA683C4B802149050A43DA60FEF7A4FCFC
:1054DC0003003B6108E0FEF79FFC02003B69D31A16
:1054EC00022B01D9032361E0324B1A6880239B0401
:1054FC001340F0D059E02F4B1A682E4B31490A401B
:10550C001A60FEF789FC03003B6108E0FEF784FC9F
:10551C0002003B69D31A022B01D9032346E0254B29
:10552C001A6880239B041340F0D1224BDA68214B7C
:10553C0026490A40DA6038E07B68DB69012B01D12F
:10554C00012333E01B4BDB687B617B6903221A4030
:10555C007B681B6A9A4226D17B6970221A407B6851
:10556C005B6A9A421FD17A69FE23DB011A407B6881
:10557C009B6A1B029A4216D17A69F8239B031A4044
:10558C007B68DB6A9A420ED17A69E0231B051A40CC
:10559C007B681B6B9A4206D17B695B0F5A077B6851
:1055AC005B6B9A4201D0012300E000231800BD463A
:1055BC0008B080BD0010024000700040881300004D
:1055CC00FFFFFFEFFFFFFFFE8C80C111FCFFFEEE23
:1055DC0080B584B000AF786039607B68002B01D156
:1055EC000123E9E0764B1B68072213403A689A4284
:1055FC001ED9734B1B68072293431900704B3A68F2
:10560C000A431A60FEF708FC0300FB6009E0FEF792
:10561C0003FC0200FB68D31A6A4A934201D90323A4
:10562C00CAE0674B1B68072213403A689A42EED1D6
:10563C007B681B680222134015D07B681B68042210
:10564C00134006D0604B9A685F4BE021C9010A43B6
:10565C009A605D4B9B685D4A134019007B689A68A1
:10566C00594B0A439A607B681B680122134057D040
:10567C007B685B68012B07D1534B1A6880239B0214
:10568C0013402BD1012397E07B685B68022B07D179
:10569C004D4B1A6880239B0413401FD101238BE0D0
:1056AC007B685B68002B07D1474B1A688023DB00B3
:1056BC00134013D101237FE07B685B68032B06D179
:1056CC00414B1B6E0222134008D1012374E03E4B68
:1056DC00DB6D0222134001D101236DE03A4B9B6834
:1056EC000722934319007B685A68374B0A439A6028
:1056FC00FEF792FB0300FB6009E0FEF78DFB020056
:10570C00FB68D31A2F4A934201D9032354E02E4B42
:10571C009B6838221A407B685B68DB009A42ECD1AC
:10572C00274B1B68072213403A689A421ED2244B1F
:10573C001B68072293431900214B3A680A431A60ED
:10574C00FEF76AFB0300FB6009E0FEF765FB020055
:10575C00FB68D31A1B4A934201D903232CE0184B44
:10576C001B68072213403A689A42EED17B681B688B
:10577C000422134009D0144B9B68154A134019009E
:10578C007B68DA68104B0A439A6000F029F8010034
:10579C000D4B9B681B0A0F221A400E4B9200D358DC
:1057AC001F2213400A00DA400B4B1A600B4B1B688C
:1057BC001800FEF7D5FA03001800BD4604B080BDF2
:1057CC00002002408813000000100240FFF0FFFF91
:1057DC00FF8FFFFF70A700080000002004000020CE
:1057EC0080B586B000AF3C4B9B68382213400FD17C
:1057FC00394B1B68DB0A0722134001229A40130025
:10580C003B6039683548FAF793FC03003B615DE077
:10581C00314B9B6838221340082B02D1304B3B6133
:10582C0054E02D4B9B6838221340102B38D12A4B57
:10583C00DB6803221340FB60274BDB681B09072244
:10584C0013400133BB60FB68032B0DD1B9682448AE
:10585C00FAF76EFC030019001F4BDB681B0A7F2252
:10586C0013404B437B610DE0B9681C48FAF760FCB0
:10587C0003001900184BDB681B0A7F2213404B43B3
:10588C007B61C046144BDB685B0F0722134001336E
:10589C007B6079687869FAF74BFC03003B6115E093
:1058AC000D4B9B6838221340202B03D180231B0205
:1058BC003B610BE0084B9B6838221340182B03D13B
:1058CC00FA23DB013B6101E000233B613B691800DB
:1058DC00BD4606B080BDC046001002400024F40056
:1058EC0000127A0080B500AF024B1B681800BD4651
:1058FC0080BDC04600000020B0B500AFFFF7F2FF3E
:10590C000400FFF73FFB03001A0B054B9200D35822
:10591C001F221340DC4023001800BD46B0BDC0461A
:10592C00B0A7000880B586B000AF78601323FB18D1
:10593C0000221A701223FB1800221A707B681A6856
:10594C0080239B02134000D1A3E011203B180022BE
:10595C001A70A54BDA6B80235B05134010D1A24B58
:10596C00DA6BA14B802149050A43DA639E4BDA6B53
:10597C0080235B051340BB60BB683B1801221A7087
:10598C009A4B1A68994B802149000A431A60FEF71A
:10599C0043FA0300FB600BE0FEF73EFA0200FB68E3
:1059AC00D31A022B04D91323FB1803221A7005E017
:1059BC008E4B1A6880235B001340EDD01323FB1829
:1059CC001B78002B54D1884BDA6DC0239B001340FD
:1059DC007B617B69002B19D07B685B6A7A699A4280
:1059EC0014D0814BDB6D824A13407B617E4BDA6DA8
:1059FC007D4B802149020A43DA657B4BDA6D7A4B89
:105A0C007C490A40DA65784B7A69DA657B69012250
:105A1C00134016D0FEF700FA0300FB600CE0FEF713
:105A2C00FBF90200FB68D31A734A934204D913237F
:105A3C00FB1803221A7004E06B4BDB6D022213403F
:105A4C00EDD01323FB181B78002B0AD1664BDB6DB2
:105A5C00674A134019007B685A6A634B0A43DA653C
:105A6C000CE01223FB181322BA1812781A7005E0F6
:105A7C001223FB181322BA1812781A701123FB1870
:105A8C001B78012B05D1584BDA6B574B5B490A40FD
:105A9C00DA637B681B680122134009D0524B5B6DA3
:105AAC000322934319007B685A684F4B0A435A658B
:105ABC007B681B681022134009D04B4B5B6D504A1E
:105ACC00134019007B689A68474B0A435A657B68F8
