:020000040800F2
:1000000000200020411900089119000891190008EA
:1000100000000000000000000000000000000000E0
:10002000000000000000000000000000911900081E
:10003000000000000000000091190008810900087C
:1000400091190008911900089119000891190008E8
:1000500091190008911900089119000891190008D8
:10006000000000009119000891190008911900087A
:1000700091190008911900089119000891190008B8
:10008000911900080000000000000000911900080C
:10009000000000009119000891190008911900084A
:1000A0009119000891190008911900089119000888
:0C00B0009119000891190008911900082E
:1000BC0010B5064C2378002B07D1054B002B02D032
:1000CC00044800E000BF0123237010BD080000208D
:1000DC0000000000F0190008044B10B5002B03D0F1
:1000EC000349044800E000BF10BDC04600000000FA
:1000FC000C000020F0190008002243088B4274D336
:10010C0003098B425FD3030A8B4244D3030B8B420C
:10011C0028D3030C8B420DD3FF22090212BA030C15
:10012C008B4202D31212090265D0030B8B4219D3F6
:10013C0000E0090AC30B8B4201D3CB03C01A524116
:10014C00830B8B4201D38B03C01A5241430B8B425E
:10015C0001D34B03C01A5241030B8B4201D30B0347
:10016C00C01A5241C30A8B4201D3CB02C01A52416E
:10017C00830A8B4201D38B02C01A5241430A8B4231
:10018C0001D34B02C01A5241030A8B4201D30B021A
:10019C00C01A5241CDD2C3098B4201D3CB01C01A34
:1001AC00524183098B4201D38B01C01A524143093E
:1001BC008B4201D34B01C01A524103098B4201D32C
:1001CC000B01C01A5241C3088B4201D3CB00C01A99
:1001DC00524183088B4201D38B00C01A5241430811
:1001EC008B4201D34B00C01A5241411A00D2014636
:1001FC00524110467047FFE701B5002000F006F8A9
:10020C0002BDC0460029F7D076E770477047C0465C
:10021C0080B584B000AF78600023FB607B68BB6066
:10022C00BB685B055B0D04D0BB68DB0A0133FB606C
:10023C0002E0BB68DB0AFB60FB681800BD4604B03B
:10024C0080BD000080B584B000AF78600023FB60F7
:10025C007B68180000F01CF800F000F97B685B6804
:10026C009B080133094A1900100000F001F9030042
:10027C00FB607B681B68FA689A4201D0002300E09F
:10028C0001231800BD4604B080BDC04600280008FC
:10029C0080B586B000AF786000237B610D4B3B616D
:1002AC007B68FB6000237B610CE07B699B003A69F7
:1002BC00D2187B699B00F968CB1812681A607B69AD
:1002CC0001337B617B690F2BEFD9C046C046BD461D
:1002DC0006B080BD00F0000880B586B000AF786035
:1002EC000F23FB1804221A70164B1A69154B312177
:1002FC008A431A61144B180000F03CF97B687B614F
:10030C0000233B6116E03B69104A94466344DB00D2
:10031C0019007B691A685B68080000F07FF903001C
:10032C001A000F23FB181A703B6901333B617B6980
:10033C0008337B613B69072BE5D9C046C046BD46F7
:10034C0006B080BD0020024000F00008001E000135
:10035C0080B582B000AF00237B602F4B180001F0FA
:10036C0039F82E4B180001F0F3F803007B607B6822
:10037C00002B30DD2A4B1800FFF78AFF7A68284BD8
:10038C00DA6000F06BF87B68002B00DA03339B100B
:10039C000133244A1900100000F06AF80200204BC7
:1003AC009A601F4B9A681E4B1A601D4BDA681C4BE7
:1003BC005A601B4B1B4A5A61194B1B4A9A61184BCA
:1003CC0001221A62164B1800FFF786FF174B180014
:1003DC0001F000F81BE07B68013304D1144B1800CA
:1003EC0000F0F8FF13E07B68023304D1114B1800C6
:1003FC0000F0F0FF0BE07B68033304D10E4B1800C8
:10040C0000F0E8FF03E00D4B180000F0E3FFC046DE
:10041C00BD4602B080BDC046081A0008640000202A
:10042C00240000200028000800F00008481A0008EA
:10043C00941A0008D41A0008F01A0008081B0008C7
:10044C0080B500AF044B9A6B034B802149010A43E2
:10045C009A63C046BD4680BD0010024080B500AF17
:10046C00024B01229A60C046BD4680BD003002405E
:10047C0080B584B000AF786039600023FB60002346
:10048C00FB6009E0FB689B007A68D318074A1B687D
:10049C001360FB680133FB60FA683B689A42F1D346
:1004AC00024B1B681800BD4604B080BD00300240F2
:1004BC0080B500AF064B5B69002B05DA044B054A8F
:1004CC009A60034B044A9A60C046BD4680BDC04644
:1004DC000020024023016745AB89EFCD80B582B087
:1004EC0000AFFB1D04221A70134B1A6980235B02A8
:1004FC001A4080235B029A4203D1FB1D01221A7021
:10050C0014E00D4B1B690822134003D0FB1D022283
:10051C001A700BE0084B1B691022134003D0FB1D13
:10052C0003221A7002E0FB1D04221A70FB1D1B78BB
:10053C001800BD4602B080BD00200240B0B584B0AA
:10054C0000AF78600F257B1904221A707C19FFF715
:10055C00C5FF03002370C0467B68002B02D17B19BA
:10056C0005221A700F23FB181B781800BD4604B027
:10057C00B0BD000080B584B000AF78600F23FB18CD
:10058C0004221A707B68F822120694466344DB0A34
:10059C00BB60C0461D4B1A6980235B021340F9D126
:1005AC001A4B5A69194B02210A435A61174B5A6963
:1005BC00164B17490A405A61144B5969BB68DB004A
:1005CC00144A1A40114B0A435A61104B5A690F4B8B
:1005DC00802149020A435A61C0460C4B1A69802398
:1005EC005B021340F9D1094B5A69084B0A490A407E
:1005FC005A61064B5A69054B02218A435A610F23F3
:10060C00FB181B781800BD4604B080BD00200240CA
:10061C0007E0FFFFF81F0000FFFFFEFFF0B587B0FB
:10062C0000AFF8603A607B6017217B1804221A70C7
:10063C007E1880239B011800FFF780FF03003370A6
:10064C00144B5A69134B01210A435A61FB683A68EF
:10065C001A60BFF36F8FC0467B681C0000231D001F
:10066C00FB68043322001A6017257C1980239B0138
:10067C001800FFF763FF03002370064B5A69054B04
:10068C0001218A435A617B191B781800BD4607B0BB
:10069C00F0BDC0460020024080B582B000AF78604B
:1006AC0000F06CF87B68044A1900100000F0FCF8AC
:1006BC00C046BD4602B080BD0038014080B582B056
:1006CC0000AF0200FB1D1A70C046074BDB6980228D
:1006DC001340802BF9D1044BFA1D12789A62C04654
:1006EC00BD4602B080BDC0460038014080B582B026
:1006FC0000AF0200FB1D1A70FB1D1B781800FFF7E2
:10070C00DDFFC046BD4602B080BD000080B582B0A2
:10071C0000AF7860084BDB6920221340202B06D1F8
:10072C00054B5B6ADAB27B681A70012300E0002388
:10073C001800BD4602B080BD0038014080B584B0C1
:10074C0000AF786039600C4B1B68FB607B6818004D
:10075C00FFF7DCFF0300012B01D1002308E0064B5F
:10076C001A68FB68D31A3A689A42EFD801235B42A5
:10077C001800BD4604B080BD6804002080B582B06E
:10078C0000AF00237B60424B5A6B414B01210A4363
:10079C005A633F4B1A6C3E4B8021C9010A431A64C1
:1007AC00A023DB051A68A023DB053A490A401A602E
:1007BC00A023DB051A68A023DB05802189030A43EB
:1007CC001A60A023DB055A69A023DB0532490A40D5
:1007DC005A61A023DB05DA68A023DB052D490A400A
:1007EC00DA60A023DB059A68A023DB052A490A40BE
:1007FC009A60A023DB051A68A023DB0527490A4071
:10080C001A60A023DB051A68A023DB0580210903ED
:10081C000A431A60A023DB055A69A023DB05204993
:10082C000A405A61A023DB05DA68A023DB051B49CB
:10083C000A40DA60A023DB059A68A023DB0518497F
:10084C000A409A60A023DB055B6A7B607B68154AD3
:10085C0013407B607B688022520013437B60A02393
:10086C00DB057A685A62A023DB055B6A7B607B68D8
:10087C00F02293437B607B68102213437B60A023A0
:10088C00DB057A685A62C046BD4602B080BDC046E0
:10089C0000100240FFFFCFFFFFFBFFFFFFFFF3FF46
:1008AC00FFFDFFFFFFF0FFFF80B584B000AF786065
:1008BC00396039681948FFF71FFC0300FB607B683F
:1008CC0000221A607B681B68154A1A407B681A6004
:1008DC007B681B68134A1A407B681A607B681B682C
:1008EC000C221A437B681A607B681B680E4A1A40FC
:1008FC007B681A607B68DB6A0F221A407B68DA62BD
:10090C007B68FA68DA607B681B6801221A437B6893
:10091C001A60C046BD4604B080BDC0460090D003EE
:10092C00FFFFFFEFFFFBFFFFFF7FFFFF80B500AF77
:10093C0000F006F800F042F800231800BD4680BD18
:10094C0080B582B000AF00237B6000F0B3FA962331
:10095C00DB011800FFF7A0FEFFF772FD034B044A02
:10096C001A607B681800BD4602B080BD7804002078
:10097C00F906000880B500AF0D4B1B685A1C0C4BD8
:10098C001A600C4B1B685A1C0A4B1A60094B1A68EC
:10099C00FA239B009A4207D9064B00221A60064B99
:1009AC001B685A1C044B1A60C046BD4680BDC0462D
:1009BC00640400206C0400206804002080B584B01E
:1009CC0000AF0D23FB1800221A70FB1D00221A70B9
:1009DC000F23FB1800221A700C23FB1800221A702C
:1009EC000E23FB1800221A700E23FB181B78002B09
:1009FC0001D1584B1B68FB1D03211800FFF79EFE0D
:100A0C0002000D217B181A707B181B78002B42D129
:100A1C000E23FB1800221A700F23FB1800221A70E9
:100A2C007B18FA1D12781A707B181B78332B07D0A1
:100A3C007B181B78622B03D07B181B78422B04D1BC
:100A4C000F23FB1801221A701FE00D23FB181B78D3
:100A5C00342B03D13F4B1B68012B16D00D22BB1836
:100A6C001B78012B03D0BB181B78022B02D1FFF78C
:100A7C006FFC0AE00D22BB181B78642B03D0BB184B
:100A8C001B78442B01D1FFF763FC0F23FB181B7859
:100A9C00002B0CD15CE0304B180000F09BFC0E23BB
:100AAC00FB1801221A700F23FB1801221A700F2356
:100ABC00FB181B78002B97D0284B180000F08AFCF1
:100ACC00274B1800FFF7BEFB02000C217B181A7095
:100ADC007B181B78002B37D0224B180000F07AFCC7
:100AEC00214B1B68214A1A4080239B059A4200D057
:100AFC007AE71F4B180000F06DFC1E4B1B68BB60A7
:100B0C00C0461C4B1A68BB68D31A092BF9D900F0E4
:100B1C0063FA194B00221A60174B00225A60164BCD
:100B2C0000229A6072B6C046144B01221A60144B14
:100B3C001B681A00134B1A60124B1B689847124B18
:100B4C00180000F047FC4FE7104B180000F042FC77
:100B5C004AE7C04674040020281B0008401B00080C
:100B6C0024000020541B0008002800080000FE2F61
:100B7C00641B00086404002010E000E00000014049
:100B8C000428000870040020741B0008A01B000837
:100B9C0080B586B000AF7860396000237B6100239C
:100BAC003B610023FB607B681B78302B00D082E01C
:100BBC007B6801331B78782B05D07B6801331B785D
:100BCC00582B00D077E07B6802331B78002B01D1C7
:100BDC000023D8E002237B6163E07A687B69D31839
:100BEC001B78002B05D1FA683B681A6001233B6126
:100BFC005AE07A687B69D3181B78402B05D97A6840
:100C0C007B69D3181B78462B17D97A687B69D31864
:100C1C001B78602B05D97A687B69D3181B78662BF7
:100C2C000BD97A687B69D3181B782F2B36D97A6845
:100C3C007B69D3181B78392B30D8FB681A0179687B
:100C4C007B69CB181B782F2B0BD979687B69CB1858
:100C5C001B78392B05D879687B69CB181B78303B0E
:100C6C0016E079687B69CB181B78402B0BD9796817
:100C7C007B69CB181B78462B05D879687B69CB1818
:100C8C001B78373B04E079687B69CB181B78573BA2
:100C9C009B18FB607B6901337B6102E000233B61A5
:100CAC0002E07B690A2B98D97B690A2B00D869E092
:100CBC0000233B6166E000237B615BE07A687B6923
:100CCC00D3181B78002B05D1FA683B681A600123F6
:100CDC003B6152E07A687B69D3181B786B2B05D08B
:100CEC007A687B69D3181B784B2B0BD17B69002B53
:100CFC0008D0FB689B02FB60FA683B681A60012312
:100D0C003B613AE07A687B69D3181B786D2B05D070
:100D1C007A687B69D3181B784D2B0BD17B69002B20
:100D2C0008D0FB681B05FB60FA683B681A6001235E
:100D3C003B6122E07A687B69D3181B782F2B16D97C
:100D4C007A687B69D3181B78392B10D8FA68130092
:100D5C009B009B185B0019007A687B69D3181B7881
:100D6C00CB18303BFB607B6901337B6102E00023D5
:100D7C003B6102E07B690A2BA0D97B690A2B01D964
:100D8C0000233B613B691800BD4606B080BD0000E6
:100D9C0090B583B000AF02003960FB1D1A70FB1DCB
:100DAC001B787F2B28D82F4AFB1D1B785BB29B0826
:100DBC00C0339B009B58FA1D1278110003220A4085
:100DCC00D200FF2191400A00D2431A4011003B6827
:100DDC009B01FF221A40FB1D1B78180003230340C4
:100DEC00DB009A401F48FB1D1B785BB29B080A4333
:100DFC00C0339B001A5031E01B4AFB1D1B781900B5
:100E0C000F230B40083B9B0806339B00D31804337D
:100E1C001B68FA1D1278110003220A40D200FF2130
:100E2C0091400A00D2431A4011003B689B01FF22FB
:100E3C001A40FB1D1B78180003230340DB009A406B
:100E4C000948FB1D1B781C000F232340083B9B0803
:100E5C000A4306339B00C31804331A60C046BD46D0
:100E6C0003B090BD00E100E000ED00E080B582B081
:100E7C0000AF78607B685A1E80235B049A4201D3D2
:100E8C00012310E00A4B7A68013A5A6001235B4255
:100E9C0003211800FFF77CFF054B00229A60044BDE
:100EAC0007221A6000231800BD4602B080BDC04660
:100EBC0010E000E080B500AF00F028F800F018F862
:100ECC00C046BD4680BD000080B582B000AF7860E2
:100EDC007B68042B05D1054B1A68044B04210A438B
:100EEC001A60C046BD4602B080BDC04610E000E0AE
:100EFC0080B500AF0420FFF7E7FFFA231B021800B0
:100F0C00FFF7B4FFC046BD4680BD000080B500AF02
:100F1C002B4B1A682A4B802149020A431A60C0469F
:100F2C00274B1A6880239B021340F9D0254B1A6873
:100F3C00244B822149000A431A60214B9A68204BAA
:100F4C0021490A409A601E4B9A681D4B1F490A4062
:100F5C009A601B4BDA681A4B03210A43DA60184B70
:100F6C00DA68174B1A490A40DA60154BDA68144BE9
:100F7C0018490A43DA60124B1A68114B8021490454
:100F8C000A431A60C0460E4B1A6880239B04134018
:100F9C00F9D00B4B9A680A4B07218A439A60084B8D
:100FAC009A68074B02210A439A60C046044B9B681F
:100FBC0038221340102BF9D1C046C046BD4680BD27
:100FCC000010024000200240FFF0FFFFFF8FFFFFE8
:100FDC008F80FF1F0310003180B500AF1D4B1A68C6
:100FEC001C4B802149000A431A60C046194B1A68F1
:100FFC008023DB001340F9D0164B8022D2015A60BB
:10100C00144B00229A6003E0124B802252001A60AB
:10101C00104B9B6838221340F6D10E4B80225200A5
:10102C001A6003E00B4B80225201DA60094B1A68FC
:10103C0080239B041340F5D1064B00229A61054B8B
:10104C00012252421A62044B044A1A60C046BD4641
:10105C0080BDC04600100240000000200024F400B7
:10106C0080B582B000AF0200FB1D1A700C4B1B68E0
:10107C00002B08D00A4B1B68591C094A1160FA1D39
:10108C0012781A7009E0074B1B68002B05D0054B32
:10109C001B68FA1D127810009847BD4602B080BD3F
:1010AC007C0400207804002080B582B000AF78600A
:1010BC0006E07B685A1C7A601B781800FFF7D0FF9B
:1010CC007B681B78002BF4D1C046C046BD4602B0ED
:1010DC0080BD000090B58FB000AF786039607B6840
:1010EC005A1C7A601F217A181B7813700A00BB18DF
:1010FC001B78002B00D164E1BB181B78252B05D085
:10110C00BB181B781800FFF7ABFF59E100237B627B
:10111C007B685A1C7A601F217A181B7813707B1815
:10112C001B78302B08D101237B627B685A1C7A60B8
:10113C007A181B7813700CE01F217B181B782D2B51
:10114C0007D102237B627B685A1C7A607A181B7861
:10115C0013700023BB6211E0BA6A13009B009B184A
:10116C005B001A001F217B181B78D318303BBB6225
:10117C007B685A1C7A607A181B7813701F22BB1874
:10118C001B782F2B03D9BB181B78392BE4D91F22C2
:10119C00BB181B786C2B03D0BB181B784C2B0AD1BB
:1011AC007B6A042213437B627B685A1C7A601F2281
:1011BC00BA181B7813701F22BB181B78002B00D198
:1011CC0001E11E217B18BA1812781A707B181B7853
:1011DC00602B04D97B187A181278203A1A701E23C7
:1011EC00FB181B78423B162B47D89A00784BD31828
:1011FC001B689F463B681A1D3A601B68BB61002345
:10120C00FB6202E0FB6A0133FB62BA69FB6AD3182A
:10121C001B78002BF6D102E02020FFF721FF7B6A20
:10122C000222134005D1FB6A5A1CFA62BA6A9A422E
:10123C00F2D8BB691800FFF737FF02E02020FFF758
:10124C000FFFFB6A5A1CFA62BA6A9A42F6D8B7E0E8
:10125C003B681A1D3A601B68DBB21800FFF700FFF1
:10126C00AEE002237B630FE008237B630CE00A23D0
:10127C007B6309E010237B6306E01F23FB181B78BC
:10128C001800FFF7EDFE9BE07B6A0422134004D0AC
:10129C003B681A1D3A601B680DE01E23FB181B7877
:1012AC00442B04D13B681A1D3A601B6803E03B6871
:1012BC001A1D3A601B683B621E23FB181B78442BDB
:1012CC0009D13B6A002B06DA3B6A5B423B627B6AC4
:1012DC00082213437B6200233B633B6A796B180043
:1012EC00FEF790FF0B001A001E243B191A70796B45
:1012FC00386AFEF701FF03003B623B191B78092B90
:10130C000DD91F23FB181B78782B01D1272300E064
:10131C0007231E217A18791809785B1813703B6B18
:10132C005A1C3A631E22BA1812783032D1B20822F3
:10133C00BA18D1543B6A002B02D03B6B0F2BCCD983
:10134C007B6A0822134006D03B6B5A1C3A63082276
:10135C00BA182D21D1543B6BFB627B6A01221340DE
:10136C0001D0302200E020221E23FB181A7005E069
:10137C001E23FB181B781800FFF772FE7B6A0222F3
:10138C00134005D1FB6A5A1CFA62BA6A9A42EFD82A
:10139C003B6B013B3B630823FA183B6BD3181B7860
:1013AC001800FFF75DFE3B6B002BF1D102E0202013
:1013BC00FFF756FEFB6A5A1CFA62BA6A9A42F6D8D2
:1013CC008DE6C04600E0C046C046BD460FB090BD9D
:1013DC00C01B00080FB480B582B000AF1423FB18FB
:1013EC007B607A683B6911001800FFF773FEC046FA
:1013FC00BD4602B080BC08BC04B0184780B582B0B2
:10140C0000AF7860396008E07B681800FFF77EF960
:10141C000300012B01D1002306E03B685A1E3A6001
:10142C00002BF1D101235B421800BD4602B080BDF8
:10143C0090B587B000AFF860B9607A60BB680022E5
:10144C001A607A681323FB1811001800FFF7D6FFF7
:10145C00031E02D001235B4276E01323FB181B789A
:10146C00612B31D032DC412B2ED02FDC182B15D038
:10147C002CDC042B10D029DC012B02D0022B05D044
:10148C0024E01423FB1880221A8022E01423FB187A
:10149C008022D2001A801CE0002355E07A681324C5
:1014AC003B1911001800FFF7A9FF031E09D13B19C6
:1014BC001B78182B05D1BB68012252421A600023FD
:1014CC0042E001235B423FE001233DE001235B420C
:1014DC003AE01323FB181A78FB681A701623FB18D2
:1014EC0001221A8014E01623FB181B88FA68D31803
:1014FC007A6811001800FFF781FF031E02D0012348
:10150C005B4221E016217B181A887B1801321A8065
:10151C001423FB181B881A1D1623FB181B889A42D0
:10152C00E1DAFB6801331A78FB6802331B78DB4382
:10153C00DBB29A4202D001235B4205E01423FB1874
:10154C001A88BB681A6000231800BD4607B090BD0E
:10155C00B0B5DE4CA54400AF78600023FB60DC4BDB
:10156C00DC4AB9180B60BB181B68DB4ABA1813604D
:10157C00FEF79EFF00238822D200BA1813600023C6
:10158C00D64ABA18136000238622D200BA18136008
:10159C0000238722D200BA1813600023D04ABA184D
:1015AC00136080235A031023F918CE4B1800FFF751
:1015BC003FFF031E03D0012B00D15BE163E100234D
:1015CC00C64ABA1813603B695A1C02D0002B05D0CE
:1015DC000CE00620FFF78AF80023A5E10620FFF7B0
:1015EC0085F80123BE4ABA18136042E1BD4B5B7803
:1015FC0019008723DB00FB181B68FF22134099425C
:10160C0003D01520FFF772F85AE18723DB00FB1893
:10161C001B68002B00D0C2E0B24BDB78002B00D152
:10162C00B0E000238922D200BA181360AE4BAF4A47
:10163C00BA1813600FE0AD497B181A68531C79185F
:10164C000B608920C0003B181B68591C38180160BE
:10165C001178A74AD154A54BFB181B681B78002B9B
:10166C0005D08923DB00FB181B68FF2BE3DD8920E9
:10167C00C0003B181B685A1C39180A609C4A002190
:10168C00D15400233A181360984ABB181B680133D5
:10169C00BA18136010E095497B181A68531C791816
:1016AC000B608920C0003B181B68591C381801605E
:1016BC001178904ABA18D1548C4BFB181B681B78C4
:1016CC00202B05D08923DB00FB181B680F2BE2DDD8
:1016DC008921C9007B181B685A1C79180A60854837
:1016EC003A180021D1540C23FA183B181100180099
:1016FC00FFF74EFA804B1B689A02FE235B021340E5
:10170C00013BFA68934208D21820FEF7EFFF18202D
:10171C00FEF7ECFF01235B4206E1FB681800FEF7C5
:10172C0077FD03001A00754B1A60FEF7C1FE744B6F
:10173C0000221A6015E0734B1B881A00704B1B6853
:10174C005A43654BFB181B68D3181800FEF712FFA1
:10175C0003001A006C4B1A70694B1B685A1C684BBF
:10176C001A60674B1A68654B1B689A4203D2664B2A
:10177C001B78042BDFD00620FEF7B8FF4320FEF7C2
:10178C00B5FF69E00620FEF7B1FF0123544ABA18F1
:10179C00136001238822D200BA18136069E03B69F8
:1017AC001A00514914243B19180000F011F97A68F9
:1017BC00564B1A603B198522D200BA1813600023CD
:1017CC00534ABA18136033E08524E4003B191B68B4
:1017DC001A685B68404D791909680800FEF71EFF0E
:1017EC007B191B68186859683B191B681A685B6879
:1017FC00904201D1994208D01820FEF777FF1820AB
:10180C00FEF774FF02235B428EE0334ABB181B6861
:10181C000833BA1813608522D200BB181B68083332
:10182C00BA1813603A4ABB181B680833BA1813600D
:10183C003B69374ABA1812689A420ADAFB681A00EE
:10184C00244BFB181B68D318234ABA1812689A4207
:10185C00BAD30620FEF74AFF8722D200BB181B68BA
:10186C000133BA18136001238622D200BA18136010
:10187C0026E025E01820FEF739FF1820FEF736FF8A
:10188C0003235B4250E08623DB00FB181B68002B14
:10189C0005DD124ABB181B680133BA1813600F4BD5
:1018AC00FB181B68052B07DD1820FEF71FFF1820FF
:1018BC00FEF71CFF002337E04320FEF717FFC0465E
:1018CC00074BFB181B68002B24D16AE6B0FBFFFF0B
:1018DC0000280008240400002C040000340400003C
:1018EC003C0400008C0500208F0500204C040000F7
:1018FC008004002014040000E075FF1F8405002004
:10190C00800500200400002006000020880500202F
:10191C0044040000C0468823DB00FB181B68002B26
:10192C0000D135E6C046FB681800BD468A23DB00B3
:10193C009D44B0BD0D48854600E000BF0C480D49E4
:10194C000D4A002302E0D458C4500433C4188C420E
:10195C00F9D30A4A0A4C002301E013600432A24274
:10196C00FBD300F011F8FEF7E1FFFEE700200020AA
:10197C000000002008000020241C000808000020A3
:10198C0094090020FEE7000070B500260C4D0D4CAC
:10199C00641BA410A64209D1002600F023F80A4DBE
:1019AC000A4C641BA410A64205D170BDB300EB58C1
:1019BC0098470136EEE7B300EB5898470136F2E74B
:1019CC001C1C00081C1C00081C1C0008201C000807
:1019DC00002310B59A4200D110BDCC5CC454013325
:1019EC00F8E70000F8B5C046F8BC08BC9E46704746
:0C19FC00F8B5C046F8BC08BC9E46704719
:101A08000D0A57616974696E6720666F7220746881
:101A1800652066696C6520746F2062652073656E49
:101A280074202E2E2E20287072657373202761274C
:101A380020746F2061626F7274290A0D0000000023
:101A48000A0A0D2050726F6772616D6D696E6720AA
:101A5800436F6D706C65746564205375636365735B
:101A68007366756C6C79210A0D2D2D2D2D2D2D2D5C
:101A78002D2D2D2D2D2D2D2D2D2D2D2D2D2D2D2D8E
:101A88002D2D2D2D2D2D2D2D2D0D0A000A0A0D542D
:101A9800686520696D6167652073697A6520697377
:101AA80020686967686572207468616E207468656B
:101AB80020616C6C6F776564207370616365206D5D
:101AC800656D6F7279210A0D000000000A0A0D5633
:101AD8006572696669636174696F6E206661696CB5
:101AE8006564210A0D0000000D0A0A41626F7274D4
:101AF800656420627920757365722E0A0D000000F6
:101B08000A0D4661696C656420746F2072656365AF
:101B1800697665207468652066696C65210A0D0020
:101B280054696D65206F75742C20626F6F74696ECF
:101B380067202E2E2E20000056455249465920492E
:101B48004D414745202E2E2E00000000535543439B
:101B58004553532121210D0A00000000424F4F54E4
:101B6800494E472E2E2E0D0A00000000494E5641C0
:101B78004C494420494D414745205349474E2C2064
:101B880052455455524E20424F4F54204C4F4144D9
:101B980045520D0A000000004641494C5552452C5B
:101BA8002052455455524E20424F4F54204C4F41DD
:101BB8004445520D0A0000006E1200085C1200082D
:101BC8007A12000886120008861200088612000899
:101BD800861200088612000886120008861200087D
:101BE800861200088612000886120008741200087F
:101BF80086120008861200088612000800120008E3
:101C0800861200087A120008861200088612000858
:041C1800801200082E
:041C1C00E5000008D7
:041C2000BD000008FB
:081C24000090D0030008040049
:040000050800194195
:00000001FF
