:020000040800F2
:1000000000200020E5620008755D00087B5D0008A7
:1000100000000000000000000000000000000000E0
:10002000000000000000000000000000815D0008EA
:1000300000000000000000008B5D0008955D0008D6
:100040003563000835630008356300083563000830
:100050003563000835630008356300083563000820
:1000600000000000B15D000835630008356300083A
:10007000356300083563000835630008C95D000872
:1000800035630008356300083563000835630008F0
:100090000000000035630008356300083563000880
:1000A000356300083563000835630008E15D00082A
:0C00B00035630008356300080000000004
:1000BC0010B5064C2378002B07D1054B002B02D032
:1000CC00044800E000BF0123237010BD7002002023
:1000DC0000000000C8DF0008044B10B5002B03D053
:1000EC000349044800E000BF10BDC04600000000FA
:1000FC0074020020C8DF000802780B78002A03D0B5
:10010C00013001319A42F7D0D01A70470023C25CFB
:10011C000133002AFBD1581E7047000002B471460F
:10012C0049084900095C49008E4402BC7047C0462E
:10013C0003B47146490840004900095E49008E44E9
:10014C0003BC7047002243088B4274D303098B42D3
:10015C005FD3030A8B4244D3030B8B4228D3030C8B
:10016C008B420DD3FF22090212BA030C8B4202D32D
:10017C001212090265D0030B8B4219D300E0090A55
:10018C00C30B8B4201D3CB03C01A5241830B8B425E
:10019C0001D38B03C01A5241430B8B4201D34B0347
:1001AC00C01A5241030B8B4201D30B03C01A5241AC
:1001BC00C30A8B4201D3CB02C01A5241830A8B4231
:1001CC0001D38B02C01A5241430A8B4201D34B021A
:1001DC00C01A5241030A8B4201D30B02C01A52417E
:1001EC00CDD2C3098B4201D3CB01C01A5241830932
:1001FC008B4201D38B01C01A524143098B4201D36C
:10020C004B01C01A524103098B4201D30B01C01A96
:10021C005241C3088B4201D3CB00C01A5241830810
:10022C008B4201D38B00C01A524143088B4201D33D
:10023C004B00C01A5241411A00D20146524110469D
:10024C007047FFE701B5002000F0F0F802BDC04692
:10025C000029F7D076E7704703460B437FD4002282
:10026C0043088B4274D303098B425FD3030A8B423E
:10027C0044D3030B8B4228D3030C8B420DD3FF22A8
:10028C00090212BA030C8B4202D31212090265D076
:10029C00030B8B4219D300E0090AC30B8B4201D329
:1002AC00CB03C01A5241830B8B4201D38B03C01A70
:1002BC005241430B8B4201D34B03C01A5241030BE7
:1002CC008B4201D30B03C01A5241C30A8B4201D398
:1002DC00CB02C01A5241830A8B4201D38B02C01A43
:1002EC005241430A8B4201D34B02C01A5241030ABA
:1002FC008B4201D30B02C01A5241CDD2C3098B429F
:10030C0001D3CB01C01A524183098B4201D38B011B
:10031C00C01A524143098B4201D34B01C01A5241BE
:10032C0003098B4201D30B01C01A5241C3088B4203
:10033C0001D3CB00C01A524183088B4201D38B00EE
:10034C00C01A524143088B4201D34B00C01A524190
:10035C00411A00D201465241104670475DE0CA0F67
:10036C0000D04942031000D34042534000229C4627
:10037C0003098B422DD3030A8B4212D3FC22890131
:10038C0012BA030A8B420CD3890192118B4208D307
:10039C00890192118B4204D389013AD0921100E069
:1003AC008909C3098B4201D3CB01C01A524183097D
:1003BC008B4201D38B01C01A524143098B4201D3AA
:1003CC004B01C01A524103098B4201D30B01C01AD5
:1003DC005241C3088B4201D3CB00C01A524183084F
:1003EC008B4201D38B00C01A5241D9D243088B42A5
:1003FC0001D34B00C01A5241411A00D20146634648
:10040C0052415B10104601D34042002B00D54942AB
:10041C00704763465B1000D3404201B5002000F0EA
:10042C0005F802BD0029F8D016E770477047C046A2
:10043C008446100062468C461900634600E0C046B4
:10044C001FB501F0E3FE002801D40021C8421FBDF6
:10045C0010B501F033FE4042013010BD10B501F073
:10046C00D5FE002801DB002010BD012010BDC046C8
:10047C0010B501F0CBFE002801DD002010BD0120DD
:10048C0010BDC04610B501F05BFE002801DC002059
:10049C0010BD012010BDC04610B501F051FE002862
:1004AC0001DA002010BD012010BDC04684460800B2
:1004BC006146FFE71FB500F05FFC002801D4002166
:1004CC00C8421FBD10B500F0EBFB4042013010BD1F
:1004DC0010B500F051FC002801DB002010BD0120FC
:1004EC0010BDC04610B500F047FC002801DD00200F
:1004FC0010BD012010BDC04610B500F0F7FB002860
:10050C0001DC002010BD012010BDC04610B500F06C
:10051C00EDFB002801DA002010BD012010BDC04603
:10052C00002B11D1002A0FD1002900D1002802D0B4
:10053C000021C943080007B4024802A140180290E8
:10054C0003BDC046E9FEFFFF03B4684601B502983F
:10055C0000F024F8019B9E4602B00CBC7047C046CC
:10056C0070B500220C4B04000D00FFF795FF00281E
:10057C0004D12000290002F0C9FC70BD064B0022FA
:10058C002000290002F012F902F0C0FC80231B06A7
:10059C009C466044F1E7C0460000E041F0B5574688
:1005AC004E464546DE46E0B504000D00924699469F
:1005BC0083B08B4230D82DD04946504602F020FEF5
:1005CC0029000600200002F01BFE331A9846203B3F
:1005DC009B4633D45A465346934042461F005346DB
:1005EC0093401E00AF423AD8AF4200D178E05B4650
:1005FC00A41BBD41002B00DA75E000220023009201
:10060C00019301235A4693400193012342469340A0
:10061C00009328E08242CFD900220023009201935C
:10062C000C9B002B01D01C605D600098019903B0FD
:10063C00F0BCBB46B246A946A046F0BD42462023BC
:10064C009B1A5246DA40414613004A468A4017002C
:10065C0042461F43534693401E00AF42C4D900226A
:10066C000023009201934346002BD9D0FB0772085C
:10067C001A4346467B080EE0AB4201D1A2420CD88D
:10068C00A41A9D41012024196D410021013E24181A
:10069C004D41002E06D0AB42EED9013E24196D41DE
:1006AC00002EF8D1009801995B4600196941002B86
:1006BC0024DB2B005A464446D3402A00E2401C005F
:1006CC005B461500002B2ADB26009E4033002600DB
:1006DC004746BE403200801A9941009001919FE735
:1006EC00A342BCD883E74246202300219B1A002258
:1006FC00009101920122DA40019286E742462023C2
:10070C009B1A2A0046469A402300F3404446134362
:10071C002A00E2401C005B461500002BD4DA42464E
:10072C002F002023260097409B1ADE403B003343CA
:10073C00CDE7C046F0B5C64643025B0A4E02450003
:10074C004F00DA00C40F9C46700A904600B52D0E7F
:10075C003F0EC90FB6098C424BD0EA1B002A36DD7E
:10076C00002F61D0FF2D00D1ADE08023DB041E43B0
:10077C001B2A00DCD3E001204346181A430100D4A5
:10078C008CE080018709380002F01CFD0538874099
:10079C00854200DCB6E02D1AB3483840430704D03C
:1007AC000F230340042B00D00430430100D478E025
:1007BC006A1CFE2D65D08001430A9C46D2B263466A
:1007CC00D0051843E407204380BCB846F0BD002A8E
:1007DC0035D07A1B002D00D0AFE04346002B00D162
:1007EC00A7E0531E012A00D12FE1FF2A69D01A007D
:1007FC00AAE0E91B002970DD002F37D0FF2D62D055
:10080C008023DB041E431B2900DCB0E001204044A4
:10081C00430143D50135FF2D33D00123934A0340C7
:10082C00400810401843B9E7002E00D183E0511E58
:10083C00012A00D1D8E0FF2A45D00A0098E7FE270C
:10084C006A1C174200D086E0002D00D0B7E043466A
:10085C00002B00D1F3E00022002EB0D0981B4301F6
:10086C0000D4FAE043460C00F01A97E7002E00D1B2
:10087C00C8E04A1E012900D1AEE0FF2923D01100A7
:10088C00C1E70023FF229C4699E7FE216A1C114216
:10089C0077D0FF2AF5D0150046447008430700D0E6
:1008AC007EE7C308FF2D0ED05B025B0A9C46EAB2C2
:1008BC0085E7002E07D08022D203134203D01042CA
:1008CC0001D10C000300002BDBD08020C0031843A7
:1008DC004002430A9C46FF2271E70029D5D07A1BBF
:1008EC00002D60D14346002B24D0531E012A73D017
:1008FC00FF2AE7D01A001B2A00DC85E001203D000E
:10090C00801985E720233A00451B38000135EA4061
:10091C005D1BA840431E9841002510433EE7202351
:10092C0030009B1A31009840D140431E9841084337
:10093C0022E70C0003001500B4E7FF2FC1D0802381
:10094C004046DB04184380461B2A51DD01200C0075
:10095C003D00301A12E743469F1B7B012BD4002F1E
:10096C0000D010E70023002400229C4627E7202318
:10097C0032003000CA40591A8840431E9841104337
:10098C0045E7002D4AD14346002B63D00022002EB0
:10099C0000D114E730004044430100D47EE7324BD1
:1009AC00013518407AE7FF2F8CD080234146DB04B9
:1009BC00194388469FE743460C00F71AE3E6424684
:1009CC00002A00D075E7002E00D07AE78023DB03E5
:1009DC0000249C46FF22F2E63000404401254301EE
:1009EC0000D45BE7022518E743460125981BC5E6B2
:1009FC00202344464046D4409A1A9040431E9841C6
:100A0C002043A4E70D004DE7202341464046D1404A
:100A1C009A1A9040431E9841084370E74246002AB8
:100A2C0000D14FE7002E00D14DE78022D2031342B4
:100A3C0000D148E7104200D045E7030043E7002E01
:100A4C0090D00C0084460022B9E643460C00F01A04
:100A5C00013593E684460022B1E6002800D01DE75C
:100A6C00002300249C46AAE6FFFFFFFBFFFFFF7D4F
:100A7C00F0B54F464646D6464502C0B547000C1C5D
:100A8C006D0A3F0EC60F002F00D170E0FF2F00D172
:100A9C0075E0EB008025ED041D43002399469A4632
:100AAC007F3F6002430A984663001B0EE40F002B45
:100ABC004ED0FF2B46D04246D0008022D2040243B7
:100ACC00904600227F3B3100FF1A4B466140C9B271
:100ADC0013430F2B00D9B5E06E489B00C3589F46BB
:100AEC00002398462600454692465346022B00D1D9
:100AFC0089E0032B00D19EE0012B18D03B007F3303
:100B0C00002B69DD6A0704D00F222A40042A00D08A
:100B1C0004352A0103D5604B1D403B008033FE2B6E
:100B2C0000DD70E0AD016D0AD8B202E00E000020CD
:100B3C000025C0052843F6073043E0BCBA46B14651
:100B4C00A846F0BD4346002B3FD10222FF3F03E0F5
:100B5C004346002B2DD1012231004B466140C9B2D6
:100B6C0013430F2B34D84D489B00C3589F46002D80
:100B7C0013D104239946033B00279A4691E7002D95
:100B8C0005D108239946063BFF279A4689E70C2393
:100B9C009946093BFF279A4683E7280002F012FB8F
:100BAC007627431F9D4000237F4299469A463F1A61
:100BBC0077E7404602F006FB4246431F9A407623F5
:100BCC005B4290461B1A00227DE7FF2303227AE743
:100BDC000E00FF200025ACE70120C01A1B28A6DC64
:100BEC009E372A00BD40C2406B1E9D4115436B07CA
:100BFC0004D00F232B40042B00D004356B0144D5BB
:100C0C000120002595E7FF20002592E7802500268E
:100C1C00FF20ED038DE7002398468020C00305429A
:100C2C0009D04346034206D1454605436D022600D2
:100C3C00FF206D0A7DE78020C00305436D02FF2075
:100C4C006D0A76E742466B015001834219D21B2292
:100C5C000025013F01261C006D005B00002C01DB10
:100C6C00984201D81B1A3543013A002AF3D15A1E77
:100C7C0093411D433B007F330E00002B00DD41E709
:100C8C00AAE71A2201251B1AE4E7AD0100206D0A20
:100C9C004FE7C04680E20008FFFFFFF7C0E2000804
:100CAC0070B5420045024E024C00C30F6D0A012084
:100CBC00120E760A240EC90FFF2A06D0FF2C03D081
:100CCC00A24201D1B54206D070BD002DFCD1FF2C43
:100CDC00FAD1002EF8D18B4206D00120002AF3D194
:100CEC002800431E9841EFE70020EDE770B5420065
:100CFC0045024E024C00C30F6D0A120E760A240EEA
:100D0C00C80FFF2A1BD0FF2C0ED0002A1BD1002CA1
:100D1C0001D1002E1CD0002D0CD083421CD00221FE
:100D2C00581E0840013870BD002E22D1002AF4D183
:100D3C00002DF2D10028F6D101204042F3E7002D1E
:100D4C0017D1FF2CF0D0002CE7D1002EE5D1E6E72F
:100D5C000020002DE7D0E2E7A24205DCEADBB54239
:100D6C0002D8E7D30020DEE7434258414000013867
:100D7C00D9E702204042D6E770B5420045024E0248
:100D8C004C00C30F6D0A120E760A240EC80FFF2AF0
:100D9C000BD0FF2C0DD0002A1FD1002C16D1002E09
:100DAC0014D10020002D10D009E0002D0CD1FF2C07
:100DBC0013D1002E08D1002A08D0834212D0022170
:100DCC00581E0840013800E0022070BD002DF4D1FF
:100DDC000028FAD101204042F7E7002CEDD1002E7B
:100DEC00EBD1ECE7A24205DCF2DBB54202D8EFD343
:100DFC000020EAE74342584140000138E5E7C0468D
:100E0C00F0B54F464646D64644024500C0B5640A86
:100E1C000F1C2D0EC60F002D00D18DE0FF2D00D123
:100E2C0092E00023802099469A46E400C0040443D3
:100E3C007F3D7802430A98467B001B0EFF0F002B68
:100E4C0000D170E0FF2B00D186E04246D00080221A
:100E5C007F3BED180023D204024390469C463100A0
:100E6C004B467940681C0F2B1CD8764A9B00D358F4
:100E7C009F4639004446E2465346022B0FD0032BC3
:100E8C0000D1D7E0012B37D100200024C00520432E
:100E9C00C9070843E0BCBA46B146A846F0BDFF20DE
:100EAC000024F3E7260C2404220C44462404240CCE
:100EBC00434627001B0C574374435A435E43121995
:100ECC003B0C9B189C4203D98022520294466644E8
:100EDC003F041A043F0CD2199401671EBC411B0C31
:100EEC00920E9B1914439B011C431B0100D49BE0E5
:100EFC00012362081C40144302007F32002A64DD87
:100F0C00630704D00F232340042B00D004342301A7
:100F1C0003D502004C4B80321C40FE2ABFDCA401DE
:100F2C00640AD0B2B2E74346002B3DD14A460133A6
:100F3C001A4391469C4692E7002C29D104239946EA
:100F4C00033B00259A4674E7002C1BD108239946D5
:100F5C00063BFF259A466CE74346FF35002B0BD129
:100F6C0002234A461A4391469C4678E75346310081
:100F7C00022B00D083E792E703234A461A4391469B
:100F8C009C466CE70C239946093BFF259A4650E793
:100F9C00200002F017F97625431F9C4000236D4278
:100FAC0099469A462D1A44E7404602F00BF9424600
:100FBC00431F9A4000232D1A90469C46763D4EE7DF
:100FCC0080240021FF20E40360E701239B1A1B2BE4
:100FDC0000DD59E722009E30DA4084401300621E87
:100FEC0094411C43630704D00F232340042B00D0EF
:100FFC00043463011AD50120002447E78020C00384
:10100C00044209D04346034206D1444604436402D9
:10101C003900FF20640A39E78020C00304436402CE
:10102C003100FF20640A31E7280065E7A4010020A5
:10103C00640A2BE78020C00304436402FF20640A87
:10104C0024E7C04600E30008FFFFFFF7F8B5CE46E3
:10105C00474643025B0A4E02DA009446720A9146F6
:10106C0045004A0080B52D0E1F00C40F120EC90F8B
:10107C00B609FF2A5BD0012041408C4239D0A81A16
:10108C0000285ADD002A6AD0FF2D00D1D9E0802239
:10109C00D20416431B2800DCE9E001206346181A31
:1010AC00430100D4B4E080018709380002F08AF8CB
:1010BC0005388740854200DCCCE02D1AB548384015
:1010CC00430704D00F230340042B00D0043043010A
:1010DC0000D4A0E06A1CFE2D00D18DE08001470AEF
:1010EC00D2B2D0053843E4072043C0BCB946B04661
:1010FC00F8BDA81A8046002845DD002A70D0FF2DC7
:10110C0000D19EE08023DB041E4343461B2B00DCF6
:10111C00D2E00120604443017AD50135FF2D6BD01C
:10112C0001239D4A0340400810401843C8E7002E95
:10113C0020D08C4223D02800FF38002839D0571BF0
:10114C00002D00D09DE06346002B00D1DBE07B1E20
:10115C00012F00D10DE1FF2F71D01F0098E0002E60
:10116C0000D1A7E0421E012800D1E6E0FF2868D09C
:10117C0010008FE701204140A14200D07FE7FF2003
:10118C0040428046A8444046002838D0511B002DD0
:10119C0000D1AEE0FF2A00D1DFE080236046DB0403
:1011AC00184384461B2900DCD9E001201500801966
:1011BC00B1E7FE206A1C104271D1002D00D0A6E0D0
:1011CC006346002B00D1D9E00022002E00D188E725
:1011DC00981B430100D4E1E063460C00F01A6FE762
:1011EC00002E00D1B7E00200013A012800D19CE0AA
:1011FC00FF2826D0904688E7FF22002771E7FE20C3
:10120C006A1C104264D0FF2AF6D0150066447008A0
:10121C00430700D056E7C308FF2D12D05B025F0ACC
:10122C00EAB25EE76246002A00D196E0002E08D0B2
:10123C008022D203134204D04846104201D10C0044
:10124C004B46002BD8D08027FF031F437F02FF2281
:10125C007F0A46E720233A00451B38000135EA4057
:10126C005D1BA840431E98410025104328E720230E
:10127C001B1A32009E40C2403000431E984110435E
:10128C000CE7FF2ADBD080236046DB04184384463E
:10129C001B2F56DD01200C001500301A00E76346A9
:1012AC009F1B7B013DD4002F00D0FEE600240022C2
:1012BC00002716E70500AFE7320043464146DA4007
:1012CC0020235B1A9E403000431E9841104321E7B7
:1012DC00002DA7D16346002B59D00022002E00D13F
:1012EC00FFE630006044430192D52A4B013518408B
:1012FC008EE76346002B47D04B1E012915D0FF29E2
:10130C002BD019004EE70C004B463D0084E762469B
:10131C00002A8BD1002E92D180270024FF22FF03BC
:10132C00DFE663460C00F71ABFE630006044012587
:10133C00430100D46CE70225F2E663460125981BB5
:10134C00AEE6202364466046FC40DF1BB840431EDB
:10135C00984120439FE705005EE74B4671E7202349
:10136C0065466046CD40591A8840431E9841284333
:10137C001CE763460C000125F01A91E6002E95D06F
:10138C000C004F460022ACE64B460D0044E74F469E
:10139C000022A6E6FFFFFFFBFFFFFF7D002800D029
:1013AC0036E7002400279CE643024A02400049002D
:1013BC005B0A520A090E000EFF2806D00020FF29F6
:1013CC0002D1531E9A4110007047FE38002BFBD1FE
:1013DC00F4E7C04670B5051E0ED001F0F3FE9E2357
:1013EC0004001B1A962B0CDC082801DD083CA540D8
:1013FC006D026D0AD8B201E000200025C00528431B
:10140C0070BD992B09DD020029001B3291404A1E48
:10141C0091410522121AD5400D43052C12DC2900EE
:10142C000C4E31406A0709D00F202840042805D003
:10143C0004314A0102D59F2331401B1B89014D0AFF
:10144C00D8B2DBE7621F95402900024E31406A0793
:10145C00F4D0E9E7FFFFFFFBF0B54F464646D64612
:10146C000D000400C0B51F0011002803620F400AD4
:10147C0010437A00520DE3003C039146640AFA0FC4
:10148C004F0F6E0027439246B846760DED0FC900FC
:10149C00954200D199E04C46341BA446002C00DC4C
:1014AC007CE04A46002A00D1B8E0C54A964200D1F9
:1014BC001CE180223C0012041443A0466246382AE8
:1014CC0000DD61E11F2A00DDCCE164462022121B05
:1014DC00444694400F00A14664469140E7404C4678
:1014EC004A1E91413C43424621436446E240801AE5
:1014FC005C1AA3429B415F42C71B3B0200D4D0E065
:10150C007F027F0A002F00D1FFE0380001F05AFE65
:10151C0001000839202322005B1A8F40DA408C40EE
:10152C001743B14200DAFFE0891B4B1C1F2B00DD77
:10153C00A8E020223900D21A200094409140D840D3
:10154C00621E9441DF40002601430C43630709D01F
:10155C000F232340042B05D0231DA342A441644236
:10156C003F191C003B0200D49EE0954B01369E4275
:10157C0000D1B7E0934AE40817407B0771057F025E
:10158C0023433F0B4A0D12053A43ED072A4318003B
:10159C001100E0BCBA46B146A846F0BD002C4BD0B9
:1015AC004C46A41BA446002E00D023E104001C438F
:1015BC0000D1AFE16246541E012A00D115E2804DE4
:1015CC00AC4500D1C8E1A4461BE14A46B21A944688
:1015DC00002A00DCACE04A46002A43D0784A964206
:1015EC0000D1AFE180223C0012041443A0466246B5
:1015FC00382A67DC1F2A00DC5FE14746203AD740D7
:10160C006246202A05D064464022121B4446944070
:10161C0021434A1E91410C003C4357E03A000A43D7
:10162C0000D105E12200013A012C00D182E1644C89
:10163C00A4455BD0944641E7634C771C274200D00D
:10164C00C4E004001C43002E00D069E1002C00D142
:10165C00BFE144460C4300D0D0E14207DB08134302
:10166C00C00829E03A000A4300D170E162466446A2
:10167C00013A012C00D1E0E0514CA44500D161E1CC
:10168C009446B4E73A001F39CA401100202B03D00E
:10169C004022D31A9F403C43631E9C4100270026E6
:1016AC000C43630700D053E7B446E4087B0723439D
:1016BC00F808434A94451DD06246070352053F0B78
:1016CC00520D60E744460C43621E9441E4189C4260
:1016DC009B415F423F183B02E3D5394B01369E429A
:1016EC0000D0B5E03200002700234CE74207DB08AE
:1016FC001343C0081A00024300D1E1E180273F03E5
:10170C0007433F032E4A3F0B3DE7200001F05AFDF3
:10171C00010018311F2900DCFCE608388440270042
:10172C000024B14200DBFFE6264A761A17400DE78B
:10173C00002A2FD04A46921B9446002E00D1ADE0D1
:10174C001F4A914500D10FE18022120410436246DA
:10175C00382A00DD0FE11F2A00DD80E164462022DB
:10176C001E00121B6746040093409440FE405A1E14
:10177C009341F84034431C43804464188C42BF416D
:10178C007F424E464744A6E742460A4311004A1E92
:10179C009141ADE60C4C721C224200D0A1E002003B
:1017AC001A43002E00D0FAE0002A00D145E13A009D
:1017BC000A4300D046E14207DB081343C0087BE72D
:1017CC00FF070000FFFF7FFFFE07000047465C1A83
:1017DC00C21BA342BF417F42B94617004A46BF1AFB
:1017EC003A0200D58DE023003B4300D08AE600206E
:1017FC00002561E7B44CA14500D1ADE08024240460
:10180C0020436446382C3DDC62461F2C00DDB7E0DB
:10181C0020251E002D1B0400AB40AC40D640D04010
:10182C0042465D1EAB413443121A904623432CE0D2
:10183C004207DB081343C0083BE75C189C429B4102
:10184C0040445B42C71801263B0200D429E702261C
:10185C009E4A63081740012214401C43FB071C439B
:10186C007F0873E64446203AD4406246202A05D0CD
:10187C0067464022D21B4746974039434A1E914146
:10188C00214335E60343581E8341CC1AA142BF4184
:10189C0043467F4255464E46DF1B2EE602001A4356
:1018AC0000D1BDE062466446013A012C00D1E5E06E
:1018BC00854CA44558D0944649E764462022121B17
:1018CC00444694400F00A14664469140E7404C4684
:1018DC004A1E91413C4342460C436146CA40801823
:1018EC00F4E6794CA24200D1FDE6591899429B418D
:1018FC0040445F42C719FC07490816000C437F0897
:10190C00CFE6CC1AA142BF4143467F42181A554636
:10191C00C71BF7E5C9087B0755460B43F808C8E613
:10192C00002C00D081E043460B4315D180200025CC
:10193C000003E3E65C1AA3429B41C71B5B420126F2
:10194C00FF1ADAE54207DB081343C008D2E6420768
:10195C00DB081343C008ACE643464246C9085B07A4
:10196C0055460B43D008C5E6434642465B07C908BB
:10197C000B43D008BEE603431C00631E9C41FCE6EF
:10198C000200203CE24014006246202A03D040258D
:10199C00AD1AA8400343581E8341234375E7002A20
:1019AC00E2D03A000A43CDD04207DB081343802231
:1019BC00C0081203104206D0FC08144203D12000C8
:1019CC00CB087A0713435A0FDB005207DB0813438B
:1019DC0090E643460B4300D109E743464246C9080B
:1019EC005B0755460B43D00866E6CC1AA1428941E9
:1019FC003F1A4942554601267F1A7EE542465C1A3B
:101A0C00871AA34292415242BF1A3A023DD5CC1AD0
:101A1C00A1428941434649421F1A55467F1A95E512
:101A2C007B07C9080B43F80843E64446DB080C4324
:101A3C0030D142071343C0085CE67B07C9080B434F
:101A4C00F80839E65C189C429B4140445B42C7183D
:101A5C003B0200D425E61D4B01261F4021E6040065
:101A6C00203AD4406246202A04D040226646921B7B
:101A7C00904003435A1E93411C437EE65C188C42F3
:101A8C008941404449424718DDE623003B4300D1DD
:101A9C00ADE606E6440723438024C0082403204215
:101AAC0008D04246D608264204D155463000CB0811
:101ABC0051070B435A0FDB00DB085207134319E69F
:101ACC000023014A1F005EE5FF070000FFFF7FFFB8
:101ADC00F0B557464E464546DE46E0B58146050014
:101AEC000C03480092461F0085B0240B400DCE0F0E
:101AFC00002800D156E1D44B984200D172E16B0F13
:101B0C00E4001C4380231B0423439846CF4BED0079
:101B1C009B4600239946834400933C037B0050462C
:101B2C00240B5B0DFF0F002B00D11FE1C64A934223
:101B3C0000D162E1C549420F8C46E400594614437A
:101B4C00802263441204CB1A14439B46C20000202B
:101B5C0033007B409A464B460F2B27D8BC499B0041
:101B6C00CB589F46B246009B022B16D0032B00D1BC
:101B7C008EE2012B00D0D9E0002300240025524630
:101B8C001B052343D20713432800190005B0F0BCF2
:101B9C00BB46B246A946A046F0BD00240025AA4B80
:101BAC00EDE7BA46A04615000090DCE7444500D2AC
:101BBC00C7E100D1C2E101235B429C462E004046A6
:101BCC000025E3442302140E1C431B0C99462304EA
:101BDC001F0C1202494600920197FEF739FB0200D6
:101BEC007A430B04310C804619438A4207D90123EE
:101BFC005B429C460919E0448C4200D807E2881AE3
:101C0C004946FEF725FB09048C4631046646019AC9
:101C1C00090C4243030031438A4204D90919013BA0
:101C2C008C4200D8EDE1881A424612041A439046C1
:101C3C004146009B0E041B0C1F000293009B360CAC
:101C4C001B04190C0B007343120C7E43039151437C
:101C5C007A431F0CBC4676186644B14203D98021E6
:101C6C0049028C466244310C8A1831041E04360C2D
:101C7C008E19904202D312D1B54210D24346591E4E
:101C8C00009B9C4665441F009D429B415B421B1977
:101C9C00C018844200D2A0E100D19BE18846AE1B63
:101CAC00B542AD41801A6D42401B844200D1D5E152
:101CBC004946FEF7CDFA019A0B044243310C05005C
:101CCC0019438A4200D96CE1881A4946FEF7C0FADA
:101CDC00019A360442430904360C03000E43B24207
:101CEC0000D953E10398B61A02002D041D43029F3C
:101CFC002B041B0C5A437B439C46290C4843130C66
:101D0C00844463447943984203D98020400284463A
:101D1C006144180C12041B04120C41189B188E42BF
:101D2C0000D2FFE000D1FAE001231D43494A5A4496
:101D3C00002A00DCAAE06B0700D03DE1ED08434629
:101D4C00DB0106D54246444B1A4090468022D20015
:101D5C005A44424B9A4200DD1FE743465B071D4342
:101D6C00434652055C02240B530D08E752462243AE
:101D7C0000D17BE0002C00D1FAE0200001F022FA27
:101D8C0002000B3A1D2301009B1A52460839DA4017
:101D9C008C40144352468A40314B58449B468344F2
:101DAC000020D5E64B462343984644D0002C00D166
:101DBC00CEE0200001F006FA010002000B391D23D1
:101DCC005B1A49461000D940083884400B004D4638
:101DDC002343984685402348831A9B460023994603
:101DEC0000939AE64B46234398461DD10823994607
:101DFC00063B0025834600938FE65246224309D1C9
:101E0C00022349461943184B89469C46002402205C
:101E1C00E3449DE603234A461A43134B91469C46E2
:101E2C0052460320E34493E60C239946093BA04613
:101E3C008346009371E60423994600239B460133A5
:101E4C000025009369E6C046FF07000001FCFFFF78
:101E5C0040E30008FF030000FFFFFFFEFE07000049
:101E6C00F30300000DFCFFFF01F8FFFF49460123BF
:101E7C0019438946002401206AE6002380249A46EF
:101E8C0000258A4B24037AE601256D4201239B1A17
:101E9C00382B00DD70E61F2B00DCBFE01F21494210
:101EAC008A1A4146D1400A00202B04D04146804B6F
:101EBC005B4499400D436B1E9D4107232A431D0033
:101ECC0000241540134200D1D4E00F21002311400F
:101EDC00042900D1CBE0111D9142924152429B1832
:101EEC000A00190200D4C2E001230024002546E6B2
:101EFC00802341461B03194208D01C4206D11C43C7
:101F0C002403BA461500694B240B38E6802443465B
:101F1C0024031C432403B246644B240B2FE6002BF2
:101F2C0000D103E7A619681EA64200D28DE08E42AE
:101F3C0000D2A3E000D1B3E00500F5E6AA4200D937
:101F4C0039E64346DE0758086B081E43ED0739E6B1
:101F5C00484601F037F901000200153120321C29E6
:101F6C0000DC2CE74B46083883400025984632E7C6
:101F7C0001F028F903001A00153220301C2A00DC6D
:101F8C0000E75446083B00229C4005E73619013B0C
:101F9C00B44200D9A6E6B24200D8A3E6831E361995
:101FAC00A0E60919013D8C4200D98DE68A4200D881
:101FBC008AE6851E091987E60F232B40042B00D1D6
:101FCC00BCE605235B42AB429B4104355B42ED080A
:101FDC009844B4E6AF4200D960E6824204D800D0FF
:101FEC005CE6AE4200D859E602235B429C46009B5D
:101FFC00E0449C4665449D429B415B421B19C018C2
:10200C004DE68A4200D80EE6831E09190BE68A4279
:10201C0000D8F4E5831E98460919F0E525492800F7
:10202C0059448D4042468A40691E8D414146D840F4
:10203C00D94002432A430B00510700D151E70F212D
:10204C001140042900D046E74BE705008E4200D032
:10205C006AE6009A934200D066E667E6164A5A444E
:10206C00002A00DC10E701230025984467E65D0791
:10207C005B021C0BD2080023154380E50098023D3F
:10208C0042008242BF417F423C1936190092DDE783
:10209C008024434624031C432403044B240B6EE589
:1020AC00009A9A42EAD30500D3E7C046FF07000026
:1020BC003E0400001E040000FF030000F0B54E4675
:1020CC004546DE4657469046E0B517001A03120BFC
:1020DC000500844619480E034C0091465A00DB0F4C
:1020EC009B46360B640DC90F520D844219D08242A7
:1020FC0010D0012094420ED14E450CD10120C44584
:10210C0009D1594517D0002C05D130002843431E66
:10211C00984100E00120F0BCBB46B246A946A0465F
:10212C00F0BD330001202B43F5D1A242F3D14B4635
:10213C003B43F0D1E2E70020EDE7C046FF0700008B
:10214C00F0B54746CE460400180016001B031B0BC7
:10215C002D4D4A00994680B543000F03A446B04666
:10216C003F0B520DC90F5B0DC00FAA4221D0AB42E1
:10217C0013D0002A22D13C43002B02D14D462E43D2
:10218C0022D0002C10D0814222D0022001390840EC
:10219C000138C0BCB946B046F0BD4D462E4329D1DE
:1021AC00002AF0D13C43EED10028F2D1012040426C
:1021BC00EFE73D0025431DD19342EED0002BE2D139
:1021CC004C462643DFD1E0E70020002CE1D0DCE7D1
:1021DC009A420ADCE8DB4F45D7D80ED000204F4599
:1021EC00D7D20029E2D00800D3E74342584140003F
:1021FC000138CEE702204042CBE7C445C5D80020C9
:10220C00C445C6D2EDE7C046FF070000F0B547460F
:10221C00CE460400180016001B031B0B2C4D4A0065
:10222C00994680B543000F03A446B0463F0B520DB0
:10223C00C90F5B0DC00FAA420DD0AB4210D0002AC3
:10224C0027D13C43002B11D14D462E430ED10020FB
:10225C00002C15D00EE03D00254310D1934218D12F
:10226C004D462E430BD1002A02D13C43002C0BD0FF
:10227C00814214D0022001390840013800E00220CC
:10228C00C0BCB946B046F0BD0028F9D1012040428F
:10229C00F6E7002BECD14C462643E9D1EAE79A420B
:1022AC0004DD4342584140000138E9E79A42EBDB38
:1022BC004F45DFD806D000204F45E1D20029E5D0AC
:1022CC000800DDE7C445D5D80020C445D8D2F5E7D1
:1022DC00FF070000F0B557464E464546DE46E0B5D2
:1022EC0098460C034B000600924687B0240B5B0DFE
:1022FC00CF0F002B00D15CE1D94A934200D175E19C
:10230C00420FE4001443802212041443D54AC50042
:10231C00944663440093002399469B4643464246A9
:10232C001E03D20F5B0050469046360B5B0D00D15E
:10233C0020E1CB4A934200D162E1CA49420F8C465C
:10234C0000996344F6008C46164380229C44120488
:10235C0063461643C20000200093009943460131A6
:10236C008C4649467B4001930F2926D8BE4B8900E9
:10237C0059588F46434601933400150083465B46FB
:10238C00022B16D0032B00D103E2012B00D0CDE0A1
:10239C00002200240025019B12052243DB071A436F
:1023AC002800110007B0F0BCBB46B246A946A046B7
:1023BC00F0BD00240025AA4AEDE7280C2D042D0CB5
:1023CC002B00110C1204120C5343984613002F00CF
:1023DC00434399464F434F44BB4647460B003F0C83
:1023EC00BA464343DA440293D14504D980277F028D
:1023FC00B9464B44029353461B0C9B4653461F0451
:10240C0043461B041B0C98463B0043440493330C7B
:10241C003604360C984633004343994643464343AF
:10242C002F009A46434677435D43380C4D4445197B
:10243C00A94503D980235B029946CA443F04280C62
:10244C003F0C2D04ED19270C2404240C0300200050
:10245C0050437A4391463A0053440593030C9A46F1
:10246C004A43614349445144AB44894503D98023D1
:10247C005B0299464A4400040B0C000C0904091831
:10248C0020009946434670435C437E435F43030CF4
:10249C009846A41944444A440397A64204D980237D
:1024AC005B029846474403972304029E9A46059B79
:1024BC005E449846AE42AD4176188E428941000486
:1024CC00000C504440446D424719B846934649426B
:1024DC008946C344D94498428041A845AD419345AF
:1024EC009241894589416D4240422843240C524215
:1024FC0049420A43039B00198018C7184B46DC0D50
:10250C00049B75021D436A1E95414B46F60D7F02D6
:10251C0035435A023C431543FB0100D41CE1012115
:10252C006A080D401543E207154364084F4961449E
:10253C00002900DCB0E06B0709D00F222A40042AE6
:10254C0005D02A1DAA42AD416D4264191500E30164
:10255C0004D58021464AC90014406144454A914241
:10256C0000DD26E76207ED08640249051543240BDC
:10257C004A0D10E75246324300D17FE0002E00D1C5
:10258C00DCE0300000F01EFE02000B3A1D230100BF
:10259C009B1A52460839DA408E40164352468A40FE
:1025AC00009B3549181A03008C46634400200093A5
:1025BC00D3E6250005434AD0002C00D1B0E0200022
:1025CC0000F000FE010002000B391D2310005B1A05
:1025DC003100350008388440D94085400C432648EA
:1025EC00831A0093002399469B4697E605002543E2
:1025FC0026D1082200930223002491469B468DE6A7
:10260C005246009B324310D1154900268C46634438
:10261C004946009302231943894602209DE65B46F6
:10262C000197022B00D0ADE6C3E60D4A0320944679
:10263C0063444A46009303231A43914652468CE660
:10264C000C2200930323050091469B4666E6042367
:10265C00994600230093013300249B465EE6C04656
:10266C00FF07000001FCFFFF80E30008FF030000F0
:10267C00FFFFFFFEFE0700000DFCFFFF4946012394
:10268C00194389460026012067E600238024002593
:10269C00434A019324037EE60120401A382800DDCA
:1026AC0076E61F285BDD1F2223005242511ACB40D5
:1026BC001900202803D03B4A6244944025436A1EEB
:1026CC0095412A000A4307210D00002415401142B0
:1026DC005BD00F2100241140042953D0111D9142CD
:1026EC0092415242A4180A0023024BD50122002425
:1026FC00002550E680231B031C4209D01E4207D143
:10270C0033431C0343461500240B254A019342E630
:10271C008022120314432403214A240B01973AE626
:10272C0000F050FD01000200153120321C2900DCA4
:10273C004BE7340008380025844050E700F042FD98
:10274C0003001A00153220301C2A00DC1EE7564606
:10275C00083B00229E4023E7009B9C46E6E612497C
:10276C00220061442E008D408A40C640691E8D4176
:10277C0032432A43C4405307B6D00F2111400429D9
:10278C00ACD1B1E765076402240BD20815430022D3
:10279C0001E68022120314432403014A240BFAE5B8
:1027AC00FF0700003E0400001E040000F8B5574669
:1027BC004E464546DE46E0B51E0017004A000B03A8
:1027CC00520D5B0A9046420F1A43CD0FCD4C31038C
:1027DC00C300944670007A0F490AFF009A46B94626
:1027EC00400DF60F1143A04200D1B1E0012256403A
:1027FC00B346B54200D188E04246121A002A00DCEA
:10280C00AEE0002800D1C1E0BE48804500D151E1C6
:10281C00802000040143382A00DD7BE11F2A00DD03
:10282C00EEE120203E00801A0C00D640D1408740BB
:10283C0062468440521A781E87419446344327439B
:10284C00DC1BA3429B4162465B42D31A99464B4622
:10285C001B0200D418E14B465802430A99464B46DA
:10286C00002B00D137E1484600F0ACFC01000839E0
:10287C002023220048465B1ADA4088408C404346AD
:10288C001043884500DD36E1C91A4B1C1F2B00DDB7
:10289C00EAE020222600D21A01009440DE40D84003
:1028AC0000239140621E94418146984631430C436B
:1028BC00630709D00F232340042B05D0231DA3420B
:1028CC00A4416442A1441C004B461B0200D4DEE030
:1028DC0041468C4B0131994200D1E7E04B468A4886
:1028EC00E4080340180049055B07400223434A0DE6
:1028FC00040B1205ED0722432A4318001100F0BC0B
:10290C00BB46B246A946A046F8BD4246121A002A5A
:10291C0052DD002800D19CE0A04500D1CAE0802007
:10292C0000040143382A00DD49E11F2A00DC97E14D
:10293C0010000E002038C640202A04D04020821AF5
:10294C0091400F43B9464C46621E944134433AE1E0
:10295C000A003A4328D0B346B5422BD06B4A4244C6
:10296C00002A5DD042464446821A002C00D0F5E085
:10297C0065461D4300D19CE1551E012A00D1FBE1A7
:10298C00604CA24200D1BDE12A00F0E008003843BF
:10299C0000D1C3E0501E012A00D1A8E1594CA2423B
:1029AC0000D187E0020036E701225640B346B5421B
:1029BC0000D021E7554A4244002A00D1B5E04246F6
:1029CC004446821A002C00D138E14E4EB04200D160
:1029DC00DEE18026644636043443A446382A00DD02
:1029EC0096E11F2A00DD24E22026B41AA246644692
:1029FC005646B440A1461C004E46D44026433400F3
:102A0C005646B3405E1EB3411C436346D340C918BF
:102A1C00E419BC42BF417F42B94680468944D8E0A4
:102A2C0040463B4C0130204200D0B4E040460028E8
:102A3C0000D044E16046184300D190E108003843CF
:102A4C0000D0AAE16146DB0849070B436146CC087C
:102A5C0027E00800384361D0501E012A00D139E12B
:102A6C00A24227D002005DE702001F39CA401100C4
:102A7C00202B03D04022D31A98400443631E9C4160
:102A8C000023994698460C43630700D012E74B4647
:102A9C004A46E4085B072343D408424619498A4254
:102AAC000ED024035205240B520D22E70A000024F9
:102ABC0000231EE7DB086246520713436246D40824
:102ACC001A00224300D1FCE1802212031443240398
:102ADC000C4A240B0DE7200000F074FB01001831A8
:102AEC001F2900DCC4E6083884404346200000243B
:102AFC00884500DCC8E6044A5B1A104098468146BB
:102B0C00D6E6C046FF070000FFFF7FFF01F8FFFF7E
:102B1C00FE0700000F437A1E974191E66146DB08E1
:102B2C0049070B436146CC08B8E74046D34C01300B
:102B3C00204200D0A2E04046002800D001E16046CF
:102B4C00184300D15EE10800384300D05FE16146D4
:102B5C00DB0849070B436146CC08A2E7C84DA842E5
:102B6C0000D1CFE0802564462D042C43A446382A9E
:102B7C0056DC1F2A00DDD1E020251E00AD1A64466C
:102B8C00AB40AC40D6405D1EAB413443234364465E
:102B9C00D440091B49E06046DC1B461AA342804125
:102BAC004042814630004E46801B8146000276D45E
:102BBC004B46234300D052E60024002571E73943ED
:102BCC000C00621E9441E4189C429B415B4263449E
:102BDC0099464B461B0200D456E701239C46A84B52
:102BEC00E044984538D04B46A648012203401800D3
:102BFC00630814401C43C3071C434308994657E61B
:102C0C0010000E002038C640202A04D04020821A22
:102C1C0091400F43B9464F467A1E974137430FE612
:102C2C0062461A4313005A1E9341FC1AA742BF4135
:102C3C007F42CB1B99465D46804608E666461E439E
:102C4C0000D1BEE0561E012A00D109E18C4CA242F3
:102C5C0000D119E13200C1E642460024002348E6C7
:102C6C0020200C00801A3E0087408440D640781EFD
:102C7C008741D14034433C438C44A4E7804A904282
:102C8C0000D1E9E0DF199F429B4161445B42C918C6
:102C9C00CC077F084B08994680463C43F4E6FC1A67
:102CAC00A742BF4163467F42C91ACB1B99465D467A
:102CBC00D5E5FF084B075D463B43CC08EEE6624684
:102CCC001A4300D082E00B003B431BD1802400252B
:102CDC002403F9E6DC199C429B41614489465B4222
:102CEC0099444B461B0244D401239846CCE6DC1B8A
:102CFC006246A3429B41511A5B42CB1A994601236F
:102D0C009846A4E5FF084B075D463B43CC08D7E645
:102D1C0062461A431400631E9C4179E61500644612
:102D2C00203DEC40A046202A05D040256446AA1A36
:102D3C00944023439A465446631E9C414346234386
:102D4C0073E762461A4323D00A003A4300D0A0E04E
:102D5C006246DB08520713436246D408B0E60B0008
:102D6C003B4300D128E7FF084B075D463B43CC08AB
:102D7C0097E60223984636E7FC1AA742BF41634602
:102D8C007F42C91ACB1B994601235D4698465EE5E6
:102D9C004B07FF083B43CC0892E6DC1B6046A34282
:102DAC00B641401A7642801B8146000260D5FC1A5F
:102DBC00A742BF4163467F42C91ACB1B99465D4669
:102DCC0076E5FF084B073B43CC0867E60A00DB08B7
:102DDC003A4300D16FE66246520713436246D40869
:102DEC0080221203144207D0C808104204D15D4659
:102DFC000400FB0849070B435A0FDB00DB085207A2
:102E0C0013435DE64B07FF083B43CC0849E6DC194E
:102E1C009C429B41614489465B4299444B461B0250
:102E2C0000D431E64A46174B1A4001239146984686
:102E3C002AE616006446203EF440A046202A05D01F
:102E4C0040266446B21A944023439A465446631E65
:102E5C009C4143461C43DBE502000024002348E56B
:102E6C00DC19BC42BF41614489467F42B94438E712
:102E7C004B46234300D19FE606E6C046FE07000002
:102E8C00FF070000FFFF7FFFFF084B073B43CC0809
:102E9C0016E66246DB08520713436246D4088022CA
:102EAC001203144207D0C808104204D15D46040036
:102EBC00FB0849070B435A0FDB005207DB0813438F
:102ECC00FEE50023014A1C0013E5C046FF07000085
:102EDC0070B505000C481C0316005B000A03490082
:102EEC00120B490D240B5B0D814208D0064A0020C1
:102EFC00934203D120003043431E984170BD012002
:102F0C002A43FBD1F2E7C046FF0700000A0030B5A8
:102F1C00134C530009030500090B00205B0DD20F65
:102F2C00A34204DD0F48834202DD0F4BD01830BDA5
:102F3C008020400301430D48C01A1F2808DD0C48AF
:102F4C00C31AD9400B005842002AF0D11800EEE702
:102F5C00084CC540A446634499400B002B43F2E750
:102F6C00FE0300001D040000FFFFFF7F3304000080
:102F7C0013040000EDFBFFFF70B5002816D0C3173B
:102F8C00C5185D40C40F280000F01CF9114A121A34
:102F9C000A2816DC03002E0015339E400B23181A4A
:102FAC00C54052052D032D0B530D03E000240023C7
:102FBC00002500261B052B43E40723433000190092
:102FCC0070BD0B38854052052D0300262D0B530D7B
:102FDC00F0E7C0461E04000010B5041E10D000F02F
:102FEC00F1F80F4B1B1A0A2811DC0B222100121AC4
:102FFC00D14015300A035B058440120B5B0D01E0D8
:10300C00002300221B0513432000190010BD2200D1
:10301C000B3882405B0512030024120B5B0DF1E7A9
:10302C001E04000070B543004602C40FFE201B0EA8
:10303C00591C750A08420CD0E022920094466D0788
:10304C00360B63441B053343E40723432800190064
:10305C0070BD002B14D1002D1BD0280000F0B2F84D
:10306C000A281CDC0B232E001B1ADE400300153330
:10307C009D400E4A3603121A5205360B530DE1E7EA
:10308C00002D09D08022360B1203094B6D07164315
:10309C00D8E700230026D5E70026054BD2E703002E
:1030AC000B3B9D402E000025E3E7C0468903000042
:1030BC00FF07000002004B00F0B55B0D0C033D4E0A
:1030CC00640A400F5F1CC90F0443D50037420AD075
:1030DC0039481E18FE2E16DDFF200024C0052043A3
:1030EC00C9070843F0BD002B06D12C4326D005227E
:1030FC009201540AD8B2F1E72543EDD08020C003E9
:10310C000443FF20EAE7002E1BDD9201531E9A4177
:10311C00E4006D0F22432A43530748D00F2313407A
:10312C00042B00D004328023DB0413403FD0701CEE
:10313C00FE2ED1D09201540AC0B2CFE70020002459
:10314C00CCE73200173222DB8020000420431E24FF
:10315C00A41B1F2C1DDD02225242961B0200F240C2
:10316C001600202C04D0154A94466344984005431D
:10317C002A00531E9A41324300265307CED1802495
:10318C001300E404012023402242D3D1B0E70023F2
:10319C00ADE70B4A94462A00E24014002A0063442F
:1031AC009A409840551EAA4102432243E4E733005B
:1031BC009EE7C046FE07000080FCFFFFA2FCFFFF5D
:1031CC0082FCFFFF1C2101231B04984201D3000C3D
:1031DC0010391B0A984201D3000A08391B0998427E
:1031EC0001D30009043902A2105C40187047C04694
:1031FC0004030202010101010000000000000000B4
:10320C0010B5002903D1FFF7DDFF203002E00800E4
:10321C00FFF7D8FF10BDC04680B586B000AFB860D0
:10322C00F9607A60002200233A617B617868FFF7CD
:10323C00D3FEBA68FB68FFF74DF802000B00386A42
:10324C00796AFEF709F902000B003A617B61786834
:10325C00FFF7C2FE0022084BFEF7FEF802000B003F
:10326C0038697969FEF734FC02000B001000190074
:10327C00BD4606B080BDC0460000F03F80B588B0AA
:10328C0000AFB860F9607A6000220023BA61FB617C
:10329C00002200233A617B617868FFF76DFE002203
:1032AC00164BFEF7D9F802000B0000208021C9054F
:1032BC00FEF70EFC02000B003A617B61BA68FB68FA
:1032CC00B86AF96AFFF772FA02000B0010001900D5
:1032DC003A697B69FEF7FEFF02000B00B868F968DB
:1032EC00FEF7BAF802000B00BA61FB61BA69FB6920
:1032FC0010001900BD4608B080BDC0460000F03F6C
:10330C0090B587B002AFB860F9607A607B685B6893
:10331C005A1C7B685A607B685B687A681288934297
:10332C0012D27B689868D9687B685B685C1EBA6847
:10333C00FB68009201932200FFF76EFF02000B0066
:10334C0079688A60CB6011E07B689868D9687B6883
:10335C001B881C00BA68FB68009201932200FFF7DF
:10336C008DFF02000B0079688A60CB60C046BD46B9
:10337C0005B090BD80B500AF114B5B78042B18D80D
:10338C009A00104BD3181B689F460F4B9A68DB684A
:10339C0012E00E4B9A68DB680EE00D4B9A68DB6806
:1033AC000AE00C4B9A68DB6806E00B4B9A68DB680A
:1033BC0002E0054B9A68DB6810001900BD4680BD21
:1033CC0068050020C0E30008000000201000002069
:1033DC0020000020300000204000002080B582B08A
:1033EC0000AF7860114B124A1A60124BFE22920504
:1033FC001A60114B00221A60104B00221A60104BFD
:10340C0000221A600F4BEC2292051A600E4B002220
:10341C001A707968FE208005FDF72AFB031C1A1C24
:10342C00084B1A60C046BD4602B080BD8C0200201D
:10343C00CDCCCC3D900200209402002098020020BC
:10344C009C020020A0020020B002002090B59BB08E
:10345C0000AFF860B9607A603B60FA49F868FDF734
:10346C00CFFC031CFB60F749B868FDF7C9FC031CD3
:10347C00BB60F4497868FDF7C3FC031C7B60F24B1E
:10348C001B68802212065340F968181CFDF7B8FC23
:10349C00031C1C1CED4B1B68B968181CFDF7B0FC19
:1034AC00031C191C201CFDF7D1FD031C1C1CE84B34
:1034BC001B687968181CFDF7A3FC031C191C201C45
:1034CC00FDF7C4FD031CFC218905181CFDF798FCB5
:1034DC00031C7B66DF4B1B68F968181CFDF790FC1E
:1034EC00031C1C1CD94B1B687968181CFDF788FC45
:1034FC00031C191C201CFDF71DF9031C1C1CD44BB0
:10350C001B68B968181CFDF77BFC031C191C201CDC
:10351C00FDF79CFD031CFC218905181CFDF770FCB4
:10352C00031C3B66CB4B1B68B968181CFDF768FC89
:10353C00031C1C1CC44B1B687968181CFDF760FC31
:10354C00031C191C201CFDF781FD031C1C1CC04B0B
:10355C001B68F968181CFDF753FC031C191C201C74
:10356C00FDF7E8F8031CFC218905181CFDF748FC45
:10357C00031CFB65B74B1B687968181CFDF740FCF6
:10358C00031C1C1CB04B1B68B968181CFDF738FCDD
:10359C00031C191C201CFDF7CDF8031C1C1CAB4B89
:1035AC001B68F968181CFDF72BFC031C191C201C4C
:1035BC00FDF74CFD031CFC218905181CFDF720FCB4
:1035CC00031CBB6500213868FCF77CFF031E0CD084
:1035DC000021B86FFCF776FF031E06D00021F86FB0
:1035EC00FCF770FF031E00D035E239683868FDF730
:1035FC0007FC031C1C1CB96FB86FFDF701FC031C06
:10360C00191C201CFDF796F8031C1C1CF96FF86F95
:10361C00FDF7F6FB031C191C201CFDF78BF8031C93
:10362C00181C00F0D9FA031C7B65796D3868FDF71E
:10363C00E7FB031C3B60796DB86FFDF7E1FB031CE6
:10364C00BB67796DF86FFDF7DBFB031CFB67814BE8
:10365C001B68191C181CFDF76DF8031C3B657A4B95
:10366C001B68191C181CFDF765F8031CFB64774BD1
:10367C001B68191C181CFDF75DF8031CBB64744B0C
:10368C001B68191C181CFDF755F8031C7B64714B47
:10369C001B688121C905181CFDF7B2FB031C3B6498
:1036AC00694B1B688121C905181CFDF7A9FB031C7C
:1036BC00FB63664B1B688121C905181CFDF7A0FB39
:1036CC00031CBB63604B1B688221C905181CFDF7EA
:1036DC0097FB031C7B635D4B1B688221C905181C7F
:1036EC00FDF78EFB031C3B635A4B1A68594B1B6846
:1036FC00191C101CFDF784FB031CFB62524B1A684F
:10370C00514B1B68191C101CFDF77AFB031CBB6288
:10371C004E4B1A684D4B1B68191C101CFDF770FBA7
:10372C00031C7B624A4B1A68494B1B68191C101C02
:10373C00FDF766FB031C3B62796A386CFDF760FB96
:10374C00031C1C1C3968B86CFDF75AFB031C191CB4
:10375C00201CFCF7EFFF031C1C1CB96A386CFDF72E
:10376C004FFB031C191C201CFCF7E4FF031C1C1C46
:10377C00B96FF86CFDF744FB031C191C201CFDF7FA
:10378C0065FC031CFB61396AF86BFDF739FB031C04
:10379C001C1C3968786CFDF733FB031C191C201CAE
:1037AC00FDF754FC031C1C1C8121C905F86AFDF7AC
:1037BC0027FB031C1A1C244B1B68191C101CFDF73F
:1037CC001FFB031C191C201CFCF7B4FF031C1C1C46
:1037DC00B96F386DFDF714FB031C191C201CFDF789
:1037EC0035FC031CF96B181CFDF730FC031C1C1C6E
:1037FC00B96A786BFDF704FB031C191C201CFCF741
:10380C0099FF031C1C1C796A786BFDF7F9FA031CF1
:10381C00191C201CFCF78EFF031C1C1CF96FF86B89
:10382C00FDF7EEFA031C191C201CFCF783FF031C8C
:10383C00BB618121C905F86AFDF7E2FA031C1A1C69
:10384C000AE0C04639FA8E3C94020020980200200F
:10385C009C02002090020020D84B1B68191C101CE5
:10386C00FDF7CEFA031C1C1C3968386DFDF7C8FA3D
:10387C00031C191C201CFCF75DFF031C1C1C396A63
:10388C00B86BFDF7BDFA031C191C201CFCF752FF8A
:10389C00031C1C1CB96F786CFDF7B2FA031C191CC5
:1038AC00201CFDF7D3FB031CB96B181CFDF7CEFBDA
:1038BC00031C1C1CB96A386BFDF7A2FA031C191CFB
:1038CC00201CFCF737FF031C1C1C796A386BFDF7B6
:1038DC0097FA031C191C201CFCF72CFF031C1C1C46
:1038EC00F96FB86BFDF78CFA031C191C201CFCF744
:1038FC0021FF031C7B618121C905B86AFDF780FAA1
:10390C00031C1A1CAE4B1B68191C101CFDF778FA13
:10391C00031C1C1C3968F86CFDF772FA031C191C8B
:10392C00201CFDF793FB031C1C1C8121C905786A24
:10393C00FDF766FA031C1A1CA14B1B68191C101C02
:10394C00FDF75EFA031C191C201CFCF7F3FE031C8C
:10395C001C1CB96FB86CFDF753FA031C191C201C06
:10396C00FDF774FB031C3B61F969F869FDF748FA34
:10397C00031C1C1CB969B869FDF742FA031C191C1D
:10398C00201CFCF7D7FE031C1C1C79697869FDF719
:10399C0037FA031C191C201CFCF7CCFE031C1C1C46
:1039AC0039693869FDF72CFA031C191C201CFCF72B
:1039BC00C1FE031C181C00F00FF9031C7B65796D0C
:1039CC00F869FDF71DFA031CFB61796DB869FDF709
:1039DC0017FA031CBB61796D7869FDF711FA031CAA
:1039EC007B61796D3869FDF70BFA031C3B61754BF4
:1039FC001B68F969181CFDF703FA031C191C786E77
:103A0C00FDF724FB031C7B666E4B1B68B969181C05
:103A1C00FDF7F6F9031C191C386EFDF717FB031C98
:103A2C003B66684B1B687969181CFDF7E9F9031CA8
:103A3C00191CF86DFDF70AFB031CFB65614B1B6839
:103A4C003969181CFDF7DCF9031C191CB86DFDF75E
:103A5C00FDFA031CBB655C4B1B68796E181CFDF7EB
:103A6C00CFF9031C1A1C594B1B68191C101CFCF7B2
:103A7C0061FE031C1A1C554B1A60534B1B68396EA4
:103A8C00181CFDF7BDF9031C1A1C514B1B68191CA3
:103A9C00101CFCF74FFE031C1A1C4D4B1A604A4BB2
:103AAC001B68F96D181CFDF7ABF9031C1A1C434B72
:103ABC001B68191C101CFCF73DFE031C1A1C3F4B09
:103ACC001A60414B1B68B96D181CFDF799F9031C62
:103ADC001A1C3B4B1B68191C101CFCF72BFE031CFF
:103AEC001A1C374B1A60394B1A68384B1B68191C57
:103AFC00101CFDF785F9031C1C1C354B1A68344B44
:103B0C001B68191C101CFDF77BF9031C191C201CCD
:103B1C00FCF710FE031C1C1C284B1A68274B1B6857
:103B2C00191C101CFDF76CF9031C191C201CFCF74C
:103B3C0001FE031C1C1C224B1A68214B1B68191C10
:103B4C00101CFDF75DF9031C191C201CFCF7F2FD81
:103B5C00031C181C00F040F8031C7B651B4B1B68F6
:103B6C00796D181CFDF74CF9031C1A1C174B1A60C5
:103B7C00174B1B68796D181CFDF742F9031C1A1CB6
:103B8C00134B1A600D4B1B68796D181CFDF738F937
:103B9C00031C1A1C094B1A60094B1B68796D181C05
:103BAC00FDF72EF9031C1A1C054B1A60094B002259
:103BBC001A70C046BD461BB090BDC046980200208E
:103BCC009C0200208C020020A00200209002002009
:103BDC0094020020B002002080B586B000AF78605F
:103BEC00FC2189057868FDF70BF9031C7B617B6868
:103BFC003B611023FB181B68FB60FB685B10214AC0
:103C0C00D31AFB600C23FB181B683B613B69796979
:103C1C00181CFDF7F5F8031C1A1C3B69191C101C29
:103C2C00FDF7EEF8031C191CFF208005FDF70EFABA
:103C3C00031C1A1C3B69191C101CFDF7E1F8031C32
:103C4C003B613B697969181CFDF7DAF8031C1A1CF7
:103C5C003B69191C101CFDF7D3F8031C191CFF2021
:103C6C008005FDF7F3F9031C1A1C3B69191C101C89
:103C7C00FDF7C6F8031C3B613B69181CBD4606B03A
:103C8C0080BDC046DF59375FB0B500AF524B1A68E4
:103C9C00524B1B68191C101CFDF7B2F8031C1C1CA2
:103CAC004F4B1A684F4B1B68191C101CFDF7A8F8DA
:103CBC00031C191C201CFCF73DFD031C1C1C474B52
:103CCC001A68464B1B68191C101CFDF799F8031C4D
:103CDC00191CFC208005FDF7B9F9031C1D1C404B79
:103CEC001A683F4B1B68191C101CFDF789F8031C44
:103CFC00191C281CFDF7AAF9031C191C201C09F01F
:103D0C0025FE021C384B1A60344B1A68354B1B6865
:103D1C00191C101CFDF774F8031C1C1C2E4B1A6884
:103D2C002F4B1B68191C101CFDF76AF8031C191C7F
:103D3C00201CFDF78BF9031CC0210906181CFDF78C
:103D4C005FF8031C181C09F0E1FD021C274B1A60DC
:103D5C00224B1A68224B1B68191C101CFDF750F8DB
:103D6C00031C1C1C1C4B1A681E4B1B68191C101CBA
:103D7C00FDF746F8031C191C201CFCF7DBFC031C8C
:103D8C001C1C174B1A68164B1B68191C101CFDF7D2
:103D9C0037F8031C191CFC208005FDF757F9031C90
:103DAC001D1C104B1A680F4B1B68191C101CFDF7BF
:103DBC0027F8031C191C281CFDF748F9031C191CB7
:103DCC00201C09F0C3FD021C094B1A60094B01228F
:103DDC001A70C046BD46B0BD90020020940200206F
:103DEC00980200209C020020A4020020A8020020BF
:103DFC00AC020020B002002080B500AF074B1B784E
:103E0C00002B01D1FFF740FF054B1B680549181C1F
:103E1C00FCF7F6FF031C181CBD4680BDB002002049
:103E2C00A4020020E12E654280B500AF074B1B7841
:103E3C00002B01D1FFF728FF054B1B680549181C07
:103E4C00FCF7DEFF031C181CBD4680BDB002002031
:103E5C00A8020020E12E654280B500AF0A4B1B780A
:103E6C00002B01D1FFF710FF084B1B680849181CE9
:103E7C00FCF7C6FF031C0749181CFCF75BFC031C72
:103E8C00181CBD4680BDC046B0020020AC0200200C
:103E9C00E12E65420000344380B586B000AFF86077
:103EAC00B9607A603B601723FB1800221A703B68DC
:103EBC0010331B68002B01D13B6A22E03B681033A6
:103ECC001B68180006F0ECFD020017217B181A7015
:103EDC007B181B78002B10D00C4B180007F01CFB28
:103EEC000B4B01229A740B4B9A68DB68100019007B
:103EFC00FCF736FB0200084B9A60084B00221A6054
:103F0C003B6A1800BD4606B080BDC046F4DF000811
:103F1C00B00500201000002068050020B40200202D
:103F2C0080B586B000AFF860B9607A603B6017234B
:103F3C00FB1800221A703B6810331B68002B01D150
:103F4C003B6A22E03B6810331B68180006F0A8FDA2
:103F5C00020017217B181A707B181B78002B10D0CD
:103F6C000C4B180007F0D8FA0B4B01229A740B4B30
:103F7C009A68DB6810001900FCF7F2FA0200084B93
:103F8C00DA60084B00221A603B6A1800BD4606B086
:103F9C0080BDC04610E00008B005002010000020D5
:103FAC0068050020B402002080B586B000AFF86030
:103FBC00B9607A603B601723FB1800221A703B68CB
:103FCC0010331B68002B01D13B6A20E03B68103397
:103FDC001B68180006F064FD020017217B181A708C
:103FEC007B181B78002B07D00B4B180007F094FAAA
:103FFC000A4B0122DA7406E0074B180007F08CFA22
:10400C00064B0022DA74064B00221A603B6A180039
:10401C00BD4606B080BDC0462CE00008B0050020AF
:10402C00B402002090B587B000AFF860B9607A6038
:10403C003B601723FB1800221A703B6810331B6877
:10404C00002B01D1BB6A46E03B6810331B6818009B
:10405C0006F026FD020017243B191A703B68143336
:10406C001B68180006F01CFD020016217B181A7044
:10407C003B191B78002B2AD07B181B78042B1DD8DE
:10408C009A00174BD3181B689F46164B180007F065
:10409C0043FA14E0144B180007F03EFA0FE0134BF0
:1040AC00180007F039FA0AE0114B180007F034FA3F
:1040BC0005E0104B180007F02FFA00E0C0460E4B3D
:1040CC001622BA1812785A700C4B01229A740C4BA7
:1040DC0000221A60BB6A1800BD4607B090BDC046EE
:1040EC00D4E300084CE0000868E0000884E0000815
:1040FC00A0E00008BCE0000868050020B005002026
:10410C00B4020020F0B5B1B002AFF860B9607A60CB
:10411C000023B422BA1813600023B022BA1813601B
:10412C000023AC22BA181360BB68A822BA1813601B
:10413C008C23FB1800221A6004330722002118007C
:10414C0006F0E7FC0023A422BA1813600023A02475
:10415C003A1913607823FB1800221A6004331022DA
:10416C000021180006F0D5FC00233A19136023E057
:10417C00A0217B181B68BA68D3181B78232B0DD091
:10418C007B181B68BA68D3181B780A2B06D07B18CF
:10419C001B68BA68D3181B78002B07D1A023FB1817
:1041AC001B680133A422BA1813600BE0A022BB18C1
:1041BC001B680133BA181360A023FB181A687B68BC
:1041CC009A42D5DBA423FB181B68002B01D10023DA
:1041DC0053E100239C22BA181360BDE09C217B188C
:1041EC001B68BA68D3181B782C2B15D07B181B684E
:1041FC00BA68D3181B780A2B0ED07B181B68BA68C8
:10420C00D3181B78232B07D07B181B68BA68D318DC
:10421C001B78002B00D07CE0AC23FB181B68002B18
:10422C0048DDB022BB181B68982439190B60BB18E9
:10423C001B6819211800FCF7F5F80B001A00142361
:10424C00FB189200A82179180968D1502200BB18DC
:10425C001B68032B30D0BB181B68032B2EDCBB1840
:10426C001B68022B16D0BB181B68022B26DCBB1854
:10427C001B68002B04D0BB181B68012B20D01DE041
:10428C00A823FB181B681B687E4A93421AD0012393
:10429C005B42F2E0AC23FB181B680A2B00DD0A23FF
:1042AC001A00A823FB1819688C23FB18180006F0B9
:1042BC0027FC08E0C04606E0C04604E0C04602E029
:1042CC00C04600E0C046B0217B181B6801337A1849
:1042DC0013607B181B68182B48DC0023AC22BA181F
:1042EC0013609C23FB181B680133BA68D318A824ED
:1042FC003A1913607B181B6819211800FCF792F807
:10430C000B001A001423FB18920039190968D150BC
:10431C001CE09C23FB181B68BA68D418AC257B19CD
:10432C001B6814211800FBF793FF0B001A0021786F
:10433C0078203B1899547B191B6801337A19136048
:10434C003A187B191B68D31800221A709C22BB18D0
:10435C001B680133BA1813609C23FB181A68A4233A
:10436C00FB181B689A4200DA38E700E0C046B0231D
:10437C00FB181B68192B03DDA423FB181B687CE0BE
:10438C00B023FB181B68032B03DCA423FB181B684E
:10439C0073E00023A022BA18136001235B42B422FD
:1043AC00BA181360384B00221A6048E03749A02431
:1043BC003B191A6813005B009B189B005A588C26FB
:1043CC00BB1911001800FBF797FE031E31D12F49C2
:1043DC003B191A6813005B009B189B00CB18083321
:1043EC001B881A00FB68134035D1294BC8220021C9
:1043FC00180006F08EFB25493B191A6813005B0068
:10440C009B189B00CB1804331C681423FD18B02395
:10441C00FB181A68B919F8687B680193A423FB1878
:10442C001B6800932B00A0470300B422BA1813603A
:10443C0011E0A022BB181B680133BA181360134992
:10444C00A023FB181A6813005B009B189B005B5899
:10445C00002BABD100E0C046B422BB181B68002B6C
:10446C0008DCBB181B68002B04DAA423FB181B68A0
:10447C00BA181360B423FB181B681800BD462FB084
:10448C00F0BDC0462A53532CB4020020500000202B
:10449C00B802002080B582B000AF364B1A68354B9D
:1044AC0035490A401A60334B1A68324B8021890512
:1044BC000A431A602F4B5A692E4B30490A405A61F5
:1044CC002C4BDA682B4B2C490A40DA60294B5B6A7F
:1044DC007B607B682A4A13407B60264B7A685A6261
:1044EC00244B1A68234B920092081A60214B1A68CD
:1044FC00204B802109060A431A601E4B5A691D4B3A
:10450C0020490A405A611B4BDA681A4B92009208F8
:10451C00DA60184B5B6A7B607B681B011B097B6054
:10452C00144B7A685A62134B1A68124B16490A409C
:10453C001A60104B1A680F4B802109050A431A6048
:10454C000C4B5A690B4B11490A405A61094BDA68FA
:10455C00084B0D490A40DA60064B5B6A7B607B684E
:10456C000B4A13407B60034B7A685A62C046BD46C7
:10457C0002B080BD00040050FFFFFFCFFFBFFFFF64
:10458C00FFFFFFF0FF7FFFFFFFFFFFF3FFDFFFFFEA
:10459C00FFFF0FFF80B582B000AF78603D4BDA6B48
:1045AC003C4B8021C9010A43DA637B681B680422F7
:1045BC001A437B681A607B681B68374A1A407B6811
:1045CC001A607B685A68F0231B011A407B685A609A
:1045DC007B685A68E023DB001A407B685A607B6872
:1045EC001B68012293431A007B681A607B681B6866
:1045FC00022293431A007B681A607B681B68802236
:10460C0092001A437B681A607B681B6880225200F8
:10461C001A437B681A607B681B68382293431A0024
:10462C007B681A607B681B6830221A437B681A60AF
:10463C007B681B68802293431A007B681A607B6836
:10464C005B68102293431A007B685A607B681B6876
:10465C00124A1A407B681A607B685B6808221A430E
:10466C007B685A607B685B68802252011A437B68C6
:10467C005A607B68DB690A4A1A407B68DA617B689E
:10468C001B6840221A437B681A60C046BD4602B0C4
:10469C0080BDC04600100240FFFBFFFFFFDFFFFFA5
:1046AC00FFF7FFFF80B584B000AF78600A00FB1CF9
:1046BC001A700F23FB1800221A70FB1C1A780F4B70
:1046CC001A60C0467B689B6802221340FAD07B6854
:1046DC000C33FA1C12781A70C0467B689B68012256
:1046EC001340FAD07B68DA680F217B181A707B189C
:1046FC001B781800BD4604B080BDC046B80300202E
:10470C0080B586B000AF786039601723FB180022A3
:10471C001A703B68FB6001233B610CE03B697A68D3
:10472C00D31819781722BB18BA1812784A401A7085
:10473C003B6901333B613A69FB689A42EEDB172314
:10474C00FB181B781800BD4606B080BD80B500AFC5
:10475C00044B5A69034B802109060A435A61C0462F
:10476C00BD4680BD0020024080B500AF064B5B69A2
:10477C00002B05DA044B054A9A60034B044A9A60F5
:10478C00C046BD4680BDC04600200240230167459F
:10479C00AB89EFCD80B582B000AF7860C0461A4BC4
:1047AC001A6980235B021340F9D1174B5A69164BD7
:1047BC0002210A435A61144B59697B68DB00134A86
:1047CC001A40114B0A435A610F4B5A690E4B802108
:1047DC0049020A435A61C0460B4B1A6980235B029B
:1047EC001340F9D1084B5A69074B09490A405A61E1
:1047FC00054B5A69044B02218A435A610123180064
:10480C00BD4602B080BDC04600200240F81F00002B
:10481C00FFFFFEFFB0B584B000AFF8603A607B607C
:10482C00C046164B1A6980235B021340F9D1134B17
:10483C005A69124B01210A435A61FB683A681A60A3
:10484C00BFF36F8FC0467B681C0000231D00FB6804
:10485C00043322001A60C046084B1A6980235B029D
:10486C001340F9D1054B5A69044B01218A435A6113
:10487C0001231800BD4604B0B0BDC0460020024064
:10488C0080B586B000AF39601100BB1D021C1A80C8
:10489C003B1D0A1C1A80BB1D1B88802252029446A9
:1048AC006344DB027B613B683B61FFF75DFF184BA8
:1048BC001A69174B31218A431A61BB1D1B881800DA
:1048CC00FFF768FF0023FB6015E03B691A685B6823
:1048DC0079690800FFF79EFF031E03D1FFF736FF2F
:1048EC00002310E0FB680833FB603B6908333B6135
:1048FC007B6908337B613B1D1B88FA689A42E4DBB9
:10490C00FFF724FF01231800BD4606B080BDC0464A
:10491C000020024080B586B000AF39601100BB1D8D
:10492C00021C1A803B1D0A1C1A80BB1D1B8880228E
:10493C00520294466344DB027B613B683B6100237B
:10494C00FB600CE07B691A683B691A60FB680433F6
:10495C00FB603B6904333B617B6904337B613B1D2A
:10496C001B88FA689A42EDDB01231800BD4606B09D
:10497C0080BD000080B5C2B000AF214B180006F01E
:10498C00CBFD204B842252009B18DB1900221A60AD
:10499C000433FC220021180006F0BBF810237A1D0A
:1049AC00FF3213607B1DFF331B6880225200934241
:1049BC0001D980235B007A1CFF3213607B1CFF3310
:1049CC001A6811493B00180006F09AF83B00FF21C9
:1049DC001800FFF795FE030019000A4B84225200C1
:1049EC009B18DB19FF22995480235A003B001900B5
:1049FC001F20FFF745FFC046BD4642B080BDC046F4
:104A0C00ECE00008F8FEFFFF6805002080B500AF61
:104A1C000C4B180006F080FD0B4B2A221A700A4B27
:104A2C0000225A70084BFA2292005A60064B002260
:104A3C009A60054B0022DA60FFF79CFFC046BD462A
:104A4C0080BDC0460CE1000868050020F0B5C5B07B
:104A5C0000AF284B180006F05FFD274B88256D0032
:104A6C005B19DB1900221A600433FC2200211800A8
:104A7C0006F04FF880235A003B1D19001F20FFF74A
:104A8C0049FF1026FF36BC193B1DFF211800FFF70C
:104A9C0037FE03002370184B5B19DB191B782A2B8C
:104AAC0021D1154B5B19DB19FF229B5CBA191278CB
:104ABC009A4218D1102384225200B9180B60BB18EB
:104ACC001B6880225200934201D980235B007A1D1F
:104ADC00FF3213607B1DFF331A68391D074B18001A
:104AEC0006F00EF802E0FFF791FFC046C046BD4647
:104AFC0045B0F0BD34E10008F4FEFFFF680500206E
:104B0C0090B589B000AF0C243B19180014231A007F
:104B1C00002105F0FEFF224B5A6B214B20210A434A
:104B2C005A631F4B5B6B20221340BB60BB681C4B52
:104B3C005A6B1B4B02210A435A63194B5B6B0222C3
:104B4C0013407B607B68164B5A6B154B01210A4353
:104B5C005A63134B5B6B012213403B603B68802311
:104B6C005900A023DB050022180002F067FE3B1958
:104B7C00802252001A603B1901225A603B19002214
:104B8C009A603B190022DA603A19A023DB05110068
:104B9C00180002F0EFFCC046BD4609B090BDC046FF
:104BAC000010024080B500AF0F2000F04DF903005B
:104BBC00DAB2124B1A700F2000F046F903006B2B7F
:104BCC0018D14C21112000F0A3F9112000F03CF970
:104BDC000300DAB20A4B1A704A21102000F098F93F
:104BEC000021162000F094F90921172000F090F90B
:104BFC00012300E000231800BD4680BDBC0300204B
:104C0C00BD03002090B58DB000AFF860B9607A603C
:104C1C0028243B19180006231A00002105F079FFFF
:104C2C001023FB18180018231A00002105F071FF3F
:104C3C003B1906221900282000F028F9031E07D181
:104C4C000023FB600023BB6000237B60002352E049
:104C5C0028243B1900229B5E1800FEF78DF90022D8
:104C6C00274BFDF737FB02000B0010001900002248
:104C7C00244BFCF72DFF02000B0010001900FEF76F
:104C8C0019FA021CFB681A603B1902229B5E180081
:104C9C00FEF772F900221A4BFDF71CFB02000B0009
:104CAC00100019000022174BFCF712FF02000B003A
:104CBC0010001900FEF7FEF9021CBB681A603B19C4
:104CCC0004229B5E1800FEF757F900220C4BFDF7EF
:104CDC0001FB02000B00100019000022094BFCF72D
:104CEC00F7FE02000B0010001900FEF7E3F9021C9E
:104CFC007B681A6001231800BD460DB090BDC046FC
:104D0C00000010400000E04080B500AF1E2000F015
:104D1C009BF80200064B1A60054B1B6801221340DE
:104D2C0001D0012300E000231800BD4680BDC04621
:104D3C00C003002090B587B000AFF860B9607A600E
:104D4C0010243B19180006231A00002105F0E1FE7F
:104D5C003B1906221900222000F098F8031E07D1F7
:104D6C000023FB600023BB6000237B60002352E028
:104D7C0010243B1900229B5E1800FEF7FDF8002260
:104D8C00274BFDF7A7FA02000B00100019000022B8
:104D9C00244BFCF79DFE02000B0010001900FEF7DF
:104DAC0089F9021CFB681A603B1902229B5E1800F1
:104DBC00FEF7E2F800221A4BFDF78CFA02000B000A
:104DCC00100019000022174BFCF782FE02000B00AA
:104DDC0010001900FEF76EF9021CBB681A603B1933
:104DEC0004229B5E1800FEF7C7F800220C4BFDF75F
:104DFC0071FA02000B00100019000022094BFCF79D
:104E0C0067FE02000B0010001900FEF753F9021C9C
:104E1C007B681A6001231800BD4607B090BDC046E0
:104E2C0000409F400000E04080B500AF1E2000F025
:104E3C000BF803000222134001D0012300E00023F1
:104E4C001800BD4680BD000080B584B000AF0200E4
:104E5C00FB1D1A700F23F918FB1D1B78012218007B
:104E6C0000F014F80300012B06D0074B012252422C
:104E7C001A60054B1B6802E00F23FB181B78180007
:104E8C00BD4604B080BDC046C403002090B587B0B9
:104E9C0000AFB9607A600F243B19021C1A703B19E1
:104EAC003A191278802149420A431A70802359001A
:104EBC00A023DB050022180002F0C0FC3B191B7874
:104ECC00124A19001000FFF7EDFB00237B610CE088
:104EDC007B69BA68D4180D4B00211800FFF7E2FB70
:104EEC00030023707B6901337B617B697A689A428A
:104EFC00EED880235900A023DB050122180002F014
:104F0C009DFC01231800BD4607B090BD0038004041
:104F1C0080B582B000AF0200FB1D1A70BB1D0A1CCD
:104F2C001A7080235900A023DB050022180002F020
:104F3C0085FCFB1D1B780C4A19001000FFF7B2FB17
:104F4C00BB1D1B78084A19001000FFF7ABFB802330
:104F5C005900A023DB050122180002F06FFCC046AB
:104F6C001800BD4602B080BD00380040B0B588B016
:104F7C0002AFFFF7C9FE031E32D0FFF755FF031E29
:104F8C002ED00C23FA181023F9181423FB18180030
:104F9C00FFF738FE031E23D03A00391D0823FB18F7
:104FAC001800FFF7C7FE031E1AD0B86879683C6872
:104FBC007D693B69FA68019200932B1C221CFEF759
:104FCC0045FAFEF719FF021C074B1A60FEF72CFF7F
:104FDC00021C064B1A60FEF73FFF021C044B1A60C2
:104FEC00C046BD4606B0B0BDA4020020A8020020F9
:104FFC00AC02002080B586B000AFF860B9607A6072
:10500C0000237B610BE0B9684B1CBB60FA239B004F
:10501C000748012204F0FAF87B6901337B617A6955
:10502C007B689A42EFDB7B681800BD4606B080BDFA
:10503C007804002080B500AF01F078F900F00DF88D
:10504C0000F098F900F078F900F060F800F026F91B
:10505C0000F0C8F800F0B6F9FEE790B593B000AFD9
:10506C0010243B19180038231A00002105F051FDBB
:10507C003B00180010231A00002105F04AFD802384
:10508C009B00180002F0F8FB3B1901221A603B1937
:10509C00802252025A6021007B180222DA617B18AE
:1050AC0003221A627B1800225A627B1810229A6221
:1050BC007B1880229202DA627B18802292041A6397
:1050CC007B18802292055A637B18180002F020FC92
:1050DC00031E01D000F070F93B0007221A603B0060
:1050EC0002225A603B0000229A603B000022DA60E8
:1050FC003B000221180002F025FF031E01D000F036
:10510C005BF9C046BD4613B090BD000080B584B0BD
:10511C0000AF3B1D18000C231A00002105F0F9FC10
:10512C002D4B2E4A1A602C4B8022D2055A602A4BEA
:10513C0000229A60284B0022DA60274B00221A6169
:10514C00254B04225A61244B00221A76224B002252
:10515C005A76214B00229A761F4B0122DA611E4BA4
:10516C002022002199541C4B00225A621A4B002217
:10517C009A62194B2C2200219954174B00221A6366
:10518C00154B06225A63144B00229A63124B3C2295
:10519C0000219954104B0022DA640F4B180001F0D7
:1051AC006DFA031E01D000F007F93B1D0C4A1A6082
:1051BC003B1D00225A603B1D00229A603A1D064B93
:1051CC001100180001F002FC031E01D000F0F4F8ED
:1051DC00C046BD4604B080BDC80300200024014079
:1051EC000200000480B588B000AF1423FB1818002F
:1051FC000C231A00002105F08CFC3B1D1800102319
:10520C001A00002105F085FC234B8022D2051A6080
:10521C00214B00225A60204B00229A601E4B012227
:10522C005242DA601C4B00221A611B4B00229A611D
:10523C00194B180003F0AAF9031E01D000F0BCF8BA
:10524C0014217B1800221A607B1800229A607A18AD
:10525C00114B1100180003F003FF031E01D000F0E6
:10526C00ABF83B1D00221A603B1D01225A603B1D0E
:10527C0000229A603B1D0022DA60391D064B0C227D
:10528C00180003F03DFC031E01D000F095F8C04659
:10529C00BD4608B080BDC0462C04002080B500AFD0
:1052AC00234B244A1A60224BE12252025A60204BB3
:1052BC0000229A601E4B0022DA601D4B00221A61FC
:1052CC001B4B0C225A611A4B00229A61184B00227C
:1052DC00DA61174B00221A62154B00225A62144BEA
:1052EC0000229A62124B180003F03AFF031E01D001
:1052FC0000F062F80E4B0021180005F089FA031E2D
:10530C0001D000F059F80A4B0021180005F0C0FA42
:10531C00031E01D000F050F8054B180005F03EFAC2
:10532C00031E01D000F048F8C046BD4680BDC04603
:10533C00780400200038014080B582B000AF0C4BDF
:10534C009A6B0B4B01210A439A63094B9B6B01220D
:10535C0013407B607B6800220021092001F0BAFD1C
:10536C00092001F0CCFDC046BD4602B080BDC04650
:10537C000010024080B582B000AF0E4B5A6B0D4B43
:10538C0020210A435A630B4B5B6B202213407B603A
:10539C007B68084B5A6B074B01210A435A63054B38
:1053AC005B6B012213403B603B68C046BD4602B0BC
:1053BC0080BDC0460010024080B500AF72B6C0463A
:1053CC00FEE7000080B500AF00F036F8164B1A6807
:1053DC00164B1B68D31A642B05D9FFF7C7FD124B6C
:1053EC001A68124B1A6000F0DDF80F4B9B7C002BF7
:1053FC0008D00D4B00229A740D4B180006F08CF857
:10540C00FFF7B8FA00F000F9074B1A68064BDB6897
:10541C00D21A084B5B689A42D8D3034B1A68024BDA
:10542C00DA6000F0A1FAD1E7B0050020E008002016
:10543C0050E100086805002080B500AFFFF760FB65
:10544C00FFF728F8234B1800FFF7A4F8FA239B006A
:10545C00180000F0F1FF204B180000F029FF1F4B43
:10546C00181CFDF7BBFF1E4B180006F055F8FA236D
:10547C009B00180000F0E0FF1A4B180006F04CF8E7
:10548C00FFF790FB031E04D1174B180006F044F8ED
:10549C00FEE7164B180006F03FF8FA239B001800A5
:1054AC0000F0CAFF124B0C21180003F0C7F8114989
:1054BC00114B8022180005F02DFA104B1B681A684E
:1054CC000E4B1B6804218A431A60FFF7BFFAC046D3
:1054DC00BD4680BD003800406CE100080000204152
:1054EC0084E10008A4E10008BCE10008DCE100084C
:1054FC002C040020DC070020780400200C05002080
:10550C0080B582B000AF78607B681A688023DB05B9
:10551C009A423AD17B681B7F082B36D11D4B1B79E5
:10552C00002B0CD17B680C21180003F08DFB0300C1
:10553C009AB2184B1A80174B01221A7125E07B681E
:10554C000C21180003F080FB03009AB2114B5A8017
:10555C00104B5A880F4B1B88D31A9AB20D4BDA801A
:10556C000C4BDB8819000C48FAF7ECFD03001A0011
:10557C00084B9A60074B094A01219954084B1B6848
:10558C0000225A62034B00221A71C046BD4602B07B
:10559C0080BDC046C40500200090D003120200005C
:1055AC002C04002080B500AF144B80229B5A9BB278
:1055BC00002B1FD0114B80229B5A9AB2104B1A8091
:1055CC000E4B8022002199520E4B80220021180094
:1055DC0005F09FFA0A4B1B881A000849094B180062
:1055EC0005F08EFA064B1B881A00064B1900012099
:1055FC00FEF788FDC046BD4680BDC046DC070020D6
:10560C005E08002060080020B0B588B000AF002311
:10561C00FB61C64BC64A9B5C002B00D182E1C34B9D
:10562C00C34A00219954C14B9B68002B04D1C14B38
:10563C0034220221995475E1BF4B1A79BE4B5B7928
:10564C009A420DD2BC4B1A68B84B9B68D218BA4B15
:10565C001A60B94B1B790133DAB2B74B1A7161E19D
:10566C00B24A85239B00D358591CB04A85239B0012
:10567C00D150B14B1A68B04B5B7919001000FAF796
:10568C0061FD0300FB61F869FBF7A4FE031C181C09
:10569C00FDF7C8FCA94B1A00FDF732FEA64B002201
:1056AC001A60A54B00221A71A54B1A68A14B1A63FC
:1056BC00A44B9B681800FDF78FFCA34AA34BFCF787
:1056CC0009FE02000B0010001900FAF749FF020056
:1056DC00FB69934204D2974B34220221995421E165
:1056EC00984BDB681800FDF777FC994A994BFCF74F
:1056FC00F1FD02000B0010001900FAF731FF020057
:10570C00FB69934204D98B4B34220121995409E152
:10571C00884B342200219954844B9A68894BDB685E
:10572C009A4204D9874BDA68824B1A600DE07F4BA2
:10573C009A68844B9B689A4204D2824B9A687D4B40
:10574C001A6002E07B4BFA691A607A4B1A68794B43
:10575C005B689A420DD3774B1C68764B9A69DB6970
:10576C0010001900FAF7FCFE0300E21A714B9A6064
:10577C000CE0704B9A69DB6910001900FAF7F0FE27
:10578C0002006C4B1B68D21A6A4B9A60694B9C687E
:10579C00684B5B680A211800FAF7D4FC03009C42A2
:1057AC000ED9644B9B89092B0AD8624B5B68002B82
:1057BC0006D0604B9B8901339AB25E4B9A81B1E063
:1057CC005C4B1B681800FDF707FC634B1A00FDF7D8
:1057DC0097FD584B00229A81564B1A68554B5A60CC
:1057EC00FDF7C8FD02000B0052490A614B61514B99
:1057FC001C695D69534BDB681800FDF7EDFB02007B
:10580C000B0020002900FAF747FE031E12D04D4B67
:10581C00DB681800FDF7E0FB02000B0045490A614C
:10582C004B614449002200230A624B62414B002227
:10583C001A8577E03F4B1C695D69424B9B681800E9
:10584C00FDF7CAFB02000B0020002900FAF710FE3E
:10585C00031E12D03B4B9B681800FDF7BDFB0200EA
:10586C000B0034490A614B61324900223B4B0A62FE
:10587C004B62304B3A4A1A8554E0324BDB681800C5
:10588C00FDF7AAFB02000B0000203449FCF720F9BD
:10589C0002000B003A617B612A4B9B681800FDF7F4
:1058AC009BFB02000B0000202C49FCF711F90200B5
:1058BC000B00BA60FB601F4B1A695B69002027491B
:1058CC00FCF706F902000B003A607B603A697B69D1
:1058DC0038687968FCF76AFF02000B0014001D00A1
:1058EC003A697B69B868F968FCF760FF02000B0045
:1058FC0020002900FCF7ECF802000B000D490A62AD
:10590C004B620C4B186A596A0022164BFCF7E2FCEE
:10591C0002000B0010001900FAF722FE03009AB2E5
:10592C00044B1A85BD4608B0B0BDC046C405002066
:10593C0012020000780500208C00002010000020CE
:10594C00B005002068050020CDCCCCCCCCCCEC3FF5
:10595C009A9999999999F13F000000200000F03F25
:10596C00FF03000000F88F40F0B5D6464F46464680
:10597C00C0B596B012AF2B4B9B6898462A4B1A6950
:10598C005B6910001900FAF7EBFD8146264B1B8D65
:10599C009A46264B1B68181CFDF744FB04000D00AF
:1059AC00234B1B68181CFDF73DFBB860F960214BBD
:1059BC001B68181CFDF736FB386079601E49886837
:1059CC001D49C9681D4E00239C46634610930F91D8
:1059DC000E9000210D9100210C913A687B680A927F
:1059EC000B93BA68FB6808920993069407950023F9
:1059FC0005930023049300230393002302930023B5
:105A0C0001935346009300234A464146300005F06B
:105A1C00F7FCC046BD4604B0E0BCBA46B146A84649
:105A2C00F0BDC046C405002078050020A40200206B
:105A3C00A8020020AC02002068050020FCE1000850
:105A4C0080B582B000AF78600A00BB1C1A807B68FE
:105A5C001B680D4A934212D10C4BBA1C8021128840
:105A6C005A520A490A4B8022180004F053FF094B82
:105A7C001B681A68074B1B6804218A431A60C046CE
:105A8C00BD4602B080BDC04600380140DC07002096
:105A9C00780400200C05002080B582B000AF0F4BBD
:105AAC001A6C0E4B01210A431A640C4B1B6C01221D
:105ABC0013407B607B68094BDA6B084B80214905EE
:105ACC000A43DA63054BDA6B80235B0513403B60BA
