:020000040800F2
:102800000020002095820008097F00080B7F000847
:1028100000000000000000000000000000000000B8
:102820000000000000000000000000000D7F000814
:1028300000000000000000000F7F0008117F00086A
:10284000E5820008E5820008E5820008E5820008CC
:10285000E5820008E5820008E5820008E5820008BC
:1028600000000000497F0008E5820008E5820008BA
:10287000E5820008E5820008E58200084D7F000837
:10288000E5820008E5820008E5820008E58200088C
:1028900000000000E5820008E5820008E5820008EB
:1028A000E5820008E5820008E5820008BD7A00089C
:0C28B000E5820008E5820008000000003E
:1028BC0010B5064C2378002B07D1054B002B02D00A
:1028CC00044800E000BF0123237010BD200100204C
:1028DC0000000000289C0008044B10B5002B03D00E
:1028EC000349044800E000BF10BDC04600000000D2
:1028FC0024010020289C000802780B78002A03D0C1
:10290C00013001319A42F7D0D01A704703B47146A6
:10291C00490840004900095E49008E4403BC7047D9
:10292C00002243088B4274D303098B425FD3030A02
:10293C008B4244D3030B8B4228D3030C8B420DD315
:10294C00FF22090212BA030C8B4202D312120902A3
:10295C0065D0030B8B4219D300E0090AC30B8B42E1
:10296C0001D3CB03C01A5241830B8B4201D38B038F
:10297C00C01A5241430B8B4201D34B03C01A524134
:10298C00030B8B4201D30B03C01A5241C30A8B4277
:10299C0001D3CB02C01A5241830A8B4201D38B0262
:1029AC00C01A5241430A8B4201D34B02C01A524106
:1029BC00030A8B4201D30B02C01A5241CDD2C30978
:1029CC008B4201D3CB01C01A524183098B4201D3F4
:1029DC008B01C01A524143098B4201D34B01C01ADF
:1029EC00524103098B4201D30B01C01A5241C30857
:1029FC008B4201D3CB00C01A524183088B4201D3C6
:102A0C008B00C01A524143088B4201D34B00C01AB1
:102A1C005241411A00D20146524110467047FFE71D
:102A2C0001B5002000F0F0F802BDC0460029F7D037
:102A3C0076E7704703460B437FD4002243088B4252
:102A4C0074D303098B425FD3030A8B4244D3030B29
:102A5C008B4228D3030C8B420DD3FF22090212BAEE
:102A6C00030C8B4202D31212090265D0030B8B426A
:102A7C0019D300E0090AC30B8B4201D3CB03C01A54
:102A8C005241830B8B4201D38B03C01A5241430B2F
:102A9C008B4201D34B03C01A5241030B8B4201D31F
:102AAC000B03C01A5241C30A8B4201D3CB02C01A8A
:102ABC005241830A8B4201D38B02C01A5241430A02
:102ACC008B4201D34B02C01A5241030A8B4201D3F1
:102ADC000B02C01A5241CDD2C3098B4201D3CB0198
:102AEC00C01A524183098B4201D38B01C01A524147
:102AFC0043098B4201D34B01C01A524103098B424B
:102B0C0001D30B01C01A5241C3088B4201D3CB0035
:102B1C00C01A524183088B4201D38B00C01A524118
:102B2C0043088B4201D34B00C01A5241411A00D2C8
:102B3C0001465241104670475DE0CA0F00D0494231
:102B4C00031000D34042534000229C4603098B42A1
:102B5C002DD3030A8B4212D3FC22890112BA030A29
:102B6C008B420CD3890192118B4208D389019211AB
:102B7C008B4204D389013AD0921100E08909C30930
:102B8C008B4201D3CB01C01A524183098B4201D332
:102B9C008B01C01A524143098B4201D34B01C01A1D
:102BAC00524103098B4201D30B01C01A5241C30895
:102BBC008B4201D3CB00C01A524183088B4201D304
:102BCC008B00C01A5241D9D243088B4201D34B001F
:102BDC00C01A5241411A00D20146634652415B1061
:102BEC00104601D34042002B00D549427047634642
:102BFC005B1000D3404201B5002000F005F802BD87
:102C0C000029F8D016E770477047C046844610007C
:102C1C0062468C461900634600E0C0461FB501F0C1
:102C2C0067FE002801D40021C8421FBD10B501F079
:102C3C00B7FD4042013010BD10B501F059FE00281F
:102C4C0001DB002010BD012010BDC04610B501F005
:102C5C004FFE002801DD002010BD012010BDC04634
:102C6C0010B501F0DFFD002801DC002010BD0120B3
:102C7C0010BDC04610B501F0D5FD002801DA0020CA
:102C8C0010BD012010BDC046844608006146FFE718
:102C9C001FB500F08BFB002801D40021C8421FBDDA
:102CAC0010B500F017FB4042013010BD10B500F01C
:102CBC007DFB002801DB002010BD012010BDC046AB
:102CCC0010B500F073FB002801DD002010BD0120C1
:102CDC0010BDC04610B500F023FB002801DC00201D
:102CEC0010BD012010BDC04610B500F019FB002826
:102CFC0001DA002010BD012010BDC0469E2110B588
:102D0C00C905041CFFF7F0FF002803D1201C00F0BC
:102D1C0065FE10BD9E21201CC90500F0B1FC00F021
:102D2C005DFE80231B069C466044F2E770B50022D2
:102D3C000C4B04000D00FFF79DFF002804D1200070
:102D4C00290002F055FC70BD064B00222000290022
:102D5C0002F09EF802F04CFC80231B069C4660445B
:102D6C00F1E7C0460000E041F0B5C64643025B0AFD
:102D7C004E0245004F00DA00C40F9C46700A904684
:102D8C0000B52D0E3F0EC90FB6098C424BD0EA1B75
:102D9C00002A36DD002F61D0FF2D00D1ADE080235D
:102DAC00DB041E431B2A00DCD3E001204346181A27
:102DBC00430100D48CE080018709380002F074FDD7
:102DCC0005388740854200DCB6E02D1AB348384000
:102DDC00430704D00F230340042B00D004304301DD
:102DEC0000D478E06A1CFE2D65D08001430A9C4615
:102DFC00D2B26346D0051843E407204380BCB846E2
:102E0C00F0BD002A35D07A1B002D00D0AFE0434630
:102E1C00002B00D1A7E0531E012A00D12FE1FF2A7D
:102E2C0069D01A00AAE0E91B002970DD002F37D009
:102E3C00FF2D62D08023DB041E431B2900DCB0E095
:102E4C0001204044430143D50135FF2D33D00123EC
:102E5C00934A0340400810401843B9E7002E00D1B4
:102E6C0083E0511E012A00D1D8E0FF2A45D00A0088
:102E7C0098E7FE276A1C174200D086E0002D00D090
:102E8C00B7E04346002B00D1F3E00022002EB0D077
:102E9C00981B430100D4FAE043460C00F01A97E764
:102EAC00002E00D1C8E04A1E012900D1AEE0FF2956
:102EBC0023D01100C1E70023FF229C4699E7FE2195
:102ECC006A1C114277D0FF2AF5D0150046447008D1
:102EDC00430700D07EE7C308FF2D0ED05B025B0AD0
:102EEC009C46EAB285E7002E07D08022D20313421B
:102EFC0003D0104201D10C000300002BDBD080204A
:102F0C00C00318434002430A9C46FF2271E7002984
:102F1C00D5D07A1B002D60D14346002B24D0531EF4
:102F2C00012A73D0FF2AE7D01A001B2A00DC85E0A7
:102F3C0001203D00801985E720233A00451B38000D
:102F4C000135EA405D1BA840431E98410025104303
:102F5C003EE7202330009B1A31009840D140431E9D
:102F6C009841084322E70C0003001500B4E7FF2F3B
:102F7C00C1D080234046DB04184380461B2A51DD18
:102F8C0001200C003D00301A12E743469F1B7B01C9
:102F9C002BD4002F00D010E70023002400229C46E5
:102FAC0027E7202332003000CA40591A8840431EBC
:102FBC009841104345E7002D4AD14346002B63D07E
:102FCC000022002E00D114E730004044430100D40D
:102FDC007EE7324B013518407AE7FF2F8CD08023E7
:102FEC004146DB04194388469FE743460C00F71A19
:102FFC00E3E64246002A00D075E7002E00D07AE7BF
:10300C008023DB0300249C46FF22F2E63000404480
:10301C000125430100D45BE7022518E7434601254F
:10302C00981BC5E6202344464046D4409A1A90404B
:10303C00431E98412043A4E70D004DE72023414651
:10304C004046D1409A1A9040431E9841084370E77D
:10305C004246002A00D14FE7002E00D14DE78022D6
:10306C00D203134200D148E7104200D045E70300D9
:10307C0043E7002E90D00C0084460022B9E643466C
:10308C000C00F01A013593E684460022B1E60028C4
:10309C0000D01DE7002300249C46AAE6FFFFFFFB9F
:1030AC00FFFFFF7DF0B54F464646D6464502C0B5FC
:1030BC0047000C1C6D0A3F0EC60F002F00D170E0AC
:1030CC00FF2F00D175E0EB008025ED041D4300239C
:1030DC0099469A467F3F6002430A984663001B0E4E
:1030EC00E40F002B4ED0FF2B46D04246D00080225E
:1030FC00D2040243904600227F3B3100FF1A4B461C
:10310C006140C9B213430F2B00D9B5E06E489B0048
:10311C00C3589F4600239846260045469246534680
:10312C00022B00D189E0032B00D19EE0012B18D09B
:10313C003B007F33002B69DD6A0704D00F222A4045
:10314C00042A00D004352A0103D5604B1D403B00F6
:10315C008033FE2B00DD70E0AD016D0AD8B202E0C9
:10316C000E0000200025C0052843F6073043E0BCC4
:10317C00BA46B146A846F0BD4346002B3FD10222C9
:10318C00FF3F03E04346002B2DD1012231004B467B
:10319C006140C9B213430F2B34D84D489B00C35820
:1031AC009F46002D13D104239946033B00279A46D2
:1031BC0091E7002D05D108239946063BFF279A4637
:1031CC0089E70C239946093BFF279A4683E7280099
:1031DC0002F06AFB7627431F9D4000237F429946ED
:1031EC009A463F1A77E7404602F05EFB4246431F81
:1031FC009A4076235B4290461B1A00227DE7FF2300
:10320C0003227AE70E00FF200025ACE70120C01A4C
:10321C001B28A6DC9E372A00BD40C2406B1E9D4178
:10322C0015436B0704D00F232B40042B00D004351F
:10323C006B0144D50120002595E7FF20002592E77E
:10324C0080250026FF20ED038DE700239846802083
:10325C00C003054209D04346034206D14546054307
:10326C006D022600FF206D0A7DE78020C003054318
:10327C006D02FF206D0A76E742466B0150018342D6
:10328C0019D21B220025013F01261C006D005B009A
:10329C00002C01DB984201D81B1A3543013A002A55
:1032AC00F3D15A1E93411D433B007F330E00002B7C
:1032BC0000DD41E7AAE71A2201251B1AE4E7AD015C
:1032CC0000206D0A4FE7C046409C0008FFFFFFF747
:1032DC00809C000870B5420045024E024C00C30FA2
:1032EC006D0A0120120E760A240EC90FFF2A06D091
:1032FC00FF2C03D0A24201D1B54206D070BD002DE7
:10330C00FCD1FF2CFAD1002EF8D18B4206D0012033
:10331C00002AF3D12800431E9841EFE70020EDE787
:10332C0070B5420045024E024C00C30F6D0A120EDE
:10333C00760A240EC80FFF2A1BD0FF2C0ED0002AB1
:10334C001BD1002C01D1002E1CD0002D0CD083429F
:10335C001CD00221581E0840013870BD002E22D10D
:10336C00002AF4D1002DF2D10028F6D101204042E0
:10337C00F3E7002D17D1FF2CF0D0002CE7D1002E55
:10338C00E5D1E6E70020002DE7D0E2E7A24205DC1C
:10339C00EADBB54202D8E7D30020DEE743425841CE
:1033AC0040000138D9E702204042D6E770B5420010
:1033BC0045024E024C00C30F6D0A120E760A240E03
:1033CC00C80FFF2A0BD0FF2C0DD0002A1FD1002CC8
:1033DC0016D1002E14D10020002D10D009E0002DA4
:1033EC000CD1FF2C13D1002E08D1002A08D0834217
:1033FC0012D00221581E0840013800E0022070BD96
:10340C00002DF4D10028FAD101204042F7E7002C1E
:10341C00EDD1002EEBD1ECE7A24205DCF2DBB5429C
:10342C0002D8EFD30020EAE743425841400001386C
:10343C00E5E7C046F0B54F464646D6464402450041
:10344C00C0B5640A0F1C2D0EC60F002D00D18DE0E7
:10345C00FF2D00D192E00023802099469A46E4008B
:10346C00C00404437F3D7802430A98467B001B0E40
:10347C00FF0F002B00D170E0FF2B00D186E04246FD
:10348C00D00080227F3BED180023D20402439046EB
:10349C009C4631004B467940681C0F2B1CD8764A51
:1034AC009B00D3589F4639004446E2465346022BB4
:1034BC000FD0032B00D1D7E0012B37D100200024F3
:1034CC00C0052043C9070843E0BCBA46B146A8462C
:1034DC00F0BDFF200024F3E7260C2404220C444604
:1034EC002404240C434627001B0C574374435A43B3
:1034FC005E4312193B0C9B189C4203D9802252024A
:10350C00944666443F041A043F0CD2199401671E7A
:10351C00BC411B0C920E9B1914439B011C431B01B9
:10352C0000D49BE0012362081C40144302007F324C
:10353C00002A64DD630704D00F232340042B00D042
:10354C000434230103D502004C4B80321C40FE2A6C
:10355C00BFDCA401640AD0B2B2E74346002B3DD1D4
:10356C004A4601331A4391469C4692E7002C29D1D6
:10357C0004239946033B00259A4674E7002C1BD183
:10358C0008239946063BFF259A466CE74346FF35D0
:10359C00002B0BD102234A461A4391469C4678E7EE
:1035AC0053463100022B00D083E792E703234A46AF
:1035BC001A4391469C466CE70C239946093BFF2520
:1035CC009A4650E7200002F06FF97625431F9C4085
:1035DC0000236D4299469A462D1A44E7404602F064
:1035EC0063F94246431F9A4000232D1A90469C468D
:1035FC00763D4EE780240021FF20E40360E70123A1
:10360C009B1A1B2B00DD59E722009E30DA408440C8
:10361C001300621E94411C43630704D00F23234004
:10362C00042B00D0043463011AD50120002447E791
:10363C008020C003044209D04346034206D14446CD
:10364C00044364023900FF20640A39E78020C00378
:10365C00044364023100FF20640A31E7280065E767
:10366C00A4010020640A2BE78020C00304436402F9
:10367C00FF20640A24E7C046C09C0008FFFFFFF748
:10368C00F8B5CE46474643025B0A4E02DA00944632
:10369C00720A914645004A0080B52D0E1F00C40FDA
:1036AC00120EC90FB609FF2A5BD0012041408C4293
:1036BC0039D0A81A00285ADD002A6AD0FF2D00D173
:1036CC00D9E08022D20416431B2800DCE9E001205B
:1036DC006346181A430100D4B4E08001870938000E
:1036EC0002F0E2F805388740854200DCCCE02D1A68
:1036FC00B5483840430704D00F230340042B00D0B7
:10370C000430430100D4A0E06A1CFE2D00D18DE0F2
:10371C008001470AD2B2D0053843E4072043C0BC2D
:10372C00B946B046F8BDA81A8046002845DD002AE7
:10373C0070D0FF2D00D19EE08023DB041E43434656
:10374C001B2B00DCD2E00120604443017AD501350B
:10375C00FF2D6BD001239D4A0340400810401843B5
:10376C00C8E7002E20D08C4223D02800FF38002838
:10377C0039D0571B002D00D09DE06346002B00D1A3
:10378C00DBE07B1E012F00D10DE1FF2F71D01F005C
:10379C0098E0002E00D1A7E0421E012800D1E6E0FF
:1037AC00FF2868D010008FE701204140A14200D0D3
:1037BC007FE7FF2040428046A8444046002838D08E
:1037CC00511B002D00D1AEE0FF2A00D1DFE0802399
:1037DC006046DB04184384461B2900DCD9E0012039
:1037EC0015008019B1E7FE206A1C104271D1002D22
:1037FC0000D0A6E06346002B00D1D9E00022002EB9
:10380C0000D188E7981B430100D4E1E063460C002B
:10381C00F01A6FE7002E00D1B7E00200013A012840
:10382C0000D19CE0FF2826D0904688E7FF22002795
:10383C0071E7FE206A1C104264D0FF2AF6D01500F6
:10384C0066447008430700D056E7C308FF2D12D01A
:10385C005B025F0AEAB25EE76246002A00D196E09C
:10386C00002E08D08022D203134204D048461042C6
:10387C0001D10C004B46002BD8D08027FF031F43EF
:10388C007F02FF227F0A46E720233A00451B3800BF
:10389C000135EA405D1BA840431E984100251043AA
:1038AC0028E720231B1A32009E40C2403000431EE2
:1038BC00984110430CE7FF2ADBD080236046DB04E1
:1038CC00184384461B2F56DD01200C001500301ABE
:1038DC0000E763469F1B7B013DD4002F00D0FEE622
:1038EC0000240022002716E70500AFE7320043460C
:1038FC004146DA4020235B1A9E403000431E98411B
:10390C00104321E7002DA7D16346002B59D000228C
:10391C00002E00D1FFE630006044430192D52A4BC3
:10392C00013518408EE76346002B47D04B1E01290A
:10393C0015D0FF292BD019004EE70C004B463D004B
:10394C0084E76246002A8BD1002E92D18027002476
:10395C00FF22FF03DFE663460C00F71ABFE63000D8
:10396C0060440125430100D46CE70225F2E663466E
:10397C000125981BAEE6202364466046FC40DF1B05
:10398C00B840431E984120439FE705005EE74B4635
:10399C0071E7202365466046CD40591A8840431E86
:1039AC00984128431CE763460C000125F01A91E668
:1039BC00002E95D00C004F460022ACE64B460D0075
:1039CC0044E74F460022A6E6FFFFFFFBFFFFFF7D0B
:1039DC00002800D036E7002400279CE64102420074
:1039EC00C30F490A0020120E7E2A03DD9D2A02DD38
:1039FC00094A98187047802000040143952A07DC77
:103A0C009620821AD1404842002BF3D10800F1E7EE
:103A1C00963A9140F7E7C046FFFFFF7FF8B50028C4
:103A2C0013D0C317C6185E40C40F300001F03CFF22
:103A3C009E2305001B1A962B0FDC082801DD083D80
:103A4C00AE407602760AD8B202E0002400200026AE
:103A5C00C0053043E4072043F8BD992B0CDD05224B
:103A6C003100121AD1400A00010030001B3188408D
:103A7C00411E884102431600052D12DC31000D4F0A
:103A8C003940720709D00F203040042805D004318A
:103A9C004A0102D59F2339405B1B89014E0AD8B2DB
:103AAC00D6E76A1F96403100024F39407207F4D0B6
:103ABC00E9E7C046FFFFFFFB70B5051E0ED001F015
:103ACC00F3FE9E2304001B1A962B0CDC082801DD48
:103ADC00083CA5406D026D0AD8B201E0002000251B
:103AEC00C005284370BD992B09DD020029001B324B
:103AFC0091404A1E91410522121AD5400D43052CC6
:103B0C0012DC29000C4E31406A0709D00F202840E6
:103B1C00042805D004314A0102D59F2331401B1BD8
:103B2C0089014D0AD8B2DBE7621F95402900024E8D
:103B3C0031406A07F4D0E9E7FFFFFFFBF0B54F46D1
:103B4C004646D6460D000400C0B51F0011002803E0
:103B5C00620F400A10437A00520DE3003C03914679
:103B6C00640AFA0F4F0F6E0027439246B846760D43
:103B7C00ED0FC900954200D199E04C46341BA44688
:103B8C00002C00DC7CE04A46002A00D1B8E0C54A93
:103B9C00964200D11CE180223C0012041443A04642
:103BAC006246382A00DD61E11F2A00DDCCE1644663
:103BBC002022121B444694400F00A14664469140BB
:103BCC00E7404C464A1E91413C43424621436446E1
:103BDC00E240801A5C1AA3429B415F42C71B3B0226
:103BEC0000D4D0E07F027F0A002F00D1FFE0380024
:103BFC0001F05AFE01000839202322005B1A8F4085
:103C0C00DA408C401743B14200DAFFE0891B4B1CB1
:103C1C001F2B00DDA8E020223900D21A200094408E
:103C2C009140D840621E9441DF40002601430C4372
:103C3C00630709D00F232340042B05D0231DA34277
:103C4C00A44164423F191C003B0200D49EE0954BFA
:103C5C0001369E4200D1B7E0934AE40817407B0737
:103C6C0071057F0223433F0B4A0D12053A43ED07C2
:103C7C002A4318001100E0BCBA46B146A846F0BD74
:103C8C00002C4BD04C46A41BA446002E00D023E1A4
:103C9C0004001C4300D1AFE16246541E012A00D13E
:103CAC0015E2804DAC4500D1C8E1A4461BE14A4663
:103CBC00B21A9446002A00DCACE04A46002A43D0F3
:103CCC00784A964200D1AFE180223C0012041443A2
:103CDC00A0466246382A67DC1F2A00DC5FE14746B3
:103CEC00203AD7406246202A05D064464022121B57
:103CFC004446944021434A1E91410C003C4357E0FA
:103D0C003A000A4300D105E12200013A012C00D10E
:103D1C0082E1644CA4455BD0944641E7634C771C2C
:103D2C00274200D0C4E004001C43002E00D069E1FF
:103D3C00002C00D1BFE144460C4300D0D0E1420737
:103D4C00DB081343C00829E03A000A4300D170E1B4
:103D5C0062466446013A012C00D1E0E0514CA44586
:103D6C0000D161E19446B4E73A001F39CA40110012
:103D7C00202B03D04022D31A9F403C43631E9C410E
:103D8C00002700260C43630700D053E7B446E40831
:103D9C007B072343F808434A94451DD0624607032A
:103DAC0052053F0B520D60E744460C43621E944192
:103DBC00E4189C429B415F423F183B02E3D5394BD0
:103DCC0001369E4200D0B5E03200002700234CE7BC
:103DDC004207DB081343C0081A00024300D1E1E19B
:103DEC0080273F0307433F032E4A3F0B3DE720004C
:103DFC0001F05AFD010018311F2900DCFCE60838DF
:103E0C00844027000024B14200DBFFE6264A761AE4
:103E1C0017400DE7002A2FD04A46921B9446002EDD
:103E2C0000D1ADE01F4A914500D10FE18022120470
:103E3C0010436246382A00DD0FE11F2A00DD80E1C5
:103E4C00644620221E00121B6746040093409440D7
:103E5C00FE405A1E9341F84034431C43804464187E
:103E6C008C42BF417F424E464744A6E742460A4336
:103E7C0011004A1E9141ADE60C4C721C224200D03E
:103E8C00A1E002001A43002E00D0FAE0002A00D173
:103E9C0045E13A000A4300D046E14207DB081343F0
:103EAC00C0087BE7FF070000FFFF7FFFFE07000055
:103EBC0047465C1AC21BA342BF417F42B94617005A
:103ECC004A46BF1A3A0200D58DE023003B4300D08E
:103EDC008AE60020002561E7B44CA14500D1ADE095
:103EEC008024240420436446382C3DDC62461F2C7D
:103EFC0000DDB7E020251E002D1B0400AB40AC40BC
:103F0C00D640D04042465D1EAB413443121A904617
:103F1C0023432CE04207DB081343C0083BE75C1843
:103F2C009C429B4140445B42C71801263B0200D493
:103F3C0029E702269E4A63081740012214401C43BD
:103F4C00FB071C437F0873E64446203AD440624684
:103F5C00202A05D067464022D21B4746974039435A
:103F6C004A1E9141214335E60343581E8341CC1A26
:103F7C00A142BF4143467F4255464E46DF1B2EE6CB
:103F8C0002001A4300D1BDE062466446013A012C9E
:103F9C0000D1E5E0854CA44558D0944649E76446E9
:103FAC002022121B444694400F00A14664469140C7
:103FBC00E7404C464A1E91413C4342460C43614605
:103FCC00CA408018F4E6794CA24200D1FDE659189B
:103FDC0099429B4140445F42C719FC0749081600AF
:103FEC000C437F08CFE6CC1AA142BF4143467F4227
:103FFC00181A5546C71BF7E5C9087B0755460B43EE
:10400C00F808C8E6002C00D081E043460B4315D1DC
:10401C00802000250003E3E65C1AA3429B41C71BEA
:10402C005B420126FF1ADAE54207DB081343C0089E
:10403C00D2E64207DB081343C008ACE643464246CF
:10404C00C9085B0755460B43D008C5E643464246B4
:10405C005B07C9080B43D008BEE603431C00631E74
:10406C009C41FCE60200203CE24014006246202AFF
:10407C0003D04025AD1AA8400343581E8341234367
:10408C0075E7002AE2D03A000A43CDD04207DB089C
:10409C0013438022C0081203104206D0FC081442BD
:1040AC0003D12000CB087A0713435A0FDB005207C9
:1040BC00DB08134390E643460B4300D109E7434624
:1040CC004246C9085B0755460B43D00866E6CC1A36
:1040DC00A14289413F1A4942554601267F1A7EE585
:1040EC0042465C1A871AA34292415242BF1A3A02C4
:1040FC003DD5CC1AA1428941434649421F1A554627
:10410C007F1A95E57B07C9080B43F80843E644463C
:10411C00DB080C4330D142071343C0085CE67B0735
:10412C00C9080B43F80839E65C189C429B41404493
:10413C005B42C7183B0200D425E61D4B01261F40ED
:10414C0021E60400203AD4406246202A04D04022C2
:10415C006646921B904003435A1E93411C437EE6D5
:10416C005C188C428941404449424718DDE62300E3
:10417C003B4300D1ADE606E6440723438024C00848
:10418C002403204208D04246D608264204D1554684
:10419C003000CB0851070B435A0FDB00DB085207EA
:1041AC00134319E60023014A1F005EE5FF070000D8
:1041BC00FFFF7FFFF0B557464E464546DE46E0B55D
:1041CC00814605000C03480092461F0085B0240B65
:1041DC00400DCE0F002800D156E1D44B984200D1AF
:1041EC0072E16B0FE4001C4380231B0423439846AD
:1041FC00CF4BED009B4600239946834400933C0330
:10420C007B005046240B5B0DFF0F002B00D11FE1F0
:10421C00C64A934200D162E1C549420F8C46E40084
:10422C0059461443802263441204CB1A14439B4610
:10423C00C200002033007B409A464B460F2B27D8F8
:10424C00BC499B00CB589F46B246009B022B16D014
:10425C00032B00D18EE2012B00D0D9E000230024E7
:10426C00002552461B052343D2071343280019008F
:10427C0005B0F0BCBB46B246A946A046F0BD002432
:10428C000025AA4BEDE7BA46A04615000090DCE7E6
:10429C00444500D2C7E100D1C2E101235B429C46F8
:1042AC002E0040460025E3442302140E1C431B0C35
:1042BC00994623041F0C1202494600920197FEF7FF
:1042CC00B5FB02007A430B04310C804619438A4239
:1042DC0007D901235B429C460919E0448C4200D863
:1042EC0007E2881A4946FEF7A1FB09048C46310403
:1042FC006646019A090C4243030031438A4204D9B1
:10430C000919013B8C4200D8EDE1881A424612048F
:10431C001A4390464146009B0E041B0C1F0002934F
:10432C00009B360C1B04190C0B007343120C7E43C0
:10433C00039151437A431F0CBC4676186644B14234
:10434C0003D9802149028C466244310C8A1831040D
:10435C001E04360C8E19904202D312D1B54210D2E3
:10436C004346591E009B9C4665441F009D429B4141
:10437C005B421B19C018844200D2A0E100D19BE122
:10438C008846AE1BB542AD41801A6D42401B84423B
:10439C0000D1D5E14946FEF749FB019A0B04424393
:1043AC00310C050019438A4200D96CE1881A494640
:1043BC00FEF73CFB019A360442430904360C030019
:1043CC000E43B24200D953E10398B61A02002D04F1
:1043DC001D43029F2B041B0C5A437B439C46290C08
:1043EC004843130C844463447943984203D9802096
:1043FC00400284466144180C12041B04120C411830
:10440C009B188E4200D2FFE000D1FAE001231D433D
:10441C00494A5A44002A00DCAAE06B0700D03DE16F
:10442C00ED084346DB0106D54246444B1A40904604
:10443C008022D2005A44424B9A4200DD1FE7434689
:10444C005B071D43434652055C02240B530D08E7E2
:10445C005246224300D17BE0002C00D1FAE0200030
:10446C0001F022FA02000B3A1D2301009B1A52465E
:10447C000839DA408C40144352468A40314B584438
:10448C009B4683440020D5E64B462343984644D0B4
:10449C00002C00D1CEE0200001F006FA0100020051
:1044AC000B391D235B1A49461000D940083884404B
:1044BC000B004D462343984685402348831A9B4660
:1044CC000023994600939AE64B46234398461DD108
:1044DC0008239946063B0025834600938FE65246F7
:1044EC00224309D1022349461943184B89469C465D
:1044FC0000240220E3449DE603234A461A43134B4F
:10450C0091469C4652460320E34493E60C2399467D
:10451C00093BA0468346009371E604239946002389
:10452C009B4601330025009369E6C046FF07000057
:10453C0001FCFFFF009D0008FF030000FFFFFFFED2
:10454C00FE070000F30300000DFCFFFF01F8FFFF66
:10455C004946012319438946002401206AE60023B9
:10456C0080249A4600258A4B24037AE601256D4265
:10457C0001239B1A382B00DD70E61F2B00DCBFE0FB
:10458C001F2149428A1A4146D1400A00202B04D0EF
:10459C004146804B5B4499400D436B1E9D41072364
:1045AC002A431D0000241540134200D1D4E00F21F2
:1045BC0000231140042900D1CBE0111D91429241FE
:1045CC0052429B180A00190200D4C2E001230024B5
:1045DC00002546E6802341461B03194208D01C42A5
:1045EC0006D11C432403BA461500694B240B38E64C
:1045FC008024434624031C432403B246644B240BFF
:10460C002FE6002B00D103E7A619681EA64200D2A4
:10461C008DE08E4200D2A3E000D1B3E00500F5E6B8
:10462C00AA4200D939E64346DE0758086B081E43F8
:10463C00ED0739E6484601F037F901000200153163
:10464C0020321C2900DC2CE74B460838834000251F
:10465C00984632E701F028F903001A001532203091
:10466C001C2A00DC00E75446083B00229C4005E76E
:10467C003619013BB44200D9A6E6B24200D8A3E6F3
:10468C00831E3619A0E60919013D8C4200D98DE62E
:10469C008A4200D88AE6851E091987E60F232B402B
:1046AC00042B00D1BCE605235B42AB429B41043595
:1046BC005B42ED089844B4E6AF4200D960E6824212
:1046CC0004D800D05CE6AE4200D859E602235B4227
:1046DC009C46009BE0449C4665449D429B415B424A
:1046EC001B19C0184DE68A4200D80EE6831E091924
:1046FC000BE68A4200D8F4E5831E98460919F0E5CA
:10470C002549280059448D4042468A40691E8D41F6
:10471C004146D840D94002432A430B00510700D1EF
:10472C0051E70F211140042900D046E74BE7050063
:10473C008E4200D06AE6009A934200D066E667E6A5
:10474C00164A5A44002A00DC10E70123002598443D
:10475C0067E65D075B021C0BD2080023154380E55E
:10476C000098023D42008242BF417F423C193619FB
:10477C000092DDE78024434624031C432403044BAE
:10478C00240B6EE5009A9A42EAD30500D3E7C046A3
:10479C00FF0700003E0400001E040000FF030000A1
:1047AC00F0B54E464546DE4657469046E0B51700F6
:1047BC001A03120B0500844619480E034C0091464F
:1047CC005A00DB0F9B46360B640DC90F520D844209
:1047DC0019D0824210D0012094420ED14E450CD1FA
:1047EC000120C44509D1594517D0002C05D1300002
:1047FC002843431E984100E00120F0BCBB46B24662
:10480C00A946A046F0BD330001202B43F5D1A242AE
:10481C00F3D14B463B43F0D1E2E70020EDE7C04635
:10482C00FF070000F0B54746CE46040018001600FE
:10483C001B031B0B2D4D4A00994680B543000F03FB
:10484C00A446B0463F0B520DC90F5B0DC00FAA42D8
:10485C0021D0AB4213D0002A22D13C43002B02D1F1
:10486C004D462E4322D0002C10D0814222D0022063
:10487C00013908400138C0BCB946B046F0BD4D46C0
:10488C002E4329D1002AF0D13C43EED10028F2D19D
:10489C0001204042EFE73D0025431DD19342EED06D
:1048AC00002BE2D14C462643DFD1E0E70020002C60
:1048BC00E1D0DCE79A420ADCE8DB4F45D7D80ED0D2
:1048CC0000204F45D7D20029E2D00800D3E743425D
:1048DC00584140000138CEE702204042CBE7C445A6
:1048EC00C5D80020C445C6D2EDE7C046FF0700007E
:1048FC00F0B54746CE460400180016001B031B0BF0
:10490C002C4D4A00994680B543000F03A446B0468F
:10491C003F0B520DC90F5B0DC00FAA420DD0AB421D
:10492C0010D0002A27D13C43002B11D14D462E43E9
:10493C000ED10020002C15D00EE03D00254310D1E7
:10494C00934218D14D462E430BD1002A02D13C4341
:10495C00002C0BD0814214D00220013908400138C0
:10496C0000E00220C0BCB946B046F0BD0028F9D129
:10497C0001204042F6E7002BECD14C462643E9D10E
:10498C00EAE79A4204DD4342584140000138E9E726
:10499C009A42EBDB4F45DFD806D000204F45E1D2E1
:1049AC000029E5D00800DDE7C445D5D80020C44572
:1049BC00D8D2F5E7FF070000F0B557464E464546FE
:1049CC00DE46E0B598460C034B000600924687B0D5
:1049DC00240B5B0DCF0F002B00D15CE1D94A934225
:1049EC0000D175E1420FE4001443802212041443F9
:1049FC00D54AC500944663440093002399469B46D0
:104A0C00434642461E03D20F5B0050469046360B7F
:104A1C005B0D00D120E1CB4A934200D162E1CA493F
:104A2C00420F8C4600996344F6008C461643802254
:104A3C009C44120463461643C20000200093009964
:104A4C00434601318C4649467B4001930F2926D8B9
:104A5C00BE4B890059588F464346019334001500CC
:104A6C0083465B46022B16D0032B00D103E2012BAD
:104A7C0000D0CDE0002200240025019B120522432A
:104A8C00DB071A432800110007B0F0BCBB46B24646
:104A9C00A946A046F0BD00240025AA4AEDE7280C43
:104AAC002D042D0C2B00110C1204120C53439846A0
:104ABC0013002F00434399464F434F44BB46474690
:104ACC000B003F0CBA464343DA440293D14504D958
:104ADC0080277F02B9464B44029353461B0C9B46DE
:104AEC0053461F0443461B041B0C98463B0043448F
:104AFC000493330C3604360C9846330043439946E2
:104B0C00434643432F009A46434677435D43380C54
:104B1C004D444519A94503D980235B029946CA44E3
:104B2C003F04280C3F0C2D04ED19270C2404240CF5
:104B3C000300200050437A4391463A0053440593B6
:104B4C00030C9A464A43614349445144AB4489455A
:104B5C0003D980235B0299464A4400040B0C000CD9
:104B6C000904091820009946434670435C437E4370
:104B7C005F43030C9846A41944444A440397A64245
:104B8C0004D980235B029846474403972304029E72
:104B9C009A46059B5E449846AE42AD4176188E42CD
:104BAC0089410004000C504440446D424719B846FA
:104BBC00934649428946C344D94498428041A8450A
:104BCC00AD4193459241894589416D42404228430C
:104BDC00240C524249420A43039B00198018C718FF
:104BEC004B46DC0D049B75021D436A1E95414B46DA
:104BFC00F60D7F0235435A023C431543FB0100D4AA
:104C0C001CE101216A080D401543E20715436408B5
:104C1C004F496144002900DCB0E06B0709D00F223A
:104C2C002A40042A05D02A1DAA42AD416D426419BE
:104C3C001500E30104D58021464AC90014406144A3
:104C4C00454A914200DD26E76207ED0864024905FA
:104C5C001543240B4A0D10E75246324300D17FE036
:104C6C00002E00D1DCE0300000F01EFE02000B3AFA
:104C7C001D2301009B1A52460839DA408E40164318
:104C8C0052468A40009B3549181A03008C466344EF
:104C9C0000200093D3E6250005434AD0002C00D118
:104CAC00B0E0200000F000FE010002000B391D23D3
:104CBC0010005B1A3100350008388440D94085401B
:104CCC000C432648831A0093002399469B4697E68B
:104CDC000500254326D10822009302230024914687
:104CEC009B468DE65246009B324310D11549002657
:104CFC008C4663444946009302231943894602209B
:104D0C009DE65B460197022B00D0ADE6C3E60D4A4B
:104D1C000320944663444A46009303231A43914666
:104D2C0052468CE60C2200930323050091469B46C9
:104D3C0066E60423994600230093013300249B4626
:104D4C005EE6C046FF07000001FCFFFF409D000827
:104D5C00FF030000FFFFFFFEFE0700000DFCFFFF3E
:104D6C0049460123194389460026012067E60023A2
:104D7C0080240025434A019324037EE60120401A37
:104D8C00382800DD76E61F285BDD1F222300524207
:104D9C00511ACB401900202803D03B4A624494405E
:104DAC0025436A1E95412A000A4307210D00002461
:104DBC00154011425BD00F2100241140042953D01F
:104DCC00111D914292415242A4180A0023024BD564
:104DDC0001220024002550E680231B031C4209D02D
:104DEC001E4207D133431C0343461500240B254AAE
:104DFC00019342E68022120314432403214A240B1C
:104E0C0001973AE600F050FD010002001531203206
:104E1C001C2900DC4BE7340008380025844050E79F
:104E2C0000F042FD03001A00153220301C2A00DC71
:104E3C001EE75646083B00229E4023E7009B9C46FB
:104E4C00E6E61249220061442E008D408A40C6409D
:104E5C00691E8D4132432A43C4405307B6D00F21FB
:104E6C0011400429ACD1B1E765076402240BD208C8
:104E7C001543002201E68022120314432403014A45
:104E8C00240BFAE5FF0700003E0400001E0400009E
:104E9C00F8B557464E464546DE46E0B51E001700AF
:104EAC004A000B03520D5B0A9046420F1A43CD0F7A
:104EBC00CD4C3103C300944670007A0F490AFF00B1
:104ECC009A46B946400DF60F1143A04200D1B1E00D
:104EDC0001225640B346B54200D188E04246121A30
:104EEC00002A00DCAEE0002800D1C1E0BE488045BD
:104EFC0000D151E1802000040143382A00DD7BE120
:104F0C001F2A00DDEEE120203E00801A0C00D64066
:104F1C00D140874062468440521A781E874194469D
:104F2C0034432743DC1BA3429B4162465B42D31AAA
:104F3C0099464B461B0200D418E14B465802430AD3
:104F4C0099464B46002B00D137E1484600F0ACFCAB
:104F5C00010008392023220048465B1ADA408840B9
:104F6C008C4043461043884500DD36E1C91A4B1C82
:104F7C001F2B00DDEAE020222600D21A010094400B
:104F8C00DE40D84000239140621E944181469846F1
:104F9C0031430C43630709D00F232340042B05D066
:104FAC00231DA342A4416442A1441C004B461B0296
:104FBC0000D4DEE041468C4B0131994200D1E7E050
:104FCC004B468A48E4080340180049055B07400239
:104FDC0023434A0D040B1205ED0722432A43180004
:104FEC001100F0BCBB46B246A946A046F8BD4246ED
:104FFC00121A002A52DD002800D19CE0A04500D1F5
:10500C00CAE0802000040143382A00DD49E11F2A50
:10501C0000DC97E110000E002038C640202A04D096
:10502C004020821A91400F43B9464C46621E94416F
:10503C0034433AE10A003A4328D0B346B5422BD068
:10504C006B4A4244002A5DD042464446821A002CE8
:10505C0000D0F5E065461D4300D19CE1551E012AA8
:10506C0000D1FBE1604CA24200D1BDE12A00F0E08E
:10507C000800384300D1C3E0501E012A00D1A8E13A
:10508C00594CA24200D187E0020036E7012256407B
:10509C00B346B54200D021E7554A4244002A00D11C
:1050AC00B5E042464446821A002C00D138E14E4EFF
:1050BC00B04200D1DEE18026644636043443A44677
:1050CC00382A00DD96E11F2A00DD24E22026B41ADE
:1050DC00A24664465646B440A1461C004E46D440F7
:1050EC00264334005646B3405E1EB3411C43634610
:1050FC00D340C918E419BC42BF417F42B94680462F
:10510C008944D8E040463B4C0130204200D0B4E00A
:10511C004046002800D044E16046184300D190E19D
:10512C000800384300D0AAE16146DB0849070B436D
:10513C006146CC0827E00800384361D0501E012A94
:10514C0000D139E1A24227D002005DE702001F39ED
:10515C00CA401100202B03D04022D31A984004439C
:10516C00631E9C410023994698460C43630700D06C
:10517C0012E74B464A46E4085B072343D4084246F1
:10518C0019498A420ED024035205240B520D22E7F2
:10519C000A00002400231EE7DB0862465207134373
:1051AC006246D4081A00224300D1FCE1802212038B
:1051BC00144324030C4A240B0DE7200000F074FB6D
:1051CC00010018311F2900DCC4E60838844043462E
:1051DC0020000024884500DCC8E6044A5B1A104015
:1051EC0098468146D6E6C046FF070000FFFF7FFFCA
:1051FC0001F8FFFFFE0700000F437A1E974191E66E
:10520C006146DB0849070B436146CC08B8E74046CA
:10521C00D34C0130204200D0A2E04046002800D000
:10522C0001E16046184300D15EE10800384300D02C
:10523C005FE16146DB0849070B436146CC08A2E7F6
:10524C00C84DA84200D1CFE0802564462D042C43E4
:10525C00A446382A56DC1F2A00DDD1E020251E008A
:10526C00AD1A6446AB40AC40D6405D1EAB413443F6
:10527C0023436446D440091B49E06046DC1B461AB4
:10528C00A34280414042814630004E46801B8146FD
:10529C00000276D44B46234300D052E6002400256E
:1052AC0071E739430C00621E9441E4189C429B4107
:1052BC005B42634499464B461B0200D456E70123DC
:1052CC009C46A84BE044984538D04B46A648012252
:1052DC0003401800630814401C43C3071C434308D5
:1052EC00994657E610000E002038C640202A04D0FC
:1052FC004020821A91400F43B9464F467A1E97417F
:10530C0037430FE662461A4313005A1E9341FC1AA8
:10531C00A742BF417F42CB1B99465D46804608E6BB
:10532C0066461E4300D1BEE0561E012A00D109E19B
:10533C008C4CA24200D119E13200C1E64246002455
:10534C00002348E620200C00801A3E008740844051
:10535C00D640781E8741D14034433C438C44A4E76B
:10536C00804A904200D1E9E0DF199F429B416144A1
:10537C005B42C918CC077F084B08994680463C43D2
:10538C00F4E6FC1AA742BF4163467F42C91ACB1B05
:10539C0099465D46D5E5FF084B075D463B43CC0877
:1053AC00EEE662461A4300D082E00B003B431BD171
:1053BC00802400252403F9E6DC199C429B416144BE
:1053CC0089465B4299444B461B0244D401239846C0
:1053DC00CCE6DC1B6246A3429B41511A5B42CB1AC2
:1053EC00994601239846A4E5FF084B075D463B43CD
:1053FC00CC08D7E662461A431400631E9C4179E63A
:10540C0015006446203DEC40A046202A05D04025DE
:10541C006446AA1A944023439A465446631E9C4100
:10542C004346234373E762461A4323D00A003A43A8
:10543C0000D0A0E06246DB08520713436246D40852
:10544C00B0E60B003B4300D128E7FF084B075D4655
:10545C003B43CC0897E60223984636E7FC1AA74252
:10546C00BF4163467F42C91ACB1B994601235D4657
:10547C0098465EE54B07FF083B43CC0892E6DC1BE5
:10548C006046A342B641401A7642801B8146000218
:10549C0060D5FC1AA742BF4163467F42C91ACB1B99
:1054AC0099465D4676E5FF084B073B43CC0867E61B
:1054BC000A00DB083A4300D16FE6624652071343F9
:1054CC006246D40880221203144207D0C808104246
:1054DC0004D15D460400FB0849070B435A0FDB005F
:1054EC00DB08520713435DE64B07FF083B43CC0830
:1054FC0049E6DC199C429B41614489465B429944D4
:10550C004B461B0200D431E64A46174B1A40012386
:10551C00914698462AE616006446203EF440A04682
:10552C00202A05D040266446B21A944023439A465A
:10553C005446631E9C4143461C43DBE50200002499
:10554C00002348E5DC19BC42BF41614489467F42D7
:10555C00B94438E74B46234300D19FE606E6C046E4
:10556C00FE070000FF070000FFFF7FFFFF084B074F
:10557C003B43CC0816E66246DB08520713436246EF
:10558C00D40880221203144207D0C808104204D158
:10559C005D460400FB0849070B435A0FDB0052071A
:1055AC00DB081343FEE50023014A1C0013E5C0464B
:1055BC00FF07000070B505000C481C0316005B00CB
:1055CC000A034900120B490D240B5B0D814208D0D4
:1055DC00064A0020934203D120003043431E9841D9
:1055EC0070BD01202A43FBD1F2E7C046FF07000043
:1055FC000A0030B5134C530009030500090B0020B9
:10560C005B0DD20FA34204DD0F48834202DD0F4B2A
:10561C00D01830BD8020400301430D48C01A1F280C
:10562C0008DD0C48C31AD9400B005842002AF0D1AF
:10563C001800EEE7084CC540A446634499400B00A3
:10564C002B43F2E7FE0300001D040000FFFFFF7F69
:10565C003304000013040000EDFBFFFF70B50028BD
:10566C0016D0C317C5185D40C40F280000F01CF9F4
:10567C00114A121A0A2816DC03002E0015339E401C
:10568C000B23181AC54052052D032D0B530D03E0A7
:10569C0000240023002500261B052B43E40723438D
:1056AC003000190070BD0B38854052052D030026C3
:1056BC002D0B530DF0E7C0461E04000010B5041E60
:1056CC0010D000F0F1F80F4B1B1A0A2811DC0B223A
:1056DC002100121AD14015300A035B058440120BCD
:1056EC005B0D01E0002300221B0513432000190071
:1056FC0010BD22000B3882405B0512030024120BF4
:10570C005B0DF1E71E04000070B543004602C40FA8
:10571C00FE201B0E591C750A08420CD0E022920088
:10572C0094466D07360B63441B053343E407234350
:10573C002800190070BD002B14D1002D1BD028009F
:10574C0000F0B2F80A281CDC0B232E001B1ADE40DA
:10575C00030015339D400E4A3603121A5205360BC0
:10576C00530DE1E7002D09D08022360B1203094BB3
:10577C006D071643D8E700230026D5E70026054B16
:10578C00D2E703000B3B9D402E000025E3E7C0460B
:10579C0089030000FF07000002004B00F0B55B0D11
:1057AC000C033D4E640A400F5F1CC90F0443D50027
:1057BC0037420AD039481E18FE2E16DDFF20002471
:1057CC00C0052043C9070843F0BD002B06D12C436C
:1057DC0026D005229201540AD8B2F1E72543EDD028
:1057EC008020C0030443FF20EAE7002E1BDD92015A
:1057FC00531E9A41E4006D0F22432A43530748D0AD
:10580C000F231340042B00D004328023DB041340FD
:10581C003FD0701CFE2ED1D09201540AC0B2CFE7FB
:10582C0000200024CCE73200173222DB8020000459
:10583C0020431E24A41B1F2C1DDD02225242961B4A
:10584C000200F2401600202C04D0154A9446634402
:10585C00984005432A00531E9A41324300265307B1
:10586C00CED180241300E404012023402242D3D162
:10587C00B0E70023ADE70B4A94462A00E24014003F
:10588C002A0063449A409840551EAA410243224381
:10589C00E4E733009EE7C046FE07000080FCFFFFF4
:1058AC00A2FCFFFF82FCFFFF1C2101231B0498427A
:1058BC0001D3000C10391B0A984201D3000A083995
:1058CC001B09984201D30009043902A2105C40184C
:1058DC007047C046040302020101010100000000F0
:1058EC00000000007FB5160002900391B468F568C3
:1058FC0050683388421C72609A421ED2FFF7DEFE5B
:10590C0002000B000090019120002900FFF754F8D1
:10591C00029A039BFEF712F9002204000D00009876
:10592C000199164BFEF70AF902000B002000290022
:10593C00FEF740FCB060F1607FBD1800FFF78EFEF3
:10594C0000220E4BFEF7FAF80B0080210200C9056D
:10595C000020FEF72FFC22002B00009001910298F2
:10596C000399FFF795FA02000B0000980199FFF7D5
:10597C0023F822002B00FEF7E1F8DBE70000F03FF4
:10598C000023F0B53E4D89B03E4C3F4A0590069140
:10599C003E483F49AB61EB612B626B62A361E361F3
:1059AC0023626362AA60EB602B61A260E3602361F7
:1059BC00696061602860206000F06CFB00F094FB73
:1059CC00079000F097FBFFF749FE0F00060000F070
:1059DC0097FBFFF743FE0090019102000B00300093
:1059EC00390003F08EFF3200029003913B0030002F
:1059FC003900FEF7E1FF009A019B06000F00100032
:105A0C001900FEF7D9FF02000B0030003900FEF739
:105A1C0095F803F07AFF060007980F00FFF71EFEBB
:105A2C0032000600802000063B000F1839003000C1
:105A3C00FEF7C0FB03F0E2FD802206000F00029887
:105A4C000399144B9205FEF7B7FFFFF7A5FE8022D2
:105A5C00104BE860920530003900FEF7ADFFFFF700
:105A6C009BFE0D4B069AE0601A600598FDF746F90F
:105A7C0000220A4B18600A4B1A6009B0F0BDC046F0
:105A8C0050010020780100208FC2F53C6F12833A40
:105A9C00A69B443BDCA54C40A401002048010020FF
:105AAC00A0010020F0B593B000F01AFE584D040090
:105ABC002B68C01AFEF700F8564B1968FDF7F2FA7E
:105ACC002C60019000F010FBFFF7C8FD524C2060D9
:105ADC00616000F00FFBFFF7C1FD504F386079603B
:105AEC0000F00EFBFFF7BAFD4D4E3060716000F018
:105AFC000DFBFFF7B3FD4B4D2860696000F00CFB0C
:105B0C00FFF7ACFD484B1860596000F00BFBFFF73A
:105B1C00A5FD464B1860596032687368386879681F
:105B2C0003F0EFFE8022424B9205FEF745FF2368FF
:105B3C006468029380231B06E4180C900D9138685E
:105B4C0079687768366802000B00FEF735FF320083
:105B5C00049005913B0030003900FEF72DFF020048
:105B6C000B0004980599FDF7E9FF03F0CEFE020047
:105B7C000B0002982100FEF71DFB03F03FFD802275
:105B8C002B4B9205FEF718FF80220E900F91286880
:105B9C006968284BD205FEF70FFF80220290039113
:105BAC002149244BD20508684968FEF705FF224BB2
:105BBC000B910A911D491A685B6811900868496835
:105BCC00FFF766F980221B4BD205FEF7F5FE0400A9
:105BDC0001980D00FFF798FD02000B002000290032
:105BEC00FEF7EAFE154E32687368FDF7A7FF002238
:105BFC00134B04000D00FDF733F80022002821D0D0
:105C0C00200029000E4BFFF743F93060716023E050
:105C1C00E0010020A4010020A8010020B001002018
:105C2C00B8010020C0010020C8010020D0010020D4
:105C3C00DCA54C4008AC7C3F20000020D8010020A3
:105C4C0000807640200029009F4BFCF7F5FF0028D0
:105C5C0000D032E134607560029803999B4C236943
:105C6C000793FFF799FD0799FDF70AFD011C606189
:105C7C000198FDF7DFFBE168FDF776F8636A0890A1
:105C8C00191C01980493FDF7D5FBE769266A391CAA
:105C9C00051CFDF7F5FC311CFDF7F2FC2168FDF746
:105CAC0063F80199FDF7C6FBA169FDF75DF8291CA6
:105CBC000290381CFDF7E4FC291C0690301CFDF703
:105CCC00DFFC616809900198FDF7B4FB0499FDF7BE
:105CDC004BF8A16810900298FDF746F8061C011CC1
:105CEC000298FDF7DFF9311C051C0998FDF7DAF96C
:105CFC00071C0C980D99FFF74FFD0899FDF7C0FC98
:105D0C00011C061C281CFDF795FB0899FDF72CF8C7
:105D1C00311C0490E060381CFDF78CFB0799FDF7F3
:105D2C0023F8291C20610298FDF784FB011C0298C2
:105D3C00FDF7A6FC291CA0610698FDF77BFB011C56
:105D4C000698FDF79DFC391CE0610298FDF772FB8B
:105D5C00011C0998FDF794FC391C20620698FDF78C
:105D6C0069FB011C1098FDF78BFC60620498FDF731
:105D7C0035FEC317C01858405A2805DD802212067C
:105D8C0094460B9B63440A93514C0A9923691198CE
:105D9C000693FFF701FD0699FDF772FC011C60618B
:105DAC000198FDF747FBE168FCF7DEFF636A08909A
:105DBC00191C01980793FDF73DFBE769266A391C0E
:105DCC00051CFDF75DFC311CFDF75AFC2168FCF746
:105DDC00CBFF0199FDF72EFBA169FCF7C5FF291C30
:105DEC000290381CFDF74CFC291C071C301CFDF7DD
:105DFC0047FC616809900198FDF71CFB0799FCF7BB
:105E0C00B3FF0A90A1680298FCF7AEFF051C011CB9
:105E1C000298FDF747F9291C061C0998FDF742F971
:105E2C00051C0E980F99FFF7B7FC0899FDF728FC95
:105E3C000190011C301CFDF7FDFA0899FCF794FF4A
:105E4C0001990790E060281CFDF7F4FA0699FCF71D
:105E5C008BFF311C20610298FDF7ECFA011C0298B3
:105E6C00FDF70EFC311CA061381CFDF7E3FA011C98
:105E7C00381CFDF705FC291CE0610298FDF7DAFAE5
:105E8C00011C0998FDF7FCFB291C2062381CFDF74E
:105E9C00D1FA011C0A98FDF7F3FB60620D4B049AD2
:105EAC001A600D4B079A1A600C4B18685968FFF76B
:105EBC0073FC0B4B186013B0F0BD002220002900BE
:105ECC00084BFDF73BFEA0E6008076C05001002099
:105EDC0078010020400100203C010020D801002066
:105EEC004401002000807640014B18687047C04682
:105EFC003C010020014B18687047C046400100204F
:105F0C00014B18687047C046440100200122014B28
:105F1C001A7070474C010020014B18787047C0462E
:105F2C004C0100200022014B1A7070474C010020DC
:105F3C0013B5064C1300A28800920A000100A06859
:105F4C0001F07CFF43425841C0B216BDF401002061
:105F5C00FF23F0B506000C008BB01C22002103A817
:105F6C00029302F014FE114D2200AB883100009315
:105F7C00A868012302AF01F07BFF002809D0AB8891
:105F8C003A00009331000123A86801F057FF002864
:105F9C0001D1012008E03A78237800209A4203D0FE
:105FAC00034802F065F903200BB0F0BDF4010020AA
:105FBC00809D000870B50D00040001F02DFF024B10
:105FCC009D809C6070BDC046F401002037B5040074
:105FDC00002C01D101203EBD6B46DD1D01222900A4
:105FEC000F20FFF7A5FF002803D12B78693B032B6B
:105FFC00F1D9013CE4B2EBE737B50C006B460F2549
:10600C00D91DA3002B4005012B43032515402B4321
:10601C000B70431E0220092B0BD8032C09D8032A22
:10602C0007D8044B0E301C70FFF792FF431E9841AB
:10603C00C0B23EBDF401002013B50B006A460F241C
:10604C00D11D5A0022400401224301380A7007284E
:10605C0013D8062B11D8FD20DA1E02420DD00A4AA5
:10606C00EC385370FFF774FF00280CD00748BE22A1
:10607C00074902F0FDF8012005E00448B822044964
:10608C0002F0F6F8022016BDF40100208C9D0008E9
:10609C00949D00081FB500210A2201A8009102F06E
:1060AC0076FD0E2269462020FFF742FF002817D10B
:1060BC006A460C4B12889A816A465288DA806A4684
:1060CC0092881A816A46D2885A816A4612891A8045
:1060DC006A4652895A806A4692899A8005B000BDF8
:1060EC000120FBE7E4010020014B0020185E704703
:1060FC00E4010020014B0220185E7047E4010020EF
:10610C00014B0420185E7047E4010020014B06206F
:10611C00185E7047E4010020014B0820185E7047A0
:10612C00E4010020014B0A20185E7047E4010020B6
:10613C00014B0C20185E7047E401002008B4FFB539
:10614C0009AE80CE0E4B00920E4A0D00040001F0F9
:10615C0057FE241801303300291A3A002000039608
:10616C0001F0F8FC232323542418163B63700330EE
:10617C00033BA37004B0F0BC08BC01B01847C04688
:10618C00EA080020A59D000813B518690C0000282A
:10619C0011D002F0C2FC8021084B22004D33187044
:1061AC00C0B2074B0190009049000648FFF7C6FFAC
:1061BC000122054B1A60049816BDC0467C080020CD
:1061CC00E69D00080002002000030020F0B51869CD
:1061DC000E001F0085B0002824D002F09EFCC3B234
:1061EC000400124D012B0DD17869002804D002F067
:1061FC0094FC2861002802D10D4B1B6A2B610122F3
:10620C000C4B1A608021EB68E4B202932B693200CC
:10621C0001930948094B00944900FFF78FFF0122B5
:10622C00074B1A600A9805B0F0BDC046E80800207C
:10623C007C0800200403002000020020E39D0008DD
:10624C0000030020F0B518690E001F0085B000286F
:10625C0024D002F062FCC3B20400124D012B0DD10C
:10626C007869002804D002F058FCE860002802D1BC
:10627C000D4B1B6AEB6001220C4B1A608021EB6802
:10628C00E4B202932B69320001930948094B009444
:10629C004900FFF753FF0122074B1A600A9805B01B
:1062AC00F0BDC046E80800207C0800200403002054
:1062BC0000020020E39D00080003002013B51869BC
:1062CC000C00002814D002F028FCC3B2012B03D11F
:1062DC00084B1A68084B1A658021C0B22200074B84
:1062EC00009049000648FFF729FF0122054B1A6070
:1062FC00049816BD1C1000207C080020E99D0008A5
:10630C000002002000030020F7B518690D001F00E3
:10631C00002820D002F001FCC3B204000F4E012B68
:10632C000BD17869002805D002F0F7FBC3171B1AB4
:10633C00DB0FF37601220A4B1A608021F37EE4B264
:10634C002A0001930748084B00944900FFF7F6FE1A
:10635C000122064B1A600898FEBDC046E8080020D2
:10636C000403002000020020E69D0008000300202A
:10637C00F7B518690E001D0000281DD002F0CDFBEA
:10638C00C3B204000D4F012B08D16869002802D05C
:10639C0002F0C3FBB8760122094B1A608021BB7E48
:1063AC00E4B2320001930748074B00944900FFF711
:1063BC00C5FE0122054B1A600898FEBDE8080020B6
:1063CC000403002000020020E69D000800030020CA
:1063DC0010B518690C0088B000281AD002F09DFB8B
:1063EC0080210D4BC0B206930C4B490005930C4B0E
:1063FC00DA6804921A690392DA7D02929B7E22007B
:10640C0001930090074B0848FFF798FE0122074BB9
:10641C001A600A9808B010BDC89D0008EA08002050
:10642C00E8080020B39D00080002002000030020B3
:10643C00F0B518690F001D0087B000283BD002F0A2
:10644C006CFBC3B206001D4C012B20D168690028DF
:10645C0002D002F062FBA082A869002802D002F0F0
:10646C005CFBE075E869002805D002F056FBC31E02
:10647C001B2B00D82076286A002805D002F04DFB93
:10648C00C31E1B2B00D8607601220D4B1A60802195
:10649C00637EF6B20493237E3A000393E37D0948AE
:1064AC000293A38A490001930096074BFFF746FE1F
:1064BC000122064B1A600C9807B0F0BDE8080020CA
:1064CC000403002000020020DD9D000800030020D2
:1064DC0070B50500140002F077FC002803D0401BB7
:1064EC00A04200DD200070BDF0B5186985B01C001D
:1064FC000391002825D002F010FBC7B20500124E04
:10650C00012F11D10A220021300002F040FB6469F6
:10651C000A2223212000FFF7DBFF210002003000BC
:10652C0002F072FC094B1F608021E8B2084B039A01
:10653C000090019607484900FFF700FE0122064B28
:10654C001A600A9805B0F0BDEA0800200403002088
:10655C00F19D00080002002000030020F0B500258A
:10656C00A3B0039004920C000722290007A80695FB
:10657C0002F00DFB0295029B049A934202DB00236E
:10658C0002933EE0029A1100A35C01310291232B8D
:10659C0003D00A2B01D0002BEDD1002527002E00B3
:1065AC00631C9B1805933B782C2B05D00A2B03D02E
:1065BC00232B01D0002B43D1002D13D004223E49B4
:1065CC00200002F00FFC431E984140420640192166
:1065DC003000FCF715FB09AB8900CC50002E13D012
:1065EC00022E23D00136182E16DD331F152B08D89A
:1065FC000024324B324D1C600C276743795900291B
:10660C0020D1029823B0F0BD042220002A4902F0C8
:10661C00E9FB00284DD1012600257C1CB30009AAFA
:10662C009C50059B01379F42BDD1DEE72A000A2D05
:10663C0000DD0A22210006A802F0A0FA0136EBE7E1
:10664C000135EEE706A8FCF757F900282BD1ED1918
:10665C002B890399039A19401A42D2D1194C1A4F1B
:10666C00C8222000396002F092FA049B3200019398
:10667C00029B039800936D6809AB06A9A8473B6879
:10668C000500002B01D000F099FA002D0DDD0B4B0D
:10669C0002951B68002BB4D0039B012BB1D12000B9
:1066AC0001F0E6FDADE70134A6E7002D00D166E769
:1066BC00A7E701235B4263E7EC9D00080003002081
:1066CC00280000200002002004030020034A136865
:1066DC001B1811689942FCD37047C0461810002053
:1066EC00FA20054B80001A68044B013250439B681A
:1066FC009B09C01A7047C0461810002010E000E03B
:10670C000122084B596B0A435A630222596B0A4304
:10671C005A630422596B0A435A630822596B0A4381
:10672C005A63704700100240002A0BD14900033213
:10673C008A4003689343036001238B400268134330
:10674C0003607047012AFCD1490002328A40036879
:10675C009343F5E701238B40002A03D142699A4306
:10676C0042617047426913434361FAE7A02010B5B8
:10677C0000220821C005FFF7EDFF10BDA02010B5C9
:10678C0001220821C005FFF7E5FF10BD704700008E
:10679C00494B4A48196810B50140196080211A68A4
:1067AC008905114319605969454A464C1140596194
:1067BC00DA6845490240DA605A6A44480A405A622B
:1067CC001A68920092081A608022196812060A430D
:1067DC001A605A693E490A405A61DA689200920876
:1067EC00DA605A6A120112095A621968214019605A
:1067FC0080211A68090511431960596901405961D2
:10680C00DA6834492240DA605A6A0A405A628023B4
:10681C00314ADB01D16B0B43D36304222F4B196834
:10682C000A431A601A682E490A40F0211A605A6805
:10683C0009010A40E0215A605A68C9000A40012146
:10684C005A601A688A431A601A6849188A431A608F
:10685C008022196892000A431A608022196852003B
:10686C000A4338211A601A688A431A601A68083970
:10687C001143802219601968914319605968703A64
:10688C009143596008211A6802401A605A680A43F9
:10689C005A6080225868520102435A60DA691148E2
:1068AC000240DA61402218680243A0201A60C00539
:1068BC000022FFF739FF10BD00040050FFFFFFCF8F
:1068CC00FFBFFFFFFFFFFFF3FFFFFFF0FFDFFFFF47
:1068DC00FF7FFFFFFFFF0FFF00100240003800405A
:1068EC00FFFBFFFFFFF7FFFF022382681A42FCD079
:1068FC000123017382681A42FCD0C068C0B2704791
:10690C008023034A1B0651690B4353617047C046F1
:10691C0000200240044B5A69002A03DA034A9A60A9
:10692C00034A9A607047C046002002402301674525
:10693C00AB89EFCD074B01201A69D20309D41A6930
:10694C000018120705D41869102318404342584107
:10695C000330704700200240F823802210B51B063C
:10696C00C018134BC00A520219691142FCD1022102
:10697C005C69C0002143596159690E4C2140596131
:10698C000D4C596920400843586159690A435A61B2
:10699C008022520219691142FCD15A69074904201C
:1069AC000A4002215A615A698A435A6110BDC04695
:1069BC000020024007E0FFFFF81F0000FFFFFEFF72
:1069CC00F7B5012705001600084C0193FFF7B2FF3D
:1069DC0063693B4363612E60BFF36F8F019B6B60F8
:1069EC00FFF7A8FF6369BB436361FEBD0020024053
:1069FC00014B18617047C04600200240F8B50124D5
:106A0C00374B01005A6B374E22435A638022186C65
:106A1C00D20102431A64A0238020DB051A6880038C
:106A2C0032401A601A68304D1043186058692F4F65
:106A3C0028405861DA683240DA609A682A409A60D5
:106A4C0018682B4A1040186080201E6800033043E1
:106A5C0018605E693E405E61D8681040D8609A68E4
:106A6C0024483A409A605A6A1040802252000243ED
:106A7C00F0205A625A6A82431000102202435A6272
:106A8C001D48FBF74DFF00221C4B1D491A601A686C
:106A9C000A401A601A6815400C221D6019680A43D6
:106AAC001A601A6817490A400F211A60DA6A0A40FC
:106ABC00DA62D8601A68C620144320221C60196858
:106ACC0080000A4380211A600F4AC90513581B0223
:106ADC001B0A0B43135080231B051360F8BDC046E3
:106AEC0000100240FFFFCFFFFFFBFFFFFFFDFFFF8A
:106AFC00FFFFF3FFFFF0FFFF0090D00300380140D1
:106B0C00FFFFFFEFFF7FFFFF00E100E08022034B60
:106B1C00D9691142FCD098627047C04600380140D8
:106B2C0002000123002010B58B4200DB10BDD45CA9
:106B3C0001336040F8E70000F7B505000F00019243
:106B4C00FFF7E8FE1920FFF753FF2800FFF704FFBB
:106B5C00042802D0124801F08BFB3E00019AF31B73
:106B6C00934203DBFFF7CCFE012009E028003268DA
:106B7C007368FFF725FF002803D1FFF7C1FE002043
:106B8C00FEBD2B683268934203D16B6872689342E6
:106B9C0003D0044801F06CFBF1E708360835DDE75B
:106BAC00339E0008469E0008002310B5934200DB7C
:106BBC0010BDC458CC500433F8E7000030B512486F
:106BCC00C1B001F055FB91236D46104C9B00002188
:106BDC002380FC2201A801F0DAFF2A000BCC0BC2A7
:106BEC000BCC0BC22368FF2113602800FFF798FF22
:106BFC00FF2380226B441870290052000448FFF7D1
:106C0C009BFF41B030BDC046599E0008E8080020EB
:106C1C0000F8000810B50E4C6378022B16D00D4A04
:106C2C000D490E4802F0B0F800232361E360A37510
:106C3C000B4B032223830123A37691239B002380F8
:106C4C00A282FFF7BBFF074801F012FB10BDC04644
:106C5C00E8080020689E0008F49D0008EA0800205F
:106C6C0006060000739E000830B52348C1B001F041
:106C7C00FFFA0021FC2201A86D46009101F087FF6C
:106C8C00802229001D485200FFF78EFF2B781C4CE8
:106C9C00442B0FD1FF212800FFF742FFFF236B4449
:106CAC001B78834206D1230007CD07C307CD07C34A
:106CBC002A681A60FFF7AEFF237E022B06D8052345
:106CCC002376A38A012B01D80323A382637E022B94
:106CDC0006D805236376A38A012B01D80323A3824C
:106CEC00237E1E2B01D905232376637E1E2B01D90F
:106CFC000523637641B030BD8F9E000800F8000874
:106D0C00E80800205A4BF7B51C69DE68B44200D87D
:106D1C0083E0002E00D180E0002C7ED0554FBB6A62
:106D2C007D6A0093002D00D078E00023FB623B00CD
:106D3C0065331D78002D01D1FB6A00934E4B1A78F8
:106D4C00002A05D0002D03D14C4A11684C4A116021
:106D5C001D70002D43D14A4B1A68484B002A03D1B1
:106D6C001968022900D977E01B689B1A042B36D9C5
:106D7C0000231A0001211C24424E49422000584392
:106D8C003058002807D0884201D201001A00013384
:106D9C001E2BF3D11300BA683A4901921C225343BB
:106DAC00009ACC18A261354A386812687E685A502D
:106DBC00FCF714FEFCF732FEFCF710FEE060301C12
:106DCC00FCF70CFEFCF72AFEFCF708FE206101988C
:106DDC00FCF704FEFCF722FEFCF700FE60610023CA
:106DEC0001209C46274A254E4042116800290AD0B2
:106DFC003468053CA14232D2614504D99469002C17
:106E0C0001D08C46200001331C321E2BEDD1431CCB
:106E1C0003D01A4BB8621B683B63F7BDAE4201D37B
:106E2C00194B83E7AC4200D87FE7601B7043FCF73B
:106E3C0043FE0190A01BC317C01858406843FCF7D1
:106E4C003BFE011C0198FCF72DF91049FCF7F2FAF6
:106E5C00FCF7C4FDF8626AE72B002A008AE7002DD4
:106E6C00D1D03468053CA142CDD300211160CAE7D2
:106E7C00E80800207C080020080B00201C100020D3
:106E8C0054090020D00C0020FF03000000C07F44F8
:106E9C00F0B5B54BB54AB9B09360BFF34F8F62B63E
:106EAC000025B34B4D331D7001F072F80C222900F4
:106EBC0031A801F06CFE1022290034A801F067FE05
:106ECC008023AC4CDB052360012320005B42656012
:106EDC00A560E3602561A56101F008FCA84201D022
:106EEC0072B6FEE73190339031A9200001F0DEFD3F
:106EFC00002801D072B6FEE7012534903690379009
:106F0C000C22200034A9359501F042FC002801D058
:106F1C0072B6FEE7FFF7F4FBFFF73AFC9620C001D0
:106F2C00FFF76CFD944A954B1A60FFF79DFE6421A8
:106F3C009348FFF73FF8C820FFF7C8FB0A20FFF77C
:106F4C0045F8021E0DD129000820FFF755F80A203C
:106F5C00FFF7BCFB06210820FFF76EF80A20FFF7AD
:106F6C00B5FB88498848FEF70BFD8849884801F035
:106F7C007FF9884988488A1C8B8A04924A7E03923E
:106F8C000A7E02928A7E0192CA7D00920A69C968C1
:106F9C0001F06EF90C21200001F0B0FC744C226D54
:106FAC00002A0DD07D4B1B689B1A022B08D9BFF30E
:106FBC004F8F7B4B6D4AD360BFF34F8FC046FDE7BD
:106FCC00FEF7A4FFFEF7A8FF00281ED0FFF762F81B
:106FDC00002801D1FEF766FD724D626D2B689A4256
:106FEC0011D2FEF787FF2060FEF77EFF6060FEF790
:106FFC0087FFA060FFF79CF8FCF710FD2B68E060A2
:10700C00F533FF336365FEF78DFF230066331B7882
:10701C00002B0CD064490B782A2B04D18022012040
:10702C005200FFF79BFA2300002266331A702300EC
:10703C0064331B78002B00D1D4E05C4AE1691368FF
:10704C0014915B49042B09DC1498002806D0149D7C
:10705C00980001330D501360052B01D100231360F0
:10706C0000252E002B009A008A58002A01D0B61851
:10707C0001350133052BF6D10027BD421BD0290069
:10708C003000FBF74DFC0700B54214D8149B002BC5
:10709C0011D0404BDB7E002B0CD1464DFCF70CFD88
:1070AC00FEF732FB2A00FEF71DFCA868E968FBF727
:1070BC003DFE07002762E369002B00D113E2354B3C
:1070CC001D69002D14D03800FEF7F8FA14901591B4
:1070DC002800FEF7F3FA384A384BFDF76DFC020036
:1070EC000B0014981599FBF7BBFD002800D0F6E1B6
:1070FC00284BDE68002E6BD03800FEF7DFFA1490B8
:10710C0015913000FEF7DAFA2D4A2E4BFDF754FCA0
:10711C0002000B0014981599FBF78EFD002800D087
:10712C00D9E10022124B65331A70BD4203D33D00E6
:10713C00B74200D23500244B1868002800D1EAE190
:10714C002F1AFB17FF180A215F40FBF7E9FB1F4EB4
:10715C00874200D8CBE13368092B00DDC7E101334E
:10716C003360194B1D6039E00028000800ED00E089
:10717C007C08002004090020196B00082C1000204A
:10718C00003800400024744900002041C89D0008CC
:10719C009D9E0008E8080020B39E00081C100020EB
:1071AC000400FA05181000206C0600207808002056
:1071BC0058060020000000209A9999999999F13F5E
:1071CC00CDCCCCCCCCCCEC3F5809002074080020A2
:1071DC00002DA6D10422D94B65331A700022D74B4F
:1071EC0064331A70D64D2B68012B00D8D6E6D54BDC
:1071FC002A681B689A4200D1D0E62068FCF7EEFBA7
:10720C0018906068FCF7EAFB1790A068FCF7E6FBA7
:10721C001990FFF777FD0021A36A1493CA4B1A7ECD
:10722C001E92189A5B7ED0171218424017981F9323
:10723C00C6178419C54B74401E98824200DD97E135
:10724C001F98844200DD93E11E68002E11D028683F
:10725C00801B1E280DD8D868C61780197040824232
:10726C0000DD85E11869C61780197040844200DD85
:10727C007EE11C24B24B61431868B44BC8505918BA
:10728C00AE4B586A9B6C48608B60189B1498CB6013
:10729C00179B88610B61199B4B61AD4B19780E29BB
:1072AC0001D900211970A54B596A9D6C1A91A949F5
:1072BC00189BC8681B1A0133022B25D80B69179928
:1072CC00CB1A0133022B1FD81E9B9A421CDC0B00DD
:1072DC00C9175B184B401F99994215DB1C209C4C1D
:1072EC00974B21781E6848439B4B0131C6501B18A5
:1072FC001A989D6058601498217098611898D860FD
:10730C001798186119985861924B1899D960179968
:10731C00196192490B780E2B01D900230B701C2498
:10732C000878874B44431E688D4B0130E6501B197F
:10733C001A9C9D605C60149C08709C61189CDC60BD
:10734C00179C1C61199C5C611E9B9A4221DC179B4B
:10735C00DA179B1853401F9A9A421ADB814A13780A
:10736C000E2B01D9002313701C201178744B484349
:10737C001C687D4B0131C4501B181A989D605860D5
:10738C001498117098611898D8601798186119980A
:10739C00586101200023694A40429063D063106415
:1073AC00506350649364664A6D4C1168654A1C9036
:1073BC00116023932290209325931B9322681D9296
:1073CC00002A35D00021A2690D0094460E00259AA2
:1073DC00634F62442592209A2191013220923A689F
:1073EC00002A0DD01B9AB2420AD0BA6921980131F9
:1073FC00801821906046821AD01712184240AD189E
:10740C0001361C370F2EEAD1002911D0229A0132F5
:10741C0006D0229A95420BDA1D9A2398824207D9FC
:10742C001D9B21982393FBF705FB01231C902295B0
:10743C001B9A1C3401321B920F2ABFD1002B02D095
:10744C003E4B1C9A5A64404B01209B8A40422D9320
:10745C003C232D9A44495A4300231F0027923E4A4D
:10746C0024902C932B932A9329932E931C93229341
:10747C0021931D932F9323931B93289330480D68CE
:10748C000068002D00D1A7E0279C401BA04200D92A
:10749C00A2E0C868C41700196040002F6ED10C69B7
:1074AC001C95E617A419744021948C681D902294A5
:1074BC000C69E617A4197440219EB44261D88E68F9
:1074CC00229FBE425DD81C9F229621941D90BD42E6
:1074DC0057D31C9555E0194B032265337DE62300E9
:1074EC000222653379E623000122653375E6164BDB
:1074FC00DB7E002B0BD11D4F2800FEF7DFF83A0086
:10750C00FEF7F0F9B868F968FBF710FC05000B4BB7
:10751C005D62002324E60C4BDB7E002B0BD1134E5B
:10752C002800FEF7CBF83200FEF7DCF9B068F16802
:10753C00FBF7FCFB0500014B5D6212E67C080020AA
:10754C001C10002060090020E808002064090020BD
:10755C00CC0C00200C0B0020280B00205009002024
:10756C001003002051090020B4040020100000205A
:10757C0001311C330F2900D05EE68EE61D9CA04223
:10758C0096D98869C64C84462898604428901B98E4
:10759C0001301B9000202690C24E27683668002FC1
:1075AC000FD0F61B279FBE420BD86646A769F61B69
:1075BC00F51776196E40092E03DC269D0130ED1966
:1075CC002695B94E1C34B442E6D1239C0127A04227
:1075DC0002DD239026982E90B24814680068002C87
:1075EC0033D0279D001BA8422FD8D068C51740194F
:1075FC0068402F9D002D25D193692C9424931369F9
:10760C002990DD175B196B402A9393682B93012308
:10761C001569EE17AD19754001262F962A9EAC46BA
:10762C00AE4212D396682B9DAE420ED82C9DAC4226
:10763C000BD393692C94249363462B962A9329900D
:10764C00012302E0299DA842E2D998481C321C3142
:10765C00824200D012E7964C002B01D0249B23646D
:10766C00239B002B04D019002E98FBF759F9E063EB
:10767C00209B002B05D019002598FBF751F98C4B5A
:10768C0058631B9B002B05D019002898FBF748F971
:10769C00874B98631C9B002B58D0824B1C9A1B6801
:1076AC009B1A2293834BDF7D814B012F51D1DA6BD7
:1076BC00511C00D0EBE09A6B511C00D0EAE05B6BE4
:1076CC003C005A1C01D014930C34764D2B68092BBA
:1076DC0000D863E476490B004D331B781C93012BC7
:1076EC0000D009E1744E2B683268934200D155E406
:1076FC000B0065331B7810930B6E0E940F93229B2B
:10770C000D931B9B0C936D4B1B780B93199B0A933E
:10771C00179B0993189B0893664B1A690792DB68B1
:10772C000693CB6A05934B6B04930B6C03938B6B97
:10773C000293CB6B0193149B1A9A0093CB6960480C
:10774C00096A00F095FD2B68336027E401235B4246
:10775C00A7E7022F5FD11A6CD96B986B15245B6B62
:10776C001D92551C0ED11D9101344D1C0AD11D903A
:10777C000134451C06D1149C1D943C005D1C01D0A9
:10778C001D9316344F4D149E6B60494B2E605B6CF1
:10779C0000266B6101235B42A860E9602A611493A7
:1077AC0023931C961C9B9B00EB582193002B28DBEE
:1077BC0000231A0020939300EB58002B0BDB1C9931
:1077CC00914208D0219901365B1AD9175B184B40AE
:1077DC002099CB1820930132062AECD1002E10D020
:1077EC00239B013306D031002098FBF723F9239B10
:1077FC00984206DA31002098FBF71CF9219B239064
:10780C0014931C9B01331C93062BCBD1149B01337B
:10781C0043D0192459E70324042F00D155E7A7427C
:10782C000AD15A6C511C4FD15B6B01345A1C00D1DC
:10783C004BE71493263448E7052F13D11A6C511CCF
:10784C0045D1DA6B511C45D19A6B511C45D15A6C00
:10785C00511C45D15B6B05245A1C00D135E71493A0
:10786C00323432E70024062F00D02EE71A6C511C5C
:10787C0039D1DA6B511C39D19A6B511C39D15B6BF4
:10788C0006345A1C00D120E7149339341DE70B241D
:10789C0014921AE70C24149217E71D9B149314E707
:1078AC00B40400201C10002058060020CC0C002032
:1078BC007C080020E80800205C0900205109002009
:1078CC00FF9E0008A000002029241492FDE633241A
:1078DC001492FAE634241492F7E635241492F4E662
:1078EC0036241492F1E63D241492EEE63E241492D2
:1078FC00EBE63F241492E8E6434B9A7E002A01D132
:10790C00FFF74CFB41482B6800681B1A934201D2CD
:10791C00FFF744FB149B149ADB43DB171A404B6BA9
:10792C001492002B01DA00234B63CB6B002B01DA92
:10793C000023CB63364B1A6C002A01DA00221A643E
:10794C009A6B002A01DA00229A63314AD369906B50
:10795C002193136C20901D93136E116A9C461C9BF3
:10796C00506BD56AD66B65321278632B2BD163467C
:10797C0011931F9B12920F931E9B264A0E932D9BC5
:10798C0010940C93229B0D970B931B9B0A93199BA2
:10799C0012780893179B09920793189B02900693F1
:1079AC001D9B04960593209B03950193149B0093B8
:1079BC00219B1A9A184800F05BFC184B1A68134B61
:1079CC001A60FFF7EBFA0F94154C0D970E940E4CB2
:1079DC0023690C93E3680A920B9363460993199BF2
:1079EC0002900893179B1A9A0793189B0D480693BD
:1079FC001D9B04960593209B03950193149B009368
:107A0C00219B00F035FCD8E7E80800205C09002039
:107A1C007C08002051090020799F00081C100020D0
:107A2C009AA0000815A00008F8B580230568DB05AE
:107A3C009D420DD1037F082B0AD1164C0C212378C3
:107A4C00154E002B05D100F039FD01233060237059
:107A5C00F8BD00F033FD114B31681860104E114B1E
:107A6C00411A19603300683319800F48FAF758FF30
:107A7C000123F0616436337000260C4F0C21380062
:107A8C0000F0C0FF6B6A0C2138006E6200F036FF0C
:107A9C002670DDE752090020080300200C030020AB
:107AAC007C080020700800200090D00304090020FE
:107ABC00184B70B5DA6992062AD50822196A164C49
:107ACC000A431A625B6A2268DBB2FE2A01DC2A2BAB
:107ADC0001D100222260114E0D2B16D00A2B14D08E
:107AEC0022680F4DAB5401322260232B0DD129009B
:107AFC000C4801F043F833000122002166331A7060
:107B0C002800FF32216001F042F8074B1B68B36577
:107B1C0070BDC046003801406C0800207C08002075
:107B2C006C0700206C0600201C10002070B51300A0
:107B3C0004000D0000201A1A984205D0295C002977
:107B4C0004D1201801F023F8200070BD215401301D
:107B5C00F1E70000F0B589B001930B0002925A1EB8
:107B6C009341CC1A002305000093029B1B78002B39
:107B7C0000D13AE1029E03E0721C002B05D01600E6
:107B8C00029BF71A3378252BF6D1BC4209D33A0065
:107B9C0028000299FFF7CAFF029BED199A1BA41843
:107BAC0006E02200280002992D19FFF7BFFF0024E0
:107BBC00009B0296DB1900933378252BD5D1002737
:107BCC00053B07930136163B3078721C02926428F1
:107BDC0044D025D8392811D82F2834D8252800D1BD
:107BEC00F2E08449042C00D8F8E028000522FFF7C5
:107BFC009DFF0535053C009B0533ECE0582800D172
:107C0C00BEE06328EDD1019B1E1D002C03D01B6828
:107C1C00013C2B700135009B013300930196A4E7C6
:107C2C0069281BD07038C3B2082BDAD80828D8D8EA
:107C3C00FAF76CFEA600D7FFD7FF6800D7FF9F00AE
:107C4C00D7FFD7FFA600302803D1002F01D1302257
:107C5C0007925F43303F029EC719B5E7019E08CEDD
:107C6C000393002B00DB87E05B4203930123059316
:107C7C000933049301230193019A049B5343039A00
:107C8C000693934200D882E0059B002B00D089E03C
:107C9C00594ABB1E93420DD8013F3B00002C03D028
:107CAC00079A013C2A700135013B002BF6D1009B51
:107CBC00DB190093059B002B08D0002C06D02D233C
:107CCC002B70009B013C0133009301354B4F019B02
:107CDC00002BA3D0002C0CD06B1C0199039805939E
:107CEC00FAF71EFE0499FAF7A1FE7B5C013C2B709F
:107CFC00059D009B0198013304990093FAF710FE3F
:107D0C000190E4E70023019E02CE0193019BCB5C22
:107D1C00002B15D1019BBB4204D2009B019ADB19AD
:107D2C009B1A0093019B9C420DD222002800FFF766
:107D3C00FDFE2D190024019A009B944663446CE7C8
:107D4C00019B0133E1E72800019AFFF7EFFE019B4D
:107D5C00ED18E41ABB42EED2FB1A27009C4200D964
:107D6C001F0028003A00202100F011FF7C42ED1981
:107D7C00E1E7019E08CE0393002305930A3378E7CD
:107D8C00019E08CE039300230593103371E70499E9
:107D9C000698FAF7C5FD019B984200D074E7069B44
:107DAC00013F68E7013F002C00D171E7079B302BA6
:107DBC0000D06DE7033B2B70009B013C013300931B
:107DCC0000230135059363E7002C02D02870013C99
:107DDC000135009B0133019E00931FE72200280010
:107DEC00FFF7A4FE2D19002405E700982B7009B0AD
:107DFC00F0BDC046B2A00008FDFF0000A1A0000825
:107E0C000CB407B504AB04CB0193FFF7A3FE03B08E
:107E1C0008BC02B018470000064B10B5984202D1BE
:107E2C00FEF7B4FC10BD044B9842FBD1FEF7B0FC3E
:107E3C00F8E7C0460030014000380040F8B50C00AF
:107E4C00050017001E00FEF791FC8021280021433D
:107E5C00FEF74AFD0024A64203DCFEF78FFC01204E
:107E6C00F8BD00212800FEF73FFD38550134F2E73C
:107E7C0070B504000E001500FEF778FC31002000F0
:107E8C00FEF732FD29782000FEF72EFDFEF776FC7A
:107E9C0070BD000010B5040088B01422002103A8A6
:107EAC0000F075FE80232268DB059A4221D1012265
:107EBC00114BA020D96BC0051143D963D96B11406C
:107ECC0001910199596B114359635B6B03A91A40DA
:107EDC000292029B08230393063B0493079300F042
:107EEC003FFA00220F20110000F004FA0F2000F0DE
:107EFC002BFA08B010BDC04600100240FEE7FEE7AA
:107F0C007047704710B500F0E9F90948094A016853
:107F1C00136801310160FA210133136089008B422F
:107F2C0005D300231360044A13680133136010BD9A
:107F3C0018100020201000201C100020704700009A
:107F4C0010B5024800F0D6FA10BDC0460409002056
:107F5C000B4A0C490300891A0B4A10B5106800280B
:107F6C0001D10A4810601068C3188B4206D900F082
:107F7C00DBFD0C2303600120404210BD1360FCE7C5
:107F8C0000040000002000202410002048100020D5
:107F9C008022274B520219680A431A6080229202EF
:107FAC0019681142FCD0822222495200086802430F
:107FBC000A609A6820490A409A609A681F490A40E8
:107FCC009A600322D9680A43DA60DA681C490A40CD
:107FDC00DA60D9681B4A0A43DA60802219685204B5
:107FEC000A431A608022920419681142FCD00721BE
:107FFC009A688A439A60022299680A4338219A60E7
:10800C009A680A40102AFBD10F4B0C3A19680F489A
:10801C000A43C0211A600E4A09065A60026A12020B
:10802C00120A0A43026200229A6007321A607047F1
:10803C000010024000200240FFF0FFFFFF8FFFFF07
:10804C008F80FF1F0310003110E000E000ED00E016
:10805C00FFF90000074A10B51368002B03D0591C18
:10806C001160187010BD044B1B68002BFAD0984798
:10807C00F8E7C046281000202C10002010B5040092
:10808C002078002800D110BD0134FFF7E3FFF7E79B
:10809C00F0B50C008BB00190019B1878002800D132
:1080AC00E4E0252805D001330193FFF7D3FF0294B8
:1080BC00BEE0019B5B78302B2DD10127019BDA1C94
:1080CC009B780021039119003039019209292DD98F
:1080DC001A0020218A434C2A06D10423019A1F43FB
:1080EC00019B01321B780192002B00D1BEE01A00DB
:1080FC00602B01D9203AD2B2582A0AD84E2A1ED85F
:10810C00432A00D1A0E00A26442A29D0083E422A5C
:10811C0026D01800C9E72D2B03D0019A0027023274
:10812C00CFE7019B0227DA1C9B78CAE70A20039948
:10813C004143CB18303B039313780132C3E7100053
:10814C004F380928E5D8FAF7E1FB0A00E4FFE4FF11
:10815C00E4FF5B00E4FF8800E4FFE4FF86000826F0
:10816C00211D02912568442A04D1002D02DA08222F
:10817C006D4217430722782B00D12722D3B20593E7
:10818C000023049328003100FAF750FC2A00CBB2EC
:10819C000500092902D90599CB18DBB2049904987A
:1081AC004C1C303306A94354964203D8102C56D19C
:1081BC000F2304933B0704D52D2306AA1355049CC7
:1081CC00023430230493FB0701D4202304930226AA
:1081DC0025003E406F1C002E03D1039B9D4240D3D3
:1081EC003D00013C06AB185DFFF734FF002CF8D1C5
:1081FC00039BAB421CD92020FFF72CFF0135F7E77E
:10820C00230020CB02930023EA5C1C000133002ADC
:10821C00FAD102263E40671C002E03D1039B9C42E0
:10822C0008D33C002800FFF729FF039B9C4206D390
:10823C00029C31E72020FFF70DFF3C00EBE72020EC
:10824C00FFF708FF0134F0E7230001CBC0B2029323
:10825C00FFF700FFECE7102682E70A2680E704947C
:10826C0090E70498FFF7F6FE3D00B3E70BB0F0BDC6
:10827C000FB407B504A901C90191FFF709FF03B0B9
:10828C0008BC04B0184700000D488546FFF780FE77
:10829C000C480D490D4A002302E0D458C450043355
:1082AC00C4188C42F9D30A4A0A4C002301E013602B
:1082BC000432A242FBD300F03DFCFEF7E9FDFEE7E1
:1082CC00002000200000002020010020B8A200089F
