:020000040800F2
:10000000002000206D0E0008BD0E0008BD0E000887
:1000100000000000000000000000000000000000E0
:10002000000000000000000000000000BD0E0008FD
:100030000000000000000000BD0E0008650600087A
:10004000BD0E0008BD0E0008BD0E0008BD0E000864
:10005000BD0E0008BD0E0008BD0E0008BD0E000854
:1000600000000000BD0E0008BD0E0008BD0E000817
:10007000BD0E0008BD0E0008BD0E0008BD0E000834
:10008000BD0E00080000000000000000BD0E0008CA
:1000900000000000BD0E0008BD0E0008BD0E0008E7
:1000A000BD0E0008BD0E0008BD0E0008BD0E000804
:0C00B000BD0E0008BD0E0008BD0E0008CB
:1000BC0010B5064C2378002B07D1054B002B02D032
:1000CC00044800E000BF0123237010BD080000208D
:1000DC00000000001C0F0008044B10B5002B03D0CF
:1000EC000349044800E000BF10BDC04600000000FA
:1000FC000C0000201C0F000803B471464908400096
:10010C004900095E49008E4403BC70470022430835
:10011C008B4274D303098B425FD3030A8B4244D3C3
:10012C00030B8B4228D3030C8B420DD3FF22090205
:10013C0012BA030C8B4202D31212090265D0030BC4
:10014C008B4219D300E0090AC30B8B4201D3CB03BA
:10015C00C01A5241830B8B4201D38B03C01A5241FC
:10016C00430B8B4201D34B03C01A5241030B8B42FE
:10017C0001D30B03C01A5241C30A8B4201D3CB02E9
:10018C00C01A5241830A8B4201D38B02C01A5241CE
:10019C00430A8B4201D34B02C01A5241030A8B42D1
:1001AC0001D30B02C01A5241CDD2C3098B4201D3E9
:1001BC00CB01C01A524183098B4201D38B01C01A67
:1001CC00524143098B4201D34B01C01A52410309DE
:1001DC008B4201D30B01C01A5241C3088B4201D38D
:1001EC00CB00C01A524183088B4201D38B00C01A3A
:1001FC00524143088B4201D34B00C01A5241411A61
:10020C0000D20146524110467047FFE701B500206D
:10021C0000F006F802BDC0460029F7D076E770471B
:10022C007047C04682B00190019843055A1E934115
:10023C00C00AC01802B07047044A054B8018054A22
:10024C001968C15004339342FAD170470010FFF77C
:10025C0000F0000840F0000810B50400FFF7ECFFB8
:10026C0000F07EF8636805489908013100F07EF8CB
:10027C002368181A4342584110BDC0460028000894
:10028C0073B56B46DE1D042331210B4A33701369A1
:10029C0005008B430948136100F0B0F800240749AE
:1002AC002B1960181A685B6800F0DCF808343070A1
:1002BC00402CF4D173BDC0460020024000F0000871
:1002CC0070B5184800F084FC174800F09FFC041E21
:1002DC001CDD164D2800FFF7AFFFEC6000F040F876
:1002EC00A110134C0131200000F040F8EB68A8601D
:1002FC006B60104B2860AB61012328006C612B6292
:10030C00FFF7BEFF0C4800F063FC70BD0B48631C8C
:10031C00F9D00B48A31CF6D00A48E31CF3D00A48CA
:10032C00F1E7C046340F00086400002024000020D0
:10033C000028000800F00008710F0008BD0F00082D
:10034C00FA0F0008141000082A1000088023034A32
:10035C005B01916B0B4393637047C04600100240E6
:10036C000122014B9A607047003002408900044B17
:10037C004118884201D11868704704C81A60F8E720
:10038C0000300240044B5A69002A03DA034A9A608F
:10039C00034A9A607047C04600200240230167451B
:1003AC00AB89EFCD044B5A69520003D5034ADA608E
:1003BC00034ADA607047C046002002403B2A190805
:1003CC007F6E5D4C8023034ADB0551690B435361FF
:1003DC007047C04600200240074B01201A69D20327
:1003EC0009D41A690018120705D41869102318408B
:1003FC00434258410330704700200240F8238022CA
:10040C0010B51B06C018134BC00A520219691142D1
:10041C00FCD102215C69C0002143596159690E4C21
:10042C00214059610D4C5969204008435861596964
:10043C000A435A618022520219691142FCD15A694D
:10044C00074904200A4002215A615A698A435A61B9
:10045C0010BDC0460020024007E0FFFFF81F00005F
:10046C00FFFFFEFFF7B5012705001600084C0193AE
:10047C00FFF7B2FF63693B4363612E60BFF36F8F7D
:10048C00019B6B60FFF7A8FF6369BB436361FEBD13
:10049C0000200240FF2110B5094C236A226A8B43CD
:1004AC001343BB2213432362802362699B021343D1
:1004BC006361FFF791FF6369024A1340636110BDEA
:1004CC0000200240FFFFFDFF044B186AC0B2AA28AF
:1004DC0002D0CC2800D0BB207047C0460020024080
:1004EC00F8B501242E4B01005A6B2E4E22435A6351
:1004FC008022186CD20102431A64A0238020DB05F1
:10050C001A68800332401A601A68274D104318602D
:10051C005869264F28405861DA683240DA609A6888
:10052C002A409A601868224A1040186080201E6881
:10053C000003304318605E693E405E61D86810402D
:10054C00D8609A681B483A409A605A6A10408022D8
:10055C0052000243F0205A625A6A82431000102261
:10056C0002435A621448FFF7D1FD0022134B144981
:10057C001A601A680A401A601A6815400C221D602D
:10058C0019680A431A601A680E490A400F211A604A
:10059C00DA6A0A40DA62D8601A6814431C60F8BD43
:1005AC0000100240FFFFCFFFFFFBFFFFFFFDFFFF2F
:1005BC00FFFFF3FFFFF0FFFF0090D0030038014076
:1005CC00FFFFFFEFFF7FFFFF8022034BD969114232
:1005DC00FCD098627047C0460038014010B5FFF758
:1005EC00F3FF10BD064A10B5D4690300202120008A
:1005FC0008400C4202D00120526A1A7010BDC0464D
:10060C0000380140F8B505000C00084E376828008A
:10061C00FFF7E8FF012806D03368DB1BA342F6D3B3
:10062C0001204042F8BD0020FCE7C04668040020D1
:10063C0010B500F02BF99620C001FFF751FFFFF722
:10064C0085FE034B034A1A6000F020F8002010BD11
:10065C007C040020E9050008FA21094A8900136886
:10066C0001331360074A136801338B4201D81360BE
:10067C00704700231360044A13680133F7E7C04640
:10068C00640400206C0400206804002073B5FFF79C
:10069C001BFFBB281DD0FFF775FEFFF783FEBB20A9
:1006AC00FFF7F8FE80233B4A1B0551690B4353614E
:1006BC00FFF788FE384A116813685B1A092BFBD9BF
:1006CC00BFF34F8F354B364ADA60BFF34F8FC046BE
:1006DC00FDE7FFF777FE00246B4601252026DC7131
:1006EC00002C01D12F4B1B686B460321D81DFFF743
:1006FC0089FFC4B2002C17D16B46DB79332B17D092
:10070C001A00B243422A13D0342B02D1254B1B685A
:10071C00E8E75A1E012A02D8FFF7D2FDE2E7642B64
:10072C00FAD0442BDED1F7E71F4800F051FA2C0029
:10073C001E4800F04DFA1E48FFF78EFDC0B200288F
:10074C0026D01C4800F044FA1B4B1C4A1B68134073
:10075C00802292059342C3D1194800F039FA0E4A0F
:10076C00116813685B1A092BFBD900F0F1F8002211
:10077C00144B1A605A609A6072B6134B134A1D6080
:10078C00134B1B6813609847124800F021FAA7E737
:10079C001148FAE7002002406404002000ED00E05C
:1007AC000400FA05700400204A10000861100008CB
:1007BC002400002072100008002800080000FE2F02
:1007CC007F10000810E000E00000014074040020DD
:1007DC000428000890100008B9100008F0B50400B7
:1007EC00027800200300302A2FD120256278AA43FA
:1007FC00582A2AD1A378834206D0A61C0B3432780F
:10080C00002A02D108600120F0BD1300303BDFB29A
:10081C00BC461700AF43413F052F02D96746092F4D
:10082C0008D807016046092806D818000136381880
:10083C00B442E4D10020E7E713001000413B5738E5
:10084C00052BF3D8373A1000F0E720260A25225C56
:10085C00002A01D10B60D6E71700B7434B2F03D109
:10086C00002807D09B02F5E74D2F03D11B0500286C
:10087C00CAD0EFE71700303F092FDBD86B430130AC
:10088C00303BD3180B28E2D1D4E700008022274B51
:10089C00520219680A431A608022920219681142A6
:1008AC00FCD0822222495200086802430A609A68EE
:1008BC0020490A409A609A681F490A409A600322AC
:1008CC00D9680A43DA60DA681C490A40DA60D968E8
:1008DC001B4A0A43DA608022196852040A431A60E0
:1008EC008022920419681142FCD007219A688A432D
:1008FC009A60022299680A4338219A609A680A40E1
:10090C00102AFBD10F4B0C3A19680F480A43C0212F
:10091C001A600E4A09065A60026A1202120A0A4347
:10092C00026200229A6007321A607047001002407F
:10093C0000200240FFF0FFFFFF8FFFFF8F80FF1FA3
:10094C000310003110E000E000ED00E0FFF90000C2
:10095C008022154B5200196810B50A431A60802288
:10096C00D20019681142FCD08022D2015A600022B8
:10097C0038219A600132FF3298681A600842FBD124
:10098C0080228024920464011968080010401142EE
:10099C0007D10122524298611A62044B044A1A6030
:1009AC0010BDDC60F0E7C0460010024000000020E3
:1009BC000024F400074A10B51368002B03D0591C0F
:1009CC001160187010BD044B1B68002BFAD09847AF
:1009DC00F8E7C046780400207C04002010B5040021
:1009EC002078002800D110BD0134FFF7E3FFF7E7B2
:1009FC00F0B50C008BB00190019B1878002800D149
:100A0C00E4E0252805D001330193FFF7D3FF0294CE
:100A1C00BEE0019B5B78302B2DD10127019BDA1CAA
:100A2C009B780021039119003039019209292DD9A5
:100A3C001A0020218A434C2A06D10423019A1F4311
:100A4C00019B01321B780192002B00D1BEE01A00F1
:100A5C00602B01D9203AD2B2582A0AD84E2A1ED875
:100A6C00432A00D1A0E00A26442A29D0083E422A73
:100A7C0026D01800C9E72D2B03D0019A002702328B
:100A8C00CFE7019B0227DA1C9B78CAE70A2003995F
:100A9C004143CB18303B039313780132C3E710006A
:100AAC004F380928E5D8FFF727FB0A00E4FFE4FFDD
:100ABC00E4FF5B00E4FF8800E4FFE4FF8600082607
:100ACC00211D02912568442A04D1002D02DA082246
:100ADC006D4217430722782B00D12722D3B20593FE
:100AEC000023049328003100FFF796FB2A00CBB2B9
:100AFC000500092902D90599CB18DBB20499049891
:100B0C004C1C303306A94354964203D8102C56D1B2
:100B1C000F2304933B0704D52D2306AA1355049CDD
:100B2C00023430230493FB0701D4202304930226C0
:100B3C0025003E406F1C002E03D1039B9D4240D3E9
:100B4C003D00013C06AB185DFFF734FF002CF8D1DB
:100B5C00039BAB421CD92020FFF72CFF0135F7E794
:100B6C00230020CB02930023EA5C1C000133002AF3
:100B7C00FAD102263E40671C002E03D1039B9C42F7
:100B8C0008D33C002800FFF729FF039B9C4206D3A7
:100B9C00029C31E72020FFF70DFF3C00EBE7202003
:100BAC00FFF708FF0134F0E7230001CBC0B202933A
:100BBC00FFF700FFECE7102682E70A2680E7049493
:100BCC0090E70498FFF7F6FE3D00B3E70BB0F0BDDD
:100BDC000FB407B504A901C90191FFF709FF03B0D0
:100BEC0008BC04B01847000070B50500064C013C69
:100BFC00002C02D10120404270BD2800FFF7F2FC0E
:100C0C000128F4D10020F7E701001000F0B5002511
:100C1C00864CA544864C04900795FFF7B3FB0395CF
:100C2C000025009506ABD81CFFF7DEFF02900028CC
:100C3C000BD106ABDB78042B59D013D88022012BB7
:100C4C0028D0D2000192022B25D0039BED18052D44
:100C5C0000DCE5E01820FFF7C1FC1820FFF7BEFC14
:100C6C00002613E01A0020218A43412A36D0182B83
:100C7C00EBD106ABD81CFFF7B7FF061EE5D106ABD0
:100C8C00DB78182BE1D10620FFF7A8FC3000694B6C
:100C9C009D44F0BD01920126674A684F1370019B79
:100CAC0004330593059BB3420FD2634A9378517872
:100CBC00DB43DBB29942C8D16B461B7899421AD000
:100CCC001520FFF78BFC029DACE73800FFF78CFF7B
:100CDC0001370028B9D10136B6B2E3E71820FFF787
:100CEC007DFC1820FFF77AFC03267642CEE706201F
:100CFC00FFF774FC94E7009B002B65D1D378002B95
:100D0C002ED10620FFF76AFC079EBFE78354013201
:100D1C000B780131002B01D0AA42F7D10023835468
:100D2C00CA5C202A01D0102B20D10821002506AA4C
:100D3C005218D55407A908A8FFF750FDFE22404BC6
:100D4C0052021B6807989B021340013B834213D24B
:100D5C001820FFF743FC1820FFF740FC0126C4E7DE
:100D6C008025009A374938486D00D1E7082506A838
:100D7C004019C2540133D3E7FFF754FA334F3860AC
:100D8C00FFF700FB324B1D60314D3B6828689842E1
:100D9C0003D2304E3378042B0BD00620FFF71EFC09
:100DAC004320FFF71BFC009B0133009301230393AB
:100DBC0089E7294B1B8858430019FFF71FFB2B6849
:100DCC00307001332B60DFE70025019A1D490CA818
:100DDC0000F094F8214B049A1A600CAB14495A1980
:100DEC00079B5B18A34219D95668176833003A0061
:100DFC002000FFF737FB2368BB4202D16368B34284
:100E0C0007D01820FFF7EAFB1820FFF7E7FB0226B4
:100E1C006BE7019B083508349D42DEDB0620C0E7FA
:100E2C004320FFF7DBFB02954DE7C046CCFBFFFFF1
:100E3C0000280008340400008C0500208D050020DB
:100E4C00E075FF1F8F0500208C0400208404002017
:100E5C0080040020040000200600002088040020EC
:100E6C000D48854600E000BF0C480D490D4A002393
:100E7C0002E0D458C4500433C4188C42F9D30A4A43
:100E8C000A4C002301E013600432A242FBD300F0B1
:100E9C0011F8FFF7CDFBFEE700200020000000203A
:100EAC0008000020E0100008080000209409002031
:100EBC00FEE7000070B500260C4D0D4C641BA41011
:100ECC00A64209D1002600F023F80A4D0A4C641BF7
:100EDC00A410A64205D170BDB300EB58984701365B
:100EEC00EEE7B300EB5898470136F2E7D81000084C
:100EFC00D8100008D8100008DC100008002310B52A
:100F0C009A4200D110BDCC5CC4540133F8E7000008
:100F1C00F8B5C046F8BC08BC9E467047F8B5C0464C
:080F2C00F8BC08BC9E467047AA
:100F34000D0A57616974696E6720666F7220746860
:100F4400652066696C6520746F2062652073656E28
:100F540074202E2E2E20287072657373202761272B
:100F640020746F2061626F7274290A0D000A0A0DE1
:100F74002050726F6772616D6D696E6720436F6D8B
:100F8400706C65746564205375636365737366750B
:100F94006C6C79210A0D2D2D2D2D2D2D2D2D2D2D02
:100FA4002D2D2D2D2D2D2D2D2D2D2D2D2D2D2D2D6D
:100FB4002D2D2D2D2D2D0D0A000A0A0D54686520A6
:100FC400696D6167652073697A6520697320686952
:100FD40067686572207468616E2074686520616C4E
:100FE4006C6F776564207370616365206D656D6FE8
:100FF4007279210A0D000A0A0D56657269666963E1
:101004006174696F6E206661696C6564210A0D0004
:101014000D0A0A41626F72746564206279207573E7
:1010240065722E0A0D000A0D4661696C65642074B0
:101034006F207265636569766520746865206669EA
:101044006C65210A0D0054696D65206F75742C2040
:10105400626F6F74696E67202E2E2E2000564552E3
:1010640049465920494D414745202E2E2E005355BF
:1010740043434553532121210D0A00424F4F544904
:101084004E475B47305D2E2E2E0D0A00494E5641C9
:101094004C494420494D414745205349474E2C2053
:1010A40052455455524E20424F4F54204C4F4144C8
:1010B40045520D0A004641494C5552452C20524593
:1010C4005455524E20424F4F54204C4F41444552A8
:0410D4000D0A000001
:0410D800E500000827
:0410DC00BD0000084B
:0810E0000090D0030400000899
:0400000508000E6D74
:00000001FF
