:020000040800F2
:100000000020002091490008DD470008E347000870
:1000100000000000000000000000000000000000E0
:10002000000000000000000000000000E947000898
:100030000000000000000000F3470008FD47000832
:10004000E1490008E1490008E1490008E1490008E8
:10005000E1490008E1490008E1490008E1490008D8
:1000600000000000E1490008E1490008E1490008FA
:10007000E1490008E1490008E1490008E1490008B8
:10008000E1490008E1490008E1490008E1490008A8
:1000900000000000E1490008E1490008E1490008CA
:1000A000E1490008E1490008E1490008E149000888
:0C00B000E1490008E149000800000000E0
:1000BC0010B5064C2378002B07D1054B002B02D032
:1000CC00044800E000BF0123237010BDDC010020B8
:1000DC0000000000B48F0008044B10B5002B03D0B7
:1000EC000349044800E000BF10BDC04600000000FA
:1000FC00E0010020B48F00080023C25C0133002A09
:10010C00FBD1581E7047000002B4714649084900E3
:10011C00095C49008E4402BC7047C04603B471466A
:10012C00490840004900095E49008E4403BC7047F1
:10013C00002243088B4274D303098B425FD3030A1A
:10014C008B4244D3030B8B4228D3030C8B420DD32D
:10015C00FF22090212BA030C8B4202D312120902BB
:10016C0065D0030B8B4219D300E0090AC30B8B42F9
:10017C0001D3CB03C01A5241830B8B4201D38B03A7
:10018C00C01A5241430B8B4201D34B03C01A52414C
:10019C00030B8B4201D30B03C01A5241C30A8B428F
:1001AC0001D3CB02C01A5241830A8B4201D38B027A
:1001BC00C01A5241430A8B4201D34B02C01A52411E
:1001CC00030A8B4201D30B02C01A5241CDD2C30990
:1001DC008B4201D3CB01C01A524183098B4201D30C
:1001EC008B01C01A524143098B4201D34B01C01AF7
:1001FC00524103098B4201D30B01C01A5241C3086F
:10020C008B4201D3CB00C01A524183088B4201D3DD
:10021C008B00C01A524143088B4201D34B00C01AC9
:10022C005241411A00D20146524110467047FFE735
:10023C0001B5002000F0F0F802BDC0460029F7D04F
:10024C0076E7704703460B437FD4002243088B426A
:10025C0074D303098B425FD3030A8B4244D3030B41
:10026C008B4228D3030C8B420DD3FF22090212BA06
:10027C00030C8B4202D31212090265D0030B8B4282
:10028C0019D300E0090AC30B8B4201D3CB03C01A6C
:10029C005241830B8B4201D38B03C01A5241430B47
:1002AC008B4201D34B03C01A5241030B8B4201D337
:1002BC000B03C01A5241C30A8B4201D3CB02C01AA2
:1002CC005241830A8B4201D38B02C01A5241430A1A
:1002DC008B4201D34B02C01A5241030A8B4201D309
:1002EC000B02C01A5241CDD2C3098B4201D3CB01B0
:1002FC00C01A524183098B4201D38B01C01A52415F
:10030C0043098B4201D34B01C01A524103098B4262
:10031C0001D30B01C01A5241C3088B4201D3CB004D
:10032C00C01A524183088B4201D38B00C01A524130
:10033C0043088B4201D34B00C01A5241411A00D2E0
:10034C0001465241104670475DE0CA0F00D0494249
:10035C00031000D34042534000229C4603098B42B9
:10036C002DD3030A8B4212D3FC22890112BA030A41
:10037C008B420CD3890192118B4208D389019211C3
:10038C008B4204D389013AD0921100E08909C30948
:10039C008B4201D3CB01C01A524183098B4201D34A
:1003AC008B01C01A524143098B4201D34B01C01A35
:1003BC00524103098B4201D30B01C01A5241C308AD
:1003CC008B4201D3CB00C01A524183088B4201D31C
:1003DC008B00C01A5241D9D243088B4201D34B0037
:1003EC00C01A5241411A00D20146634652415B1079
:1003FC00104601D34042002B00D54942704763465A
:10040C005B1000D3404201B5002000F005F802BD9E
:10041C000029F8D016E770477047C0468446100094
:10042C0062468C461900634600E0C0461FB501F0D9
:10043C0097FD002801D40021C8421FBD10B501F062
:10044C00E7FC4042013010BD10B501F089FD0028D9
:10045C0001DB002010BD012010BDC04610B501F01D
:10046C007FFD002801DD002010BD012010BDC0461D
:10047C0010B501F00FFD002801DC002010BD01209B
:10048C0010BDC04610B501F005FD002801DA0020B2
:10049C0010BD012010BDC046844608006146FFE730
:1004AC001FB500F055FB002801D40021C8421FBD28
:1004BC0010B500F0E1FA4042013010BD10B500F06B
:1004CC0047FB002801DB002010BD012010BDC046F9
:1004DC0010B500F03DFB002801DD002010BD01200F
:1004EC0010BDC04610B500F0EDFA002801DC00206C
:1004FC0010BD012010BDC04610B500F0E3FA002875
:10050C0001DA002010BD012010BDC046F0B5C64672
:10051C0043025B0A4E0245004F00DA00C40F9C46B2
:10052C00700A904600B52D0E3F0EC90FB6098C42CD
:10053C004BD0EA1B002A36DD002F61D0FF2D00D1F5
:10054C00ADE08023DB041E431B2A00DCD3E001203A
:10055C004346181A430100D48CE080018709380007
:10056C0002F0DAFC05388740854200DCB6E02D1A33
:10057C00B3483840430704D00F230340042B00D06A
:10058C000430430100D478E06A1CFE2D65D0800154
:10059C00430A9C46D2B26346D0051843E407204375
:1005AC0080BCB846F0BD002A35D07A1B002D00D097
:1005BC00AFE04346002B00D1A7E0531E012A00D127
:1005CC002FE1FF2A69D01A00AAE0E91B002970DD8F
:1005DC00002F37D0FF2D62D08023DB041E431B2954
:1005EC0000DCB0E001204044430143D50135FF2D30
:1005FC0033D00123934A0340400810401843B9E715
:10060C00002E00D183E0511E012A00D1D8E0FF2A30
:10061C0045D00A0098E7FE276A1C174200D086E0F6
:10062C00002D00D0B7E04346002B00D1F3E00022B0
:10063C00002EB0D0981B430100D4FAE043460C00C6
:10064C00F01A97E7002E00D1C8E04A1E012900D10C
:10065C00AEE0FF2923D01100C1E70023FF229C4606
:10066C0099E7FE216A1C114277D0FF2AF5D01500BC
:10067C0046447008430700D07EE7C308FF2D0ED018
:10068C005B025B0A9C46EAB285E7002E07D080220B
:10069C00D203134203D0104201D10C000300002BF3
:1006AC00DBD08020C00318434002430A9C46FF2243
:1006BC0071E70029D5D07A1B002D60D14346002B61
:1006CC0024D0531E012A73D0FF2AE7D01A001B2A0C
:1006DC0000DC85E001203D00801985E720233A00ED
:1006EC00451B38000135EA405D1BA840431E98416C
:1006FC00002510433EE7202330009B1A3100984020
:10070C00D140431E9841084322E70C00030015001A
:10071C00B4E7FF2FC1D080234046DB04184380464A
:10072C001B2A51DD01200C003D00301A12E7434614
:10073C009F1B7B012BD4002F00D010E7002300243B
:10074C0000229C4627E7202332003000CA40591A69
:10075C008840431E9841104345E7002D4AD143463B
:10076C00002B63D00022002E00D114E7300040444F
:10077C00430100D47EE7324B013518407AE7FF2F56
:10078C008CD080234146DB04194388469FE74346BF
:10079C000C00F71AE3E64246002A00D075E7002E5B
:1007AC0000D07AE78023DB0300249C46FF22F2E68C
:1007BC00300040440125430100D45BE7022518E7D3
:1007CC0043460125981BC5E6202344464046D440A9
:1007DC009A1A9040431E98412043A4E70D004DE720
:1007EC00202341464046D1409A1A9040431E9841DE
:1007FC00084370E74246002A00D14FE7002E00D193
:10080C004DE78022D203134200D148E7104200D0BA
:10081C0045E7030043E7002E90D00C0084460022ED
:10082C00B9E643460C00F01A013593E684460022E3
:10083C00B1E6002800D01DE7002300249C46AAE660
:10084C00FFFFFFFBFFFFFF7DF0B54F464646D64648
:10085C004502C0B547000C1C6D0A3F0EC60F002F99
:10086C0000D170E0FF2F00D175E0EB008025ED0486
:10087C001D43002399469A467F3F6002430A9846DF
:10088C0063001B0EE40F002B4ED0FF2B46D04246CC
:10089C00D0008022D2040243904600227F3B3100DC
:1008AC00FF1A4B466140C9B213430F2B00D9B5E078
:1008BC006E489B00C3589F46002398462600454629
:1008CC0092465346022B00D189E0032B00D19EE0C7
:1008DC00012B18D03B007F33002B69DD6A0704D055
:1008EC000F222A40042A00D004352A0103D5604B7C
:1008FC001D403B008033FE2B00DD70E0AD016D0A26
:10090C00D8B202E00E0000200025C0052843F607EF
:10091C003043E0BCBA46B146A846F0BD4346002B76
:10092C003FD10222FF3F03E04346002B2DD1012291
:10093C0031004B466140C9B213430F2B34D84D489C
:10094C009B00C3589F46002D13D104239946033BAB
:10095C0000279A4691E7002D05D108239946063BBE
:10096C00FF279A4689E70C239946093BFF279A46AD
:10097C0083E7280002F0D0FA7627431F9D4000231E
:10098C007F4299469A463F1A77E7404602F0C4FAEE
:10099C004246431F9A4076235B4290461B1A002224
:1009AC007DE7FF2303227AE70E00FF200025ACE74A
:1009BC000120C01A1B28A6DC9E372A00BD40C2406D
:1009CC006B1E9D4115436B0704D00F232B40042B4A
:1009DC0000D004356B0144D50120002595E7FF209C
:1009EC00002592E780250026FF20ED038DE70023EC
:1009FC0098468020C003054209D04346034206D1E5
:100A0C00454605436D022600FF206D0A7DE78020D8
:100A1C00C00305436D02FF206D0A76E742466B0169
:100A2C005001834219D21B220025013F01261C00D4
:100A3C006D005B00002C01DB984201D81B1A35437A
:100A4C00013A002AF3D15A1E93411D433B007F33D8
:100A5C000E00002B00DD41E7AAE71A2201251B1A24
:100A6C00E4E7AD0100206D0A4FE7C04698900008FE
:100A7C00FFFFFFF7D890000870B5420045024E0208
:100A8C004C00C30F6D0A0120120E760A240EC90FFA
:100A9C00FF2A06D0FF2C03D0A24201D1B54206D0CA
:100AAC0070BD002DFCD1FF2CFAD1002EF8D18B4259
:100ABC0006D00120002AF3D12800431E9841EFE70D
:100ACC000020EDE770B5420045024E024C00C30F0A
:100ADC006D0A120E760A240EC80FFF2A1BD0FF2CAB
:100AEC000ED0002A1BD1002C01D1002E1CD0002DC1
:100AFC000CD083421CD00221581E0840013870BD16
:100B0C00002E22D1002AF4D1002DF2D10028F6D1EA
:100B1C0001204042F3E7002D17D1FF2CF0D0002C20
:100B2C00E7D1002EE5D1E6E70020002DE7D0E2E783
:100B3C00A24205DCEADBB54202D8E7D30020DEE7AF
:100B4C004342584140000138D9E702204042D6E7E1
:100B5C0070B5420045024E024C00C30F6D0A120ED6
:100B6C00760A240EC80FFF2A0BD0FF2C0DD0002ABA
:100B7C001FD1002C16D1002E14D10020002D10D026
:100B8C0009E0002D0CD1FF2C13D1002E08D1002A26
:100B9C0008D0834212D00221581E0840013800E0D0
:100BAC00022070BD002DF4D10028FAD10120404262
:100BBC00F7E7002CEDD1002EEBD1ECE7A24205DCDF
:100BCC00F2DBB54202D8EFD30020EAE743425841AA
:100BDC0040000138E5E7C046F0B54F464646D646DC
:100BEC0044024500C0B5640A0F1C2D0EC60F002D23
:100BFC0000D18DE0FF2D00D192E00023802099469A
:100C0C009A46E400C00404437F3D7802430A9846A8
:100C1C007B001B0EFF0F002B00D170E0FF2B00D1CF
:100C2C0086E04246D00080227F3BED180023D204A0
:100C3C00024390469C4631004B467940681C0F2B72
:100C4C001CD8764A9B00D3589F4639004446E2464E
:100C5C005346022B0FD0032B00D1D7E0012B37D1F9
:100C6C0000200024C0052043C9070843E0BCBA4655
:100C7C00B146A846F0BDFF200024F3E7260C24045F
:100C8C00220C44462404240C434627001B0C5743D7
:100C9C0074435A435E4312193B0C9B189C4203D974
:100CAC0080225202944666443F041A043F0CD21927
:100CBC009401671EBC411B0C920E9B1914439B01A3
:100CCC001C431B0100D49BE0012362081C4014430D
:100CDC0002007F32002A64DD630704D00F23234017
:100CEC00042B00D00434230103D502004C4B80327A
:100CFC001C40FE2ABFDCA401640AD0B2B2E7434612
:100D0C00002B3DD14A4601331A4391469C4692E74B
:100D1C00002C29D104239946033B00259A4674E7FD
:100D2C00002C1BD108239946063BFF259A466CE7FD
:100D3C004346FF35002B0BD102234A461A439146FA
:100D4C009C4678E753463100022B00D083E792E7AC
:100D5C0003234A461A4391469C466CE70C2399465A
:100D6C00093BFF259A4650E7200002F0D5F876257E
:100D7C00431F9C4000236D4299469A462D1A44E726
:100D8C00404602F0C9F84246431F9A4000232D1AF0
:100D9C0090469C46763D4EE780240021FF20E403DC
:100DAC0060E701239B1A1B2B00DD59E722009E30C4
:100DBC00DA4084401300621E94411C43630704D044
:100DCC000F232340042B00D0043463011AD50120D7
:100DDC00002447E78020C003044209D04346034265
:100DEC0006D14446044364023900FF20640A39E703
:100DFC008020C003044364023100FF20640A31E701
:100E0C00280065E7A4010020640A2BE78020C003BA
:100E1C0004436402FF20640A24E7C04618910008CA
:100E2C00FFFFFFF7F8B5CE46474643025B0A4E027A
:100E3C00DA009446720A914645004A0080B52D0EA0
:100E4C001F00C40F120EC90FB609FF2A5BD0012078
:100E5C0041408C4239D0A81A00285ADD002A6AD0A9
:100E6C00FF2D00D1D9E08022D20416431B2800DCD0
:100E7C00E9E001206346181A430100D4B4E0800174
:100E8C008709380002F048F805388740854200DCB5
:100E9C00CCE02D1AB5483840430704D00F2303404B
:100EAC00042B00D00430430100D4A0E06A1CFE2DBA
:100EBC0000D18DE08001470AD2B2D0053843E40757
:100ECC002043C0BCB946B046F8BDA81A80460028DD
:100EDC0045DD002A70D0FF2D00D19EE08023DB047D
:100EEC001E4343461B2B00DCD2E00120604443012F
:100EFC007AD50135FF2D6BD001239D4A0340400864
:100F0C0010401843C8E7002E20D08C4223D0280074
:100F1C00FF38002839D0571B002D00D09DE06346C8
:100F2C00002B00D1DBE07B1E012F00D10DE1FF2F48
:100F3C0071D01F0098E0002E00D1A7E0421E0128BE
:100F4C0000D1E6E0FF2868D010008FE70120414077
:100F5C00A14200D07FE7FF2040428046A844404693
:100F6C00002838D0511B002D00D1AEE0FF2A00D153
:100F7C00DFE080236046DB04184384461B2900DC39
:100F8C00D9E0012015008019B1E7FE206A1C10423F
:100F9C0071D1002D00D0A6E06346002B00D1D9E022
:100FAC000022002E00D188E7981B430100D4E1E019
:100FBC0063460C00F01A6FE7002E00D1B7E0020078
:100FCC00013A012800D19CE0FF2826D0904688E702
:100FDC00FF22002771E7FE206A1C104264D0FF2A12
:100FEC00F6D0150066447008430700D056E7C308D6
:100FFC00FF2D12D05B025F0AEAB25EE76246002A5E
:10100C0000D196E0002E08D08022D203134204D0E7
:10101C004846104201D10C004B46002BD8D08027FB
:10102C00FF031F437F02FF227F0A46E720233A007B
:10103C00451B38000135EA405D1BA840431E984112
:10104C000025104328E720231B1A32009E40C24083
:10105C003000431E984110430CE7FF2ADBD080235D
:10106C006046DB04184384461B2F56DD01200C0020
:10107C001500301A00E763469F1B7B013DD4002FFF
:10108C0000D0FEE600240022002716E70500AFE79B
:10109C00320043464146DA4020235B1A9E40300022
:1010AC00431E9841104321E7002DA7D16346002B26
:1010BC0059D00022002E00D1FFE6300060444301DD
:1010CC0092D52A4B013518408EE76346002B47D04A
:1010DC004B1E012915D0FF292BD019004EE70C000F
:1010EC004B463D0084E76246002A8BD1002E92D1FC
:1010FC0080270024FF22FF03DFE663460C00F71A6B
:10110C00BFE6300060440125430100D46CE70225A2
:10111C00F2E663460125981BAEE620236446604642
:10112C00FC40DF1BB840431E984120439FE705005D
:10113C005EE74B4671E7202365466046CD40591A61
:10114C008840431E984128431CE763460C00012548
:10115C00F01A91E6002E95D00C004F460022ACE61A
:10116C004B460D0044E74F460022A6E6FFFFFFFB6F
:10117C00FFFFFF7D002800D036E7002400279CE607
:10118C0043024A02400049005B0A520A090E000E53
:10119C00FF2806D00020FF2902D1531E9A411000CF
:1011AC007047FE38002BFBD1F4E7C046F0B54F4634
:1011BC004646D6460D000400C0B51F00110028039A
:1011CC00620F400A10437A00520DE3003C03914633
:1011DC00640AFA0F4F0F6E0027439246B846760DFD
:1011EC00ED0FC900954200D199E04C46341BA44642
:1011FC00002C00DC7CE04A46002A00D1B8E0C54A4D
:10120C00964200D11CE180223C0012041443A046FB
:10121C006246382A00DD61E11F2A00DDCCE164461C
:10122C002022121B444694400F00A1466446914074
:10123C00E7404C464A1E91413C434246214364469A
:10124C00E240801A5C1AA3429B415F42C71B3B02DF
:10125C0000D4D0E07F027F0A002F00D1FFE03800DD
:10126C0001F05AFE01000839202322005B1A8F403E
:10127C00DA408C401743B14200DAFFE0891B4B1C6B
:10128C001F2B00DDA8E020223900D21A2000944048
:10129C009140D840621E9441DF40002601430C432C
:1012AC00630709D00F232340042B05D0231DA34231
:1012BC00A44164423F191C003B0200D49EE0954BB4
:1012CC0001369E4200D1B7E0934AE40817407B07F1
:1012DC0071057F0223433F0B4A0D12053A43ED077C
:1012EC002A4318001100E0BCBA46B146A846F0BD2E
:1012FC00002C4BD04C46A41BA446002E00D023E15E
:10130C0004001C4300D1AFE16246541E012A00D1F7
:10131C0015E2804DAC4500D1C8E1A4461BE14A461C
:10132C00B21A9446002A00DCACE04A46002A43D0AC
:10133C00784A964200D1AFE180223C00120414435B
:10134C00A0466246382A67DC1F2A00DC5FE147466C
:10135C00203AD7406246202A05D064464022121B10
:10136C004446944021434A1E91410C003C4357E0B3
:10137C003A000A4300D105E12200013A012C00D1C8
:10138C0082E1644CA4455BD0944641E7634C771CE6
:10139C00274200D0C4E004001C43002E00D069E1B9
:1013AC00002C00D1BFE144460C4300D0D0E14207F1
:1013BC00DB081343C00829E03A000A4300D170E16E
:1013CC0062466446013A012C00D1E0E0514CA44540
:1013DC0000D161E19446B4E73A001F39CA401100CC
:1013EC00202B03D04022D31A9F403C43631E9C41C8
:1013FC00002700260C43630700D053E7B446E408EB
:10140C007B072343F808434A94451DD062460703E3
:10141C0052053F0B520D60E744460C43621E94414B
:10142C00E4189C429B415F423F183B02E3D5394B89
:10143C0001369E4200D0B5E03200002700234CE775
:10144C004207DB081343C0081A00024300D1E1E154
:10145C0080273F0307433F032E4A3F0B3DE7200005
:10146C0001F05AFD010018311F2900DCFCE6083898
:10147C00844027000024B14200DBFFE6264A761A9E
:10148C0017400DE7002A2FD04A46921B9446002E97
:10149C0000D1ADE01F4A914500D10FE1802212042A
:1014AC0010436246382A00DD0FE11F2A00DD80E17F
:1014BC00644620221E00121B674604009340944091
:1014CC00FE405A1E9341F84034431C438044641838
:1014DC008C42BF417F424E464744A6E742460A43F0
:1014EC0011004A1E9141ADE60C4C721C224200D0F8
:1014FC00A1E002001A43002E00D0FAE0002A00D12D
:10150C0045E13A000A4300D046E14207DB081343A9
:10151C00C0087BE7FF070000FFFF7FFFFE0700000E
:10152C0047465C1AC21BA342BF417F42B946170013
:10153C004A46BF1A3A0200D58DE023003B4300D047
:10154C008AE60020002561E7B44CA14500D1ADE04E
:10155C008024240420436446382C3DDC62461F2C36
:10156C0000DDB7E020251E002D1B0400AB40AC4075
:10157C00D640D04042465D1EAB413443121A9046D1
:10158C0023432CE04207DB081343C0083BE75C18FD
:10159C009C429B4140445B42C71801263B0200D44D
:1015AC0029E702269E4A63081740012214401C4377
:1015BC00FB071C437F0873E64446203AD44062463E
:1015CC00202A05D067464022D21B47469740394314
:1015DC004A1E9141214335E60343581E8341CC1AE0
:1015EC00A142BF4143467F4255464E46DF1B2EE685
:1015FC0002001A4300D1BDE062466446013A012C58
:10160C0000D1E5E0854CA44558D0944649E76446A2
:10161C002022121B444694400F00A1466446914080
:10162C00E7404C464A1E91413C4342460C436146BE
:10163C00CA408018F4E6794CA24200D1FDE6591854
:10164C0099429B4140445F42C719FC074908160068
:10165C000C437F08CFE6CC1AA142BF4143467F42E0
:10166C00181A5546C71BF7E5C9087B0755460B43A7
:10167C00F808C8E6002C00D081E043460B4315D196
:10168C00802000250003E3E65C1AA3429B41C71BA4
:10169C005B420126FF1ADAE54207DB081343C00858
:1016AC00D2E64207DB081343C008ACE64346424689
:1016BC00C9085B0755460B43D008C5E6434642466E
:1016CC005B07C9080B43D008BEE603431C00631E2E
:1016DC009C41FCE60200203CE24014006246202AB9
:1016EC0003D04025AD1AA8400343581E8341234321
:1016FC0075E7002AE2D03A000A43CDD04207DB0856
:10170C0013438022C0081203104206D0FC08144276
:10171C0003D12000CB087A0713435A0FDB00520782
:10172C00DB08134390E643460B4300D109E74346DD
:10173C004246C9085B0755460B43D00866E6CC1AEF
:10174C00A14289413F1A4942554601267F1A7EE53E
:10175C0042465C1A871AA34292415242BF1A3A027D
:10176C003DD5CC1AA1428941434649421F1A5546E0
:10177C007F1A95E57B07C9080B43F80843E64446F6
:10178C00DB080C4330D142071343C0085CE67B07EF
:10179C00C9080B43F80839E65C189C429B4140444D
:1017AC005B42C7183B0200D425E61D4B01261F40A7
:1017BC0021E60400203AD4406246202A04D040227C
:1017CC006646921B904003435A1E93411C437EE68F
:1017DC005C188C428941404449424718DDE623009D
:1017EC003B4300D1ADE606E6440723438024C00802
:1017FC002403204208D04246D608264204D155463E
:10180C003000CB0851070B435A0FDB00DB085207A3
:10181C00134319E60023014A1F005EE5FF07000091
:10182C00FFFF7FFFF0B557464E464546DE46E0B516
:10183C00814605000C03480092461F0085B0240B1E
:10184C00400DCE0F002800D156E1D44B984200D168
:10185C0072E16B0FE4001C4380231B042343984666
:10186C00CF4BED009B4600239946834400933C03E9
:10187C007B005046240B5B0DFF0F002B00D11FE1AA
:10188C00C64A934200D162E1C549420F8C46E4003E
:10189C0059461443802263441204CB1A14439B46CA
:1018AC00C200002033007B409A464B460F2B27D8B2
:1018BC00BC499B00CB589F46B246009B022B16D0CE
:1018CC00032B00D18EE2012B00D0D9E000230024A1
:1018DC00002552461B052343D20713432800190049
:1018EC0005B0F0BCBB46B246A946A046F0BD0024EC
:1018FC000025AA4BEDE7BA46A04615000090DCE7A0
:10190C00444500D2C7E100D1C2E101235B429C46B1
:10191C002E0040460025E3442302140E1C431B0CEE
:10192C00994623041F0C1202494600920197FEF7B8
:10193C0085FC02007A430B04310C804619438A4221
:10194C0007D901235B429C460919E0448C4200D81C
:10195C0007E2881A4946FEF771FC09048C463104EB
:10196C006646019A090C4243030031438A4204D96A
:10197C000919013B8C4200D8EDE1881A4246120449
:10198C001A4390464146009B0E041B0C1F00029309
:10199C00009B360C1B04190C0B007343120C7E437A
:1019AC00039151437A431F0CBC4676186644B142EE
:1019BC0003D9802149028C466244310C8A183104C7
:1019CC001E04360C8E19904202D312D1B54210D29D
:1019DC004346591E009B9C4665441F009D429B41FB
:1019EC005B421B19C018844200D2A0E100D19BE1DC
:1019FC008846AE1BB542AD41801A6D42401B8442F5
:101A0C0000D1D5E14946FEF719FC019A0B0442437B
:101A1C00310C050019438A4200D96CE1881A4946F9
:101A2C00FEF70CFC019A360442430904360C030001
:101A3C000E43B24200D953E10398B61A02002D04AA
:101A4C001D43029F2B041B0C5A437B439C46290CC1
:101A5C004843130C844463447943984203D980204F
:101A6C00400284466144180C12041B04120C4118E9
:101A7C009B188E4200D2FFE000D1FAE001231D43F7
:101A8C00494A5A44002A00DCAAE06B0700D03DE129
:101A9C00ED084346DB0106D54246444B1A409046BE
:101AAC008022D2005A44424B9A4200DD1FE7434643
:101ABC005B071D43434652055C02240B530D08E79C
:101ACC005246224300D17BE0002C00D1FAE02000EA
:101ADC0001F022FA02000B3A1D2301009B1A524618
:101AEC000839DA408C40144352468A40314B5844F2
:101AFC009B4683440020D5E64B462343984644D06E
:101B0C00002C00D1CEE0200001F006FA010002000A
:101B1C000B391D235B1A49461000D9400838844004
:101B2C000B004D462343984685402348831A9B4619
:101B3C000023994600939AE64B46234398461DD1C1
:101B4C0008239946063B0025834600938FE65246B0
:101B5C00224309D1022349461943184B89469C4616
:101B6C0000240220E3449DE603234A461A43134B08
:101B7C0091469C4652460320E34493E60C23994637
:101B8C00093BA0468346009371E604239946002343
:101B9C009B4601330025009369E6C046FF07000011
:101BAC0001FCFFFF58910008FF030000FFFFFFFE40
:101BBC00FE070000F30300000DFCFFFF01F8FFFF20
:101BCC004946012319438946002401206AE6002373
:101BDC0080249A4600258A4B24037AE601256D421F
:101BEC0001239B1A382B00DD70E61F2B00DCBFE0B5
:101BFC001F2149428A1A4146D1400A00202B04D0A9
:101C0C004146804B5B4499400D436B1E9D4107231D
:101C1C002A431D0000241540134200D1D4E00F21AB
:101C2C0000231140042900D1CBE0111D91429241B7
:101C3C0052429B180A00190200D4C2E0012300246E
:101C4C00002546E6802341461B03194208D01C425E
:101C5C0006D11C432403BA461500694B240B38E605
:101C6C008024434624031C432403B246644B240BB8
:101C7C002FE6002B00D103E7A619681EA64200D25E
:101C8C008DE08E4200D2A3E000D1B3E00500F5E672
:101C9C00AA4200D939E64346DE0758086B081E43B2
:101CAC00ED0739E6484601F037F90100020015311D
:101CBC0020321C2900DC2CE74B46083883400025D9
:101CCC00984632E701F028F903001A00153220304B
:101CDC001C2A00DC00E75446083B00229C4005E728
:101CEC003619013BB44200D9A6E6B24200D8A3E6AD
:101CFC00831E3619A0E60919013D8C4200D98DE6E8
:101D0C008A4200D88AE6851E091987E60F232B40E4
:101D1C00042B00D1BCE605235B42AB429B4104354E
:101D2C005B42ED089844B4E6AF4200D960E68242CB
:101D3C0004D800D05CE6AE4200D859E602235B42E0
:101D4C009C46009BE0449C4665449D429B415B4203
:101D5C001B19C0184DE68A4200D80EE6831E0919DD
:101D6C000BE68A4200D8F4E5831E98460919F0E583
:101D7C002549280059448D4042468A40691E8D41B0
:101D8C004146D840D94002432A430B00510700D1A9
:101D9C0051E70F211140042900D046E74BE705001D
:101DAC008E4200D06AE6009A934200D066E667E65F
:101DBC00164A5A44002A00DC10E7012300259844F7
:101DCC0067E65D075B021C0BD2080023154380E518
:101DDC000098023D42008242BF417F423C193619B5
:101DEC000092DDE78024434624031C432403044B68
:101DFC00240B6EE5009A9A42EAD30500D3E7C0465D
:101E0C00FF0700003E0400001E040000FF0300005A
:101E1C00F0B54E464546DE4657469046E0B51700AF
:101E2C001A03120B0500844619480E034C00914608
:101E3C005A00DB0F9B46360B640DC90F520D8442C2
:101E4C0019D0824210D0012094420ED14E450CD1B3
:101E5C000120C44509D1594517D0002C05D13000BB
:101E6C002843431E984100E00120F0BCBB46B2461B
:101E7C00A946A046F0BD330001202B43F5D1A24268
:101E8C00F3D14B463B43F0D1E2E70020EDE7C046EF
:101E9C00FF070000F0B54746CE46040018001600B8
:101EAC001B031B0B2D4D4A00994680B543000F03B5
:101EBC00A446B0463F0B520DC90F5B0DC00FAA4292
:101ECC0021D0AB4213D0002A22D13C43002B02D1AB
:101EDC004D462E4322D0002C10D0814222D002201D
:101EEC00013908400138C0BCB946B046F0BD4D467A
:101EFC002E4329D1002AF0D13C43EED10028F2D157
:101F0C0001204042EFE73D0025431DD19342EED026
:101F1C00002BE2D14C462643DFD1E0E70020002C19
:101F2C00E1D0DCE79A420ADCE8DB4F45D7D80ED08B
:101F3C0000204F45D7D20029E2D00800D3E7434216
:101F4C00584140000138CEE702204042CBE7C4455F
:101F5C00C5D80020C445C6D2EDE7C046FF07000037
:101F6C00F0B54746CE460400180016001B031B0BA9
:101F7C002C4D4A00994680B543000F03A446B04649
:101F8C003F0B520DC90F5B0DC00FAA420DD0AB42D7
:101F9C0010D0002A27D13C43002B11D14D462E43A3
:101FAC000ED10020002C15D00EE03D00254310D1A1
:101FBC00934218D14D462E430BD1002A02D13C43FB
:101FCC00002C0BD0814214D002200139084001387A
:101FDC0000E00220C0BCB946B046F0BD0028F9D1E3
:101FEC0001204042F6E7002BECD14C462643E9D1C8
:101FFC00EAE79A4204DD4342584140000138E9E7E0
:10200C009A42EBDB4F45DFD806D000204F45E1D29A
:10201C000029E5D00800DDE7C445D5D80020C4452B
:10202C00D8D2F5E7FF070000F0B557464E464546B7
:10203C00DE46E0B598460C034B000600924687B08E
:10204C00240B5B0DCF0F002B00D15CE1D94A9342DE
:10205C0000D175E1420FE4001443802212041443B2
:10206C00D54AC500944663440093002399469B4689
:10207C00434642461E03D20F5B0050469046360B39
:10208C005B0D00D120E1CB4A934200D162E1CA49F9
:10209C00420F8C4600996344F6008C46164380220E
:1020AC009C44120463461643C2000020009300991E
:1020BC00434601318C4649467B4001930F2926D873
:1020CC00BE4B890059588F46434601933400150086
:1020DC0083465B46022B16D0032B00D103E2012B67
:1020EC0000D0CDE0002200240025019B12052243E4
:1020FC00DB071A432800110007B0F0BCBB46B24600
:10210C00A946A046F0BD00240025AA4AEDE7280CFC
:10211C002D042D0C2B00110C1204120C5343984659
:10212C0013002F00434399464F434F44BB46474649
:10213C000B003F0CBA464343DA440293D14504D911
:10214C0080277F02B9464B44029353461B0C9B4697
:10215C0053461F0443461B041B0C98463B00434448
:10216C000493330C3604360C98463300434399469B
:10217C00434643432F009A46434677435D43380C0E
:10218C004D444519A94503D980235B029946CA449D
:10219C003F04280C3F0C2D04ED19270C2404240CAF
:1021AC000300200050437A4391463A005344059370
:1021BC00030C9A464A43614349445144AB44894514
:1021CC0003D980235B0299464A4400040B0C000C93
:1021DC000904091820009946434670435C437E432A
:1021EC005F43030C9846A41944444A440397A642FF
:1021FC0004D980235B029846474403972304029E2C
:10220C009A46059B5E449846AE42AD4176188E4286
:10221C0089410004000C504440446D424719B846B3
:10222C00934649428946C344D94498428041A845C3
:10223C00AD4193459241894589416D4240422843C5
:10224C00240C524249420A43039B00198018C718B8
:10225C004B46DC0D049B75021D436A1E95414B4693
:10226C00F60D7F0235435A023C431543FB0100D463
:10227C001CE101216A080D401543E207154364086F
:10228C004F496144002900DCB0E06B0709D00F22F4
:10229C002A40042A05D02A1DAA42AD416D42641978
:1022AC001500E30104D58021464AC900144061445D
:1022BC00454A914200DD26E76207ED0864024905B4
:1022CC001543240B4A0D10E75246324300D17FE0F0
:1022DC00002E00D1DCE0300000F01EFE02000B3AB4
:1022EC001D2301009B1A52460839DA408E401643D2
:1022FC0052468A40009B3549181A03008C466344A9
:10230C0000200093D3E6250005434AD0002C00D1D1
:10231C00B0E0200000F000FE010002000B391D238C
:10232C0010005B1A3100350008388440D9408540D4
:10233C000C432648831A0093002399469B4697E644
:10234C000500254326D10822009302230024914640
:10235C009B468DE65246009B324310D11549002610
:10236C008C46634449460093022319438946022054
:10237C009DE65B460197022B00D0ADE6C3E60D4A05
:10238C000320944663444A46009303231A43914620
:10239C0052468CE60C2200930323050091469B4683
:1023AC0066E60423994600230093013300249B46E0
:1023BC005EE6C046FF07000001FCFFFF9891000895
:1023CC00FF030000FFFFFFFEFE0700000DFCFFFFF8
:1023DC0049460123194389460026012067E600235C
:1023EC0080240025434A019324037EE60120401AF1
:1023FC00382800DD76E61F285BDD1F2223005242C1
:10240C00511ACB401900202803D03B4A6244944017
:10241C0025436A1E95412A000A4307210D0000241A
:10242C00154011425BD00F2100241140042953D0D8
:10243C00111D914292415242A4180A0023024BD51D
:10244C0001220024002550E680231B031C4209D0E6
:10245C001E4207D133431C0343461500240B254A67
:10246C00019342E68022120314432403214A240BD5
:10247C0001973AE600F050FD0100020015312032C0
:10248C001C2900DC4BE7340008380025844050E759
:10249C0000F042FD03001A00153220301C2A00DC2B
:1024AC001EE75646083B00229E4023E7009B9C46B5
:1024BC00E6E61249220061442E008D408A40C64057
:1024CC00691E8D4132432A43C4405307B6D00F21B5
:1024DC0011400429ACD1B1E765076402240BD20882
:1024EC001543002201E68022120314432403014AFF
:1024FC00240BFAE5FF0700003E0400001E04000058
:10250C00F8B557464E464546DE46E0B51E00170068
:10251C004A000B03520D5B0A9046420F1A43CD0F33
:10252C00CD4C3103C300944670007A0F490AFF006A
:10253C009A46B946400DF60F1143A04200D1B1E0C6
:10254C0001225640B346B54200D188E04246121AE9
:10255C00002A00DCAEE0002800D1C1E0BE48804576
:10256C0000D151E1802000040143382A00DD7BE1D9
:10257C001F2A00DDEEE120203E00801A0C00D64020
:10258C00D140874062468440521A781E8741944657
:10259C0034432743DC1BA3429B4162465B42D31A64
:1025AC0099464B461B0200D418E14B465802430A8D
:1025BC0099464B46002B00D137E1484600F0ACFC65
:1025CC00010008392023220048465B1ADA40884073
:1025DC008C4043461043884500DD36E1C91A4B1C3C
:1025EC001F2B00DDEAE020222600D21A01009440C5
:1025FC00DE40D84000239140621E944181469846AB
:10260C0031430C43630709D00F232340042B05D01F
:10261C00231DA342A4416442A1441C004B461B024F
:10262C0000D4DEE041468C4B0131994200D1E7E009
:10263C004B468A48E4080340180049055B074002F2
:10264C0023434A0D040B1205ED0722432A431800BD
:10265C001100F0BCBB46B246A946A046F8BD4246A6
:10266C00121A002A52DD002800D19CE0A04500D1AE
:10267C00CAE0802000040143382A00DD49E11F2A0A
:10268C0000DC97E110000E002038C640202A04D050
:10269C004020821A91400F43B9464C46621E944129
:1026AC0034433AE10A003A4328D0B346B5422BD022
:1026BC006B4A4244002A5DD042464446821A002CA2
:1026CC0000D0F5E065461D4300D19CE1551E012A62
:1026DC0000D1FBE1604CA24200D1BDE12A00F0E048
:1026EC000800384300D1C3E0501E012A00D1A8E1F4
:1026FC00594CA24200D187E0020036E70122564035
:10270C00B346B54200D021E7554A4244002A00D1D5
:10271C00B5E042464446821A002C00D138E14E4EB8
:10272C00B04200D1DEE18026644636043443A44630
:10273C00382A00DD96E11F2A00DD24E22026B41A97
:10274C00A24664465646B440A1461C004E46D440B0
:10275C00264334005646B3405E1EB3411C436346C9
:10276C00D340C918E419BC42BF417F42B9468046E8
:10277C008944D8E040463B4C0130204200D0B4E0C4
:10278C004046002800D044E16046184300D190E157
:10279C000800384300D0AAE16146DB0849070B4327
:1027AC006146CC0827E00800384361D0501E012A4E
:1027BC0000D139E1A24227D002005DE702001F39A7
:1027CC00CA401100202B03D04022D31A9840044356
:1027DC00631E9C410023994698460C43630700D026
:1027EC0012E74B464A46E4085B072343D4084246AB
:1027FC0019498A420ED024035205240B520D22E7AC
:10280C000A00002400231EE7DB086246520713432C
:10281C006246D4081A00224300D1FCE18022120344
:10282C00144324030C4A240B0DE7200000F074FB26
:10283C00010018311F2900DCC4E6083884404346E7
:10284C0020000024884500DCC8E6044A5B1A1040CE
:10285C0098468146D6E6C046FF070000FFFF7FFF83
:10286C0001F8FFFFFE0700000F437A1E974191E627
:10287C006146DB0849070B436146CC08B8E7404684
:10288C00D34C0130204200D0A2E04046002800D0BA
:10289C0001E16046184300D15EE10800384300D0E6
:1028AC005FE16146DB0849070B436146CC08A2E7B0
:1028BC00C84DA84200D1CFE0802564462D042C439E
:1028CC00A446382A56DC1F2A00DDD1E020251E0044
:1028DC00AD1A6446AB40AC40D6405D1EAB413443B0
:1028EC0023436446D440091B49E06046DC1B461A6E
:1028FC00A34280414042814630004E46801B8146B7
:10290C00000276D44B46234300D052E60024002527
:10291C0071E739430C00621E9441E4189C429B41C0
:10292C005B42634499464B461B0200D456E7012395
:10293C009C46A84BE044984538D04B46A64801220B
:10294C0003401800630814401C43C3071C4343088E
:10295C00994657E610000E002038C640202A04D0B5
:10296C004020821A91400F43B9464F467A1E974138
:10297C0037430FE662461A4313005A1E9341FC1A62
:10298C00A742BF417F42CB1B99465D46804608E675
:10299C0066461E4300D1BEE0561E012A00D109E155
:1029AC008C4CA24200D119E13200C1E6424600240F
:1029BC00002348E620200C00801A3E00874084400B
:1029CC00D640781E8741D14034433C438C44A4E725
:1029DC00804A904200D1E9E0DF199F429B4161445B
:1029EC005B42C918CC077F084B08994680463C438C
:1029FC00F4E6FC1AA742BF4163467F42C91ACB1BBF
:102A0C0099465D46D5E5FF084B075D463B43CC0830
:102A1C00EEE662461A4300D082E00B003B431BD12A
:102A2C00802400252403F9E6DC199C429B41614477
:102A3C0089465B4299444B461B0244D40123984679
:102A4C00CCE6DC1B6246A3429B41511A5B42CB1A7B
:102A5C00994601239846A4E5FF084B075D463B4386
:102A6C00CC08D7E662461A431400631E9C4179E6F3
:102A7C0015006446203DEC40A046202A05D0402598
:102A8C006446AA1A944023439A465446631E9C41BA
:102A9C004346234373E762461A4323D00A003A4362
:102AAC0000D0A0E06246DB08520713436246D4080C
:102ABC00B0E60B003B4300D128E7FF084B075D460F
:102ACC003B43CC0897E60223984636E7FC1AA7420C
:102ADC00BF4163467F42C91ACB1B994601235D4611
:102AEC0098465EE54B07FF083B43CC0892E6DC1B9F
:102AFC006046A342B641401A7642801B81460002D2
:102B0C0060D5FC1AA742BF4163467F42C91ACB1B52
:102B1C0099465D4676E5FF084B073B43CC0867E6D4
:102B2C000A00DB083A4300D16FE6624652071343B2
:102B3C006246D40880221203144207D0C8081042FF
:102B4C0004D15D460400FB0849070B435A0FDB0018
:102B5C00DB08520713435DE64B07FF083B43CC08E9
:102B6C0049E6DC199C429B41614489465B4299448D
:102B7C004B461B0200D431E64A46174B1A40012340
:102B8C00914698462AE616006446203EF440A0463C
:102B9C00202A05D040266446B21A944023439A4614
:102BAC005446631E9C4143461C43DBE50200002453
:102BBC00002348E5DC19BC42BF41614489467F4291
:102BCC00B94438E74B46234300D19FE606E6C0469E
:102BDC00FE070000FF070000FFFF7FFFFF084B0709
:102BEC003B43CC0816E66246DB08520713436246A9
:102BFC00D40880221203144207D0C808104204D112
:102C0C005D460400FB0849070B435A0FDB005207D3
:102C1C00DB081343FEE50023014A1C0013E5C04604
:102C2C00FF07000070B505000C481C0316005B0084
:102C3C000A034900120B490D240B5B0D814208D08D
:102C4C00064A0020934203D120003043431E984192
:102C5C0070BD01202A43FBD1F2E7C046FF070000FC
:102C6C000A0030B5134C530009030500090B002072
:102C7C005B0DD20FA34204DD0F48834202DD0F4BE4
:102C8C00D01830BD8020400301430D48C01A1F28C6
:102C9C0008DD0C48C31AD9400B005842002AF0D169
:102CAC001800EEE7084CC540A446634499400B005D
:102CBC002B43F2E7FE0300001D040000FFFFFF7F23
:102CCC003304000013040000EDFBFFFF70B5002877
:102CDC0016D0C317C5185D40C40F280000F01CF9AE
:102CEC00114A121A0A2816DC03002E0015339E40D6
:102CFC000B23181AC54052052D032D0B530D03E061
:102D0C0000240023002500261B052B43E407234346
:102D1C003000190070BD0B38854052052D0300267C
:102D2C002D0B530DF0E7C0461E04000010B5041E19
:102D3C0010D000F0F1F80F4B1B1A0A2811DC0B22F3
:102D4C002100121AD14015300A035B058440120B86
:102D5C005B0D01E0002300221B051343200019002A
:102D6C0010BD22000B3882405B0512030024120BAD
:102D7C005B0DF1E71E04000070B543004602C40F62
:102D8C00FE201B0E591C750A08420CD0E022920042
:102D9C0094466D07360B63441B053343E40723430A
:102DAC002800190070BD002B14D1002D1BD0280059
:102DBC0000F0B2F80A281CDC0B232E001B1ADE4094
:102DCC00030015339D400E4A3603121A5205360B7A
:102DDC00530DE1E7002D09D08022360B1203094B6D
:102DEC006D071643D8E700230026D5E70026054BD0
:102DFC00D2E703000B3B9D402E000025E3E7C046C5
:102E0C0089030000FF07000002004B00F0B55B0DCA
:102E1C000C033D4E640A400F5F1CC90F0443D500E0
:102E2C0037420AD039481E18FE2E16DDFF2000242A
:102E3C00C0052043C9070843F0BD002B06D12C4325
:102E4C0026D005229201540AD8B2F1E72543EDD0E1
:102E5C008020C0030443FF20EAE7002E1BDD920113
:102E6C00531E9A41E4006D0F22432A43530748D066
:102E7C000F231340042B00D004328023DB041340B7
:102E8C003FD0701CFE2ED1D09201540AC0B2CFE7B5
:102E9C0000200024CCE73200173222DB8020000413
:102EAC0020431E24A41B1F2C1DDD02225242961B04
:102EBC000200F2401600202C04D0154A94466344BC
:102ECC00984005432A00531E9A413243002653076B
:102EDC00CED180241300E404012023402242D3D11C
:102EEC00B0E70023ADE70B4A94462A00E2401400F9
:102EFC002A0063449A409840551EAA41024322433B
:102F0C00E4E733009EE7C046FE07000080FCFFFFAD
:102F1C00A2FCFFFF82FCFFFF1C2101231B04984233
:102F2C0001D3000C10391B0A984201D3000A08394E
:102F3C001B09984201D30009043902A2105C401805
:102F4C007047C046040302020101010100000000A9
:102F5C000000000080B582B000AF7860114B124ABF
:102F6C001A60124BFE2292051A60114B00221A6055
:102F7C00104B00221A60104B00221A600F4BEC22EF
:102F8C0092051A600E4B00221A707968FE2080059B
:102F9C00FDF75AFC031C1A1C084B1A60C046BD46B0
:102FAC0002B080BDF8010020CDCCCC3DFC0100204E
:102FBC000002002004020020080200200C02002065
:102FCC001C02002090B59BB000AFF860B9607A602D
:102FDC003B60FA49F868FDF7FFFD031CFB60F749FD
:102FEC00B868FDF7F9FD031CBB60F4497868FDF780
:102FFC00F3FD031C7B60F24B1B68802212065340CE
:10300C00F968181CFDF7E8FD031C1C1CED4B1B6834
:10301C00B968181CFDF7E0FD031C191C201CFDF7FA
:10302C0001FF031C1C1CE84B1B687968181CFDF77E
:10303C00D3FD031C191C201CFDF7F4FE031CFC2102
:10304C008905181CFDF7C8FD031C7B66DF4B1B684C
:10305C00F968181CFDF7C0FD031C1C1CD94B1B6820
:10306C007968181CFDF7B8FD031C191C201CFDF712
:10307C004DFA031C1C1CD44B1B68B968181CFDF7BB
:10308C00ABFD031C191C201CFDF7CCFE031CFC2102
:10309C008905181CFDF7A0FD031C3B66CB4B1B6878
:1030AC00B968181CFDF798FD031C1C1CC44B1B684D
:1030BC007968181CFDF790FD031C191C201CFDF7EA
:1030CC00B1FE031C1C1CC04B1B68F968181CFDF7D7
:1030DC0083FD031C191C201CFDF718FA031CFC2192
:1030EC008905181CFDF778FD031CFB65B74B1B68A5
:1030FC007968181CFDF770FD031C1C1CB04B1B6879
:10310C00B968181CFDF768FD031C191C201CFDF781
:10311C00FDF9031C1C1CAB4B1B68F968181CFDF754
:10312C005BFD031C191C201CFDF77CFE031CFC2101
:10313C008905181CFDF750FD031CBB650021386880
:10314C00FDF7B6F9031E0CD00021B86FFDF7B0F9EE
:10315C00031E06D00021F86FFDF7AAF9031E00D05C
:10316C0035E239683868FDF737FD031C1C1CB96F54
:10317C00B86FFDF731FD031C191C201CFDF7C6F9B7
:10318C00031C1C1CF96FF86FFDF726FD031C191CA2
:10319C00201CFDF7BBF9031C181C00F0D9FA031C0A
:1031AC007B65796D3868FDF717FD031C3B60796D05
:1031BC00B86FFDF711FD031CBB67796DF86FFDF758
:1031CC000BFD031CFB67814B1B68191C181CFDF7BE
:1031DC009DF9031C3B657A4B1B68191C181CFDF7E9
:1031EC0095F9031CFB64774B1B68191C181CFDF725
:1031FC008DF9031CBB64744B1B68191C181CFDF760
:10320C0085F9031C7B64714B1B688121C905181C53
:10321C00FDF7E2FC031C3B64694B1B688121C9056B
:10322C00181CFDF7D9FC031CFB63664B1B68812142
:10323C00C905181CFDF7D0FC031CBB63604B1B6855
:10324C008221C905181CFDF7C7FC031C7B635D4B71
:10325C001B688221C905181CFDF7BEFC031C3B63CF
:10326C005A4B1A68594B1B68191C101CFDF7B4FCFF
:10327C00031CFB62524B1A68514B1B68191C101C27
:10328C00FDF7AAFC031CBB624E4B1A684D4B1B6826
:10329C00191C101CFDF7A0FC031C7B624A4B1A681E
:1032AC00494B1B68191C101CFDF796FC031C3B6258
:1032BC00796A386CFDF790FC031C1C1C3968B86CDF
:1032CC00FDF78AFC031C191C201CFDF71FF9031CBD
:1032DC001C1CB96A386CFDF77FFC031C191C201CE4
:1032EC00FDF714F9031C1C1CB96FF86CFDF774FC8A
:1032FC00031C191C201CFDF795FD031CFB61396A8E
:10330C00F86BFDF769FC031C1C1C3968786CFDF725
:10331C0063FC031C191C201CFDF784FD031C1C1CE6
:10332C008121C905F86AFDF757FC031C1A1C244BB4
:10333C001B68191C101CFDF74FFC031C191C201CCE
:10334C00FDF7E4F8031C1C1CB96F386DFDF744FC49
:10335C00031C191C201CFDF765FD031CF96B181CC4
:10336C00FDF760FD031C1C1CB96A786BFDF734FC7F
:10337C00031C191C201CFDF7C9F8031C1C1C796AC2
:10338C00786BFDF729FC031C191C201CFDF7BEF8FB
:10339C00031C1C1CF96FF86BFDF71EFC031C191C9D
:1033AC00201CFDF7B3F8031CBB618121C905F86A29
:1033BC00FDF712FC031C1A1C0AE0C04639FA8E3CBD
:1033CC00000200200402002008020020FC01002062
:1033DC00D84B1B68191C101CFDF7FEFB031C1C1C96
:1033EC003968386DFDF7F8FB031C191C201CFDF720
:1033FC008DF8031C1C1C396AB86BFDF7EDFB031C24
:10340C00191C201CFDF782F8031C1C1CB96F786C6E
:10341C00FDF7E2FB031C191C201CFDF703FD031C2C
:10342C00B96B181CFDF7FEFC031C1C1CB96A386B2D
:10343C00FDF7D2FB031C191C201CFDF767F8031CBD
:10344C001C1C796A386BFDF7C7FB031C191C201C6C
:10345C00FDF75CF8031C1C1CF96FB86BFDF7BCFB8B
:10346C00031C191C201CFDF751F8031C7B618121E6
:10347C00C905B86AFDF7B0FB031C1A1CAE4B1B68E0
:10348C00191C101CFDF7A8FB031C1C1C3968F86CDC
:10349C00FDF7A2FB031C191C201CFDF7C3FC031C2D
:1034AC001C1C8121C905786AFDF796FB031C1A1CAC
:1034BC00A14B1B68191C101CFDF78EFB031C191C5F
:1034CC00201CFDF723F8031C1C1CB96FB86CFDF70E
:1034DC0083FB031C191C201CFDF7A4FC031C3B6183
:1034EC00F969F869FDF778FB031C1C1CB969B8690C
:1034FC00FDF772FB031C191C201CFDF707F8031CBD
:10350C001C1C79697869FDF767FB031C191C201CCE
:10351C00FCF7FCFF031C1C1C39693869FDF75CFBCC
:10352C00031C191C201CFCF7F1FF031C181C00F0D9
:10353C000FF9031C7B65796DF869FDF74DFB031CD6
:10354C00FB61796DB869FDF747FB031CBB61796DB5
:10355C007869FDF741FB031C7B61796D3869FDF7D8
:10356C003BFB031C3B61754B1B68F969181CFDF791
:10357C0033FB031C191C786EFDF754FC031C7B6693
:10358C006E4B1B68B969181CFDF726FB031C191C34
:10359C00386EFDF747FC031C3B66684B1B6879696A
:1035AC00181CFDF719FB031C191CF86DFDF73AFCF0
:1035BC00031CFB65614B1B683969181CFDF70CFB80
:1035CC00031C191CB86DFDF72DFC031CBB655C4B73
:1035DC001B68796E181CFDF7FFFA031C1A1C594B5B
:1035EC001B68191C101CFCF791FF031C1A1C554B73
:1035FC001A60534B1B68396E181CFDF7EDFA031C4F
:10360C001A1C514B1B68191C101CFCF77FFF031C68
:10361C001A1C4D4B1A604A4B1B68F96D181CFDF7B0
:10362C00DBFA031C1A1C434B1B68191C101CFCF7FF
:10363C006DFF031C1A1C3F4B1A60414B1B68B96D84
:10364C00181CFDF7C9FA031C1A1C3B4B1B68191CF0
:10365C00101CFCF75BFF031C1A1C374B1A60394B10
:10366C001A68384B1B68191C101CFDF7B5FA031CA3
:10367C001C1C354B1A68344B1B68191C101CFDF7AD
:10368C00ABFA031C191C201CFCF740FF031C1C1C70
:10369C00284B1A68274B1B68191C101CFDF79CFA49
:1036AC00031C191C201CFCF731FF031C1C1C224B97
:1036BC001A68214B1B68191C101CFDF78DFA031C92
:1036CC00191C201CFCF722FF031C181C00F040F8EE
:1036DC00031C7B651B4B1B68796D181CFDF77CFA72
:1036EC00031C1A1C174B1A60174B1B68796D181C9E
:1036FC00FDF772FA031C1A1C134B1A600D4B1B6856
:10370C00796D181CFDF768FA031C1A1C094B1A601A
:10371C00094B1B68796D181CFDF75EFA031C1A1C0B
:10372C00054B1A60094B00221A70C046BD461BB0EF
:10373C0090BDC0460402002008020020F8010020C1
:10374C000C020020FC010020000200201C020020C2
:10375C0080B586B000AF7860FC2189057868FDF7EC
:10376C003BFA031C7B617B683B611023FB181B68D5
:10377C00FB60FB685B10214AD31AFB600C23FB181F
:10378C001B683B613B697969181CFDF725FA031C22
:10379C001A1C3B69191C101CFDF71EFA031C191C82
:1037AC00FF208005FDF73EFB031C1A1C3B69191C0E
:1037BC00101CFDF711FA031C3B613B697969181C5D
:1037CC00FDF70AFA031C1A1C3B69191C101CFDF7A7
:1037DC0003FA031C191CFF208005FDF723FB031CB7
:1037EC001A1C3B69191C101CFDF7F6F9031C3B61F4
:1037FC003B69181CBD4606B080BDC046DF59375F1B
:10380C00B0B500AF524B1A68524B1B68191C101CF8
:10381C00FDF7E2F9031C1C1C4F4B1A684F4B1B683D
:10382C00191C101CFDF7D8F9031C191C201CFCF7E3
:10383C006DFE031C1C1C474B1A68464B1B68191C5D
:10384C00101CFDF7C9F9031C191CFC208005FDF7A1
:10385C00E9FA031C1D1C404B1A683F4B1B68191CD2
:10386C00101CFDF7B9F9031C191C281CFDF7DAFA1A
:10387C00031C191C201C05F05FF8021C384B1A6045
:10388C00344B1A68354B1B68191C101CFDF7A4F936
:10389C00031C1C1C2E4B1A682F4B1B68191C101C6C
:1038AC00FDF79AF9031C191C201CFDF7BBFA031C2D
:1038BC00C0210906181CFDF78FF9031C181C05F014
:1038CC001BF8021C274B1A60224B1A68224B1B68F0
:1038DC00191C101CFDF780F9031C1C1C1C4B1A68CE
:1038EC001E4B1B68191C101CFDF776F9031C191CC8
:1038FC00201CFCF70BFE031C1C1C174B1A68164BE8
:10390C001B68191C101CFDF767F9031C191CFC2003
:10391C008005FDF787FA031C1D1C104B1A680F4B12
:10392C001B68191C101CFDF757F9031C191C281CCB
:10393C00FDF778FA031C191C201C04F0FDFF021C77
:10394C00094B1A60094B01221A70C046BD46B0BD26
:10395C00FC010020000200200402002008020020CC
:10396C001002002014020020180200201C0200206B
:10397C0080B500AF074B1B78002B01D1FFF740FF40
:10398C00054B1B680549181CFDF726F9031C181C70
:10399C00BD4680BD1C02002010020020E12E6542B5
:1039AC0080B500AF074B1B78002B01D1FFF728FF28
:1039BC00054B1B680549181CFDF70EF9031C181C58
:1039CC00BD4680BD1C02002014020020E12E654281
:1039DC0080B500AF0A4B1B78002B01D1FFF710FF0D
:1039EC00084B1B680849181CFDF7F6F8031C07491F
:1039FC00181CFCF78BFD031C181CBD4680BDC04673
:103A0C001C02002018020020E12E65420000344305
:103A1C0080B582B000AF364B1A68354B35490A4039
:103A2C001A60334B1A68324B802189050A431A609D
:103A3C002F4B5A692E4B30490A405A612C4BDA688D
:103A4C002B4B2C490A40DA60294B5B6A7B607B6804
:103A5C002A4A13407B60264B7A685A62244B1A68B8
:103A6C00234B920092081A60214B1A68204B80213C
:103A7C0009060A431A601E4B5A691D4B20490A401D
:103A8C005A611B4BDA681A4B92009208DA60184B99
:103A9C005B6A7B607B681B011B097B60144B7A683B
:103AAC005A62134B1A68124B16490A401A60104B93
:103ABC001A680F4B802109050A431A600C4B5A698E
:103ACC000B4B11490A405A61094BDA68084B0D49F6
:103ADC000A40DA60064B5B6A7B607B680B4A1340DA
:103AEC007B60034B7A685A62C046BD4602B080BD0B
:103AFC0000040050FFFFFFCFFFBFFFFFFFFFFFF0F1
:103B0C00FF7FFFFFFFFFFFF3FFDFFFFFFFFF0FFF55
:103B1C0080B582B000AF78603D4BDA6B3C4B8021B6
:103B2C00C9010A43DA637B681B6804221A437B6869
:103B3C001A607B681B68374A1A407B681A607B687E
:103B4C005A68F0231B011A407B685A607B685A68DC
:103B5C00E023DB001A407B685A607B681B680122FB
:103B6C0093431A007B681A607B681B68022293439C
:103B7C001A007B681A607B681B68802292001A43CB
:103B8C007B681A607B681B68802252001A437B6832
:103B9C001A607B681B68382293431A007B681A6092
:103BAC007B681B6830221A437B681A607B681B6831
:103BBC00802293431A007B681A607B685B68102232
:103BCC0093431A007B685A607B681B68124A1A4040
:103BDC007B681A607B685B6808221A437B685A60B2
:103BEC007B685B68802252011A437B685A607B6851
:103BFC00DB690A4A1A407B68DA617B681B684022E1
:103C0C001A437B681A60C046BD4602B080BDC046F0
:103C1C0000100240FFFBFFFFFFDFFFFFFFF7FFFF7E
:103C2C0080B584B000AF78600A00FB1C1A700F23BB
:103C3C00FB1800221A70FB1C1A780F4B1A60C04636
:103C4C007B689B6802221340FAD07B680C33FA1C09
:103C5C0012781A70C0467B689B6801221340FAD018
:103C6C007B68DA680F217B181A707B181B78180098
:103C7C00BD4604B080BDC0462002002090B589B07E
:103C8C0000AF0C243B19180014231A00002101F07A
:103C9C0091FE224B5A6B214B20210A435A631F4B36
:103CAC005B6B20221340BB60BB681C4B5A6B1B4BDD
:103CBC0002210A435A63194B5B6B022213407B604F
:103CCC007B68164B5A6B154B01210A435A63134BF5
:103CDC005B6B012213403B603B6880235900A0239F
:103CEC00DB050022180001F039F93B198022520043
:103CFC001A603B1901225A603B1900229A603B1949
:103D0C000022DA603A19A023DB051100180000F03C
:103D1C00C1FFC046BD4609B090BDC0460010024070
:103D2C0080B500AF0F2000F04DF90300DAB2124B52
:103D3C001A700F2000F046F903006B2B18D14C21A0
:103D4C00112000F0A3F9112000F03CF90300DAB2C5
:103D5C000A4B1A704A21102000F098F90021162005
:103D6C0000F094F90921172000F090F9012300E0EC
:103D7C0000231800BD4680BD880200208902002067
:103D8C0090B58DB000AFF860B9607A6028243B190B
:103D9C00180006231A00002101F00CFE1023FB185A
:103DAC00180018231A00002101F004FE3B1906220A
:103DBC001900282000F028F9031E07D10023FB600E
:103DCC000023BB6000237B60002352E028243B19B6
:103DDC0000229B5E1800FEF779FF0022274BFEF7AE
:103DEC0023F902000B00100019000022244BFDF7F0
:103DFC0019FD02000B0010001900FFF705F8021C5A
:103E0C00FB681A603B1902229B5E1800FEF75EFFEE
:103E1C0000221A4BFEF708F902000B0010001900E3
:103E2C000022174BFDF7FEFC02000B0010001900DE
:103E3C00FEF7EAFF021CBB681A603B1904229B5E6A
:103E4C001800FEF743FF00220C4BFEF7EDF80200C2
:103E5C000B00100019000022094BFDF7E3FC0200D7
:103E6C000B0010001900FEF7CFFF021C7B681A60D4
:103E7C0001231800BD460DB090BDC0460000104097
:103E8C000000E04080B500AF1E2000F09BF802005F
:103E9C00064B1A60054B1B680122134001D001230D
:103EAC0000E000231800BD4680BDC0468C020020F7
:103EBC0090B587B000AFF860B9607A6010243B19F8
:103ECC00180006231A00002101F074FD3B1906228C
:103EDC001900222000F098F8031E07D10023FB6084
:103EEC000023BB6000237B60002352E010243B19AD
:103EFC0000229B5E1800FEF7E9FE0022274BFEF71E
:103F0C0093F802000B00100019000022244BFDF75F
:103F1C0089FC02000B0010001900FEF775FF021C53
:103F2C00FB681A603B1902229B5E1800FEF7CEFE5E
:103F3C0000221A4BFEF778F802000B001000190053
:103F4C000022174BFDF76EFC02000B00100019004D
:103F5C00FEF75AFF021CBB681A603B1904229B5ED9
:103F6C001800FEF7B3FE00220C4BFEF75DF80200C2
:103F7C000B00100019000022094BFDF753FC020046
:103F8C000B0010001900FEF73FFF021C7B681A6043
:103F9C0001231800BD4607B090BDC04600409F40AD
:103FAC000000E04080B500AF1E2000F00BF80300CD
:103FBC000222134001D0012300E000231800BD466B
:103FCC0080BD000080B584B000AF0200FB1D1A70EC
:103FDC000F23F918FB1D1B780122180000F014F8B0
:103FEC000300012B06D0074B012252421A60054BED
:103FFC001B6802E00F23FB181B781800BD4604B0A9
:10400C0080BDC0469002002090B587B000AFB9606B
:10401C007A600F243B19021C1A703B193A1912785A
:10402C00802149420A431A7080235900A023DB05E2
:10403C000022180000F092FF3B191B78124A19005D
:10404C001000FFF7EDFD00237B610CE07B69BA6883
:10405C00D4180D4B00211800FFF7E2FD030023706C
:10406C007B6901337B617B697A689A42EED8802345
:10407C005900A023DB050122180000F06FFF01237B
:10408C001800BD4607B090BD0038004080B582B026
:10409C0000AF0200FB1D1A70BB1D0A1C1A70802396
:1040AC005900A023DB050022180000F057FFFB1D70
:1040BC001B780C4A19001000FFF7B2FDBB1D1B78D2
:1040CC00084A19001000FFF7ABFD80235900A0230C
:1040DC00DB050122180000F041FFC0461800BD4668
:1040EC0002B080BD00380040F0B59FB00AAF2C2361
:1040FC0008241B19DB19524A1A6024221319DB19E4
:10410C00504A1168196092889A801C263319DB1961
:10411C004D4A1168196012791A710C23FB1818009A
:10412C0018231A00002101F045FCFFF7ABFE031E1B
:10413C0000D180E0FFF736FF031E00D17BE03C216D
:10414C000B19DA1940210B19D91944200319DB1961
:10415C001800FFF715FE031E6DD030210B19DA196C
:10416C0034210B19D91938200319DB191800FFF762
:10417C009FFE031E5FD0386CF96BBC6BFD6CBB6C87
:10418C007A6C019200932B1C221CFEF71BFFFFF78D
:10419C00EFFB021C2D4B1A60FFF702FC021C2C4B90
:1041AC001A60FFF715FC021C2A4B1A602A4B1B687D
:1041BC005A1C294B1A60284B1B68092B3BD1234BEB
:1041CC001B68181CFEF7D8FD04000D00204B1B6863
:1041DC00181CFEF7D1FD386079601E4B1B68181C4B
:1041EC00FEF7CAFD02000B0008217018C6191B4906
:1041FC001B48089209932C2308229B18DB19069361
:10420C003A687B680492059324220823D318DB199F
:10421C00029300940195320002F042F8104B180002
:10422C00FBF76AFF02000E4B1100180000F02DF98D
:10423C00094B00221A60C046BD4615B0F0BDC04601
:10424C0079617700F88F00080090000810020020B8
:10425C00140200201802002094020020D08F0008C5
:10426C0024020020F0B5A5B000AF00F0B5FB00F0C3
:10427C00A3F8FFF703FDFFF7CBFB484B1800FFF744
:10428C0047FCE1235B02180000F0F3F878243B199B
:10429C00434A23CA23C303CA03C3118819809278E3
:1042AC009A7058257B193F4A43CA43C343CA43C338
:1042BC00116819609188998092799A714026BB197E
:1042CC00394A13CA13C303CA03C312881A802023A2
:1042DC00FB18364A13CA13C313CA13C311681960E7
:1042EC0092889A803B00324A13CA13C313CA13C371
:1042FC001168196012791A71FA239B00180000F0EA
:10430C00F1FB78243B191800FBF7F6FE02003B1971
:10431C001100180000F0B9F8264B181CFEF71AFE15
:10432C007B191800FBF7E8FE02007B19110018003E
:10433C0000F0ABF8FA239B00180000F0D3FBBB197C
:10434C001800FBF7D9FE0200BB191100180000F091
:10435C009CF8FFF7E5FC031E0AD13B001800FBF7A5
:10436C00CBFE02003B001100180000F08EF8FEE7B7
:10437C0020243B191800FBF7BFFE02003B1911006B
:10438C00180000F082F8FA239B00180000F0AAFB3A
:10439C00FFF7AAFE642000F0A5FBF9E70038004007
:1043AC0008900008209000084090000858900008E1
:1043BC00789000080000204190B593B000AF102415
:1043CC003B19180038231A00002101F0F3FA3B00C6
:1043DC00180010231A00002101F0ECFA80239B0036
:1043EC00180000F0D9FD3B1901221A603B198022FC
:1043FC0052025A6021007B180222DA617B180322D8
:10440C001A627B1800225A627B1810229A627B185F
:10441C0080229202DA627B18802292041A637B1843
:10442C00802292055A637B18180000F0F5FD031EDC
:10443C0001D000F019F83B0007221A603B00022261
:10444C005A603B0000229A603B000022DA603B007D
:10445C000221180001F0FAF8031E01D000F004F854
:10446C00C046BD4613B090BD80B500AF72B6C04615
:10447C00FEE780B582B000AF78607B68180000F072
:10448C0013F8C046BD4602B080BD80B582B000AF07
:10449C00786039603A687B681100180000F05AF9AE
:1044AC00C046BD4602B080BD90B589B000AF786003
:1044BC0079689348FBF73CFE0300FB61914BBB61B1
:1044CC00914B7B61914B3B617B691B6801221A43C9
:1044DC007B691A603B691B688022D2011A433B69D5
:1044EC001A600F203B1802221A700E243B1904226A
:1044FC001A70A023DB0519683B181A781300DB002F
:10450C009B1803229A401300DB431A00A023DB05FF
:10451C000A401A60A023DB0519683B181A781300AF
:10452C00DB009B1802229A4013001A00A023DB0523
:10453C000A431A60A023DB05D9683B181A781300CC
:10454C00DB009B1803229A401300DB431A00A023C4
:10455C00DB050A40DA60A023DB0599683B181A7862
:10456C001300DB009B1803229A401300DB431A0054
:10457C00A023DB050A409A60A023DB055A6A3B198D
:10458C001B780F2199400B00DB431900A023DB059E
:10459C000A405A62A023DB055A6A3B191B78012199
:1045AC0099400B001900A023DB050A435A62A02393
:1045BC00DB0519683B181A7813009B009B185B00ED
:1045CC001A0003239340DB431A00A023DB050A40A7
:1045DC001A60A023DB0519683B181A7813009B009E
:1045EC009B185B001A00022393401A00A023DB05E2
:1045FC000A431A60A023DB05D9683B181A7813000C
:10460C009B009B185B001A0003239340DB431A00AA
:10461C00A023DB050A40DA60A023DB0599683B1870
:10462C001A7813009B009B185B001A00032393401D
:10463C00DB431A00A023DB050A409A60A023DB05AC
:10464C005A6A3B191B785B000F2199400B00DB4326
:10465C001900A023DB050A405A62A023DB055A6A25
:10466C003B191B785B00012199400B001900A0231A
:10467C00DB050A435A62264B1A68254B01218A43F3
:10468C001A60234B1A68224BD20AD2021A60204BB2
:10469C001A681F4B120C12041A601D4B1A681C4B23
:1046AC00520F52071A601A4B1A68194B08210A4309
:1046BC001A60174B1A68164B04210A431A60144BE4
:1046CC001A68134B20210A431A60114BDA6A104BFB
:1046DC000F218A43DA620E4BFA690132DA60BB6948
:1046EC001B68802212051A43BB691A60084B1A68B2
:1046FC00074B01210A431A60C046BD4609B090BD64
:10470C000090D00300E100E0341002404010024061
:10471C000038014080B584B000AF0200FB1D1A7058
:10472C00094BFB60094BBB60C046094BDB69DB09DD
:10473C0001221340012BF8D1054BFA1D12789A6215
:10474C00C046BD4604B080BD1C380140283801402D
:10475C000038014080B582B000AF786039600AE063
:10476C007B681B781800FFF7D5FF7B6801337B60F3
:10477C003B68013B3B603B68002BF1D1C046C04617
:10478C00BD4602B080BD000080B582B000AF0F4BBB
:10479C001A6C0E4B01210A431A640C4B1B6C012240
:1047AC0013407B607B68094BDA6B084B8021490511
:1047BC000A43DA63054BDA6B80235B0513403B60DD
:1047CC003B68C046BD4602B080BDC04600100240EA
:1047DC0080B500AFFEE780B500AFFEE780B500AF57
:1047EC00C046BD4680BD80B500AFC046BD4680BD4D
:1047FC0080B500AF00F05AF9C046BD4680BD80B50B
:10480C0000AF01231800BD4680BD80B582B000AF5B
:10481C007860396001F0A4F8030016221A600123B5
:10482C005B421800BD4602B080BD80B582B000AFBF
:10483C00786001235A427B6811001800FFF7E5FFEE
:10484C00FEE780B586B000AFF860B9607A600023EF
:10485C007B610AE000E000BF0100BB685A1CBA6033
:10486C00CAB21A707B6901337B617A697B689A42A0
:10487C00F0DB7B681800BD4606B080BD80B586B005
:10488C0000AFF860B9607A6000237B6109E0BB6817
:10489C005A1CBA601B78180000E000BF7B6901331A
:1048AC007B617A697B689A42F1DB7B681800BD46B4
:1048BC0006B080BD80B582B000AF786001235B424A
:1048CC001800BD4602B080BD80B582B000AF7860E4
:1048DC0039603B68802292015A6000231800BD4663
:1048EC0002B080BD80B582B000AF786001231800A3
:1048FC00BD4602B080BD80B584B000AFF860B96031
:10490C007A6000231800BD4604B080BD80B586B027
:10491C0000AF7860144A154BD31A7B617B693B61FD
:10492C00134B1B68002B02D1114B124A1A60104B0F
:10493C001A687B68D3183A699A4207D201F010F8CA
:10494C0003000C221A6001235B4209E0084B1B6830
:10495C00FB60074B1A687B68D218054B1A60FB6822
:10496C001800BD4606B080BD0020002000040000E9
:10497C0098020020B002002080B500AFC046BD46B2
:10498C0080BD00000D488546FFF7F6FF0C480D4929
:10499C000D4A002302E0D458C4500433C4188C428E
:1049AC00F9D30A4A0A4C002301E013600432A242F4
:1049BC00FBD300F0DBFFFFF755FCFEE700200020E7
:1049CC0000000020DC01002034960008DC010020EF
:1049DC00B0020020FEE7000080B582B000AFFB1DE6
:1049EC0000221A700B4B1A680A4B802149000A43AB
:1049FC001A60032000F010F8031E03D0FB1D0122E7
:104A0C001A7001E0FFF7C0FEFB1D1B781800BD46B5
:104A1C0002B080BD0020024090B585B000AF786038
:104A2C000F23FB1800221A701D4B1B78002B2BD068
:104A3C001C4B1C681A4B1B781900FA239800FBF7C7
:104A4C0077FB030019002000FBF772FB0300180032
:104A5C0000F013F9031E12D17B68032B0AD8796876
:104A6C0001235B420022180000F0F2F80E4B7A682A
:104A7C001A600DE00F23FB1801221A7008E00F23B7
:104A8C00FB1801221A7003E00F23FB1801221A7085
:104A9C000F23FB181B781800BD4605B090BDC0460F
:104AAC0008000020000000200400002080B500AFAA
:104ABC00054B1B781A00054B1B68D218034B1A6068
:104ACC00C046BD4680BDC046080000209C020020A8
:104ADC0080B500AF024B1B681800BD4680BDC046B8
:104AEC009C02002080B584B000AF7860FFF7F0FF27
:104AFC000300BB607B68FB60FB68013305D00A4B8D
:104B0C001B781A00FB689B18FB60C046FFF7E0FFA0
:104B1C000200BB68D31AFA689A42F7D8C046C0465E
:104B2C00BD4604B080BDC0460800002090B583B0DF
:104B3C0000AF02003960FB1D1A70FB1D1B787F2B28
:104B4C0028D82F4AFB1D1B785BB29B08C0339B00F7
:104B5C009B58FA1D1278110003220A40D200FF2143
:104B6C0091400A00D2431A4011003B689B01FF227E
:104B7C001A40FB1D1B78180003230340DB009A40EE
:104B8C001F48FB1D1B785BB29B080A43C0339B007C
:104B9C001A5031E01B4AFB1D1B7819000F230B40E8
:104BAC00083B9B0806339B00D31804331B68FA1D83
:104BBC001278110003220A40D200FF2191400A0012
:104BCC00D2431A4011003B689B01FF221A40FB1D87
:104BDC001B78180003230340DB009A400948FB1D97
:104BEC001B781C000F232340083B9B080A43063309
:104BFC009B00C31804331A60C046BD4603B090BD79
:104C0C0000E100E000ED00E080B582B000AF78601C
:104C1C007B685A1E80235B049A4201D3012310E067
:104C2C000A4B7A68013A5A6001235B42032118004F
:104C3C00FFF77CFF054B00229A60044B07221A6099
:104C4C0000231800BD4602B080BDC04610E000E055
:104C5C0080B584B000AFB9607A600F217B18021C5C
:104C6C001A70BA687B181B785BB211001800FFF73A
:104C7C005DFFC046BD4604B080BD80B582B000AFBC
:104C8C0078607B681800FFF7BFFF03001800BD4673
:104C9C0002B080BD80B586B000AF7860396000236B
:104CAC007B6147E13B681B6801217A6991400A00EE
:104CBC001340FB60FB68002B00D138E13B685B685C
:104CCC0003221340012B05D03B685B680322134081
:104CDC00022B30D17B689B683B617B695B000322B4
:104CEC009A401300DA433B6913403B613B68DA6836
:104CFC007B695B009A4013003A6913433B617B6804
:104D0C003A699A607B685B683B6101227B699A40D7
:104D1C001300DA433B6913403B613B685B681B093A
:104D2C0001221A407B699A4013003A6913433B6194
:104D3C007B683A695A603B685B6803221340032B1B
:104D4C0017D07B68DB683B617B695B0003229A4070
:104D5C001300DA433B6913403B613B689A687B69FB
:104D6C005B009A4013003A6913433B617B683A69D4
:104D7C00DA603B685B6803221340022B23D17B690A
:104D8C00DA087B6808329200D3583B617B690722B2
:104D9C0013409B000F229A401300DA433B691340E7
:104DAC003B613B681A697B6907210B409B009A4069
:104DBC0013003A6913433B617B69DA087B6808325C
:104DCC0092003969D1507B681B683B617B695B0041
:104DDC0003229A401300DA433B6913403B613B6862
:104DEC005B6803221A407B695B009A4013003A69A6
:104DFC0013433B617B683A691A603B685A68C0236D
:104E0C009B02134000D192E0504A7B699B081833F7
:104E1C009B009B583B617B6903221340DB000F22F4
:104E2C009A401300DA433B6913403B617A68A02334
:104E3C00DB059A4213D07B68454A93420DD07B68C0
:104E4C00444A934207D07B68434A934201D10323DF
:104E5C0006E0052304E0022302E0012300E0002326
:104E6C007A6903210A40D20093403A6913433B61AB
:104E7C0036497B699B0818339B003A695A50334B6F
:104E8C001B683B61FB68DA433B6913403B613B6841
:104E9C005A6880235B03134003D03A69FB681343C1
:104EAC003B612A4B3A691A60284B5B683B61FB6893
:104EBC00DA433B6913403B613B685A6880239B0390
:104ECC00134003D03A69FB6813433B611F4B3A69AB
:104EDC005A601E4A8423D3583B61FB68DA433B6912
:104EEC0013403B613B685A6880239B02134003D0FC
:104EFC003A69FB6813433B61144984223B698B502C
:104F0C00124A8023D3583B61FB68DA433B69134058
:104F1C003B613B685A6880235B02134003D03A69BB
:104F2C00FB6813433B61094980223B698B507B69C9
:104F3C0001337B613B681A687B69DA40131E00D031
:104F4C00B0E6C046C046BD4606B080BD0018024063
:104F5C000004005000080050000C005080B582B0D6
:104F6C0000AF786008001100BB1C021C1A807B1C6F
:104F7C000A1C1A707B1C1B78002B04D0BB1C1A88D3
:104F8C007B689A6103E0BB1C1A887B689A62C046F6
:104F9C00BD4602B080BD000080B584B000AF786023
:104FAC00194B1B68194A13401900174B7A680A43AE
:104FBC001A607A6880239B009A421FD1144B1A689E
:104FCC0013005B009B185B0012491800FBF7B0F84C
:104FDC0003000133FB6008E0FB68002B03D0FB6887
:104FEC00013BFB6001E0032309E0074B5A69802376
:104FFC00DB001A408023DB009A42EDD0002318001E
:10500C00BD4604B080BDC04600700040FFF9FFFFF4
:10501C000000002040420F0080B588B000AF7860DF
:10502C007B68002B01D10123FEE27B681B68012207
:10503C00134000D17CE0C34B9B6838221340BB610A
:10504C00C04BDB68032213407B61BB69102B02D180
:10505C007B69032B02D0BB69082B0BD1B94B1A68A7
:10506C0080239B02134062D07B685B68002B5ED16F
:10507C000123D9E27B685A6880235B029A4207D1EC
:10508C00B04B1A68AF4B802149020A431A6020E0EA
:10509C007B685A68A023DB029A420ED1A94B1A688E
:1050AC00A84B8021C9020A431A60A64B1A68A54B6B
:1050BC00802149020A431A600BE0A24B1A68A14BEB
:1050CC00A1490A401A609F4B1A689E4B9F490A409F
:1050DC001A607B685B68002B14D0FFF7F9FC0300A7
:1050EC003B6108E0FFF7F4FC02003B69D31A642B28
:1050FC0001D9032398E2934B1A6880239B02134037
:10510C00F0D015E0FFF7E4FC03003B6108E0FFF78B
:10511C00DFFC02003B69D31A642B01D9032383E221
:10512C00884B1A6880239B021340F0D100E0C046E4
:10513C007B681B680222134000D199E0814B9B686D
:10514C0038221340BB617F4BDB68032213407B6129
:10515C00BB69102B02D17B69022B02D0BB69002BDF
:10516C0035D1784B1A688023DB00134005D07B685F
:10517C00DB68002B01D1012356E2724B5B68744A49
:10518C00134019007B685B691A026E4B0A435A6024
:10519C00BB69002B12D16B4B1B686E4A1340190074
:1051AC007B681A69674B0A431A60664B1B68DB0AFB
:1051BC0007221340684ADA40684B1A60684B1B6838
:1051CC001800FFF729FC031E51D001232CE27B6849
:1051DC00DB68002B30D05B4B1B685E4A1340190018
:1051EC007B681A69574B0A431A60564B1A68554B21
:1051FC00802149000A431A60FFF76AFC03003B61F7
:10520C0008E0FFF765FC02003B69D31A022B01D9B9
:10521C00032309E24B4B1A688023DB001340F0D0C8
:10522C00484B5B684A4A134019007B685B691A0259
:10523C00444B0A435A601BE0424B1A68414B4949A4
:10524C000A401A60FFF744FC03003B6108E0FFF7DB
:10525C003FFC02003B69D31A022B01D90323E3E183
:10526C00384B1A688023DB001340F0D100E0C046B5
:10527C007B681B680822134047D0324B9B6838224E
:10528C001340182B0AD12F4B1B6E022213403CD01B
:10529C007B689B69002B38D10123C5E17B689B6936
:1052AC00002B19D0274B1A6E264B01210A431A6684
:1052BC00FFF70EFC03003B6108E0FFF709FC02005E
:1052CC003B69D31A022B01D90323ADE11D4B1B6E95
:1052DC0002221340F1D018E01A4B1A6E194B01211F
:1052EC008A431A66FFF7F4FB03003B6108E0FFF703
:1052FC00EFFB02003B69D31A022B01D9032393E184
:10530C00104B1B6E02221340F1D17B681B680422E8
:10531C00134000D1C6E01F23FB1800221A70094B62
:10532C009B6838221340202B1ED1064BDB6D0222CA
:10533C00134000D1B6E07B689B68002B00D0B1E035
:10534C00012371E100100240FFFFFEFFFFFFFBFF96
:10535C00FF80FFFFFFC7FFFF0024F40000000020C8
:10536C0004000020FFFEFFFFB14BDA6B80235B05CE
:10537C00134001D1012300E00023002B11D0AC4BD2
:10538C00DA6BAB4B802149050A43DA63A84BDA6B25
:10539C0080235B051340FB60FB681F23FB18012275
:1053AC001A70A44B1A6880235B0013401AD1A14BCE
:1053BC001A68A04B802149000A431A60FFF788FB4A
:1053CC0003003B6108E0FFF783FB02003B69D31A43
:1053DC00022B01D9032327E1964B1A6880235B002B
:1053EC001340F0D07B689B68012B06D1904BDA6D93
:1053FC008F4B01210A43DA651CE07B689B68052B07
:10540C000CD18B4BDA6D8A4B04210A43DA65884B3D
:10541C00DA6D874B01210A43DA650BE0844BDA6DB8
:10542C00834B01218A43DA65814BDA6D804B042171
:10543C008A43DA657B689B68002B14D0FFF748FB26
:10544C0003003B6109E0FFF743FB02003B69D31A01
:10545C00794A934201D90323E6E0754BDB6D0222B6
:10546C001340F0D013E0FFF733FB03003B6109E07E
:10547C00FFF72EFB02003B69D31A6F4A934201D906
:10548C000323D1E06A4BDB6D02221340F0D11F23C2
:10549C00FB181B78012B05D1654BDA6B644B674904
:1054AC000A40DA637B68DB69002B00D1BBE0604B00
:1054BC009B6838221340102B00D17BE07B68DB69A2
:1054CC00022B56D15A4B1A68594B5D490A401A6047
:1054DC00FFF7FEFA03003B6108E0FFF7F9FA020060
:1054EC003B69D31A022B01D903239DE0504B1A6858
:1054FC0080239B041340F0D14D4BDB68514A134081
:10550C0019007B681A6A7B685B6A1A437B689B6A22
:10551C001B021A437B68DB6A1A437B681B6B1A43BA
:10552C007B685B6B1A43424B0A43DA60404B1A6848
:10553C003F4B802149040A431A603D4BDA683C4BCF
:10554C00802149050A43DA60FFF7C2FA03003B6188
:10555C0008E0FFF7BDFA02003B69D31A022B01D910
:10556C00032361E0324B1A6880239B041340F0D074
:10557C0059E02F4B1A682E4B31490A401A60FFF73D
:10558C00A7FA03003B6108E0FFF7A2FA02003B69AF
:10559C00D31A022B01D9032346E0254B1A6880232A
:1055AC009B041340F0D1224BDA68214B26490A4068
:1055BC00DA6038E07B68DB69012B01D1012333E031
:1055CC001B4BDB687B617B6903221A407B681B6A7F
:1055DC009A4226D17B6970221A407B685B6A9A4298
:1055EC001FD17A69FE23DB011A407B689B6A1B0280
:1055FC009A4216D17A69F8239B031A407B68DB6ABE
:10560C009A420ED17A69E0231B051A407B681B6B0A
:10561C009A4206D17B695B0F5A077B685B6B9A4297
:10562C0001D0012300E000231800BD4608B080BD66
:10563C00001002400070004088130000FFFFFFEFD5
:10564C00FFFFFFFE8C80C111FCFFFEEE80B584B025
:10565C0000AF786039607B68002B01D10123E9E051
:10566C00764B1B68072213403A689A421ED9734B3B
:10567C001B68072293431900704B3A680A431A605F
:10568C00FFF726FA0300FB6009E0FFF721FA02009E
:10569C00FB68D31A6A4A934201D90323CAE0674BC9
:1056AC001B68072213403A689A42EED17B681B684C
:1056BC000222134015D07B681B680422134006D0CD
:1056CC00604B9A685F4BE021C9010A439A605D4BBD
:1056DC009B685D4A134019007B689A68594B0A43D2
:1056EC009A607B681B680122134057D07B685B680B
:1056FC00012B07D1534B1A6880239B0213402BD1EB
:10570C00012397E07B685B68022B07D14D4B1A682D
:10571C0080239B0413401FD101238BE07B685B68C3
:10572C00002B07D1474B1A688023DB00134013D1A1
:10573C0001237FE07B685B68032B06D1414B1B6E1A
:10574C000222134008D1012374E03E4BDB6D022290
:10575C00134001D101236DE03A4B9B680722934320
:10576C0019007B685A68374B0A439A60FFF7B0F907
:10577C000300FB6009E0FFF7ABF90200FB68D31AEA
:10578C002F4A934201D9032354E02E4B9B683822B5
:10579C001A407B685B68DB009A42ECD1274B1B6894
:1057AC00072213403A689A421ED2244B1B680722E8
:1057BC0093431900214B3A680A431A60FFF788F9A2
:1057CC000300FB6009E0FFF783F90200FB68D31AC2
:1057DC001B4A934201D903232CE0184B1B68072268
:1057EC0013403A689A42EED17B681B68042213403E
:1057FC0009D0144B9B68154A134019007B68DA6872
:10580C00104B0A439A6000F029F801000D4B9B687D
:10581C001B0A0F221A400E4B9200D3581F22134022
:10582C000A00DA400B4B1A600B4B1B681800FFF791
:10583C00F3F803001800BD4604B080BD0020024000
:10584C008813000000100240FFF0FFFFFF8FFFFFE6
:10585C00D8910008000000200400002080B586B01C
:10586C0000AF3C4B9B68382213400FD1394B1B685F
:10587C00DB0A0722134001229A4013003B6039686F
:10588C003548FAF755FC03003B615DE0314B9B68F2
:10589C0038221340082B02D1304B3B6154E02D4B86
:1058AC009B6838221340102B38D12A4BDB6803221B
:1058BC001340FB60274BDB681B09072213400133A5
:1058CC00BB60FB68032B0DD1B9682448FAF730FC98
:1058DC00030019001F4BDB681B0A7F2213404B434C
:1058EC007B610DE0B9681C48FAF722FC0300190033
:1058FC00184BDB681B0A7F2213404B437B61C0466D
:10590C00144BDB685B0F0722134001337B60796813
:10591C007869FAF70DFC03003B6115E00D4B9B68B1
:10592C0038221340202B03D180231B023B610BE058
:10593C00084B9B6838221340182B03D1FA23DB0148
:10594C003B6101E000233B613B691800BD4606B09A
:10595C0080BDC046001002400024F40000127A0002
:10596C00014B18687047C0460C00002070B500262B
:10597C000C4D0D4C641BA410A64209D1002603F05B
:10598C0013FB0A4D0A4C641BA410A64205D170BD32
:10599C00B300EB5898470136EEE7B300EB58984745
:1059AC000136F2E72C9600082C9600082C9600087D
:1059BC003096000803008218934200D1704719708A
:1059CC000133F9E7F0B51E00002314008BB09E42A2
:1059DC0004DA8021090673181E002D23129A149FD5
:1059EC001370202303229F43462F07D03B00453BD7
:1059FC0059424B411099013ACB18109309AB0493BF
:105A0C0008AB0393139B00920293109B220001930B
:105A1C00330000F0F1FC0500472F02D1119BDB078E
:105A2C0028D5109BEB180793462F14D12B78302BCD
:105A3C000CD10022002320003100FAF7FFFC0028D3
:105A4C0004D10123109A9B1A139A1360139B079A83
:105A5C001B68D31807930022002320003100FAF7AB
:105A6C00EDFC002801D0079B09933022099B079974
:105A7C008B4206D32800099B159A5B1B13600BB055
:105A8C00F0BD591C09911A70F0E7F0B5831C87B072
:105A9C00039305000C002B230270002901DA4C4201
:105AAC0002336B70092C31DD0A2704ABDE1D20009C
:105ABC0039000196FAF7ACFC013E30312000317010
:105ACC0039000294FAF7BEFB029B0400632BEEDC58
