:020000040800F2
:1000000000200020D9190008291A0008291A000820
:1000100000000000000000000000000000000000E0
:10002000000000000000000000000000291A000885
:100030000000000000000000291A000869090008FB
:10004000291A0008291A0008291A0008291A000884
:10005000291A0008291A0008291A0008291A000874
:1000600000000000291A0008291A0008291A0008AF
:10007000291A0008291A0008291A0008291A000854
:10008000291A00080000000000000000291A0008DA
:1000900000000000291A0008291A0008291A00087F
:1000A000291A0008291A0008291A0008291A000824
:0C00B000291A0008291A0008291A000863
:1000BC0010B5064C2378002B07D1054B002B02D032
:1000CC00044800E000BF0123237010BD6C00002029
:1000DC0000000000542A0008044B10B5002B03D07C
:1000EC000349044800E000BF10BDC04600000000FA
:1000FC0070000020542A000803B4714649084000DF
:10010C004900095E49008E4403BC70470022430835
:10011C008B4274D303098B425FD3030A8B4244D3C3
:10012C00030B8B4228D3030C8B420DD3FF22090205
:10013C0012BA030C8B4202D31212090265D0030BC4
:10014C008B4219D300E0090AC30B8B4201D3CB03BA
:10015C00C01A5241830B8B4201D38B03C01A5241FC
:10016C00430B8B4201D34B03C01A5241030B8B42FE
:10017C0001D30B03C01A5241C30A8B4201D3CB02E9
:10018C00C01A5241830A8B4201D38B02C01A5241CE
:10019C00430A8B4201D34B02C01A5241030A8B42D1
:1001AC0001D30B02C01A5241CDD2C3098B4201D3E9
:1001BC00CB01C01A524183098B4201D38B01C01A67
:1001CC00524143098B4201D34B01C01A52410309DE
:1001DC008B4201D30B01C01A5241C3088B4201D38D
:1001EC00CB00C01A524183088B4201D38B00C01A3A
:1001FC00524143088B4201D34B00C01A5241411A61
:10020C0000D20146524110467047FFE701B500206D
:10021C0000F006F802BDC0460029F7D076E770471B
:10022C007047C04680B584B000AF78600023FB6097
:10023C007B68BB60BB685B055B0D04D0BB68DB0AED
:10024C000133FB6002E0BB68DB0AFB60FB68180053
:10025C00BD4604B080BD80B582B000AF786001238C
:10026C001800BD4602B080BD80B586B000AF786086
:10027C0000237B610D4B3B617B68FB6000237B6142
:10028C000CE07B699B003A69D2187B699B00F9688A
:10029C00CB1812681A607B6901337B617B690F2B69
:1002AC00EFD9C046C046BD4606B080BD00FC000874
:1002BC0080B586B000AF78600F23FB1804221A704B
:1002CC00164B1A69154B31218A431A61144B1800CD
:1002DC0000F038F97B687B6100233B6116E03B69D9
:1002EC00104A94466344DB0019007B691A685B680A
:1002FC00080000F073F903001A000F23FB181A70A2
:10030C003B6901333B617B6908337B613B69072B9C
:10031C00E5D9C046C046BD4606B080BD00200240AF
:10032C0000FC0008801F000180B582B000AF0023E4
:10033C007B602D4B180001F0E3F82C4B180001F0FA
:10034C009DF903007B607B68002B2CDD284B18008B
:10035C00FFF78AFF7A68264BDA6000F067F87B6853
:10036C00002B00DA03339B100133224A19001000D2
:10037C0000F066F802001E4B9A601D4BDA681C4BAD
:10038C005A601B4B1B4A5A61194B1B4A9A61184BFA
:10039C0001221A62164B1800FFF78AFF174B180040
:1003AC0001F0AEF81BE07B68013304D1144B18004C
:1003BC0001F0A6F813E07B68023304D1114B18004E
:1003CC0001F09EF80BE07B68033304D10E4B180050
:1003DC0001F096F803E00D4B180001F091F8C046BF
:1003EC00BD4602B080BDC0466C2A0008C800002083
:1003FC00880000200028000800F00008AC2A000843
:10040C00F82A0008382B0008542B00086C2B000825
:10041C0080B500AF044B9A6B034B802149010A4312
:10042C009A63C046BD4680BD0010024080B500AF47
:10043C00024B01229A60C046BD4680BD003002408E
:10044C0080B584B000AF786039600023FB60002376
:10045C00FB6009E0FB689B007A68D318074A1B68AD
:10046C001360FB680133FB60FA683B689A42F1D376
:10047C00024B1B681800BD4604B080BD0030024022
:10048C0080B500AF064B5B69002B05DA044B054ABF
:10049C009A60034B044A9A60C046BD4680BDC04674
:1004AC000020024023016745AB89EFCD80B582B0B7
:1004BC0000AFFB1D04221A70134B1A6980235B02D8
:1004CC001A4080235B029A4203D1FB1D01221A7051
:1004DC0014E00D4B1B690822134003D0FB1D0222B4
:1004EC001A700BE0084B1B691022134003D0FB1D44
:1004FC0003221A7002E0FB1D04221A70FB1D1B78EC
:10050C001800BD4602B080BD00200240B0B584B0DA
:10051C0000AF78600F257B1904221A707C19FFF745
:10052C00C5FF03002370C0467B68002B02D17B19EA
:10053C0005221A700F23FB181B781800BD4604B057
:10054C00B0BD000080B584B000AF78600F23FB18FD
:10055C0004221A707B68F822120694466344DB0A64
:10056C00BB60C0461A4B1A6980235B021340F9D159
:10057C00174B5A69164B02210A435A61144B59699D
:10058C00BB68DB00134A1A40114B0A435A61104BEB
:10059C005A690F4B802149020A435A61C0460C4BE1
:1005AC001A6980235B021340F9D1094B5A69084B35
:1005BC0009490A405A61064B5A69054B02218A4384
:1005CC005A610F23FB181B781800BD4604B080BD80
:1005DC0000200240F81F0000FFFFFEFFF0B587B0BF
:1005EC0000AFF8603A607B6017217B1804221A7008
:1005FC007E1880239B011800FFF788FF03003370DF
:10060C00144B5A69134B01210A435A61FB683A682F
:10061C001A60BFF36F8FC0467B681C0000231D005F
:10062C00FB68043322001A6017257C1980239B0178
:10063C001800FFF76BFF03002370064B5A69054B3C
:10064C0001218A435A617B191B781800BD4607B0FB
:10065C00F0BDC0460020024080B582B000AF78608B
:10066C0000F06CF87B68044A1900100000F0FCF8EC
:10067C00C046BD4602B080BD0038014080B582B096
:10068C0000AF0200FB1D1A70C046074BDB698022CD
:10069C001340802BF9D1044BFA1D12789A62C04694
:1006AC00BD4602B080BDC0460038014080B582B066
:1006BC0000AF0200FB1D1A70FB1D1B781800FFF722
:1006CC00DDFFC046BD4602B080BD000080B582B0E3
:1006DC0000AF7860084BDB6920221340202B06D139
:1006EC00054B5B6ADAB27B681A70012300E00023C9
:1006FC001800BD4602B080BD0038014080B584B002
:10070C0000AF786039600C4B1B68FB607B6818008D
:10071C00FFF7DCFF0300012B01D1002308E0064B9F
:10072C001A68FB68D31A3A689A42EFD801235B42E5
:10073C001800BD4604B080BDCC04002080B582B04A
:10074C0000AF00237B60424B5A6B414B01210A43A3
:10075C005A633F4B1A6C3E4B8021C9010A431A6401
:10076C00A023DB051A68A023DB053A490A401A606E
:10077C00A023DB051A68A023DB05802189030A432B
:10078C001A60A023DB055A69A023DB0532490A4015
:10079C005A61A023DB05DA68A023DB052D490A404A
:1007AC00DA60A023DB059A68A023DB052A490A40FE
:1007BC009A60A023DB051A68A023DB0527490A40B1
:1007CC001A60A023DB051A68A023DB05802109032E
:1007DC000A431A60A023DB055A69A023DB052049D4
:1007EC000A405A61A023DB05DA68A023DB051B490C
:1007FC000A40DA60A023DB059A68A023DB051849C0
:10080C000A409A60A023DB055B6A7B607B68154A13
:10081C0013407B607B688022520013437B60A023D3
:10082C00DB057A685A62A023DB055B6A7B607B6818
:10083C00F02293437B607B68102213437B60A023E0
:10084C00DB057A685A62C046BD4602B080BDC04620
:10085C0000100240FFFFCFFFFFFBFFFFFFFFF3FF86
:10086C00FFFDFFFFFFF0FFFF80B584B000AF7860A5
:10087C00396039681948FFF749FC0300FB607B6855
:10088C0000221A607B681B68154A1A407B681A6044
:10089C007B681B68134A1A407B681A607B681B686C
:1008AC000C221A437B681A607B681B680E4A1A403C
:1008BC007B681A607B68DB6A0F221A407B68DA62FD
:1008CC007B68FA68DA607B681B6801221A437B68D4
:1008DC001A60C046BD4604B080BDC0460090D0032F
:1008EC00FFFFFFEFFFFBFFFFFF7FFFFF80B500AFB8
:1008FC0000F01AF800F056F8084B1A68084B1B6801
:10090C00D21AFA239B009A42F6D3044B1A68044B72
:10091C001A60044B180000F0F3FDEDE7C80400204A
:10092C00D40400208C2B000880B582B000AF0023CB
:10093C007B6000F055FBE1235B021800FFF78CFE97
:10094C00FFF766FD034B044A1A607B681800BD462E
:10095C0002B080BDE4040020B906000880B500AFE9
:10096C000D4B1B685A1C0C4B1A600C4B1B685A1C09
:10097C000A4B1A60094B1A68FA239B009A4207D952
:10098C00064B00221A60064B1B685A1C044B1A605B
:10099C00C046BD4680BDC046C8040020D00400201F
:1009AC00CC04002080B584B000AF0D23FB180022CE
:1009BC001A70FB1D00221A700F23FB1800221A70EC
:1009CC000C23FB1800221A700E23FB1800221A703D
:1009DC000E23FB181B78002B01D15C4B1B68FB1DF5
:1009EC0005211800FFF78AFE02000D217B181A70F2
:1009FC007B181B78002B4BD10E23FB1800221A708E
:100A0C000F23FB1800221A707B18FA1D12781A702B
:100A1C000A00BB181B78312B34D0BB181B78322B37
:100A2C0030D0BB181B78332B07D0BB181B78622B2C
:100A3C0003D0BB181B78422B04D10F23FB180122C7
:100A4C001A701FE00D23FB181B78342B03D13F4B7E
:100A5C001B68012B16D00D22BB181B78012B03D061
:100A6C00BB181B78022B02D1FFF75EFC0AE00D22AB
:100A7C00BB181B78642B03D0BB181B78442B01D1FB
:100A8C00FFF752FC0F23FB181B78002B0CD15CE0FA
:100A9C002F4B180000F034FD0E23FB1801221A70A6
:100AAC000F23FB1801221A700F23FB181B78002B45
:100ABC008ED0284B180000F0EFFF274B1800FFF7E3
:100ACC00CAFB02000C217B181A707B181B78002BB8
:100ADC0037D0224B180000F013FD214B1B68214A24
:100AEC001A4080239B059A4200D071E71E4B1800D8
:100AFC0000F006FD1D4B1B68BB60C0461B4B1A6803
:100B0C00BB68D31A092BF9D900F0FCFA184B002258
:100B1C001A60174B00225A60154B00229A6072B66D
:100B2C00C046144B01221A60134B1B681A00134B5E
:100B3C001A60124B1B689847114B180000F0E0FC30
:100B4C0046E7104B180000F0DBFC41E7DC0400200A
:100B5C00942B0008AC2B000888000020C02B000848
:100B6C00002800080000FE2FD02B0008C80400202D
:100B7C0010E000E00000014004280008D804002028
:100B8C00E02B00080C2C000880B586B000AF786014
:100B9C00396000237B6100233B610023FB607B6891
:100BAC001B78302B00D082E07B6801331B78782BCC
:100BBC0005D07B6801331B78582B00D077E07B681D
:100BCC0002331B78002B01D10023D8E002237B6178
:100BDC0063E07A687B69D3181B78002B05D1FA681F
:100BEC003B681A6001233B615AE07A687B69D31831
:100BFC001B78402B05D97A687B69D3181B78462B58
:100C0C0017D97A687B69D3181B78602B05D97A6859
:100C1C007B69D3181B78662B0BD97A687B69D31840
:100C2C001B782F2B36D97A687B69D3181B78392B14
:100C3C0030D8FB681A0179687B69CB181B782F2B8D
:100C4C000BD979687B69CB181B78392B05D8796857
:100C5C007B69CB181B78303B16E079687B69CB1825
:100C6C001B78402B0BD979687B69CB181B78462BEA
:100C7C0005D879687B69CB181B78373B04E0796819
:100C8C007B69CB181B78573B9B18FB607B69013346
:100C9C007B6102E000233B6102E07B690A2B98D95F
:100CAC007B690A2B00D869E000233B6166E00023D6
:100CBC007B615BE07A687B69D3181B78002B05D1CC
:100CCC00FA683B681A6001233B6152E07A687B69E1
:100CDC00D3181B786B2B05D07A687B69D3181B78DB
:100CEC004B2B0BD17B69002B08D0FB689B02FB6064
:100CFC00FA683B681A6001233B613AE07A687B69C9
:100D0C00D3181B786D2B05D07A687B69D3181B78A8
:100D1C004D2B0BD17B69002B08D0FB681B05FB60AE
:100D2C00FA683B681A6001233B6122E07A687B69B0
:100D3C00D3181B782F2B16D97A687B69D3181B789C
:100D4C00392B10D8FA6813009B009B185B00190014
:100D5C007A687B69D3181B78CB18303BFB607B69B6
:100D6C0001337B6102E000233B6102E07B690A2BCB
:100D7C00A0D97B690A2B01D900233B613B69180080
:100D8C00BD4606B080BD80B586B000AFF860B960D6
:100D9C007A6000237B610AE000E000BF0100BB68C1
:100DAC005A1CBA60CAB21A707B6901337B617A69CA
:100DBC007B689A42F0DB7B681800BD4606B080BDAC
:100DCC0080B586B000AFF860B9607A6000237B61B3
:100DDC0009E0BB685A1CBA601B78180000E000BF21
:100DEC007B6901337B617A697B689A42F1DB7B68B2
:100DFC001800BD4606B080BD80B582B000AF7860EB
:100E0C0001235B421800BD4602B080BD80B582B0A4
:100E1C0000AF786039603B68802292015A600023F1
:100E2C001800BD4602B080BD80B582B000AF7860BE
:100E3C0001231800BD4602B080BD80B584B000AF60
:100E4C00F860B9607A6000231800BD4604B080BD1C
:100E5C0080B586B000AF7860144A154BD31A7B610D
:100E6C007B693B61134B1B68002B02D1114B124A5F
:100E7C001A60104B1A687B68D3183A699A4207D2E9
:100E8C0000F0CEFD03000C221A6001235B4209E046
:100E9C00084B1B68FB60074B1A687B68D218054B24
:100EAC001A60FB681800BD4606B080BD002000200B
:100EBC0000040000E0040020100A002090B583B06C
:100ECC0000AF02003960FB1D1A70FB1D1B787F2BD5
:100EDC0028D82F4AFB1D1B785BB29B08C0339B00A4
:100EEC009B58FA1D1278110003220A40D200FF21F0
:100EFC0091400A00D2431A4011003B689B01FF222B
:100F0C001A40FB1D1B78180003230340DB009A409A
:100F1C001F48FB1D1B785BB29B080A43C0339B0028
:100F2C001A5031E01B4AFB1D1B7819000F230B4094
:100F3C00083B9B0806339B00D31804331B68FA1D2F
:100F4C001278110003220A40D200FF2191400A00BE
:100F5C00D2431A4011003B689B01FF221A40FB1D33
:100F6C001B78180003230340DB009A400948FB1D43
:100F7C001B781C000F232340083B9B080A430633B5
:100F8C009B00C31804331A60C046BD4603B090BD25
:100F9C0000E100E000ED00E080B582B000AF7860C9
:100FAC007B685A1E80235B049A4201D3012310E014
:100FBC000A4B7A68013A5A6001235B4203211800FC
:100FCC00FFF77CFF054B00229A60044B07221A6046
:100FDC0000231800BD4602B080BDC04610E000E002
:100FEC0080B500AF00F028F800F018F8C046BD46F8
:100FFC0080BD000080B582B000AF78607B68042BA8
:10100C0005D1054B1A68044B04210A431A60C046EB
:10101C00BD4602B080BDC04610E000E080B500AF18
:10102C000420FFF7E7FFFA231B021800FFF7B4FFB9
:10103C00C046BD4680BD000080B500AF2B4B1A6882
:10104C002A4B802149020A431A60C046274B1A6872
:10105C0080239B021340F9D0254B1A68244B822124
:10106C0049000A431A60214B9A68204B21490A40D7
:10107C009A601E4B9A681D4B1F490A409A601B4B85
:10108C00DA681A4B03210A43DA60184BDA68174BFB
:10109C001A490A40DA60154BDA68144B18490A43AE
:1010AC00DA60124B1A68114B802149040A431A600A
:1010BC00C0460E4B1A6880239B041340F9D00B4B8F
:1010CC009A680A4B07218A439A60084B9A68074B27
:1010DC0002210A439A60C046044B9B683822134095
:1010EC00102BF9D1C046C046BD4680BD0010024051
:1010FC0000200240FFF0FFFFFF8FFFFF8F80FF1FDC
:10110C000310003180B500AF1D4B1A681C4B8021B9
:10111C0049000A431A60C046194B1A688023DB0049
:10112C001340F9D0164B8022D2015A60144B002286
:10113C009A6003E0124B802252001A60104B9B689D
:10114C0038221340F6D10E4B802252001A6003E075
:10115C000B4B80225201DA60094B1A6880239B04E6
:10116C001340F5D1064B00229A61054B01225242E5
:10117C001A62044B044A1A60C046BD4680BDC04684
:10118C0000100240000000200024F40080B582B062
:10119C0000AF0200FB1D1A700C4B1B68002B08D013
:1011AC000A4B1B68591C094A1160FA1D12781A70F7
:1011BC0009E0074B1B68002B05D0054B1B68FA1D7B
:1011CC00127810009847BD4602B080BDE80400209C
:1011DC00E404002080B582B000AF786006E07B6844
:1011EC005A1C7A601B781800FFF7D0FF7B681B78BD
:1011FC00002BF4D1C046C046BD4602B080BD0000F5
:10120C0090B58FB000AF786039607B685A1C7A60FB
:10121C001F217A181B7813700A00BB181B78002B3F
:10122C0000D164E1BB181B78252B05D0BB181B78AB
:10123C001800FFF7ABFF59E100237B627B685A1C57
:10124C007A601F217A181B7813707B181B78302B4F
:10125C0008D101237B627B685A1C7A607A181B7850
:10126C0013700CE01F217B181B782D2B07D1022348
:10127C007B627B685A1C7A607A181B781370002387
:10128C00BB6211E0BA6A13009B009B185B001A004A
:10129C001F217B181B78D318303BBB627B685A1C10
:1012AC007A607A181B7813701F22BB181B782F2BAF
:1012BC0003D9BB181B78392BE4D91F22BB181B7818
:1012CC006C2B03D0BB181B784C2B0AD17B6A0422E5
:1012DC0013437B627B685A1C7A601F22BA181B78F6
:1012EC0013701F22BB181B78002B00D101E11E21AB
:1012FC007B18BA1812781A707B181B78602B04D9DB
:10130C007B187A181278203A1A701E23FB181B7857
:10131C00423B162B47D89A00784BD3181B689F4634
:10132C003B681A1D3A601B68BB610023FB6202E03C
:10133C00FB6A0133FB62BA69FB6AD3181B78002B7A
:10134C00F6D102E02020FFF721FF7B6A0222134036
:10135C0005D1FB6A5A1CFA62BA6A9A42F2D8BB6986
:10136C001800FFF737FF02E02020FFF70FFFFB6AA2
:10137C005A1CFA62BA6A9A42F6D8B7E03B681A1D50
:10138C003A601B68DBB21800FFF700FFAEE00223E7
:10139C007B630FE008237B630CE00A237B6309E08B
:1013AC0010237B6306E01F23FB181B781800FFF744
:1013BC00EDFE9BE07B6A0422134004D03B681A1DAF
:1013CC003A601B680DE01E23FB181B78442B04D1DC
:1013DC003B681A1D3A601B6803E03B681A1D3A60B3
:1013EC001B683B621E23FB181B78442B09D13B6AFC
:1013FC00002B06DA3B6A5B423B627B6A0822134392
:10140C007B6200233B633B6A796B1800FEF704FF99
:10141C000B001A001E243B191A70796B386AFEF700
:10142C0075FE03003B623B191B78092B0DD91F235A
:10143C00FB181B78782B01D1272300E007231E21F2
:10144C007A18791809785B1813703B6B5A1C3A633D
:10145C001E22BA1812783032D1B20822BA18D154DE
:10146C003B6A002B02D03B6B0F2BCCD97B6A08223A
:10147C00134006D03B6B5A1C3A630822BA182D2134
:10148C00D1543B6BFB627B6A0122134001D03022AA
:10149C0000E020221E23FB181A7005E01E23FB1807
:1014AC001B781800FFF772FE7B6A0222134005D1ED
:1014BC00FB6A5A1CFA62BA6A9A42EFD83B6B013B40
:1014CC003B630823FA183B6BD3181B781800FFF703
:1014DC005DFE3B6B002BF1D102E02020FFF756FEA6
:1014EC00FB6A5A1CFA62BA6A9A42F6D88DE6C04672
:1014FC0000E0C046C046BD460FB090BD2C2C000885
:10150C000FB480B582B000AF1423FB187B607A68EF
:10151C003B6911001800FFF773FEC046BD4602B0D0
:10152C0080BC08BC04B0184780B582B000AF7860AE
:10153C00396008E07B681800FFF7C8F80300012B3E
:10154C0001D1002306E03B685A1E3A60002BF1D112
:10155C0001235B421800BD4602B080BD90B587B038
:10156C0000AFF860B9607A60BB6800221A607A68D4
:10157C001323FB1811001800FFF7D6FF031E02D02F
:10158C0001235B4276E01323FB181B78612B31D0CF
:10159C0032DC412B2ED02FDC182B15D02CDC042B5D
:1015AC0010D029DC012B02D0022B05D024E014230F
:1015BC00FB1880221A8022E01423FB188022D20010
:1015CC001A801CE0002355E07A6813243B191100A3
:1015DC001800FFF7A9FF031E09D13B191B78182B24
:1015EC0005D1BB68012252421A60002342E001235C
:1015FC005B423FE001233DE001235B423AE01323D1
:10160C00FB181A78FB681A701623FB1801221A8033
:10161C0014E01623FB181B88FA68D3187A6811009B
:10162C001800FFF781FF031E02D001235B4221E06B
:10163C0016217B181A887B1801321A801423FB1888
:10164C001B881A1D1623FB181B889A42E1DAFB68CB
:10165C0001331A78FB6802331B78DB43DBB29A4206
:10166C0002D001235B4205E01423FB181A88BB68E7
:10167C001A6000231800BD4607B090BD90B5C24C4F
:10168C00A54400AF78600023BB60C04B8522D2001C
:10169C00B9180B60BB181B68BD4ABA181360FEF76B
:1016AC00EFFE0023BB4ABA18136000238622D20037
:1016BC00BA1813600023B84ABA1813600023B74A4B
:1016CC00BA18136000238722D200BA181360802343
:1016DC005A030C23F918B24B1800FFF73FFF031EF7
:1016EC0003D0012B00D112E11AE100238622D20093
:1016FC00BA181360FB685A1C02D0002B05D00DE001
:10170C000620FEF7D3FF002338E10620FEF7CEFFBC
:10171C0001238722D200BA181360F7E0A04B5B7844
:10172C0019009E4BFB181B68FF221340994203D0F3
:10173C001520FEF7BBFF11E1984BFB181B68002B23
:10174C0000D0C4E0964BDB78002B00D1B2E0002334
:10175C008822D200BA181360924B934ABA181360BD
:10176C000FE091497B181A68531C79180B6088207C
:10177C00C0003B181B68591C3818016011788B4A43
:10178C00D154894BFB181B681B78002B05D0882380
:10179C00DB00FB181B68FF2BE3DD8820C0003B1827
:1017AC001B685A1C39180A60804A0021D154002346
:1017BC003A1813607C4ABB181B680133BA181360C3
:1017CC0011E079497B181A68531C79180B60882032
:1017DC00C0003B181B68591C381801601178822214
:1017EC00D200BA18D154704BFB181B681B78202BF5
:1017FC0005D08823DB00FB181B680F2BE1DD88214B
:10180C00C9007B181B685A1C79180A608220C0001A
:10181C003A180021D1540823FA183B18110018006B
:10182C00FFF7B2F9624B1B689A02FE235B0213406E
:10183C00013BBA68934208D21820FEF737FF1820F4
:10184C00FEF734FF01235B4298E0BB681800FEF7FB
:10185C00E9FC03001A00574B1A60FEF711FE564BB9
:10186C0000221A6015E0554B1B881A00524B1B685E
:10187C005A43474BFB181B68D3181800FEF762FE3F
:10188C0003001A004E4B1A704B4B1B685A1C4A4BE8
:10189C001A60494B1A68474B1B689A4203D2484B53
:1018AC001B78042BDFD00620FEF700FF4320FEF749
:1018BC00FDFE20E00620FEF7F9FE01238722D20070
:1018CC00BA1813600123334ABA1813601EE0FB6880
:1018DC001A00344910243B19180000F0CBF8314B96
:1018EC001A00384B1A603B198422D200BA181360C4
:1018FC000620FEF7DBFE294ABB181B680133BA1819
:10190C0013600123244ABA18136027E026E018203C
:10191C00FEF7CCFE1820FEF7C9FE03235B422DE038
:10192C001D4BFB181B68002B06DD8622D200BB1852
:10193C001B680133BA1813608623DB00FB181B6885
:10194C00052B07DD1820FEF7B1FE1820FEF7AEFEC2
:10195C00002313E04320FEF7A9FEC0468723DB00DB
:10196C00FB181B68002B00D1B1E6C046094BFB18D5
:10197C001B68002B00D1A1E6C046BB681800BD4611
:10198C00114B9D4490BDC046B4FBFFFF00280008DE
:10199C00240400003C0400002C040000340400006B
:1019AC00F8050020FB05002044040000EC04002096
:1019BC00E075FF1FF0050020EC050020040000205E
:1019CC0006000020F40500204C0400000D4885465C
:1019DC0000E000BF0C480D490D4A002302E0D4582A
:1019EC00C4500433C4188C42F9D30A4A0A4C00235D
:1019FC0001E013600432A242FBD300F017F8FEF7AB
:101A0C0075FFFEE700200020000000206C00002085
:101A1C00282D00086C0000200C0A0020FEE70000B6
:101A2C00014B18687047C0460800002070B50026AE
:101A3C000C4D0D4C641BA410A64209D1002601F0DC
:101A4C0003F80A4D0A4C641BA410A64205D170BDC4
:101A5C00B300EB5898470136EEE7B300EB589847C4
:101A6C000136F2E7202D0008202D0008202D00085B
:101A7C00242D0008002310B59A4200D110BDCC5C77
:101A8C00C4540133F8E703008218934200D1704725
:101A9C0019700133F9E700000FB40B4B13B51C6838
:101AAC00002C05D0A369002B02D1200000F070F8A7
:101ABC0005AB2000049AA168019300F0CDF916BC87
:101ACC0008BC04B01847C04608000020002310B51D
:101ADC000400036043608360818143661900C28106
:101AEC0003614361836108225C30FFF7CCFF054B37
:101AFC0024626362044BA362044BE362044B2363D2
:101B0C0010BDC046012400082924000861240008E7
:101B1C008D24000810B5024900F0BAF810BDC0467B
:101B2C009927000870B568254A1E55430E002900F8
:101B3C00743100F0F3F8041E08D000212A00016073
:101B4C0046600C30A0606832FFF79DFF200070BD2E
:101B5C0010B5024800F0BDF810BDC046FE090020CB
:101B6C0010B5024800F0B6F810BDC046FE090020C2
:101B7C0010B5024800F0ADF810BDC046FF090020BA
:101B8C0010B5024800F0A6F810BDC046FF090020B1
:101B9C0013B50400FFF7ECFFA369002B02D0FFF78D
:101BAC00EFFF13BDA364E3642365134B134A1B6857
:101BBC00A2620193A34201D10123A361200000F092
:101BCC001FF86060200000F01BF8A060200000F0FF
:101BDC0017F800220421E0606068FFF777FF01220C
:101BEC000921A068FFF772FF02221221E068FFF7BB
:101BFC006DFF0123A361D2E7882C0008211B00088C
:101C0C00F8B50700FFF7A4FF1F4B1E68B369002B44
:101C1C0002D13000FFF7BCFF4836B4687368013B53
:101C2C0004D53368002B22D03668F6E70C22A55E6B
:101C3C00002D1AD12000154B5830E360656600F07A
:101C4C0047F8FFF78DFF2000082229002560A560CA
:101C5C00656025616561A5615C30FFF714FF656304
:101C6C00A563A564E5642000F8BD6834D7E70421BA
:101C7C003800FFF757FF041E3060D5D1FFF770FF17
:101C8C000C233B60EFE7C046882C00080100FFFFE7
:101C9C00F7B5040006000027019148346368A56875
:101CAC000093009B013B009304D52468002CF5D1D4
:101CBC003800FEBDAB89012B08D90E22AB5E013377
:101CCC0004D029003000019B984707436835E8E7AA
:101CDC00704770477047000070B50F4E0D003168AB
:101CEC000400002902D100F073FB306029002000B1
:101CFC0000F06EFB431C0AD00323C51C9D43A84275
:101D0C0007D0291A200000F063FB431C01D10125E8
:101D1C006D42280070BDC046040A0020F7B50322AE
:101D2C00CB1C9343083306001F000C2B32D20C271C
:101D3C00B94231D8300000F0F5FD324D2B681C0053
:101D4C00002C2ED139003000FFF7C6FF0400431CD5
:101D5C001ED12C682500002D4AD123682900E318D8
:101D6C003000019300F034FB019B834243D1236884
:101D7C000337FF1A03239F4308370C2F00D20C277D
:101D8C0039003000FFF7A8FF431C34D02368DF195B
:101D9C00276013E0002BCBDA0C23002533602800DE
:101DAC00FEBD2268D11B20D40B2917D9E21927605C
:101DBC00A34211D12A606368116053603000250082
:101DCC0000F0B8FD07220B35231D9543EA1A9D42FE
:101DDC00E5D05B1BA350E2E75A60ECE76268A342D4
:101DEC0001D12A60EAE75A60E8E723006468A7E7B4
:101DFC002C006D68AFE70C233000336000F09AFDC7
:101E0C00CDE7C046000A0020936810B5013B9360F3
:101E1C00002B04DA9469A34207DB0A2905D0136866
:101E2C00581C10601970080010BD00F02FFB010049
:101E3C00F9E7F8B506000F001400D518AC4201D133
:101E4C00002007E021783A003000FFF7DDFF013475
:101E5C00431CF3D1F8BD0000F0B5A1B006000C0096
:101E6C001F000392002804D08369002B01D1FFF7D7
:101E7C008FFE8E4B9C421CD17468636EDB0705D4BD
:101E8C00A3899B0502D4A06DFFF723FFA3891B0731
:101E9C0002D52369002B1DD12100300000F060FB1E
:101EAC00002817D0636EDB070DD50120404221B00E
:101EBC00F0BD7F4B9C4201D1B468DEE77D4B9C4268
:101ECC00DBD1F468D9E7A3899B05EED4A06DFFF7AD
:101EDC0001FFEAE7002308AD6B6120336B7610330A
:101EEC00AB760797039F3B78002B01D0252B4ED167
:101EFC00039BFB1A0593039B9F420DD0059B21006E
:101F0C003000039AFFF795FF431C00D1B5E06A69D6
:101F1C00059B944663446B613B78002B00D1ACE08D
:101F2C0001227B1C0393002352426A6004A95432A1
:101F3C0052182B60EB60AB601370AB65039B0522F2
:101F4C0019785D4800F0E2FC039B5F1C002820D14F
:101F5C002A68D30604D5532304A95B1820211970D1
:101F6C00130704D5532304A95B182B211970039B69
:101F7C001B782A2B16D00021EB68039F3A78781C2B
:101F8C00303A8446092A4FD9002911D117E001377C
:101F9C00A9E7494B2A68C01A0123834013432B60DD
:101FAC000397CBE7079B191D1B680791002B01DBDF
:101FBC000B9304E05B42EB60022313432B603B78F2
:101FCC002E2B0AD17B782A2B37D1079B02371A1D6F
:101FDC001B680792002B2DDB0993032239783748B5
:101FEC0000F094FC002807D0344B2A68C01A402318
:101FFC008340134301372B6039787B1C0622304811
:10200C000393297600F082FC002845D02D4B002B41
:10201C0027D10722079B07339343083307936B6938
:10202C00049A9B186B615DE70A214B4367469B182A
:10203C000939A3E701235B42CEE700231A000137DD
:10204C006B603978781C30398446092903D9002B08
:10205C00C3D00992C1E70A235A4367465218093B79
:10206C00EFE707AB0093220029003000164B00E08D
:10207C0000BF0490049B0133D1D1636EDB0705D400
:10208C00A3899B0502D4A06DFFF724FEA3895B06F0
:10209C0000D50AE70D980AE707AB00932200290048
:1020AC003000094B00F082F8E3E7C046AC2C000886
:1020BC00CC2C00088C2C0008EC2C0008F22C00080E
:1020CC00F62C0008000000003F1E0008F7B51500B4
:1020DC0001938A680B690C000090934200DA13009C
:1020EC0022002B6043321278002A01D001332B607E
:1020FC0023689B0602D52B6802332B6022680623CB
:10210C0017001F401A4227D0230043331B785A1E56
:10211C0093412268920630D4220001990098089EBF
:10212C004332B047431C25D0062320682A68E16857
:10213C0000250340042B03D18D1AEB43DB171D4004
:10214C00A3682269934201DD9B1AED180027BD425A
:10215C0020D1002010E00137E3682A689B1ABB42AB
:10216C00D2DD2200012301990098089E1932B04754
:10217C00431CF0D101204042FEBD3020E118433118
:10218C00087021005A1C45310978A21843320233D9
:10219C001170C1E72200012301990098089E1A32A0
:1021AC00B047431CE6D00137D1E70000F0B58BB047
:1021BC0006920A0043320793059004920A7E0C00A3
:1021CC00109B782A07D8622A09D8002A00D1C1E0CE
:1021DC00582A00D18CE026004236327022E01000E2
:1021EC0063381528F7D8FDF787FF16001F00F6FF98
:1021FC00F6FFF6FFF6FF1F00F6FFF6FFF6FFF6FF01
:10220C00A80036009A00F6FFF6FFB900F6FF36007C
:10221C00F6FFF6FF9E0026001A684236111D196063
:10222C00136833700123A7E0086819680A1D0506B6
:10223C000BD50D681A60002D03DA2D23049A6D421C
:10224C001370614B0A2703931BE00D681A6041065B
:10225C00F1D52DB2EFE70D681968081D18602E0630
:10226C0001D50D6803E06D06FBD50D68ADB2564B7C
:10227C00082703936F2A00D0023723000022433330
:10228C001A706368A360002B03DB0422216891435E
:10229C002160002D02D1049E002B0CD0049E28003E
:1022AC003900FDF7B9FF039B013E5B5C33702B00DB
:1022BC0005009F42F3D9082F09D12368DB0706D507
:1022CC0063682269934202DC3023013E3370049B25
:1022DC009B1B2361079B210000930598069B09AA71
:1022EC00FFF7F4FE431C4CD1012040420BB0F0BD73
:1022FC0045310A70344A03921A68216820CA1A6060
:10230C00080616D5CB0702D52023194321601027C8
:10231C00002DB2D1202322689A432260ADE72022FF
:10232C0009680A4322602200782145321170274A3D
:10233C00E1E74806E6D5ADB2E4E71A680D68101D72
:10234C004969186013682E0601D5196002E06D0604
:10235C00FBD519800023049E2361BBE71A68111D6D
:10236C001960166800213000626800F0CFFA00286E
:10237C0001D0801B6060636823610023049A137092
:10238C00A8E72369320006990598079DA847431CC6
:10239C00AAD023689B0715D4099BE0689842A5DA5C
:1023AC001800A3E72200012306990598079E19320D
:1023BC00B047431C98D00135E368099A9B1AAB428D
:1023CC00F0DCE9E70025F7E7FD2C00080E2D0008EE
:1023DC00002370B5064D040008002B60FEF738FD95
:1023EC00431C03D12B68002B00D0236070BDC0466A
:1023FC00080A002070B50C000E25495F00F0ECFABD
:10240C00002803DB636D1B18636570BDA389024A4A
:10241C001340A381F9E7C046FFEFFFFFF8B51F009B
:10242C008B8905000C001600DB0505D50E23C95E53
:10243C000022022300F0EAF9A389054A2800134080
:10244C00A38132000E23E15E3B0000F075F8F8BD6D
:10245C00FFEFFFFF70B50C000E25495F00F0D6F9B9
:10246C00A389421C03D1054A1340A38170BD80226D
:10247C0052011343A3816065F8E7C046FFEFFFFFED
:10248C0010B50E23C95E00F0E3F810BDF8B50500D9
:10249C000E001400002804D08369002B01D1FFF733
:1024AC0077FB224B9C422ED16C68A369A360A38955
:1024BC001B0732D52369002B2FD023682269F7B272
:1024CC00981A6369F6B2834205DC2100280000F0FB
:1024DC005DF9002827D1A3680130013BA360236874
:1024EC005A1C22601F706369834204D0A389DB07E6
:1024FC0007D50A2E05D12100280000F047F9002845
:10250C0011D13000F8BD0A4B9C4201D1AC68CCE72C
:10251C00084B9C42C9D1EC68C7E72100280000F0A9
:10252C001FF80028C9D001267642EAE7AC2C000837
:10253C00CC2C00088C2C000870B50400080011008D
:10254C001A000023054D2B60FEF73AFC431C03D107
:10255C002B68002B00D0236070BDC046080A0020F9
:10256C00374B70B51D6806000C00002D05D0AB690B
:10257C00002B02D12800FFF70BFB324B9C420FD1F2
:10258C006C680C23E25E93B211072DD4D90611D4DA
:10259C0009230120336037331343A381404270BDBC
:1025AC00294B9C4201D1AC68EBE7284B9C42E8D10B
:1025BC00EC68E6E75B0713D5616B002908D02300B4
:1025CC004433994202D0300000F0BCF9002363631D
:1025DC002422A3899343A38100236360236923608E
:1025EC000823A2891343A3812369002B0BD1A021BB
:1025FC008022A389890092000B40934203D02100D2
:10260C00300000F03FF90C22A35E01201A0099B2B1
:10261C00024003420FD00022A26062695242A261C2
:10262C00002022698242BAD10A06B8D5402213434F
:10263C00A3810138B3E7880700D46269A260EFE791
:10264C0008000020AC2C0008CC2C00088C2C0008B6
:10265C00002370B5064D040008002B60FEF7CCFB80
:10266C00431C03D12B68002B00D0236070BDC046E7
:10267C00080A0020F7B58B8905000C001A075FD4F7
:10268C004A68002A04DC0A6C002A01DC0020FEBD2A
:10269C00E76A002FFAD0002280212E682A601A00E7
:1026AC0049010A400B4234D0606DA3895B0706D503
:1026BC006368C01A636B002B01D0236CC01A020034
:1026CC00216A00232800E76AB847A189431C06D178
:1026DC002B681D2B31D82C4ADA40D3072DD500237B
:1026EC00636023692360CB0405D5431C02D12B689E
:1026FC00002B00D16065616B2E600029C6D02300D1
:10270C004433994202D0280000F01CF90020606389
:10271C00BDE701232800216AB847431CC5D12B68AB
:10272C00002BC2D01D2B01D0162B01D12E60ADE792
:10273C004023A2891343A381A9E740230B43FAE763
:10274C000F69002FA2D00A680F60D21B01920022E1
:10275C009B0700D14A69A260019B002B00DC95E726
:10276C003A002800019B216AA66AB047002806DCC3
:10277C0040230120A28940421343A38187E7019B98
:10278C003F181B1A0193E7E7010040200B6970B555
:10279C0005000C00002B02D10025280070BD00287C
:1027AC0004D08369002B01D1FFF7F2F9144B9C4242
:1027BC001BD16C680C22A35E002BEDD0626ED2078D
:1027CC0004D49B0502D4A06DFFF783FA28002100E6
:1027DC00FFF750FF636E0500DB07DED4A3899B0572
:1027EC00DBD4A06DFFF776FAD7E7064B9C4201D1FC
:1027FC00AC68DFE7044B9C42DCD1EC68DAE7C046FE
:10280C00AC2C0008CC2C00088C2C000870B50400F3
:10281C00080011001A000023054D2B60FEF70DFB7C
:10282C00431C03D12B68002B00D0236070BDC04625
:10283C00080A002070B50E001D000E23C95E14009E
:10284C0096B0002908DA0C22B35E00222A601B061F
:10285C0011D48023DB000FE06A4600F0D1F8002889
:10286C00F1DBF02301991B021940054BC9184B42AF
:10287C0059412960EDE740230020236016B070BD5C
:10288C0000E0FFFFF7B502268B8905000C003342F0
:10289C0006D0230047332360236101236361F7BD16
:1028AC006A4601ABFFF7C6FF009907002800FFF747
:1028BC0035FA002808D10C22A35E9A05EFD4032226
:1028CC0093431E43A681E4E70F4BAB628023A2899E
:1028DC0020601343A381009B20616361019B002B4B
:1028EC000DD028000E23E15E00F09CF8002806D0E5
:1028FC000322A38993431A0001231343A381A089C4
:10290C000743A781CBE7C046211B0008C9B2821838
:10291C00904201D10020704703788B42FBD00130EC
:10292C00F6E7000010B50248FFF7D3F910BDC0461A
:10293C00FD09002010B50248FFF7CCF910BDC046C8
:10294C00FD09002070B50500002910D00C1F23686C
:10295C00002B00DAE4182800FFF7E4FF1D4A136887
:10296C00002B05D1636014602800FFF7E3FF70BDF6
:10297C00A34208D9216860188342F3D118685B68B8
:10298C0041182160EEE71A005B68002B01D0A342CE
:10299C00F9D911685018A0420BD1206809185018A9
:1029AC0011608342E0D118685B6841181160536074
:1029BC00DAE7A04202D90C232B60D5E72168601816
:1029CC00834203D118685B684118216063605460CE
:1029DC00CAE7C046000A002070B5040008001100C8
:1029EC001A000023054D2B60FEF7CDF9431C03D1D3
:1029FC002B68002B00D0236070BDC046080A002055
:102A0C00002370B5064D0400080011002B60FEF782
:102A1C00FDF9431C03D12B68002B00D0236070BD43
:102A2C00080A0020002370B5064D040008002B6036
:102A3C00FEF7FAF9431C03D12B68002B00D023605E
:102A4C0070BDC046080A0020F8B5C046F8BC08BCEA
:102A5C009E467047F8B5C046F8BC08BC9E46704709
:102A6C000D0A57616974696E6720666F722074680D
:102A7C00652066696C6520746F2062652073656ED5
:102A8C0074202E2E2E2028707265737320276127D8
:102A9C0020746F2061626F7274290A0D00000000AF
:102AAC000A0A0D2050726F6772616D6D696E672036
:102ABC00436F6D706C6574656420537563636573E7
:102ACC007366756C6C79210A0D2D2D2D2D2D2D2DE8
:102ADC002D2D2D2D2D2D2D2D2D2D2D2D2D2D2D2D1A
:102AEC002D2D2D2D2D2D2D2D2D0D0A000A0A0D54B9
:102AFC00686520696D6167652073697A6520697303
:102B0C0020686967686572207468616E20746865F6
:102B1C0020616C6C6F776564207370616365206DE8
:102B2C00656D6F7279210A0D000000000A0A0D56BE
:102B3C006572696669636174696F6E206661696C40
:102B4C006564210A0D0000000D0A0A41626F72745F
:102B5C00656420627920757365722E0A0D00000081
:102B6C000A0D4661696C656420746F20726563653B
:102B7C00697665207468652066696C65210A0D00AC
:102B8C0068656C6C6F0D0A0054696D65206F757407
:102B9C002C20626F6F74696E67202E2E2E20000021
:102BAC0056455249465920494D414745202E2E2E17
:102BBC0000000000535543434553532121210D0A76
:102BCC0000000000424F4F54494E472E2E2E0D0A46
:102BDC0000000000494E56414C494420494D4147A4
:102BEC0045205349474E2C2052455455524E2042B5
:102BFC004F4F54204C4F414445520D0A00000000E9
:102C0C004641494C5552452C2052455455524E2064
:102C1C00424F4F54204C4F414445520D0A00000086
:102C2C009A13000888130008A6130008B2130008B2
:102C3C00B2130008B2130008B2130008B213000854
:102C4C00B2130008B2130008B2130008B213000844
:102C5C00B2130008A0130008B2130008B213000846
:102C6C00B21300082C130008B2130008A6130008B6
:102C7C00B2130008B2130008AC1300080C000020BB
:102C8C000000000000000000000000000000000038
:102C9C000000000000000000000000000000000028
:102CAC000000000000000000000000000000000018
:102CBC000000000000000000000000000000000008
:102CCC0000000000000000000000000000000000F8
:102CDC0000000000000000000000000000000000E8
:102CEC00232D302B2000686C4C00656667454647E9
:102CFC00003031323334353637383941424344456C
:102D0C0046003031323334353637383961626364DA
:042D1C0065660000E8
:042D2000E5000008C2
:042D2400BD000008E6
:102D28000090D003000804000C0000200000000000
:102D3800AC2C0008CC2C00088C2C000800000000EB
:102D4800000000000000000000000000000000007B
:102D5800000000000000000000000000000000006B
:102D6800000000000000000000000000000000005B
:102D7800000000000000000000000000000000004B
:0C2D88000000000000000000000000003F
:04000005080019D9FD
:00000001FF
