:020000040800F2
:1028000000200020558C0008D78C0008D98C0008C7
:1028100000000000000000000000000000000000B8
:10282000000000000000000000000000DD8C000837
:102830000000000000000000DF8C0008E18C0008B0
:10284000D58C000800000000D58C0008D58C00084D
:10285000D58C0008D58C0008D58C0008D58C0008D4
:1028600000000000D58C0008D58C0008D58C00082D
:10287000D58C0008D58C0008D58C0008000000001D
:10288000798E00080000000000000000D58C0008D0
:10289000C98D0008D58C0008D58C0008D58C00089F
:1028A000D58C0008D58C0008D58C0008318D000827
:1028B000D58C0008000000000000000000000000AF
:1028C00010B5064C2378002B07D10548002802D00C
:1028D000044800E000BF0121217010BDD805002090
:1028E0000000000094A4000808B5084B002B03D09A
:1028F0000748084900E000BF07480168002903D0E5
:10290000064B002B00D0984708BDC04600000000D1
:1029100094A40008DC050020D80500200000000079
:10292000F0B5474680B4BE4B4C0084B0051C0E1C6D
:10293000884664089C420FDDBA4B9C4200DDA0E053
:10294000B9496418002C00D198E04346B74D002BDC
:1029500000DC02E1B64E9CE0B64B9C4200DDAAE0F2
:10296000B54B9C4200DC9AE0012464422A1C331CD3
:10297000281C311C02F0F2FA021C0B1C029003917D
:1029800002F0ECFA874B864A0090019102F0E6FAD9
:10299000854A864B01F076FB009A019B02F0DEFA35
:1029A000834A844B01F06EFB009A019B02F0D6FA39
:1029B000814A824B01F066FB009A019B02F0CEFA3D
:1029C0007F4A804B01F05EFB009A019B02F0C6FA41
:1029D0007D4A7E4B01F056FB029A039B02F0BEFA41
:1029E0007B4A7C4B029003910098019902F0B6FA61
:1029F000794A7A4B02F0FCFC009A019B02F0AEFA95
:102A0000774A784B02F0F4FC009A019B02F0A6FA98
:102A1000754A764B02F0ECFC009A019B02F09EFA9C
:102A2000734A744B02F0E4FC009A019B02F096FAA0
:102A3000021C0B1C611C62D08049E4000C19029836
:102A4000039901F01FFB2A1C331C02F087FA226A4B
:102A5000636A02F0CDFC2A1C331C02F0C9FC0B1C7B
:102A6000021C2068616802F0C3FC4346051C0E1C72
:102A7000002B0EDA8021090676180AE0002800D122
:102A800063E7281C311C2A1C331C01F0FBFA051CCF
:102A90000E1C281C311C04B004BC9046F0BD564AE4
:102AA000564B01F0EFFA564A564B00F027FC00282F
:102AB00000D159E7EDE700F0CBF8614B061C0F1C85
:102AC0009C422DDC5F4B9C4253DC321C3B1C01F0D2
:102AD000D9FA4B4A4B4B02F08BFC4B4A4B4B041C34
:102AE0000D1C301C391C01F0CDFA021C0B1C201CE3
:102AF000291C01F035FE0024051C0E1C36E7029847
:102B0000039901F0BFFA2A1C331C02F027FA021CB9
:102B10000B1C281C311C02F06BFC051C0E1CB8E7BA
:102B2000494B9C421BDC3A4A3A4B02F061FC384A62
:102B3000384B041C0D1C301C391C02F00FFA304AB3
:102B4000304B01F09FFA021C0B1C201C291C01F0C9
:102B500007FE0224051C0E1C08E73C4E99E7321CB8
:102B60002D482E493B1C01F0FBFD0324051C0E1CC7
:102B7000FCE6234A234B02F03BFC214A214B041C78
:102B80000D1C301C391C01F07DFA021C0B1C201C92
:102B9000291C01F0E5FD0124051C0E1CE6E6C046DB
:102BA00011DA22E33AAD903FEB0D76244B7BA93F3F
:102BB000513DD0A0660DB13F6E204CC5CD45B73F0D
:102BC000FF8300922449C23F0D5555555555D53FB9
:102BD0002F6C6A2C44B4A2BF9AFDDE522DDEAD3FAD
:102BE0006D9A74AFF2B0B33F711623FEC671BC3F4D
:102BF000C4EB98999999C93F9C7500883CE4377E4D
:102C0000000000000000F03F000000000000004055
:102C1000000000000000F83F000000000000F0BFCE
:102C2000FFFF0F440000F07F00001080182D445477
:102C3000FB21F93FFFFFDB3FFFFF1F3EC09E000867
:102C4000FFFFF23FFFFFE53FFF7F0340FB21F9BF9E
:102C50004B0059087047C04608B500F059F808BD48
:102C600070B58CB0041C0D1C00F046F9264E0023F4
:102C7000F3560090019101332FD0201C291C00F045
:102C800011FA002829D0201C291C1E4B1C4A00F0D8
:102C900021FB002821D0012302931C4B06940795A9
:102CA000049405953478039300230A93002C18D0DC
:102CB00014491348021C0B1C01F052FD08900991A5
:102CC000022C12D103F0F0F9212303600A9B002BA0
:102CD00011D1089B099C00930194009801990CB0B4
:102CE00070BD084C064B0893099402A800F020FA26
:102CF0000028EBD1E6E703F0D7F90A9B0360E8E789
:102D00000000000000000000C000002088A40008AF
:102D1000F0B55F4656464D464446F0B485B0009047
:102D200001915D00029203931F1C019B56429C4639
:102D300016436F4B6D08F60FAB46009C2E439E4228
:102D400042D865466E00654225437608ED0FE046A1
:102D5000B24635439D4237D8664EBB1913434BD01C
:102D60000225BB172E1C45461E40EB0F1E43B146E5
:102D70005646344333D05D462A4337D05C4B9B459F
:102D800048D05B4B9A4531D052465B46D51A2D153B
:102D90003C2D39DC3C354BDB029A039B01F0E0FC17
:102DA000FFF756FFFFF7BCFD4C46012C45D0022C27
:102DB00047D0002C0CD0394B374A02F019FB384A67
:102DC000384B02F015FB03E0029A039B01F05AF91D
:102DD00005B03CBC90469946A246AB46F0BD4B467A
:102DE000022B14D00BDC002BF2DAC4E74646002E8F
:102DF0001BDB2D482D49EBE7FFF792FDE8E7032B9E
:102E0000B9D12B482B49E3E727482849CCE7244888
:102E10002449DDE7DA451FD04C46012C27D029DDB7
:102E2000022CF4D0032CACD1EBE723482349CFE7A5
:102E3000002FB1DA22482349B6E780252D0649192B
:102E4000C6E7164B144A02F0D3FA021C0B1C1448B6
:102E5000144902F0CDFABBE74A46012A13D015DD2A
:102E6000022A0DD0032AC1D117481849B0E71848E3
:102E70001849ADE7002C00D083E711481149A7E7B6
:102E800015481649A4E716481649A1E7002AADD10E
:102E9000154816499CE7C046075C143326A6A13C9A
:102EA000182D4454FB210940182D4454FB21F93FAF
:102EB000182D4454FB2109C0182D4454FB21F9BF9F
:102EC0000000000000000000D221337F7CD902C046
:102ED0000000000000000080D221337F7CD9024036
:102EE000182D4454FB21E9BF182D4454FB21E93F20
:102EF0000000F07F000010C0F0B55F4656464D461A
:102F00004446F0B4644B041C021C081C83B00D1C26
:102F10001840984200D19CE0002900DC7AE00F15AF
:102F200000D183E05D4B0903FF188023090B5B038D
:102F30000B43FC0760D4D10F5B007F105B1880212E
:102F400001975200162400260020890345189D424F
:102F500002DC68185B1B7618D50F5B00013C5B191F
:102F600052004908002CF1D18021002709062025B4
:102F7000B846BC4689460EE0A2429B415B4257469A
:102F8000FB1A121B8844D40F5B00013D1B19520031
:102F90004908002D17D06746CC191F1ABA46984227
:102FA00003DBA242EFD3002FEDD163189C46E30F61
:102FB000DB074B45E0D16746FB0FDB071F1C7B425D
:102FC0007B41C018D8E713431BD141464B08344F0F
:102FD0007210D219F10702D5802109060B43019C1A
:102FE0002705BD181C1C201C291C03B03CBC9046A6
:102FF0009946A246AB46F0BDD10F5B005B1852006C
:1030000099E74246013233D00123444623404344EA
:103010005B08DCE74B005B082343E4D00027002972
:103020002DD1D10A153F52050029FAD08020400346
:10303000014220D10023490001330142FBD0012489
:103040002020E41AC01A3F19141CC44021439A409E
:1030500068E7221C2B1C201C291C01F07FFF021C8E
:103060000B1C201C291C01F00DF8041C0D1CBAE7D8
:1030700001360023ABE7202001240023E3E7221CD4
:103080002B1C201C291C02F0B3F9021C0B1C01F0A4
:1030900067FB041C0D1CA6E70000F07F01FCFFFF8E
:1030A0000000E03F30B50B1C011C021C194302203C
:1030B000002900D130BD51424A41002A04D0802469
:1030C000240619190029F5D0144D15485C19002162
:1030D000A0424941002901D00420EBE7114D5C19C1
:1030E000A04249410029F7D1802000061C180E4853
:1030F000A0424941002901D00320DBE79842494121
:103100000029F9D18021094C490358181B19414263
:10311000484159424B4118431040CBE70000F07F33
:10312000FFFFDF7F0000F0FFFFFF0F0000001080B7
:103130000020704702B4714649084900095C490003
:103140008E4402BC7047C046002934D001230022BF
:1031500010B488422CD301242407A14204D2814216
:1031600002D209011B01F8E7E400A14204D2814226
:1031700002D249005B00F8E7884201D3401A1A43A3
:103180004C08A04202D3001B5C0822438C08A042DA
:1031900002D3001B9C082243CC08A04202D3001B90
:1031A000DC082243002803D01B0901D00909E3E70A
:1031B000101C10BC7047002801D00020C04307B489
:1031C000024802A14018029003BDC046D900000089
:1031D0000029F0D003B5FFF7B9FF0EBC4243891AAE
:1031E0001847C046002941D010B4041C4C40A446E6
:1031F00001230022002900D54942002800D5404281
:1032000088422CD301242407A14204D2814202D255
:1032100009011B01F8E7E400A14204D2814202D275
:1032200049005B00F8E7884201D3401A1A434C0872
:10323000A04202D3001B5C0822438C08A04202D3A8
:10324000001B9C082243CC08A04202D3001BDC08D0
:103250002243002803D01B0901D00909E3E7101C11
:103260006446002C00D5404210BC7047002806D0B0
:1032700003DB0020C043400801E08020000607B4C3
:10328000024802A14018029003BDC0461900000088
:103290000029EBD003B5FFF7A7FF0EBC4243891A04
:1032A0001847C0467047C0468446101C62468C468C
:1032B000191C634600E0C0461FB501F0F1FD00286F
:1032C00001D40021C8421FBD10B501F035FD4042B8
:1032D000013010BD10B501F0E3FD002801DB002036
:1032E00010BD012010BDC04610B501F0D9FD002869
:1032F00001DD002010BD012010BDC04610B501F059
:1033000059FD002801DC002010BD012010BDC04681
:1033100010B501F04FFD002801DA002010BD01209A
:1033200010BDC04610B59E21C905041C02F0C2FDA7
:10333000002803D1201C00F0D9FD10BD201C9E24C4
:10334000E10500F00BFC00F0D1FD80221306C0184F
:10335000F3E7C0460000000038B50E4B0C4A041CD1
:103360000D1CFFF7D5FF002804D1201C291C02F0FA
:10337000D5FB38BD074B064A201C291C02F038F843
:1033800002F0CCFB80231B06C018F2E7C046C04603
:10339000000000000000E041F8B5C20F43004F02FA
:1033A0004C004602D5B21B0EB009240EC90FBF094E
:1033B0008D4262D01A1B002A00DC9AE0002C09D151
:1033C000002F00D176E0013A002A00D0ADE0C61B04
:1033D0001C1C13E0FF2B00D17AE08026F404274365
:1033E00001261B2A08DC391C2024D140A21A974050
:1033F0003E1C771EBE410E43861B1C1C730100D46D
:103400006EE0B0018609301C02F05EFD331C053809
:103410008340844261DC041B1F22161B1F1CB34027
:10342000601C1E1CC740731E9E413E4301220024A7
:103430000F273740042F00D00436730105D5FF2A2B
:1034400064D0A74C2640141C0132F6084AD0FF274E
:103450003A40D00F0023012191424341002B41D03B
:10346000002C43D08021C80306437302580AE4B2FB
:10347000E405ED0720432843F8BD191B002948DD6A
:10348000002C1BD0FF2B23D08026F40427430126D9
:103490001B296EDD36181C1C730121D5631CFF2B04
:1034A00077D08F48A21C30400126064041080E43C9
:1034B0001C1CBDE75A1C061C1C1CB9E7002FF9D0C8
:1034C0000139002902D13E181C1CE5E7FF2BDED193
:1034D0008022061C5200FF24AAE7814E241A1E40B7
:1034E000621CA5E77602700AE4B2C1E77202500AD4
:1034F000BEE7002A1DD15A1CD4B2012C61DDC61BC7
:1035000072012DD53E1A1C1C0D1C7CE7FF240020E7
:10351000AEE7002960D15C1CE1B2012940DDFF2C3F
:103520007AD03E1876089A1C82E7FF2B00D057E726
:10353000CEE75242002B26D0FF2C61D08023DD0441
:10354000284301261B2A08DC051C2026D540B21A78
:10355000061C9640701E86412E43BE1B0D1C4DE777
:103560001C1C002E00D04EE700250122042600245A
:1035700063E73C1C2026CC40711A8F403E1C771E0E
:10358000BE41264386E7002840D1621C3E1C0D1C2C
:103590004EE7012580231540FF245A0004264CE7FE
:1035A000002B6FD1002800D191E0002F00D192E0D4
:1035B0003E18710100D487E04948022206400124E8
:1035C00036E7002B10D100283FD1002FCCD03E1C75
:1035D0000D1C012200242BE74942002B22D1002898
:1035E00063D1621C3E1C23E7002839D1002F07D18C
:1035F0008026720000253B4EFF241EE7FF2CA0D141
:103600000D1C80213E1C4A00FF2411E7013A002ACC
:10361000F4D13E1A0D1CF1E6012580271540042641
:103620007A000AE7FF2C47D08026F30418430126CE
:103630001B2908DC031C2026CB40711A061C8E4077
:10364000701E86411E43F61926E7061C002F3BD04C
:10365000C61B720135D53E1A0D1C01220024E7E677
:10366000002F00D134E78023C008DB03184204D0C8
:10367000FF081F4201D1381C0D1C8027C6007A00AC
:10368000FF24D5E6002817D0002F00D120E78022A4
:10369000C608D3031E4203D0FF081F4200D13E1CC0
:1036A0008027F6007A00FF24C2E601393E1800297F
:1036B00000D1F1E6FF2CBAD180233E1C5A00FF2432
:1036C000B6E6002E00D14FE701220024B0E63E1CF2
:1036D00001220024ACE6061C01220024A8E6C04614
:1036E000FFFFFFFBFCFFFF03F0B55F4656464D466C
:1036F0004446F0B4C20F0E1C45024400D1B283B060
:103700006D0A240E9246894607D1002D00D08DE027
:1037100004270123BB4600930AE0FF2C54D08020ED
:1037200001040D4300270023ED007F3CBB460093BE
:10373000371C7900FB0F7602760A080E9846DFB236
:10374000002848D10123002E00D07CE04A4659468B
:103750007A4019430F294CD9241A01946D0176013E
:10376000B54200D3AEE001981B240138019000213E
:103770000120631E071C1F4049006B00B34200D2AA
:10378000B1E09B1B0143013C002C00DCA6E0002FB4
:103790000CD01D1C49005B00B34201D2002D01DAA0
:1037A0009B1B0143013C002C00DC97E05D004900BD
:1037B000B54201D2002B01DAAD1B0143013C6B0085
:1037C0004900B342ECD2E9E7002D2AD108220220B9
:1037D00093460090ACE7FF281ED080231A041643BE
:1037E00000234A465946F6007F387A4019430F298C
:1037F000B2D889008B465049594409688F46FF2347
:103800000020DD05D2072843104303B03CBC90469E
:103810009946A246AB46F0BD331C5A1E9341023373
:1038200094E70C2003218346009181E7281C02F0D5
:103830004BFB7627411F7C42002300228D40241A37
:103840009B46009274E7301C02F03EFB7622431F39
:1038500051429E40081A002378E700230020D0E759
:1038600000223648FF23CCE7351C3A1C022BC6D079
:10387000032B59D0012BF0D0019B7F33002B36DD79
:103880000F242C40042C00D00435290103D52C48EA
:10389000019B05408033FE2BB1DCAF01780ADBB21F
:1038A000AFE78027F803054210D006420ED130431F
:1038B000460201224546700A2A40FF23A1E74A46F4
:1038C000009BD3E7AD1B1A24012151E72843420294
:1038D000500A514601220A40FF2392E71D1C6B1E2D
:1038E0009D410D43C8E7002D00DB4CE749E77E21F1
:1038F000019E4B429B1B1B2BAFDC01982C1C9E3066
:103900008540DC402B1C5D1EAB4123430F251D4031
:10391000042D00D00433590102D50123002070E7A3
:103920009F01780A00236CE78021CE032E437302A7
:10393000580AFF2365E7C046009F0008FFFF7F008D
:10394000FFFFFFF7F0B55F4656464D464446F0B4DC
:10395000C20F0F1C44024500D1B283B0640A2D0E81
:1039600091468A4607D1002C00D0A1E0042601230D
:10397000B34600930AE0FF2D43D0802001040C439E
:1039800000260023E4007F3DB34600937E027B00C7
:10399000FF0FFAB2760A180E904639D10123002E95
:1039A00000D092E0514642464A40594619430F29F9
:1039B0003DD92818A3B2B7B20190181C310C784336
:1039C000250C4B436F43060C9C19E3194D439F4252
:1039D00000D996E001041C040E0CA719190CBC01B7
:1039E000601E84416E18B80E0443B3011C432301CA
:1039F0002DD5019B012525400133640801932C43FB
:103A000025E0002C4FD10822022093460090BDE70C
:103A1000FF2843D0802211040E4342465146002322
:103A20004A405946F6007F3819430F29C1D889000A
:103A30008B464749594409688F460122484602404F
:103A4000009B022B1DD0032B4BD0012B5FD0019884
:103A50007F3000285EDD0F272740042F00D004347C
:103A6000210103D53B4E019834408030FE2808DC0C
:103A7000A401640AC0B206E001223A40341C022BC1
:103A8000E1D1FF200024C005D2072043104303B03A
:103A90003CBC90469946A246AB46F0BD331C5A1E2C
:103AA000934102337EE70C200321834600916DE7AA
:103AB000201C02F009FA7626411F754200230022DD
:103AC0008C402D1A9B46009260E7301C02F0FCF9F6
:103AD0007621421F4B42181A9640002362E71E4C83
:103AE00000228023D9030C4365026C0AFF20CAE739
:103AF0008022D3031C4208D01E4206D1341C424609
:103B0000EFE780246702ED1964E75246E9E70020F9
:103B10000024B8E77E2301995D426B1A1B2BF6DC6B
:103B2000019E271C9E36B440DF40231C5C1EA3412F
:103B30003B430F201840042800D00433590103D41C
:103B40009C01640A00209EE7012000249BE7C046F8
:103B5000409F0008FFFFFFF7FFFF7F00F8B5470217
:103B60004A02BE09920943004C00C00FB4465742B6
:103B700057411B0EC5B2240EC90F002F14D1FF2CC4
:103B800012D18D4214D0181B002800DCA9E0002CB3
:103B900031D1002F00D083E00138002800D0BFE0F1
:103BA0006646B61A1C1C3AE0012671408D42EAD1E5
:103BB000191B002900DCA6E0002C00D174E0FF2BCB
:103BC00000D17DE08027FC04224301261B2900DC74
:103BD000CCE066441C1C710100D479E0631CFF2B0F
:103BE00000D1D4E0AA4F374001263E407A08164360
:103BF000A71C1C1C2DE0FF2B62D08024E1040A438B
:103C000001261B2808DC171C2026C740301A8240DA
:103C1000161C721E96413E436246961B1C1C700188
:103C200056D5B2019609301C02F04EF9331C053806
:103C30008340844249DC041B1F210F1B621C1E1C95
:103C4000D640BB40301C1E1C731E9E4106430127FC
:103C500000240F213140042900D0043601221540F0
:103C6000720105D5FF2F4BD0894C26403C1C0137F3
:103C7000F6082FD0FF221740F80F00230121B94288
:103C80004341002B26D0002C28D08021C8030643B6
:103C90007302580AE4B2E405ED0720432843F8BD57
:103CA0005F1C66461C1CD4E7002FF9D1013900299E
:103CB00003D1614656181C1C8DE7FF2B00D084E70A
:103CC000802766467F00FF24C3E7714E241A1E40FA
:103CD000671CBEE77602700AE4B2DCE77702780A76
:103CE000D9E7002820D15E1CF4B2012C68DD6646BD
:103CF000B61A700131D56546561B1C1C0D1C92E787
:103D0000FF240020C7E7002966D15C1CE1B201292D
:103D100044DDFF2C00D181E0624456089F1C98E7E7
:103D2000FF2B00D06CE7CBE74042002B28D0FF2CC4
:103D300068D080256746EE043743BC4601261B2821
:103D400008DC63462027C3406646381A8640701E4A
:103D500086411E43961B0D1C61E71C1C002E00D0E3
:103D600061E7002501270426002479E720277E1A31
:103D7000141CB240161CCC40721E9641264328E704
:103D80006546002D44D1671C161C0D1C61E70125FA
:103D900080230540FF245F00042661E7002B7BD1D0
:103DA0006046002800D199E0002F00D09AE0161854
:103DB000710100D48AE0364802270640012448E712
:103DC000002B12D16346002B43D1002FC9D1161C02
:103DD0000D1C012700243CE74942002B24D16346F7
:103DE000002B76D1671C161C33E7604600283CD1B7
:103DF000002F07D0802677000025264EFF242FE7CE
:103E0000FF2C9BD18020161C0D1C4700FF2420E7AF
:103E100001380028F4D1561B0D1C00E70125802233
:103E20000540570004261BE7FF2C47D08023664639
:103E3000DF043E43B44601261B2908DC20266746E2
:103E4000CF40711A66468E40711E8E413E43B618B1
:103E5000C1E66646002F39D1B61A6346700132D5E5
:103E6000D61A0D1C01270024F3E6002F00D027E707
:103E70008027C608FB031E4204D0D2081A4201D193
:103E8000161C0D1C8021F6004F00FF24E1E6C04601
:103E9000FFFFFFFBFCFFFF036346002B0ED0002F4C
:103EA00000D00DE78024DE08E3031E42EAD0D208EA
:103EB0001A42E7D1161CE5E7FF2CBCD18023161C63
:103EC0005F00FF24C5E6002E00D14AE70127002449
:103ED000BFE601390029EFD1D6187CE6161C012770
:103EE0000024B6E6664601270024B2E600B541028A
:103EF0004300C20F490A1B0E00207E2B0DDD9D2BB7
:103F00000CDC802000040143952B0ADC9620C31AA8
:103F1000D9404842002A00D1081C00BD02481018B0
:103F2000FBE7963B9940F4E7FFFFFF7F70B5041E67
:103F300048D0E50F00D06442201C01F0C5FF9E234D
:103F4000261C1B1A962B09DC083884406002400AA4
:103F5000DBB2DB05ED071843284370BD992B0ADD62
:103F60000524221A041C311C1B34D140A6400A1C13
:103F7000711E8E411643052828DC174C0F2226405F
:103F80003240042A00D00436720105D59F231B1A43
:103F9000FF2B19D010480640FF245A1C2240012153
:103FA000D40F002091424441F608211E06D0002E75
:103FB00004D0002B0DD08021C80306437202500AA2
:103FC000DBB2C6E7002500230020C2E7411F8E4078
:103FD000D3E77602700ABCE7FFFFFFFB38B5041E8B
:103FE00042D0201C01F070FF9E231B1A962B07DC89
:103FF000083884406002400ADBB2DB05184338BD54
:10400000992B0ADD021C1B32251C95402A1C511ECF
:104010008A4105210D1AEC401443052827DC184A73
:104020000F2514402540042D00D00434620105D52D
:104030009F231B1AFF2B20D011480440FF255A1C38
:104040002A400121D50F002091424541E408291E54
:1040500006D0002C04D0002B0CD08021C8030443D0
:104060006202500ADBB2C8E700230020C5E7411F07
:104070008C40D4E76402600ABFE7FF230020BCE75E
:10408000FFFFFFFBF0B557464E464546E0B4051C22
:104090000C03CF0F4800640A690FBA46FEB20C4306
:1040A000DF0FE9005D001B03BC465F0A530F1F438F
:1040B000400D6D0DD200B8469146431B664500D1B8
:1040C000A0E0002B00DCFCE0002D13D13A1C4F4691
:1040D0003A4300D1C8E0013B002B00D048E14F46F5
:1040E000CD1BA94289414246A41A4B42E31A2C1C1B
:1040F000051C25E0B44A904200D1CDE08022150491
:104100002F43B846382B00DD0CE11F2B00DD48E1C2
:104110002022D51A47464A46AF40DA403A434F4636
:10412000AF403D1C6F1EBD414746DF402A433B1C4C
:104130008F1AE41AB9429B415942631A051C3C1C70
:104140001F0200D4B1E05802470A002F00D1DBE083
:10415000381C01F0B9FE021C083A1F2A00DDDCE021
:104160002823211C181A9740C1400F4394409542C0
:1041700000DD97E0551B6B1C1F2B00DDFDE01F20B1
:10418000451B211C3A1CAA40D940AC401143651E76
:10419000AC41DF400C433B1C012200250F27274088
:1041A000042F69D0211DA142804144421B191C02E9
:1041B00007D5854DAA4200D1A2E0844F151C3B4093
:1041C0000132C8085C0751050443DB084A0D012A87
:1041D0006DDD1F036D053B0B6D0D00200021201CC4
:1041E0000C0D24057A4A23436D056D081A402A43B5
:1041F00052005208F607111C31431CBC90469946E8
:10420000A246F0BD002B00DC98E0002D36D06E4DAC
:10421000A84241D080252A041743B846382B00DC39
:104220000AE14B4642461A430023002A00D00122ED
:1042300052181B198A42A44161425B18141C051CC8
:10424000180232D56049681C884200D16BE15F4F8B
:104250000121214062083B400C1C1443DF07AA1CCB
:104260003C435B08051C99E7231C0F270C1C421CD0
:10427000051C2740042F95D1211C98E73A1C4D4678
:104280002A43F1D0013B002B03D143466A181B1986
:10429000D0E74D4A9042C1D18022231C12010C1C50
:1042A000051C7BE7494BAD1A3B406A1C76E7271C8F
:1042B0001F4300D131E2002D3DD0802001030B438C
:1042C00087E7002B00D085E0471C7B055D0D012DA5
:1042D00000DCEDE08B1A47469942AD41E71B6A428C
:1042E000BF1A3D0200D49EE04F46791A45468945E3
:1042F00092412C1B5642A71B051C0C1C664624E74A
:10430000151C0023002468E7201C01F0DDFD20308F
:10431000021C083A1F2A00DC22E7271C28388740A5
:10432000002424E742464D462A430023002A00D1B8
:10433000FEE60122FCE61A03130B4EE7002B00D029
:10434000D9E0451C6B055F0D012F00DC94E01E4B8E
:104350009D4200D104E152188A42BF4143461C19D4
:104360007B42E7185108FC070C437B08821C15E7C9
:10437000154DA84200D0C5E68EE7291C1F393A1C0E
:10438000CA40111C0022202B03D03F20431B3A1CA3
:104390009A401443621E94410C43012200230025DD
:1043A000FCE61F1C203F4546FD402F1C0025202B0E
:1043B00003D04022D31A45469D404A462A43551E03
:1043C000AA413A430023B3E6FF070000FFFF7FFF47
:1043D000FFFF0F805B42002843D0C84A954200D1BE
:1043E00022E1802738040443382B00DDB0E01F2B86
:1043F00000DD4BE12026F21A271C081CD840914012
:1044000097400E1C3843711E8E41DC40011C314325
:10441000231C4C46641A4046A14592415642C11A9B
:104420008B1B66468CE6391C194322D100260122DB
:10443000002304210025BAE61F2B49DC2025ED1AB4
:104440004246AA4094464A46DA4067463A434F46B7
:10445000AF403D1C6F1EBD414746DF402A433B1C19
:10446000E6E6261C0E4367D16A1C3B1C4C4666469A
:1044700094E61C1C051C68E6231C0B43002800D096
:10448000D8E0002B00D134E14546154300D1F2E0DD
:104490005218474638198A42A441614243181F0204
:1044A00000D443E1964D141C2B400222012575E6F1
:1044B000231C0B43002829D1002B00D097E046464F
:1044C0001643B3D0141C434666460122002565E618
:1044D0001A1C203A4746D7403A1C0025202B03D00F
:1044E0004025EB1A45469D404F463D436B1E9D417E
:1044F0002A4300239CE65B42002839D1201C084354
:1045000000D0D5E06A1C3B1C4C4647E6002B51D13D
:104510004746174300D1D6E0141C80224346664626
:104520001201764D3AE6554601262E40051C8020A4
:104530000201002304213AE6013B002B70D1521AFC
:104540003F1B9145A44160423B1A141C6646F7E5A7
:104550000C4300230021002C00D15AE7012158E729
:104560005346012680241E402201002304211EE61A
:10457000624A954200D1CBE0802007043C43382BAF
:1045800000DDA8E01F2B00DDD4E02022D01A271C7C
:104590000A1C8740DA4081403A43481E8141DC4092
:1045A0000A43231C4C4614194C4592414344514242
:1045B0005B1845E64546154362D06207E308802450
:1045C000C90820030A43034209D04446E1080142D6
:1045D00005D14F466607FA0832430B1C6646550F55
:1045E000DB0080202B43D400444D0201D6E5404639
:1045F000104340D08A1A454691428041631B47428E
:10460000DB1B1F0200D48DE04B465A1A9145B64180
:104610002C1B7542631B6646141C00250122BDE558
:10462000364EB54200D0DFE6802143464C46664612
:104630000A01B3E5002B56D042464B461A431FD021
:104640008020C9086707E30802033943134200D1F9
:1046500082E04446E008104200D07DE04D46E90883
:104660006407031C0C43600FDB0080220343E4005B
:104670001201224D92E5231C01220C1C00258DE520
:104680008020231C02010C1C1C4D87E5181C2038BF
:10469000221CC240101C0022202B03D04027FB1AF2
:1046A000221C9A4011434A1E914101430023B0E667
:1046B000013B002B28D149449142BF4144447A42F6
:1046C000A3180C1CBCE580220421002612010D4B0E
:1046D00049420A4D6BE50C4300230022002C00D117
:1046E00060E701225EE78025141C43462A01034D42
:1046F00054E5141C4346012200254FE5FF07000046
:10470000FFFF7FFFFFFF7F001448854200D036E7A0
:10471000802743464C463A0140E56B055D0D002479
:1047200000235AE5191C114300D17FE6141C002513
:10473000012233E51F1C203F201CF840021C0020F2
:10474000202B03D04020C31A201C98400143481E50
:1047500081410A43002325E70C1C84E7FF07000082
:10476000F0B55F4656464D464446F0B41D1C4B001E
:1047700087B0141C5A0D0F039046C90F6B4619726F
:10478000CAB24346061C3F0B0192002B1DD13B1CB5
:10479000034300D118E1002F00D141E2381C01F0A1
:1047A00093FB272800DD35E22821031C083B0A1A69
:1047B000311C9F40D1400F439E40B64900230A1A46
:1047C000002090469B4604900FE0B34880453ED0C1
:1047D000802251030F43B14B700FFF0000220021D4
:1047E0000743F600984493460491291CCA0F2D03F1
:1047F0004B009146D2B2201C2D0B5B0D924631D15D
:10480000291C214300D1E6E0002D00D1FEE1281C47
:1048100001F05AFB272800DDF2E128212A1C031CA5
:104820000D1A211C083BE9409A400D1C15439C4081
:10483000984A0199131A504648400022594603905D
:1048400011430F2924D89648890040588746381CC0
:10485000304300D0B3E008260223B34600270026E9
:104860000493C2E78C48834200D19FE0802250032A
:1048700005438A4A610FED009B180D43E4000022B6
:104880000199504648405946039011430F29DAD9FF
:104890004246D31A0593AF4200D8EDE0780871087C
:1048A000FF073943F60781468B460296270E2D02F5
:1048B0003D4326022904B0462E0C0C0C4846311C00
:1048C0000194FEF741FC019C071C4443311C4846FF
:1048D000FEF77EFC5B460904180C01438C4207D9A5
:1048E0004919013F8D4203D88C4201D9013F491932
:1048F0000C1B201C311CFEF727FC019B8146434307
:10490000311C201C9A46FEF763FC5C4620040B0415
:10491000020C13439A4506D9012148425B19814490
:104920009D4200D8A0E151464C463F0427434046F3
:104930005B1A4146BCB282B2080C82466043914683
:1049400084466243380C4946414354466043140C44
:104950000C196444A14202D9802149024018210C5B
:104960004018110424040A0CA218834200D2A7E0C4
:1049700000D1A1E00299BBE0039B474A0027002435
:10498000002000210D0D2D053D43464F12052F40FF
:1049900017437F007F08DB07391C201C194307B031
:1049A0003CBC90469946A246AB46F0BD281C03226B
:1049B000204300D064E700250024022260E70C2099
:1049C00003218346049110E704270122BB460026F9
:1049D0000027049209E700250024012250E7039BE9
:1049E000002200270024CBE7012400232E4F64423D
:1049F000294AC5E72F1C55460395022ABCD0032A35
:104A000000D187E1012AEAD00598284A8218002AB5
:104A100000DC3BE10F232340042B05D0211DA142E4
:104A2000AD416C423F190C1CF80105D58022204B8A
:104A30000598D6001F4082191E498A429CDC7807DF
:104A4000E4087F02550504433F0B6A0D039B97E77B
:104A5000802213031F4200D0E6E069461F430C7A10
:104A60003F03012323403F0B341C0B4A88E7341CCF
:104A7000019E049A0396C0E7B44202D2AF4200D12D
:104A80000CE7059A0023013A0592B346B946029312
:104A90000CE7C0460DFCFFFFFF07000001FCFFFF15
:104AA000809F0008FFFF0F80FFFF0F00FF03000043
:104AB000FFFFFFFEFE070000029C944200D359E76F
:104AC0000299013F41444145A44164426419E318FD
:104AD0009D4203D3AB420BD1414509D3984200D844
:104AE000ACE041444145A44164426419013F1B19B3
:104AF0008C1AA14292411B1A5042A3461C1AAC4286
:104B000000D1E9E0311C201CFEF71EFB019A029047
:104B10004243311C201C0492FEF75AFB5B460804FA
:104B200004991B0C034399420CD9029C5B19013C6C
:104B300002949D4206D80499994203D902985B19C0
:104B4000013802900498311C1C1A201C0494FEF7B2
:104B5000FBFA019B311C4343041C04980193FEF7AC
:104B600037FB0B0459460A04160C3343019E9E4240
:104B700007D95B19013C9D4203D89E4201D9013CF3
:104B80005B190299019A08040443A6B29B1A524683
:104B900072434846704393464E46220C5643514654
:104BA0004A43010C8946B144594649448E4202D9D0
:104BB0008026760292190E0C921906040904300C14
:104BC000091893420ED3081C461EB041934201D1EE
:104BD000002807D1934202D1002800D114E7012315
:104BE0001C4311E75B19013C9D422ED89A4241D8E3
:104BF00001D188453ED34046401A411E8841E9E72D
:104C0000031C283B9C40251C002411E601F05CF9A4
:104C10002030FFE5071C283FBE40371C0026CCE5AE
:104C200001F052F92030BCE51D4213D11D432E0383
:104C300001234D46370B2B403A4AA1E6984200D05B
:104C400056E7914200D353E74BE74546681A411EA9
:104C50008841BFE71F436A463B03107A1F0B0123BD
:104C60000340341C2F4A8BE69A4500D85BE681440A
:104C70005B1958E6404640004045B64176427619F9
:104C8000081A013C9B19411E8841A3E7264E059A4C
:104C9000B31A382B00DDA2E61F2B20DC234A059E29
:104CA000201CB518391CD840A940AC400143621EF5
:104CB00094410C43DF400F252540042D05D0211DD4
:104CC000A142804144423F190C1C39021AD5039B72
:104CD00001220027002453E601214C4294E6144AA5
:104CE000059D391C501BC1400A1C0026202B03D0F7
:104CF000104EAB199F403E1C3443661EB441144312
:104D00000027D8E77A07E4087F0214433F0B039B90
:104D1000002235E680252E0337433B031F0B014A53
:104D2000039B2DE6FF07000002FCFFFF1E040000AE
:104D3000E2FBFFFF3E040000F0B5474680B4171CBD
:104D40001A03061C100B84465A00D80F184B0D038B
:104D50004C002D0B640DC90F520D80469C4208D0AB
:104D6000134882420CD00120944210D004BC9046DB
:104D7000F0BD2B1C01203343F8D10D488242F2D103
:104D8000634601203B43F1D101209442EED16545B9
:104D90000CD1BE420AD100204145E7D00120002CB1
:104DA000E4D13543281C451EA841DFE70120DDE79B
:104DB000FF070000F0B54F464646C0B4CF0F0D03C5
:104DC0004C00061CD90F1803B946171C5A00334B68
:104DD0002D0B640D000B520D8C469C4226D02F49A2
:104DE0008A4229D00023002C04D12B1C3343191CE8
:104DF0004B424B41002A09D1011C394306D1002006
:104E0000002B1DD00CBC90469946F0BD002B06D15E
:104E1000E1451AD04C46604201273843F2E762462A
:104E200050425041404201263043EBE72B1C3343B4
:104E3000D5D002214842E5E7031C3B43D2D0F8E736
:104E40004F46784201221043DCE7944204DD4B4692
:104E5000584201252843D5E7944206DA484646429F
:104E60004641704201210843CCE78542E8D82B1A1D
:104E70005A425341002B01D0B742E1D3854203D3BC
:104E8000002B08D0BE4206D24B465D425D416842CF
:104E900001242043B6E70020B4E7C046FF07000026
:104EA000F0B5474680B4171C1A03061C100B844645
:104EB0005A00D80F284B0D034C002D0B640DC90F61
:104EC000520D80469C421BD0234882421DD00023B5
:104ED000002C03D12B1C334358424341002A09D0F4
:104EE000002B17D141451CD048420124204304BC6B
:104EF0009046F0BD60463843F2D1002BF7D1F3E77E
:104F00002B1C02203343F2D1DEE7634602203B43F1
:104F1000EDD1DCE747467E427E41704201210843E5
:104F2000E5E79442E0DC0FDB6545DDD86246AB1A6D
:104F30005A425341002B01D0B742D5D3654503D324
:104F4000002B07D0BE4205D24842484140420125CD
:104F50002843CCE70020CAE7FF070000F0B55F4612
:104F600056464D464446F0B41D1C4B0085B0141CFB
:104F70005A0D0F039046C90F6B461970CAB24346CB
:104F8000061C3F0B0192002B1DD13B1C034300D19B
:104F900040E1002F00D1DFE1381C00F095FF272809
:104FA00000DDD3E12821031C083B0A1A311C9F4075
:104FB000D1400F439E40CD4900230A1A002090465D
:104FC0009B4602900FE0CA4880453FD080225103A3
:104FD0000F43C84B700FFF00002200210743F6006B
:104FE000984493460291291CCA0F2D034B00914609
:104FF000D2B2201C2D0B5B0D924632D1291C2143CD
:1050000000D10EE1002D00D19CE1281C00F05CFFD6
:10501000272800DD90E128212A1C031C0D1A211CE1
:10502000083BE9409A400D1C15439C40AF4A51464D
:10503000131A019800224140584610430F2825D8E2
:1050400080008346AC48584400688746381C30438B
:1050500000D0DAE008260223B34600270026029398
:10506000C1E7A348834200D1C6E080225003054334
:10507000A04A610FED009B180D43E4000022019847
:1050800051464140584610430F28D9D94344B2B243
:10509000A0B20393131C4343240C9B46131C63438D
:1050A000360C9C46331C43439846331C6343994655
:1050B0005B461B0C9A46D444C444E04500D931E118
:1050C00063461B0C009363461B0498465B461B0417
:1050D0001B0C43440193ABB2029353439846029B8B
:1050E0002D0C73436A439B4643461B0C9C4662440B
:1050F0005A446E43934502D980235B02F618130C81
:105100009A4643461B041B0C12049C469444BAB2B4
:10511000131C43439846131C63433F0C5644784387
:105120009A4643461B0C9B46DA4482447C435045D6
:1051300002D98023580224185346180C2418180446
:1051400043461B041B0C9846029B4044534398461D
:10515000029B6A437B436F43BA4647463D0C57194F
:10516000FA18934202D980277D02AA44009B1504B5
:1051700063444B446345BF41AC4645462D042D0C6A
:10518000AB46DC44B444B445AD416E427F42B146C7
:10519000BC441E1886428041654663194042BC45A6
:1051A000BF41A342A4414D461B187F422F43834277
:1051B0008041150C7A1964424542254301985719DC
:1051C000750205436A1E95415744DC0DF20D7F02BE
:1051D0002E1C274316435C022643FA010AD5012000
:1051E000039B30407408061CFA07013326430393DF
:1051F00016437F080B1C21E0281C0322204300D00B
:105200003DE700250024022239E70C2003218346D4
:105210000291E8E604270122BB46002600270292FD
:10522000E1E600250024012229E7029A0B1C022A4C
:1052300043D0032A4FD0012A00D179E003982F49A7
:105240004218002A00DC8BE00F253540042D05D0E4
:10525000341DB44280414642BF19261CF80105D5D1
:10526000274C039A8025E90027405218254882429E
:1052700023DC7D077902F60857052E437A0D0D0BC6
:10528000002000210C0D27052F431F4D12053D4026
:1052900015436D006D08DB07291C301C194305B050
:1052A0003CBC90469946A246AB46F0BD4E46012313
:1052B00033402F1C261C022ABBD10D4A0025002694
:1052C000DEE76A46157801232B40029AAFE70124F6
:1052D0000E4F00236642802001030F433D032D0B38
:1052E000034ACDE70B1C2F1C261CA0E70DFCFFFF7B
:1052F000FF07000001FCFFFFC09F0008FF03000044
:10530000FFFFFFFEFE070000FFFF0F80FFFF0F0003
:1053100080210B031F4209D01D4207D12F1C261CE0
:105320005346D8E780235B029944C9E6019BD2E744
:10533000002200250026A3E7031C283B9C40251CD7
:10534000002473E600F0C0FD203061E6071C283F12
:10535000BE40371C00262EE600F0B6FD20301EE6CB
:105360001F4A039C121B382AE2DC1F2A20DC1D483E
:10537000351C2118381C8E40D5408840341C2843E9
:10538000661EB441061C2643D7400F213140042934
:1053900005D0301DB04292415642BF19061C390259
:1053A0001AD47C07F6087F0226433D0B002267E7EC
:1053B0000D4D03983C1C291ACC40211C0024202AA6
:1053C00004D00A4C039D2A1997403C1C2643741EA6
:1053D000A6410E430027D8E70122002500264FE70B
:1053E00002FCFFFF1E040000E2FBFFFF3E04000082
:1053F000F0B557464E464546E0B4051C0C03CF0FAA
:105400004800640A690F90460C43DA0FE9005D001A
:105410001B03BA46FEB25F0ABC4643465F0F6346B3
:105420003B439C464746C84BFF00400D6D0DB846B8
:105430009D4200D1DFE001277A40431B964200D114
:10544000A5E0002B00DC0BE1002D13D1624647469E
:105450003A4300D1D4E0013B002B00D05AE147464B
:10546000CD1BA94289416246A41A4B42E31A2C1C67
:10547000051C26E0B44A904200D1DCE08022674659
:1054800015042F43BC46382B00DD1AE11F2B00DD2D
:1054900060E12022D51A67464246AF40DA403A43DF
:1054A0004746AF403D1C6F1EBD416746DF402A4363
:1054B0003B1C8A1AE41A91429B415942631A051C0B
:1054C000141C1F0200D4BFE05802470A002F00D16D
:1054D000E9E0381C00F0F8FC021C083A1F2A00DD45
:1054E000EAE028210B1A201C9740D840074394403B
:1054F000954200DDA5E0551B6B1C1F2B00DD0EE166
:105500001F214D1B201C3A1CAA40D840AC40651EF0
:10551000AC41DF4010433B1C0443012700250F2111
:105520002140042900D174E0221DA2428941484251
:1055300001241B1826401C0207D5834DAF4200D121
:10554000AEE0824C3D1C234001375907D208780554
:105550000A43DB08470D012F00DC77E01C036905D7
:10556000230B4F0D00200021101C0A0D1205784D51
:1055700013437F057F081D403D436D006D08F6070E
:10558000291C31431CBC90469946A246F0BD002B15
:1055900000DCA4E0002D40D06B4DA8424BD080250C
:1055A00067462A041743BC46382B00DC15E1424607
:1055B000634613430022002B01D00023012252181E
:1055C0001B198A42A44161425B18141C051C180275
:1055D0003AD55D486A1C824200D177E15B4F0120D9
:1055E00020403B406108041CDF070C433C435B0840
:1055F000AF1C151C93E763463B4300D01DE71AE739
:10560000231C0C1C0F21471C051C2140042900D021
:105610008AE701221640221C8DE7624645462A434E
:10562000EED0013B002B03D163466A181B19C8E773
:10563000454A9042B8D1231C0C1C80210F01051C47
:105640006DE7424BAD1A3B406F1C68E7141C1C43CE
:1056500000D13BE2002D3ED0802007033B437DE795
:10566000002B00D089E0471C7B055D0D012D00DC7F
:10567000F0E04346CB1A67469942AD41E71B6D42C5
:105680007F1B3D0200D49FE043465E1AB045AD410A
:1056900067463C1B6942671A051C341C161C15E73B
:1056A000002300225EE7201C00F00EFC2030021CCC
:1056B000083A1F2A00DC14E7271C283887400024FA
:1056C00016E7654647463D4300230022002D00D1E2
:1056D000EFE60122EDE61D032B0B002742E7002B2E
:1056E00000D0DAE0451C6B055F0D012F00DC94E073
:1056F000154FBD4200D108E14246521863468A4226
:1057000089411C194F42E1195308CC071C43871CDF
:105710004B0804E70C4DA84200D0B4E68BE72A1CE6
:105720001F3A381CD040011C0022202B03D03F2000
:10573000431B3A1C9A401443621E94410C430127B8
:1057400000230025EBE6C046FF070000FFFF7FFFB8
:10575000FFFF0F801F1C203F6546FD402F1C0025CA
:10576000202B03D04022D31A65469D4042462A434F
:10577000551EAA413A4300239BE65B42002841D0D4
:10578000C848854200D127E180273E043443382BA6
:1057900000DDB2E01F2B00DD51E12026F01A271CAE
:1057A0000E1C8740DE4081403E43481E8141DC4064
:1057B0003143231C4446641A6046A045BF41C61AC3
:1057C0007942731A161C7CE63A1C1A4322D1002631
:1057D0000127002304220025ADE61F2B4ADC2025EB
:1057E000ED1A6246AA4091464246DA404F463A4395
:1057F0004746AF403D1C6F1EBD416746DF402A4310
:105800003B1CDCE6261C0E4369D16F1C63464446F4
:10581000161C84E61C1C051C58E6231C0B430028A0
:1058200000D0DFE0002B00D142E16546424615433F
:1058300000D1F9E05218674638198A42A441614202
:1058400043181F0200D462E1974D141C2B4002271D
:10585000012564E6231C0B43002829D1002B00D02E
:105860009BE0664644462643B1D06346161C01279A
:10587000002554E61A1C203A6746D7403A1C0025FA
:10588000202B03D04025EB1A65469D4047463D43FB
:105890006B1E9D412A43002391E65B4200283CD1C8
:1058A000201C084300D0DCE06F1C6346444636E60B
:1058B000002B54D1634641460B4300D1DCE08020ED
:1058C00063464446161C0701764D28E655460126D8
:1058D00080242E402701151C002304222BE6013BC7
:1058E000002B75D14646771A6346B84589411C1B83
:1058F0004842231A161C3C1CE3E50C4300230021FC
:10590000002C00D156E7012154E75346802201269E
:105910001E401701002304220DE66248854200D193
:10592000CFE0802217043C43382B00DDACE01F2B76
:1059300000DDD8E02022D01A271C0A1C8740DA405C
:1059400081403A43481E8141DC400A43231C4446BF
:10595000141944459241634451425B1837E6674647
:1059600045462F4365D06307C9081943E3088024DF
:105970002003034209D06746FD08054205D1414690
:10598000CE08790731432B1C161CDB00480F802200
:105990000343CC001701434DC1E56046454628430B
:1059A00042D0481B63468142BF41E31A7D425B1BE4
:1059B0001D0200D48FE04746791A6546884580412C
:1059C0002C1B4642A31B01270C1C161C0025A6E518
:1059D000344FBD4200D0DAE6161C802263464446AE
:1059E00017019CE5002B57D0624643461A4320D04E
:1059F0008020C9086707E30800033943034200D148
:105A000083E06446E208024200D07EE043466546F9
:105A1000DC086907131C0C43600FDB008022034382
:105A2000E40017011F4D7AE5231C01270C1C0025FB
:105A300075E58020231C07010C1C1A4D6FE51F1C07
:105A4000203F201CF840061C0020202B03D04020C3
:105A5000C31A201C98400143481E81413143002352
:105A6000A8E6013B002B28D141444145BF41644495
:105A70007B42E3180C1CAAE5042580276A42002615
:105A80003F010A4B074D56E50C4300230022002C32
:105A900000D15CE701225AE780252F016346444686
:105AA000004D3CE5FF070000FFFF7FFFFFFF7F0089
:105AB000634644460127002531E5174A954200D048
:105AC00032E78027634644463F0128E56B055F0DBA
:105AD0000022002346E51A1C024300D177E6041C8D
:105AE000012700251BE51F1C203F201CF840021C3D
:105AF0000020202B03D04020C31A201C98400143D3
:105B0000481E81410A43002321E70C1C84E7141C32
:105B10000127002503E5C046FF07000030B5134A02
:105B20004B00051C0803040B5B0DC90F00209342BA
:105B300011DD0F4A93420FDC802042030D481443CD
:105B4000C21A1F2A0BDD0C4AD31ADC40221C504219
:105B5000002900D1101C30BD084C0819FBE708488B
:105B6000D5402A1C1D18AC402243F0E7FE0300007C
:105B70001D0400003304000013040000FFFFFF7F3A
:105B8000EDFBFFFFF8B5041E2ED0E50F00D06442F8
:105B9000201C00F099F9174A121A0A2817DD061C72
:105BA0000B3EB44020035405060B620D0027002075
:105BB00000210B0D1B05104C334312051C401443F0
:105BC00064006408ED07211C381C2943F8BD0B262E
:105BD000331A071C1537211CDC40B9402603500539
:105BE0000F1C360B420DE2E700250022002600279D
:105BF000DDE7C0461E040000FFFF0F8070B5041EE5
:105C000028D0201C00F060F9144A121A0A2814DD6A
:105C1000051C0B3DAC4020035405050B620D00260E
:105C2000002000210B0D1B050D4C2B4312051C40C1
:105C300014436400301C610870BD0B252B1A061C30
:105C40001536211CDC40B140250350050E1C2D0BE0
:105C5000420DE5E7002200250026E1E71E040000D2
:105C6000FFFF0F8070B54100090E4202C40F481CAF
:105C7000C3B2550A012B15DDE0266B07B500120BE8
:105C80004D19002000210E0D181C36051C4B324307
:105C90006D056D0813402B435B005B08E407191C7E
:105CA000214370BD002916D1002D1ED0281C00F004
:105CB0000BF90A281DDC0B26031C321A291C15338C
:105CC000D1409D400A1C2B1C0E4912030D1A680579
:105CD000120B450DD5E7002D03D06B07120B0A4DB3
:105CE000CFE7094D00220023CBE700250022002347
:105CF000C7E7031C0B3B9D402A1C0023E4E7C0467A
:105D0000FFFF0F8089030000FF070000F0B50B1CA8
:105D10004900490D1A034F1C450F520A7E05DC0F3E
:105D20002A43730DC500012B3ADD434E8B19FE2B20
:105D300023DD802041000422FF23560105D5FF29E1
:105D400048D03E4E0B1C32400131D20831D0FF20EA
:105D50000140CF0F002501268E426F41381E28D00A
:105D6000002B2AD08025EE0332435702780ADBB29B
:105D7000DB05E40718432043F0BD002B2DDD800137
:105D8000461EB0416E0F051C35432D4FD6002A1C10
:105D9000C91932430F271740042FCED00432CCE765
:105DA00000290DD12A430121002A19D10422002300
:105DB000C3E75202500ADBB2DAE75102480AD7E7DA
:105DC0001543B6D08025A9048023D2000A43590088
:105DD000FF23DFE7FF230020CAE7173303DA01219F
:105DE00005220023A9E78023164F1B041343781ACA
:105DF0001F280CDC144A89182A1C8A40561EB241FE
:105E0000C5408B402A431A4301210023C2E70F4AB1
:105E10001E1C571AFE40371C0026202803D00C48B1
:105E20001E1C09188E40321C2A43551EAA413A43B3
:105E300001210023AEE7C04680FCFFFFFFFFFFFB10
:105E400081FCFFFF9E03000082FCFFFF7E03000039
:105E5000A2FCFFFF8446081C6146FFE71FB500F067
:105E6000CBF8002801D40021C8421FBD10B500F0B6
:105E700049F84042013010BD10B500F0BDF80028CF
:105E800001DB002010BD012010BDC04610B500F0A0
:105E9000B3F8002801DD002010BD012010BDC04670
:105EA00010B500F059F8002801DC002010BD0120D9
:105EB00010BDC04610B500F04FF8002801DA0020F0
:105EC00010BD012010BDC0461C2101231B049842B7
:105ED00001D3000C10391B0A984201D3000A08397B
:105EE0001B09984201D30009043902A2105C401832
:105EF0007047C046040302020101010100000000D6
:105F000000000000F0B543024A005B0A4400C70FDE
:105F1000160E48021A1C250E440A501E8241C90F53
:105F2000002A13D1002C0BD1A34213D1B54211D1B9
:105F300000208F4203D0281C451EA8411043F0BD0D
:105F40000120FF2EFBD0A34204D1EFE70120FF2D5B
:105F5000E8D1F4E70120F2E7F0B5474680B4430208
:105F600045004A024E00C00F5B0A2D0E8446520ABD
:105F7000360EC90F002B28D1002A3AD15C425C4171
:105F80006F426F4127405442544170427041044077
:105F900012D1002F07D04F424F41784201210843D0
:105FA00004BC9046F0BD002C0AD18C4512D063464B
:105FB000584201252843F3E70020002FE9D0EFE7FE
:105FC0006246504201263043EAE7FF2DD4D1022732
:105FD0007842E5E7B542F3DC04DB9342E7D80020E2
:105FE0009342DDD261464842484140420124204369
:105FF000D6E7FF2EC2D1EAE7F0B5474680B44302A8
:1060000044004A00C60F48025B0A240E450A120EDD
:10601000C90F002B05D00220FF2C02D104BC9046F2
:10602000F0BD002D02D00220FF2AF7D0584258417F
:10603000674267410740BC46684268415742574142
:106040000740B84611D16046002808D14746002FC6
:1060500001D18E420ED0704201263043DEE74D4220
:106060004D41684201210843D8E767460020002FD0
:10607000E9D0D3E79442EEDC04DBAB42EBD800205E
:10608000AB42CBD274427441604201221043C5E757
:1060900008B500210A2200F0BBFA08BD08B50022AD
:1060A0000A2300F00BFA08BD014B18687047C04680
:1060B000C800002070B50C4D0C4E761BB61005D0F4
:1060C000002408CD01349847A642FAD104F0E2F941
:1060D000074D084E761BB61005D0002408CD0134BC
:1060E0009847A642FAD170BDACA40008ACA4000841
:1060F000ACA40008B0A40008F0B557464E4645468B
:10610000E0B4032A0CD8002A05D00023CC5CC45488
:1061100001339342FAD11CBC90469946A246F0BD89
:106120008218031C840706D003240D7801311D70EA
:1061300001332342F9D103240C4047D06542AA46DB
:106140004E59D71A032F16DDE700BC4604273C1B27
:10615000E400A14600E03E1C544604310F594C4671
:106160003D1CA540A8466546EE404446264340C334
:10617000D61A032EEFDC9A42CDD90C7801311C706F
:1061800001339342F9D1C6E70C681C604C685C602F
:106190008C689C60CC68DC600C691C614C695C613B
:1061A0008C699C61CC69DC610C6A1C624C6A5C6223
:1061B0008C6A9C62CC6ADC620C6B1C634C6B5C630B
:1061C0008C6B9C63CC6B4031DC634033D41A3F2C26
:1061D000DADC0AE00C681C604C685C608C689C60CF
:1061E000CC681031DC601033D41A0F2CF2DC02E0E2
:1061F00010C910C3D41A032CFADCBCE730B5C9B2FD
:10620000032A07D8002A04D00023C1540133934243
:10621000FBD130BD8218031C840704D003241970FD
:1062200001332342FBD10C02641825046419D51AEA
:106230003F2D1ADD1C605C609C60DC601C615C6151
:106240009C61DC611C625C629C62DC621C635C635E
:106250009C63DC634033D51A3F2DEBDC05E01C600A
:106260005C609C60DC601033D51A0F2DF7DC01E018
:1062700010C3D51A032DFBDC9342CAD21970013327
:106280009342FBD1C5E7C046F0B5C9B2031C002953
:106290003CD0980762D01A780020002A35D0181C0C
:1062A000914232D0032204E00378002B54D099426B
:1062B0002BD001301042F7D10E020E4333041E439F
:1062C000274F0368274CDA199A43224213D17340AF
:1062D000DA199A4322420ED1021D05E0204F734085
:1062E000DD199D43254206D1101C1D4F08CADD193A
:1062F0009D432542F2D00378002B04D12CE0437853
:10630000002B29D001309942F9D1F0BD82070BD082
:106310000278002AF9D0032202E00378002BF4D09F
:1063200001301042F9D1031C1A680D4C181C1119C8
:106330000C4C9143214207D10433181C084D04CB67
:10634000511991432142F8D00378002BDDD0013060
:106350000378002BFBD1D8E70020D6E7181CABE769
:10636000FFFEFEFE8080808002780B7801300131D4
:10637000002A01D09A42F7D0D01A7047031C0A783D
:1063800001311A700133002AF9D17047F0B50025A8
:10639000002A37D00B1C03430324234034D1032AA3
:1063A00032D904680D68AC422ED1043A1D1C002A73
:1063B00028D0234EA519A543224E2C1C1D1C344267
:1063C00020D1051D0C1DB4460FE008CD02CC8B4238
:1063D00011D1043A002A30D0391C194F301CDE1973
:1063E0009E43331C6646334227D1061D0F1D032AE8
:1063F000EBD8002A03D0013A391C301C05E004799F
:106400000D79651B281CF0BD013A04780D78AC426B
:10641000F7D10025002AF5D0002CF3D0431C013120
:10642000801805E0834208D0002C06D001330131EA
:106430001C780D78AC42F5D0E3E70025E2E7C046D2
:10644000FFFEFEFE80808080F0B50E1C0643032414
:106450000D1C031C344201D194421BD3031C002A9F
:1064600017D00C78013A1C7001310133002C08D090
:10647000002A0ED00C78013A1C7001310133002C37
:10648000F6D19C180021002A03D019700133A342D1
:10649000FBD1F0BD074FAC46074910CD6618A643A7
:1064A0003E4205D1043A10C3032AF4D8291CD6E78A
:1064B0006146D4E780808080FFFEFEFEF0B55F4637
:1064C00056464D464446F0B49846504B85B0009130
:1064D0001F6803900B1C0292082100E02B1C1C7803
:1064E0005D1C3A1952781142F8D12D2C6CD000263F
:1064F00001962B2C00D176E04046434243411028C0
:106500004FD0C246002B4CD1019E5146734273417D
:1065100080263606F61A301CFCF75AFE301C8946D7
:106520005146FCF711FE03260421002200238C466D
:10653000B34610E0303CA0451BDD98423CD3002A16
:106540003ADB4C4501DD834236D051464B430122B4
:10655000E3182C7801353919497866460E42E9D19D
:106560005E46314005D05726012917D0A41BA0450F
:10657000E3DC561C2DD0019E5842002E22D0029EF4
:10658000002E04D0002A1AD1009E02990E6005B098
:106590003CBC90469946A246AB46F0BD3726A41BAC
:1065A000E5E7302C22D0C246002BADD0302C28D0CD
:1065B0000A239A469846A7E701225242C9E7013DBD
:1065C0000095E1E7181CDAE701265C789D1C01962E
:1065D00092E7019E8020734273410006039EC01A19
:1065E00022233360CBE75C789D1C85E72A78582A04
:1065F00001D0782AD7D110216C788A460235884696
:1066000082E70822924690467EE7C046F8040020C2
:1066100038B5131C044A051C0C1C1068291C221CCC
:10662000FFF74CFF38BDC046C80000200000000046
:10663000F8B5041C101C0D1CFFF7E0FA221C2B1CE3
:10664000061C0F1CFEF78AFC069A079BFDF71AFD35
:10665000084B074A0D1C041C391C301CFDF712FDA9
:10666000021C0B1C201C291CFEF77AF8F8BDC04642
:10667000000000000000F03FD3B5061C0F1C3B1CBF
:10668000141C06980799321CFEF7B2FE0090019187
:10669000201CFFF777FA0B4B094AFDF7F3FC021CAD
:1066A0000B1C09480949FEF75BF8021C0B1C0098FB
:1066B0000199FEF753FC321C3B1CFDF7E3FCDCBDEB
:1066C000000000000000F03F00000000000000405B
:1066D00037B5141C52682388551C00900191A0689E
:1066E000E16865609D4202D2FFF7A2FF02E01A1C3A
:1066F000FFF7C2FFA060E16037BD000000000000AE
:10670000F0B589B03E4C3F4D3F4A059006913F4859
:106710003F490023A260E3602361A361E361236238
:106720006362AA60EB602B61AB61EB612B626B6211
:10673000616069602060286000F098FB00F0D0FB89
:10674000079000F0D3FBFFF71DFA0F1C061C00F0AA
:10675000D3FBFFF717FA00900191009A019B301CC0
:10676000391CFCF779FA321C029003913B1C301C57
:10677000391CFEF7F3FB061C0F1C00980199021C44
:106780000B1CFEF7EBFB021C0B1C301C391CFDF72D
:1067900079FCFCF765FA061C07980F1CFFF7F2F965
:1067A000802212063B1C8918321CFDF7D9FFFCF72A
:1067B000B7F8124B104A061C0F1C02980399FEF7FB
:1067C000CDFBFFF7A3FA0D4B0B4AE060391C301CE0
:1067D000FEF7C4FBFFF79AFA0E4B069AE8601A60C0
:1067E0000598FCF79FFD0C4B002218600B4B1A60BC
:1067F00009B0F0BDC046C04600000020DCA54C40FA
:10680000700A0020300A00208FC2F53C6F12833AD4
:10681000A69B443BFC0500201C060020000600202F
:10682000014B18687047C046F8050020014B1868F6
:106830007047C04610060020014B18687047C046DC
:106840001406002008B500F0BBFE08BD00000000E3
:10685000F0B58FB0FFF7F6FF5D4B5E4C051C18607E
:106860002068281AFDF7BAFB5B4B1968FCF73CFF60
:106870002560009000F034FBFFF784F9574C20604E
:10688000616000F033FBFFF77DF9554D28606960CA
:1068900000F032FBFFF776F9524E3060716000F085
:1068A00031FBFFF76FF9504A1060516000F030FB88
:1068B000FFF768F94D4B1860596000F02FFBFFF7A8
:1068C00061F94B4A106051603268736828686968E2
:1068D000FCF7C2F9394B384AFEF740FB23680690B3
:1068E000079102936368802424061C192A686B6848
:1068F000101C191C0494FEF731FB346875680F1CDA
:10690000061C221C2B1C201C291CFEF727FB021C2A
:106910000B1C301C391CFDF7B5FBFCF7A1F9021C60
:106920000B1C02980499FDF71BFFFBF7F9FF234BA3
:10693000214AFEF713FB224A224B2B4C0A900B9163
:1069400020686168FEF70AFB1D4A1E4B274C029027
:10695000039120686168FEF701FB254C254B0D90E3
:106960001A685B68059120686168FEF741FD144A6A
:10697000144BFEF7F3FA041C00980D1CFFF772F994
:106980001D4E021C0B1C201C291CFEF7E7FA326866
:106990007368FDF777FB0C4A0C4B041C0D1C34602C
:1069A0007560FCF7ABFC002828D0201C291C064A87
:1069B000064BFEF71DFD2FE000000020DCA54C403B
:1069C0000000004008AC7C3F0000000000807640E2
:1069D000F405002018060020FC050020A80A00206D
:1069E000A00A0020600A0020580A0020980A00200F
:1069F000680A00202005002008060020201C291C11
:106A0000A64BA54AFCF766FC002807D0201C291CD1
:106A1000A34AA44BFDF736FB3060716002980399DE
:106A2000A14C22690892FFF771F90899FDF796F8D1
:106A3000011C60610098FCF785FFE168FCF7ACFC85
:106A4000636A0990191C00980293FCF77BFFE769C1
:106A5000226A391C0192061CFDF780F80199FDF7A6
:106A60007DF82168FCF798FC011C0098FCF76AFF90
:106A7000A169FCF791FC311C051C381CFDF76EF870
:106A8000311C04900198FDF769F861680190009845
:106A9000FCF758FF011C0298FCF77EFCA1680C90E3
:106AA000281CFCF779FC071C391C281CFCF71CFE71
:106AB000391C061C0198FCF717FE071C069807995D
:106AC000FFF724F90999FDF749F806900699301C5B
:106AD000FCF738FF011C0998FCF75EFC0699029050
:106AE000E060381CFCF72EFF011C0898FCF754FCF2
:106AF000291C2061301CFCF725FF011C281CFDF718
:106B00002DF80499A061301CFCF71CFF011C0498AF
:106B1000FDF724F8291CE061381CFCF713FF011C69
:106B20000198FDF71BF804992062381CFCF70AFF56
:106B3000011C0C98FDF712F860620298FFF792F8BA
:106B4000FEF7ECFFC317C01858405A2804DD05981B
:106B500080210A0684180594544C059923690D98E0
:106B60000893FFF7D3F80899FCF7F8FF011C606160
:106B70000098FCF7E7FEE168FCF70EFC626A0990FA
:106B8000111C00980592FCF7DDFEE769236A391CA9
:106B90000193061CFCF7E2FF0199FCF7DFFF216877
:106BA000FCF7FAFB011C0098FCF7CCFEA169FCF78E
:106BB000F3FB311C051C381CFCF7D0FF311C049082
:106BC0000198FCF7CBFF616801900098FCF7BAFED2
:106BD000011C0598FCF7E0FB0690A168281CFCF757
:106BE000DBFB071C391C281CFCF77EFD391C061C2E
:106BF0000198FCF779FD071C0A980B99FFF786F8B6
:106C00000999FCF7ABFF00900099301CFCF79AFE45
:106C1000011C0998FCF7C0FB00990590E060381C46
:106C2000FCF790FE011C0898FCF7B6FB291C2061BC
:106C3000301CFCF787FE011C281CFCF78FFF049911
:106C4000A061301CFCF77EFE011C0498FCF786FF57
:106C5000291CE061381CFCF775FE011C0198FCF74B
:106C60007DFF04992062381CFCF76CFE011C06981D
:106C7000FCF774FF0E4B6062029C1C600D4B059C80
:106C80001C600D4B18685968FFF740F80B4B1860F3
:106C90000FB0F0BDC046C04600000000008076C0C6
:106CA0000000000000807640700A0020300A0020BA
:106CB00010060020F8050020080600201406002019
:106CC000014B01221A70704720060020014B1878F2
:106CD0007047C04620060020014B00221A70704702
:106CE0002006002037B5131C064A0C1C9188051C91
:106CF00000919068291C221C01F0F2FE4342584189
:106D00003EBDC04624060020F0B58DB004AD071C82
:106D1000039120220021281CFFF770FA124CFF205B
:106D20002870A388391C0093A068039A012301F0FE
:106D300051FF0126002813D0A1882A1C0091A068C9
:106D4000391C331C01F0CCFE002809D02A78039DA1
:106D500000262C78A24203D0044802F021FB03262F
:106D6000301C0DB0F0BDC0462406002004A1000870
:106D700038B50D1C041C01F041FE024B9D809C6047
:106D800038BDC0462406002037B5051C18E06C4607
:106D900007340F20211C0122FFF7A4FF00280AD18D
:106DA0002378692B10D0181C6C38424250410028BF
:106DB0000AD16A2B09D0022000F0F8FB013DEDB2A8
:106DC000002DE4D1012000E000203EBD73B5032476
:106DD00005010B1C14402C439E000F2569463540CD
:106DE0002C4307310C70441E0220092C0AD8032BB7
:106DF00008D8032A06D8044A10201370FFF784FF2E
:106E0000431E984176BDC0462406002013B54C00B1
:106E10000F22224004016B4622430138DA71073306
:106E200007280ED803290CD006290AD8052908D02E
:106E30000B4841701120191CFFF766FF00280DD088
:106E400006E008480849B72202F0AAFA022005E045
:106E500004480549BD2202F0A3FA012016BDC04630
:106E60002406002010A1000818A100081FB5002169
:106E70000E226846FFF7C2F9202069460E22FFF76E
:106E800031FF0123002826D169464A780978134B3F
:106E900014020C439C816C46E278A17812020A43EA
:106EA000DA806279217912020A431A81E279A179A2
:106EB00012020A435A81627A217A12020A431A8024
:106EC000E27AA17A12020A435A80627B217B120283
:106ED0000A439A80031C181C04B010BD3006002021
:106EE000014B0022985E704730060020014B0222C1
:106EF000985E704730060020014B0422985E704770
:106F000030060020014B0622985E704730060020B4
:106F1000014B0822985E704730060020014B0A2280
:106F2000985E704730060020014B0C22985E704737
:106F30003006002007481E22074B012102604160F5
:106F40008260022100221960C260044B04481A606A
:106F500002607047D40A002030050020B00A0020EB
:106F60002C05002000B51C4B1A78824232D01870D4
:106F700002280ED1194B0A210120002219609960C4
:106F80001961C82199615860DA605861DA61042199
:106F90001CE0032805D1114B0A2201201A60586019
:106FA00010E0042806D10D4B0122B4215A6019606B
:106FB000322207E005280DD1084B1E2201201A605D
:106FC000586014229A600022DA6002210448054BBE
:106FD00001601A6000BDC0461C0B0020FC0A0020A6
:106FE000280500204006002008B50520FFF7BAFF5D
:106FF00008BD08B5FFF79EFFFFF7F6FF08BD0000CC
:1070000008B4FFB509AC80CC0E4B00920E4A0E1CA2
:10701000051C01F09FFC2D18C04331183A1C231C9D
:10702000281C039401F04AFB23222A540D212D1819
:107030000A2303306970AB7004B0F0BC08BC01B027
:107040001847C046160A002029A1000813B5186980
:107050000C1C002811D0FFF71BF8094AC0B24D32B2
:1070600080211070074B00900190221C06484900B7
:10707000FFF7C6FF054B01221A60049816BDC046F3
:10708000A80900206AA10008440600204807002043
:107090007FB518690E1C1C1C002825D0FEF7F8FFD0
:1070A000C5B2012D0ED16069114C002804D0FEF745
:1070B000EFFF2061002802D10E48036A23610E49C8
:1070C00001220A600A4900950A6980230192C86872
:1070D000321C59000290094B0948FFF791FFFFF756
:1070E00088FF084D01242C60089804B070BDC0468C
:1070F000140A0020A80900204407002067A1000806
:1071000044060020480700207FB518690E1C1C1C8F
:10711000002825D0FEF7BCFFC5B2012D0ED1606955
:10712000114C002804D0FEF7B3FFE060002802D124
:107130000E48036AE3600E4901220A600A4900957D
:107140000A6980230192C868321C59000290094BD9
:107150000948FFF755FFFFF74CFF084D01242C604D
:10716000089804B070BDC046140A0020A809002089
:107170004407002067A100084406002048070020BB
:1071800013B518690C1C002813D0FEF781FFC0B29C
:10719000012803D10849094B0A681A65802200902A
:1071A00051000748221C074BFFF72AFF064C01201D
:1071B0002060049816BDC04680080020A809002061
:1071C000440600206DA100084807002073B5186927
:1071D0000E1C1C1C002821D0FEF75AFFC5B2012D41
:1071E0000CD16069002806D0FEF752FFC217111AB1
:1071F0000B4BC80FD8760B4801240460084A009551
:10720000D17E8023321C019107485900074BFFF7BC
:10721000F7FEFFF7EEFE064E01253560069876BDB7
:10722000140A002044070020440600206AA1000838
:107230004807002073B518690E1C1C1C00281ED0BE
:10724000FEF726FFC5B2012D09D16069002803D0E1
:10725000FEF71EFF0B4B98760B4801220260094A8D
:107260000095937E802569000193321C074B0848E6
:10727000FFF7C6FEFFF7BDFE064C01212160069810
:1072800076BDC046140A0020440700206AA1000809
:10729000440600204807002010B5186988B00C1C6F
:1072A00000281CD0FEF7F4FEC3B200930D4B9A7E6B
:1072B0000192D87D029019690B480391DA68802108
:1072C000023304920593221C084B0690490008489B
:1072D000FFF796FEFFF78DFE064B01221A600A9813
:1072E00008B010BD140A00204CA1000837A1000806
:1072F000440600204807002070B5186986B00E1CAF
:107300001C1C00283DD0FEF7C3FEC5B2012D24D1C0
:107310006069002803D0FEF7BBFE1B4B9882A06972
:10732000002803D0FEF7B4FE1749C875E0690028AD
:1073300006D0FEF7ADFEC21E1B2A01D8124B1876EE
:10734000206A002806D0FEF7A3FEC41E1B2C01D81D
:107350000D4948760D4A012010600B4900958D8A31
:1073600080230195CA7D01250292087E321C03907C
:107370004C7E07485900074B0494FFF741FE064E28
:1073800035600A9806B070BD140A0020440700203A
:107390004406002061A100084807002038B5041CFD
:1073A000151CFEF771FF002803D0001BA84200DD6A
:1073B000281C38BDF7B518690F1C1C1C002824D0E8
:1073C000FEF766FEC5B2012D12D1114E00210A2230
:1073D000301CFEF713FF646923210A22201CFFF7EB
:1073E000DDFF211C021C301CFFF72EF8094B1D602D
:1073F00000958021064D3A1C07484900074B01952E
:10740000FFF7FEFD0648012202600898FEBDC04657
:10741000160A0020440700204406002080A100082E
:1074200048070020F0B5A5B006900591079221A865
:1074300000210B22FEF7E2FE002613E0059A935D81
:107440000A2B03D0232B01D0002B0AD10136002EAA
:1074500000D19EE0059B002404931F1C0394251C6F
:107460004EE0013607988642E8DB002691E0059A57
:107470000499135D013104910A2B05D02C2B03D004
:10748000232B01D0002B37D1039B002B26D0381C97
:1074900041490422FEF77AFF002800D1051C281C70
:1074A0001921FBF7F5FE880008A94750002D02D0EE
:1074B000022D13D108E0381C37490422FEF766FF7D
:1074C000002864D101250CE0039A0A2A00DD0A2273
:1074D00021A8391CFEF710FE032502E00135182D06
:1074E00010DC281C1921FBF7D3FE049F880008AB91
:1074F0000022C750039202E0039901310391013445
:10750000B442B4DB192D44DC032D42DD234C0027AB
:107510002760234C25E021A8FEF726FF0C34002825
:107520001ED10C2047431E4AD4192189069F394099
:107530002FD11C4FC82239601B48FEF75FFE079908
:107540000096019164682A1C08AB069821A9A047FF
:107550003B68041C144D002B07D000F085F804E0B4
:10756000013721680029D6D113E0002C0BDD0B4E2A
:107570003268261C002A0CD00698012809D1281C44
:1075800001F00EFF05E0002C03D1261C01E00125CF
:107590006E42301C25B0F0BD70A1000848070020E5
:1075A00034050020440700204406002000B5034BAA
:1075B0001A68801819688142FCD300BD7C0800203D
:1075C00010B50648064A0368FA21013390688C001A
:1075D00048215C43FBF7B8FD201A10BD7C08002051
:1075E00010E000E010B5031C0122002002E09C5CCA
:1075F000013260408A42FADB10BD08B502F026F87D
:1076000008BD0000F8B5061C0C1C171C02F01EF883
:10761000342002F033F8301C02F05CF8042802D069
:10762000094801F0BDFE002508E002CC02F06AF82E
:10763000042802D0054801F0B3FE0435A819BD4264
:10764000F3DB02F013F8F8BDC7A10008DAA10008C7
:1076500010B50B1C03E0441AE418246810C35C1A2C
:107660009442F8DB10BD0000F0B5C1B0124801F043
:1076700097FE124D0226802164236E704E002B70FF
:107680000021321C68466C46FEF7B8FD07CD07C4E2
:10769000221C83CD83C22868FF2110606846FFF753
:1076A000A1FF6B46FF33187069460548321CFFF78F
:1076B000A9FF41B0F0BDC046EDA10008140A0020AA
:1076C00000F8000810B50E4C6378022B17D00D4956
:1076D000A01CFEF753FE0020032106232061E0607A
:1076E000A182A07501226420022120702376637696
:1076F000A2766170FFF7B8FF034801F051FE10BD9C
:10770000140A0020FCA1000807A2000870B5C0B050
:107710002348802401F044FE620000216846FEF701
:107720006DFD80221F4869465200FFF791FF6D46AC
:107730006846FF21FFF756FF2B781B4C642B0CD1BA
:107740006E46FF363178814207D1231C07CD07C32F
:107750001A1C43CD43C228681060FFF7B3FF257E93
:10776000022D06D8A18A05262676012901D80322F2
:10777000A282607E022806D8A38A05256576012BA1
:1077800001D80321A182084B1C7E1E2C01D905269D
:107790001E765A7E1E2A01D90520587640B070BD4B
:1077A00023A2000800F80008140A002030B593B0A6
:1077B000334801F001FE80200CAC0121800002F072
:1077C0003FF9201C01F020FE01250023A360236166
:1077D00063612B48211C25710C9301F0FFFD802271
:1077E00051022748072201F045FE281C01F01EFE29
:1077F000802107228902224801F03CFE281C01F06A
:1078000027FE1F4801F03CFE1D48022101F060FEEA
:107810001B48291C01F051FE1948291C01F0FCFDF0
:107820001748012101F05CFE0028F9D0144801F04E
:107830003FFE0120011C02F0F5F8124801F060FE45
:107840008022114D06925100104B80220791022494
:107850009101802001930295C300002504940A91B0
:10786000202401A9074808930395059509940B95D1
:1078700001F0C0FE0348012101F0DAFE13B030BD73
:1078800000240140080002404C0700204024014031
:1078900038B5124B5C881888FCF7A0FB051C201C2F
:1078A000FCF79CFB011C0E48FBF71EFF011C281C6B
:1078B000FCF748F80B49FBF717FF011C0A48FCF7D7
:1078C0004DF90A49FCF73EF80949FBF70DFF094954
:1078D000FBF762FDFBF726FD38BDC0464C070020D4
:1078E00040AF624A007041450080A74400007A44DE
:1078F00000007A450000F04108B5FA20800001F050
:1079000081FF08BDF0B5584B85B01E69DF68BE42E7
:1079100000D8A7E0002F00D1A4E0002E00D1A1E004
:10792000524CA56A0295656A002D01D1E5621EE000
:10793000BD4201D84E4B02E0B54202D30023E362C0
:1079400015E0701B7843FCF749FB0390F01BC6174A
:10795000801970406843FCF741FB011C0398FBF75A
:10796000C3FE4449FBF7EEFFFCF7C0FAE0623F4A72
:10797000111C65310B78002B01D0029900E0D16A0F
:107980003D480478002C05D0002B03D13B4E3C4FE2
:1079900035683D60546803701068926802940192E3
:1079A000002B32D1364F354C3A68002A02D1256877
:1079B000022D04D82668B31A042B26D900230124EB
:1079C0001A1C67421C265E432E4D0396AC59AC46EA
:1079D000002C07D0BC4201D2271C1A1C01331E2BDD
:1079E000F0D100E01A1C1C275743244A6744B961B0
:1079F00011683960FCF77AFAF8600298FCF776FAB9
:107A000038610198FCF772FA7861184B01206533F0
:107A10001E78002341421C1C1C255D43194FE819A8
:107A20000268002A14D0154D2F68053FBA4207D2CC
:107A3000A2420DD9806900280AD0141C011C07E05D
:107A4000002E05D02D68053DAA4201D30022026018
:107A500001331E2BE0D14E1C04D0044EB162074905
:107A60000C68346305B0F0BD140A0020A80900209A
:107A7000FF03000000C07F44280B00208008002086
:107A80005007002008120020F0B5CA4CADB02368A2
:107A9000012B00D8E3E3C84E20683268C74D82420C
:107AA00004D0FFF7F5FE2168286631602868FCF7EE
:107AB0001DFA1E906868FCF719FA1A90A868FCF77E
:107AC00015FABC4BBE4F1C683E681F90B44200D1F3
:107AD000C5E3FFF717FFBB49AD6A0A7E487E9446AF
:107AE000179000201E9CE617A319734063452EDCF7
:107AF0001A99179FCA178E185640BE4227DC1C24BD
:107B00004443B14FE1190F68AA4C002F0FD02268EF
:107B1000D21B1E2A0BD8CA68D717D2197A409342B3
:107B200015DC0A69D717D2197A4096420FDCA348B0
:107B30002468466A876C0C604E601E9C1A9E1F98D3
:107B400062468D618F60CC600E61486103E0013058
:107B50000F28C7D162469D490F780E2F01D900200A
:107B600008709B491E9CCF68E61B0136022E25D863
:107B700008691A9E311A013102291FD893421DDC6F
:107B8000904CF117677E76184E40BE4216DC8F4847
:107B9000884904780F681C2161438E4E01348F514F
:107BA0007118864E8D61776A04704F60B76C1E9EA7
:107BB0008F60CE601A9F1F9E0F614E618649844E72
:107BC0001E9F1A9C0878F76034610E2801D90020A6
:107BD0000870824F0E78BC461C277743754818966C
:107BE00004686646BC51754E6744746AB66C179457
:107BF0007C601E9CBD61FC601A9CBE603C611F9C49
:107C00007C61189C01340C70934220DC1A9F6D49F2
:107C1000FC174B7E3A1962409A4218DC704B1A7876
:107C20000E2A01D9002119701A781C2757430468BD
:107C30006C4817993C50C01986601E9F1A9C1F9E65
:107C4000013241608561C760046146611A70594E16
:107C50005A49012732685A4B784200248863C86326
:107C60000864486348648C641A601B941C941890E0
:107C700022942394594BE3181A681992002A39D098
:107C80009A69239F229E0023B91801361D922391E1
:107C900022961A1C17931E1C191C84464F4FDF197D
:107CA000386800280DD01B9890420AD0B8691D9FF3
:107CB0003618381AC717C0197840179F01313F1876
:107CC000179701321C330F2AE8D16046002911D0E2
:107CD000189B5A1C07D0179F189A97420ADA199BCB
:107CE0001C9A934206D919981C90301CFBF77AFA1B
:107CF000179E18961B9BD22701331C341B937900C7
:107D00008C42B7D12D4E2F4970648A8A3C20504353
:107D1000346C002325902694191C299317932493DF
:107D2000189328932793181C219320931D931C9339
:107D30001B931993D3E02B4C1E4F1E1932683F68DA
:107D4000002A00D186E0259CBF1AA74200D981E015
:107D5000279C002C0ED1F4681892E717E4197C4098
:107D600019943469E717E4197C40B76801261B941D
:107D70001C9727961B4CE418E768FE17BF1977403D
:107D8000199E2B97B74234D82769FE17BF19774041
:107D90001B9E2A97B7422CD8A7681C9EB74228D8AA
:107DA000189EB24220D318921C972B9A2A9F1992A0
:107DB0001B971EE0800800208C080020A8090020E6
:107DC00070080020140A00206410002058080020C9
:107DD0002C0B0020B00E002078080020000D0020A1
:107DE000880800204C0B00201C972A9E2B9F1B9676
:107DF0001997A769249A179CD61901340022249652
:107E000017942A97141C161C15919C46AF49B04B29
:107E100057181B6839682B93169100290FD05B1AED
:107E200025992B938B420AD82A99BB69CF1AF91747
:107E30007F184F402B97092F01DCF6180134D22709
:107E40001C327B009A42E1D1159963468C4201DDD8
:107E5000211C29969E4E9F4C37681E193268A446F5
:107E6000002A3BD0259CBF1AA74237D8289C002C5B
:107E70000ED1F068B469C7172694C41930697C40E4
:107E8000C7171D94C419B0687C4021902094101C21
:107E90006446E418E768FE17BF1977402B97012660
:107EA00028961D9F2B9EBE4218D82669F717F619F3
:107EB0007E40209F2A96BE4210D8A668219FB446D5
:107EC000BE420BD8824209D3A469269400D9101C63
:107ED0002A9F2B9A6446219420971D921C33D22707
:107EE0007A00934200D026E77B4C269B236400292E
:107EF00003D02998FBF728F9E063229E002E04D0D6
:107F00002398311CFBF720F96063179F002F04D0E2
:107F10002498391CFBF718F9A063189C002C03D097
:107F20006B4801680B1B01E0012673426B4C1B93ED
:107F3000E37D012B10D1684AD16B4E1C00D0A7E025
:107F4000916B4F1C00D0A6E0526B1C1C501C00D142
:107F5000CAE0151C0D24C7E0022B60D15E4A116CEB
:107F60004C1C0CD1D06B461C0CD1906B471C0CD117
:107F7000506B1C1C431C0AD0051C182407E00D1C68
:107F8000152404E0051C162401E0051C1724544F99
:107F9000906A536B966B38607B60D06B39610123BC
:107FA000516CBE605A420026F860796120971892A1
:107FB000371C1C92209904C920911D92002A27DBAE
:107FC0000023199346489A001258002A0ADB9E4261
:107FD00008D01D990137501AC117421819984A4004
:107FE000811819910133062BECD1002F10D01C9B66
:107FF000591C06D01998391CFBF7F4F81C9A9042CA
:1080000006DA1998391CFBF7EDF81C901D981890AA
:108010000136062ECED1189F7E1C3FD164E003248A
:10802000042B61D0A3420AD12B4A536C5F1C38D178
:10803000536B0424581C57D01D1C2A2454E0052BD4
:1080400013D1254A116C4C1C2ED1D16B4E1C2ED154
:10805000916B4F1C2ED1516C481C2ED1526B1C1CA5
:10806000511C41D0151C37243EE00024062B3BD187
:10807000194A116C4C1C23D1D16B4E1C23D1916B2E
:108080004F1C2FD1526B1C1C501C2DD0151C2AE0EC
:108090000D1C0B2428E00D1C0C2425E0189D192430
:1080A00022E01D1C29241FE00D1C33241CE00D1CA4
:1080B000342419E00D1C352416E00D1C362413E081
:1080C0000D1C3D2410E00D1C3E240DE04C0B002047
:1080D00080080020B00E0020A8090020140A00200B
:1080E000AC0500200D1C3F245E4E3168092900D8E4
:1080F000B5E05D4B1A1C4D321278012A32D15B4F2C
:1081000030683968884200D1A9E00095DA6B0192A5
:10811000996B02911D6C0395586B554D0490DA6A6A
:108120000592E9681E9A069128691F991A9D079081
:10813000504809950A9108920278179D1B990B9255
:108140000C950D910E94186E1A1C0F9065321478D0
:108150001094196A5A6A4848DB6901F021F93568B8
:108160003D607CE0424FB97E002978D037683F4EB1
:1081700030683E1A8E4272D3EF43596BF8170540B0
:10818000002901DA00265E63D96B002901DA00209C
:10819000D8631F6C002F01DA00261E64996B00293A
:1081A00001DA00209863304B0095632A2DD19D6B36
:1081B0001E9A0195586B1A9D0290D96A1F980391D7
:1081C000DE6B2C4904961F6C069205970795089064
:1081D0000E78179F1B9A0996254E0A970B92B58A1F
:1081E0000C95F07D1D1C0D90317E65350E91777ECE
:1081F00010940F971A6E11922C7820481294196AD5
:108200005A6ADB6901F0CCF825E0996B1E98019160
:108210005E6B1A990296DF6A1F9E0397DA6B0492CF
:108220001D6C08960595069007911F6E1A1C0997FC
:10823000653215780E4E0A95F068114A0B90316937
:1082400010480C91F77D0E920D970F94196A5A6A97
:10825000DB6901F0A5F80348044B04681C602DB0ED
:10826000F0BDC04680080020A80900209408002026
:10827000140A00208808002031A20008ABA20008E0
:10828000CCA3000847A3000808B505490B782A2BA2
:1082900004D1012080228240FFF7C4F808BDC04607
:1082A0005807002000000000F7B5674B1A68042A41
:1082B00008DC6649C969002904D06548940021504A
:1082C000013200E000221A601A68042A01DD00254C
:1082D0001D605F4B0025191C1431281C04CB002A9B
